{
  "contractName": "DataSending",
  "abi": [
    {
      "inputs": [],
      "payable": false,
      "stateMutability": "nonpayable",
      "type": "constructor"
    },
    {
      "constant": true,
      "inputs": [],
      "name": "checkBlacklisted",
      "outputs": [
        {
          "internalType": "uint256",
          "name": "",
          "type": "uint256"
        }
      ],
      "payable": false,
      "stateMutability": "view",
      "type": "function"
    },
    {
      "constant": false,
      "inputs": [
        {
          "internalType": "string",
          "name": "pubkey",
          "type": "string"
        }
      ],
      "name": "registration",
      "outputs": [],
      "payable": true,
      "stateMutability": "payable",
      "type": "function"
    },
    {
      "constant": false,
      "inputs": [],
      "name": "removeFromFaulty",
      "outputs": [],
      "payable": true,
      "stateMutability": "payable",
      "type": "function"
    },
    {
      "constant": true,
      "inputs": [],
      "name": "transaction",
      "outputs": [
        {
          "internalType": "bool",
          "name": "",
          "type": "bool"
        }
      ],
      "payable": false,
      "stateMutability": "view",
      "type": "function"
    },
    {
      "constant": false,
      "inputs": [
        {
          "internalType": "address payable",
          "name": "dest",
          "type": "address"
        }
      ],
      "name": "doTrans",
      "outputs": [],
      "payable": false,
      "stateMutability": "nonpayable",
      "type": "function"
    },
    {
      "constant": false,
      "inputs": [
        {
          "internalType": "int256[]",
          "name": "coordinates",
          "type": "int256[]"
        }
      ],
      "name": "registerCoordinates",
      "outputs": [],
      "payable": true,
      "stateMutability": "payable",
      "type": "function"
    },
    {
      "constant": true,
      "inputs": [],
      "name": "getTable",
      "outputs": [
        {
          "internalType": "uint256",
          "name": "",
          "type": "uint256"
        },
        {
          "internalType": "uint256",
          "name": "",
          "type": "uint256"
        },
        {
          "internalType": "address[]",
          "name": "",
          "type": "address[]"
        }
      ],
      "payable": false,
      "stateMutability": "view",
      "type": "function"
    },
    {
      "constant": false,
      "inputs": [],
      "name": "updateGraph",
      "outputs": [],
      "payable": false,
      "stateMutability": "nonpayable",
      "type": "function"
    },
    {
      "constant": false,
      "inputs": [],
      "name": "success",
      "outputs": [
        {
          "internalType": "bool",
          "name": "",
          "type": "bool"
        }
      ],
      "payable": true,
      "stateMutability": "payable",
      "type": "function"
    },
    {
      "constant": false,
      "inputs": [],
      "name": "sendBackToken",
      "outputs": [],
      "payable": true,
      "stateMutability": "payable",
      "type": "function"
    },
    {
      "constant": false,
      "inputs": [
        {
          "internalType": "uint256",
          "name": "x",
          "type": "uint256"
        }
      ],
      "name": "unsuccessful",
      "outputs": [],
      "payable": true,
      "stateMutability": "payable",
      "type": "function"
    },
    {
      "constant": true,
      "inputs": [],
      "name": "returnCulprit",
      "outputs": [
        {
          "internalType": "address payable",
          "name": "",
          "type": "address"
        }
      ],
      "payable": false,
      "stateMutability": "view",
      "type": "function"
    },
    {
      "constant": false,
      "inputs": [],
      "name": "transCompleted",
      "outputs": [],
      "payable": true,
      "stateMutability": "payable",
      "type": "function"
    },
    {
      "constant": false,
      "inputs": [
        {
          "internalType": "string",
          "name": "x",
          "type": "string"
        }
      ],
      "name": "send",
      "outputs": [],
      "payable": false,
      "stateMutability": "nonpayable",
      "type": "function"
    },
    {
      "constant": true,
      "inputs": [],
      "name": "getData",
      "outputs": [
        {
          "internalType": "string",
          "name": "",
          "type": "string"
        }
      ],
      "payable": false,
      "stateMutability": "view",
      "type": "function"
    },
    {
      "constant": false,
      "inputs": [],
      "name": "abort",
      "outputs": [],
      "payable": false,
      "stateMutability": "nonpayable",
      "type": "function"
    },
    {
      "constant": true,
      "inputs": [],
      "name": "getRegistered",
      "outputs": [
        {
          "components": [
            {
              "internalType": "address payable",
              "name": "publicKey",
              "type": "address"
            },
            {
              "internalType": "string",
              "name": "encrypt",
              "type": "string"
            },
            {
              "internalType": "uint256",
              "name": "faulty",
              "type": "uint256"
            },
            {
              "internalType": "uint256",
              "name": "penaltytoken",
              "type": "uint256"
            },
            {
              "internalType": "int256",
              "name": "x",
              "type": "int256"
            },
            {
              "internalType": "int256",
              "name": "y",
              "type": "int256"
            },
            {
              "internalType": "int256",
              "name": "z",
              "type": "int256"
            },
            {
              "internalType": "uint256",
              "name": "participating",
              "type": "uint256"
            },
            {
              "internalType": "uint256",
              "name": "timestamp",
              "type": "uint256"
            },
            {
              "internalType": "uint256",
              "name": "bcs",
              "type": "uint256"
            }
          ],
          "internalType": "struct Registration.IOT",
          "name": "",
          "type": "tuple"
        },
        {
          "internalType": "uint256",
          "name": "",
          "type": "uint256"
        },
        {
          "internalType": "uint256",
          "name": "",
          "type": "uint256"
        }
      ],
      "payable": false,
      "stateMutability": "view",
      "type": "function"
    }
  ],
  "bytecode": "0x608060405260006009553480156200001657600080fd5b506000600160146101000a81548160ff021916908315150217905550604051806101400160405280734163ff488abd6d2f8c006ca4912018831687460e73ffffffffffffffffffffffffffffffffffffffff16815260200160405180610140016040528061010f8152602001620050be61010f91398152602001600081526020016000815260200160008152602001600081526020016000815260200160018152602001600081526020016001815250600560006001815260200190815260200160002060008201518160000160006101000a81548173ffffffffffffffffffffffffffffffffffffffff021916908373ffffffffffffffffffffffffffffffffffffffff16021790555060208201518160010190805190602001906200013f92919062001316565b5060408201518160020155606082015181600301556080820151816004015560a0820151816005015560c0820151816006015560e08201518160070155610100820151816008015561012082015181600901559050506040518061014001604052807366cee9ecfe00fa42aca3877a649070d67fdcb6c673ffffffffffffffffffffffffffffffffffffffff16815260200160405180610140016040528061010f81526020016200571861010f91398152602001600081526020016000815260200160048152602001600081526020016000815260200160018152602001600081526020016001815250600560006002815260200190815260200160002060008201518160000160006101000a81548173ffffffffffffffffffffffffffffffffffffffff021916908373ffffffffffffffffffffffffffffffffffffffff1602179055506020820151816001019080519060200190620002a292919062001316565b5060408201518160020155606082015181600301556080820151816004015560a0820151816005015560c0820151816006015560e08201518160070155610100820151816008015561012082015181600901559050506040518061014001604052807390ff3d06b36f676a2e7c9585736fe60d2e1cff3273ffffffffffffffffffffffffffffffffffffffff16815260200160405180610140016040528061010f81526020016200560961010f91398152602001600081526020016000815260200160088152602001600081526020016000815260200160018152602001600081526020016001815250600560006003815260200190815260200160002060008201518160000160006101000a81548173ffffffffffffffffffffffffffffffffffffffff021916908373ffffffffffffffffffffffffffffffffffffffff16021790555060208201518160010190805190602001906200040592919062001316565b5060408201518160020155606082015181600301556080820151816004015560a0820151816005015560c0820151816006015560e0820151816007015561010082015181600801556101208201518160090155905050604051806101400160405280731ce49a244a75c7ed5fb2aca28311b4077c378f5e73ffffffffffffffffffffffffffffffffffffffff16815260200160405180610140016040528061010f81526020016200582761010f91398152602001600081526020016000815260200160008152602001600281526020016000815260200160008152602001600081526020016000815250600560006004815260200190815260200160002060008201518160000160006101000a81548173ffffffffffffffffffffffffffffffffffffffff021916908373ffffffffffffffffffffffffffffffffffffffff16021790555060208201518160010190805190602001906200056892919062001316565b5060408201518160020155606082015181600301556080820151816004015560a0820151816005015560c0820151816006015560e082015181600701556101008201518160080155610120820151816009015590505060405180610140016040528073829d1fced32c5ef746115369e116a9364095892f73ffffffffffffffffffffffffffffffffffffffff16815260200160405180610140016040528061010f8152602001620054fa61010f91398152602001600081526020016000815260200160008152602001600481526020016000815260200160008152602001600081526020016000815250600560006005815260200190815260200160002060008201518160000160006101000a81548173ffffffffffffffffffffffffffffffffffffffff021916908373ffffffffffffffffffffffffffffffffffffffff1602179055506020820151816001019080519060200190620006cb92919062001316565b5060408201518160020155606082015181600301556080820151816004015560a0820151816005015560c0820151816006015560e082015181600701556101008201518160080155610120820151816009015590505060405180610140016040528073871adc5909527dbb4345e730d20cd47a8f5fcb7373ffffffffffffffffffffffffffffffffffffffff16815260200160405180610140016040528061010f8152602001620051cd61010f91398152602001600081526020016000815260200160028152602001600481526020016000815260200160008152602001600081526020016000815250600560006006815260200190815260200160002060008201518160000160006101000a81548173ffffffffffffffffffffffffffffffffffffffff021916908373ffffffffffffffffffffffffffffffffffffffff16021790555060208201518160010190805190602001906200082e92919062001316565b5060408201518160020155606082015181600301556080820151816004015560a0820151816005015560c0820151816006015560e082015181600701556101008201518160080155610120820151816009015590505060405180610140016040528073ed2b7c4e75481c5e8ae4dce396a0b1586b93569473ffffffffffffffffffffffffffffffffffffffff16815260200160405180610140016040528061010f8152602001620052dc61010f91398152602001600081526020016000815260200160048152602001600481526020016000815260200160008152602001600081526020016000815250600560006007815260200190815260200160002060008201518160000160006101000a81548173ffffffffffffffffffffffffffffffffffffffff021916908373ffffffffffffffffffffffffffffffffffffffff16021790555060208201518160010190805190602001906200099192919062001316565b5060408201518160020155606082015181600301556080820151816004015560a0820151816005015560c0820151816006015560e0820151816007015561010082015181600801556101208201518160090155905050604051806101400160405280737120026ddfa77a1b0902ccc20d38a8e3506c78a373ffffffffffffffffffffffffffffffffffffffff16815260200160405180610140016040528061010f8152602001620053eb61010f91398152602001600081526020016000815260200160048152602001600281526020016000815260200160008152602001600081526020016000815250600560006008815260200190815260200160002060008201518160000160006101000a81548173ffffffffffffffffffffffffffffffffffffffff021916908373ffffffffffffffffffffffffffffffffffffffff160217905550602082015181600101908051906020019062000af492919062001316565b5060408201518160020155606082015181600301556080820151816004015560a0820151816005015560c0820151816006015560e082015181600701556101008201518160080155610120820151816009015590505060405180610140016040528073ebc60a23fe77e28d3a04663b4f4e391d690525e073ffffffffffffffffffffffffffffffffffffffff16815260200160405180610140016040528061010f81526020016200593661010f91398152602001600081526020016000815260200160008152602001600081526020016000815260200160008152602001600081526020016000815250600560006009815260200190815260200160002060008201518160000160006101000a81548173ffffffffffffffffffffffffffffffffffffffff021916908373ffffffffffffffffffffffffffffffffffffffff160217905550602082015181600101908051906020019062000c5792919062001316565b5060408201518160020155606082015181600301556080820151816004015560a0820151816005015560c0820151816006015560e0820151816007015561010082015181600801556101208201518160090155905050600a60046000731ce49a244a75c7ed5fb2aca28311b4077c378f5e73ffffffffffffffffffffffffffffffffffffffff1673ffffffffffffffffffffffffffffffffffffffff16815260200190815260200160002081905550600160066000600560006001815260200190815260200160002060000160009054906101000a900473ffffffffffffffffffffffffffffffffffffffff1673ffffffffffffffffffffffffffffffffffffffff1673ffffffffffffffffffffffffffffffffffffffff16815260200190815260200160002081905550600260066000600560006002815260200190815260200160002060000160009054906101000a900473ffffffffffffffffffffffffffffffffffffffff1673ffffffffffffffffffffffffffffffffffffffff1673ffffffffffffffffffffffffffffffffffffffff16815260200190815260200160002081905550600360066000600560006003815260200190815260200160002060000160009054906101000a900473ffffffffffffffffffffffffffffffffffffffff1673ffffffffffffffffffffffffffffffffffffffff1673ffffffffffffffffffffffffffffffffffffffff16815260200190815260200160002081905550600460066000600560006004815260200190815260200160002060000160009054906101000a900473ffffffffffffffffffffffffffffffffffffffff1673ffffffffffffffffffffffffffffffffffffffff1673ffffffffffffffffffffffffffffffffffffffff16815260200190815260200160002081905550600560066000600560006005815260200190815260200160002060000160009054906101000a900473ffffffffffffffffffffffffffffffffffffffff1673ffffffffffffffffffffffffffffffffffffffff1673ffffffffffffffffffffffffffffffffffffffff168152602001908152602001600020819055506006806000600560006006815260200190815260200160002060000160009054906101000a900473ffffffffffffffffffffffffffffffffffffffff1673ffffffffffffffffffffffffffffffffffffffff1673ffffffffffffffffffffffffffffffffffffffff16815260200190815260200160002081905550600760066000600560006007815260200190815260200160002060000160009054906101000a900473ffffffffffffffffffffffffffffffffffffffff1673ffffffffffffffffffffffffffffffffffffffff1673ffffffffffffffffffffffffffffffffffffffff16815260200190815260200160002081905550600860066000600560006008815260200190815260200160002060000160009054906101000a900473ffffffffffffffffffffffffffffffffffffffff1673ffffffffffffffffffffffffffffffffffffffff1673ffffffffffffffffffffffffffffffffffffffff16815260200190815260200160002081905550600960066000600560006009815260200190815260200160002060000160009054906101000a900473ffffffffffffffffffffffffffffffffffffffff1673ffffffffffffffffffffffffffffffffffffffff1673ffffffffffffffffffffffffffffffffffffffff1681526020019081526020016000208190555060026001908060018154018082558091505090600182039060005260206000200160009091929091909150555060028090806001815401808255809150509060018203906000526020600020016000909192909190915055506002600390806001815401808255809150509060018203906000526020600020016000909192909190915055506002600490806001815401808255809150509060018203906000526020600020016000909192909190915055506002600590806001815401808255809150509060018203906000526020600020016000909192909190915055506002600690806001815401808255809150509060018203906000526020600020016000909192909190915055506002600790806001815401808255809150509060018203906000526020600020016000909192909190915055506002600890806001815401808255809150509060018203906000526020600020016000909192909190915055506002600990806001815401808255809150509060018203906000526020600020016000909192909190915055506000600860006101000a81548160ff021916908315150217905550620013c5565b828054600181600116156101000203166002900490600052602060002090601f016020900481019282601f106200135957805160ff19168380011785556200138a565b828001600101855582156200138a579182015b82811115620013895782518255916020019190600101906200136c565b5b5090506200139991906200139d565b5090565b620013c291905b80821115620013be576000816000905550600101620013a4565b5090565b90565b613ce980620013d56000396000f3fe6080604052600436106100fe5760003560e01c806366792ba111610095578063af707c0b11610064578063af707c0b14610270578063c99de57e1461029b578063f3b8b7d1146102c6578063f421a16b146102e2578063fb6391ab146102ec576100fe565b806366792ba1146101e75780637a6543e2146102105780638f99123d1461023d57806396fbe5eb14610254576100fe565b80633dd8de3e116100d15780633dd8de3e1461018e57806347426fad1461019857806357c6a843146101c15780635e7c2f10146101cb576100fe565b80630b93381b146101035780632adc5d2f1461012157806335a063b41461014c5780633bc5de3014610163575b600080fd5b61010b610319565b60405161011891906139c4565b60405180910390f35b34801561012d57600080fd5b50610136610415565b6040516101439190613a3f565b60405180910390f35b34801561015857600080fd5b5061016161045c565b005b34801561016f57600080fd5b50610178610b26565b60405161018591906139df565b60405180910390f35b610196610c88565b005b3480156101a457600080fd5b506101bf60048036036101ba9190810190613605565b611145565b005b6101c9611242565b005b6101e560048036036101e0919081019061366f565b611455565b005b3480156101f357600080fd5b5061020e6004803603610209919081019061366f565b611901565b005b34801561021c57600080fd5b50610225611a57565b60405161023493929190613a01565b60405180910390f35b34801561024957600080fd5b50610252611c96565b005b61026e600480360361026991908101906136b0565b61232b565b005b34801561027c57600080fd5b50610285612b30565b60405161029291906139a9565b60405180910390f35b3480156102a757600080fd5b506102b0612b5a565b6040516102bd91906139c4565b60405180910390f35b6102e060048036036102db919081019061362e565b612b6d565b005b6102ea612ec4565b005b3480156102f857600080fd5b506103016130c0565b60405161031093929190613a5a565b60405180910390f35b6000600160009054906101000a900473ffffffffffffffffffffffffffffffffffffffff1673ffffffffffffffffffffffffffffffffffffffff163373ffffffffffffffffffffffffffffffffffffffff161415610408574260036009548154811061038157fe5b9060005260206000209060040201600301819055506001600860006101000a81548160ff02191690831515021790555060006009819055506000600160006101000a81548173ffffffffffffffffffffffffffffffffffffffff021916908373ffffffffffffffffffffffffffffffffffffffff160217905550610403612ec4565b610411565b60009050610412565b5b90565b6000600460003373ffffffffffffffffffffffffffffffffffffffff1673ffffffffffffffffffffffffffffffffffffffff16815260200190815260200160002054905090565b600080905060606002805490506040519080825280602002602001820160405280156104975781602001602082028038833980820191505090505b50905060008090505b60028054905081101561075c5760006006600060056000600286815481106104c457fe5b9060005260206000200154815260200190815260200160002060000160009054906101000a900473ffffffffffffffffffffffffffffffffffffffff1673ffffffffffffffffffffffffffffffffffffffff1673ffffffffffffffffffffffffffffffffffffffff168152602001908152602001600020819055506000600a6000600560006002868154811061055657fe5b9060005260206000200154815260200190815260200160002060000160009054906101000a900473ffffffffffffffffffffffffffffffffffffffff1673ffffffffffffffffffffffffffffffffffffffff1673ffffffffffffffffffffffffffffffffffffffff168152602001908152602001600020816105d8919061322d565b50600a6004600060056000600286815481106105f057fe5b9060005260206000200154815260200190815260200160002060000160009054906101000a900473ffffffffffffffffffffffffffffffffffffffff1673ffffffffffffffffffffffffffffffffffffffff1673ffffffffffffffffffffffffffffffffffffffff16815260200190815260200160002054116106aa576002818154811061067a57fe5b906000526020600020015482848151811061069157fe5b602002602001018181525050828060010193505061074f565b60056000600283815481106106bb57fe5b90600052602060002001548152602001908152602001600020600080820160006101000a81549073ffffffffffffffffffffffffffffffffffffffff021916905560018201600061070c9190613259565b6002820160009055600382016000905560048201600090556005820160009055600682016000905560078201600090556008820160009055600982016000905550505b80806001019150506104a0565b506002600061076b91906132a1565b60008090505b82811015610a4c57600282828151811061078757fe5b6020026020010151908060018154018082558091505090600182039060005260206000200160009091929091909150555060056000600283815481106107c957fe5b90600052602060002001548152602001908152602001600020600560006001840181526020019081526020016000206000820160009054906101000a900473ffffffffffffffffffffffffffffffffffffffff168160000160006101000a81548173ffffffffffffffffffffffffffffffffffffffff021916908373ffffffffffffffffffffffffffffffffffffffff160217905550600182018160010190805460018160011615610100020316600290046108869291906132c2565b506002820154816002015560038201548160030155600482015481600401556005820154816005015560068201548160060155600782015481600701556008820154816008015560098201548160090155905050600281815481106108e757fe5b906000526020600020015460018201146109a057600560006002838154811061090c57fe5b90600052602060002001548152602001908152602001600020600080820160006101000a81549073ffffffffffffffffffffffffffffffffffffffff021916905560018201600061095d9190613259565b6002820160009055600382016000905560048201600090556005820160009055600682016000905560078201600090556008820160009055600982016000905550505b60018101600660006005600060018601815260200190815260200160002060000160009054906101000a900473ffffffffffffffffffffffffffffffffffffffff1673ffffffffffffffffffffffffffffffffffffffff1673ffffffffffffffffffffffffffffffffffffffff168152602001908152602001600020819055506001810160028281548110610a3157fe5b90600052602060002001819055508080600101915050610771565b50606090506000600381610a609190613349565b506000600160146101000a81548160ff0219169083151502179055506000600860006101000a81548160ff021916908315150217905550600060098190555060008060006101000a81548173ffffffffffffffffffffffffffffffffffffffff021916908373ffffffffffffffffffffffffffffffffffffffff1602179055506000600160006101000a81548173ffffffffffffffffffffffffffffffffffffffff021916908373ffffffffffffffffffffffffffffffffffffffff1602179055505050565b606060056000600360095481548110610b3b57fe5b906000526020600020906004020160000154815260200190815260200160002060000160009054906101000a900473ffffffffffffffffffffffffffffffffffffffff1673ffffffffffffffffffffffffffffffffffffffff163373ffffffffffffffffffffffffffffffffffffffff161415610c7257600360095481548110610bc157fe5b90600052602060002090600402016002018054600181600116156101000203166002900480601f016020809104026020016040519081016040528092919081815260200182805460018160011615610100020316600290048015610c665780601f10610c3b57610100808354040283529160200191610c66565b820191906000526020600020905b815481529060010190602001808311610c4957829003601f168201915b50505050509050610c85565b6040518060200160405280600081525090505b90565b6000600660003373ffffffffffffffffffffffffffffffffffffffff1673ffffffffffffffffffffffffffffffffffffffff1681526020019081526020016000205414158015610d2e5750600060056000600660003373ffffffffffffffffffffffffffffffffffffffff1673ffffffffffffffffffffffffffffffffffffffff1681526020019081526020016000205481526020019081526020016000206002015414155b15611142573460056000600660003373ffffffffffffffffffffffffffffffffffffffff1673ffffffffffffffffffffffffffffffffffffffff16815260200190815260200160002054815260200190815260200160002060030154148015610e43575060056000600660003373ffffffffffffffffffffffffffffffffffffffff1673ffffffffffffffffffffffffffffffffffffffff1681526020019081526020016000205481526020019081526020016000206002015460056000600660003373ffffffffffffffffffffffffffffffffffffffff1673ffffffffffffffffffffffffffffffffffffffff16815260200190815260200160002054815260200190815260200160002060080154420311155b15610f5e57600060056000600660003373ffffffffffffffffffffffffffffffffffffffff1673ffffffffffffffffffffffffffffffffffffffff16815260200190815260200160002054815260200190815260200160002060030181905550600060056000600660003373ffffffffffffffffffffffffffffffffffffffff1673ffffffffffffffffffffffffffffffffffffffff16815260200190815260200160002054815260200190815260200160002060020181905550600060056000600660003373ffffffffffffffffffffffffffffffffffffffff1673ffffffffffffffffffffffffffffffffffffffff1681526020019081526020016000205481526020019081526020016000206008018190555061113d565b60056000600660003373ffffffffffffffffffffffffffffffffffffffff1673ffffffffffffffffffffffffffffffffffffffff1681526020019081526020016000205481526020019081526020016000206002015460056000600660003373ffffffffffffffffffffffffffffffffffffffff1673ffffffffffffffffffffffffffffffffffffffff168152602001908152602001600020548152602001908152602001600020600801544203111561113c57671bc16d674ec8000060056000600660003373ffffffffffffffffffffffffffffffffffffffff1673ffffffffffffffffffffffffffffffffffffffff16815260200190815260200160002054815260200190815260200160002060030160008282540192505081905550600a60056000600660003373ffffffffffffffffffffffffffffffffffffffff1673ffffffffffffffffffffffffffffffffffffffff168152602001908152602001600020548152602001908152602001600020600201600082825401925050819055504260056000600660003373ffffffffffffffffffffffffffffffffffffffff1673ffffffffffffffffffffffffffffffffffffffff168152602001908152602001600020548152602001908152602001600020600801819055505b5b611143565b5b565b60001515600160149054906101000a900460ff16151514801561119457508073ffffffffffffffffffffffffffffffffffffffff163373ffffffffffffffffffffffffffffffffffffffff1614155b61119d57600080fd5b60018060146101000a81548160ff021916908315150217905550336000806101000a81548173ffffffffffffffffffffffffffffffffffffffff021916908373ffffffffffffffffffffffffffffffffffffffff16021790555080600160006101000a81548173ffffffffffffffffffffffffffffffffffffffff021916908373ffffffffffffffffffffffffffffffffffffffff1602179055504260078190555050565b6000809054906101000a900473ffffffffffffffffffffffffffffffffffffffff1673ffffffffffffffffffffffffffffffffffffffff163373ffffffffffffffffffffffffffffffffffffffff161480156112b1575060011515600160149054906101000a900460ff161515145b80156112d0575060011515600860009054906101000a900460ff161515145b6112d957600080fd5b6000600981905550600080905060006002600380549050031461130b57600260038054905003348161130757fe5b0490505b6000600190505b6001600380549050038110156113ca57600560006003838154811061133357fe5b906000526020600020906004020160000154815260200190815260200160002060000160009054906101000a900473ffffffffffffffffffffffffffffffffffffffff1673ffffffffffffffffffffffffffffffffffffffff166108fc839081150290604051600060405180830381858888f193505050501580156113bc573d6000803e3d6000fd5b508080600101915050611312565b5060006003816113da9190613349565b506000600160146101000a81548160ff0219169083151502179055506000600860006101000a81548160ff02191690831515021790555060008060006101000a81548173ffffffffffffffffffffffffffffffffffffffff021916908373ffffffffffffffffffffffffffffffffffffffff16021790555050565b6000600660003373ffffffffffffffffffffffffffffffffffffffff1673ffffffffffffffffffffffffffffffffffffffff168152602001908152602001600020541480156114e357506000600460003373ffffffffffffffffffffffffffffffffffffffff1673ffffffffffffffffffffffffffffffffffffffff16815260200190815260200160002054145b80156114f65750674563918244f4000034145b156118f85760026001600280549050019080600181540180825580915050906001820390600052602060002001600090919290919091505550600280549050600660003373ffffffffffffffffffffffffffffffffffffffff1673ffffffffffffffffffffffffffffffffffffffff168152602001908152602001600020819055503360056000600660003373ffffffffffffffffffffffffffffffffffffffff1673ffffffffffffffffffffffffffffffffffffffff16815260200190815260200160002054815260200190815260200160002060000160006101000a81548173ffffffffffffffffffffffffffffffffffffffff021916908373ffffffffffffffffffffffffffffffffffffffff1602179055508060056000600660003373ffffffffffffffffffffffffffffffffffffffff1673ffffffffffffffffffffffffffffffffffffffff168152602001908152602001600020548152602001908152602001600020600101908051906020019061167592919061337b565b50600060056000600660003373ffffffffffffffffffffffffffffffffffffffff1673ffffffffffffffffffffffffffffffffffffffff16815260200190815260200160002054815260200190815260200160002060020181905550600060056000600660003373ffffffffffffffffffffffffffffffffffffffff1673ffffffffffffffffffffffffffffffffffffffff16815260200190815260200160002054815260200190815260200160002060030181905550600060056000600660003373ffffffffffffffffffffffffffffffffffffffff1673ffffffffffffffffffffffffffffffffffffffff16815260200190815260200160002054815260200190815260200160002060070181905550600060056000600660003373ffffffffffffffffffffffffffffffffffffffff1673ffffffffffffffffffffffffffffffffffffffff16815260200190815260200160002054815260200190815260200160002060090181905550600060056000600660003373ffffffffffffffffffffffffffffffffffffffff1673ffffffffffffffffffffffffffffffffffffffff16815260200190815260200160002054815260200190815260200160002060040181905550600060056000600660003373ffffffffffffffffffffffffffffffffffffffff1673ffffffffffffffffffffffffffffffffffffffff16815260200190815260200160002054815260200190815260200160002060050181905550600060056000600660003373ffffffffffffffffffffffffffffffffffffffff1673ffffffffffffffffffffffffffffffffffffffff168152602001908152602001600020548152602001908152602001600020600601819055506118fd565b6118fe565b5b50565b6005600060036009548154811061191457fe5b906000526020600020906004020160000154815260200190815260200160002060000160009054906101000a900473ffffffffffffffffffffffffffffffffffffffff1673ffffffffffffffffffffffffffffffffffffffff163373ffffffffffffffffffffffffffffffffffffffff161461198f57600080fd5b600060095414156119d057806003600954815481106119aa57fe5b906000526020600020906004020160020190805190602001906119ce92919061337b565b505b426003600954815481106119e057fe5b90600052602060002090600402016003018190555060016003805490500360016009540111611a425780600360016009540181548110611a1c57fe5b90600052602060002090600402016002019080519060200190611a4092919061337b565b505b60096000815480929190600101919050555050565b611a5f6133fb565b60008060056000600660003373ffffffffffffffffffffffffffffffffffffffff1673ffffffffffffffffffffffffffffffffffffffff168152602001908152602001600020548152602001908152602001600020600460003373ffffffffffffffffffffffffffffffffffffffff1673ffffffffffffffffffffffffffffffffffffffff16815260200190815260200160002054600660003373ffffffffffffffffffffffffffffffffffffffff1673ffffffffffffffffffffffffffffffffffffffff1681526020019081526020016000205482604051806101400160405290816000820160009054906101000a900473ffffffffffffffffffffffffffffffffffffffff1673ffffffffffffffffffffffffffffffffffffffff1673ffffffffffffffffffffffffffffffffffffffff168152602001600182018054600181600116156101000203166002900480601f016020809104026020016040519081016040528092919081815260200182805460018160011615610100020316600290048015611c305780601f10611c0557610100808354040283529160200191611c30565b820191906000526020600020905b815481529060010190602001808311611c1357829003601f168201915b50505050508152602001600282015481526020016003820154815260200160048201548152602001600582015481526020016006820154815260200160078201548152602001600882015481526020016009820154815250509250925092509250909192565b6000809054906101000a900473ffffffffffffffffffffffffffffffffffffffff1673ffffffffffffffffffffffffffffffffffffffff163373ffffffffffffffffffffffffffffffffffffffff161480611d535750600560006001815260200190815260200160002060000160009054906101000a900473ffffffffffffffffffffffffffffffffffffffff1673ffffffffffffffffffffffffffffffffffffffff163373ffffffffffffffffffffffffffffffffffffffff16145b80611dc05750600560006002815260200190815260200160002060000160009054906101000a900473ffffffffffffffffffffffffffffffffffffffff1673ffffffffffffffffffffffffffffffffffffffff163373ffffffffffffffffffffffffffffffffffffffff16145b80611e2d5750600560006003815260200190815260200160002060000160009054906101000a900473ffffffffffffffffffffffffffffffffffffffff1673ffffffffffffffffffffffffffffffffffffffff163373ffffffffffffffffffffffffffffffffffffffff16145b8015611e4c575060011515600160149054906101000a900460ff161515145b611e5557600080fd5b60008090505b600280549050811015612328576000600a60006005600060028681548110611e7f57fe5b9060005260206000200154815260200190815260200160002060000160009054906101000a900473ffffffffffffffffffffffffffffffffffffffff1673ffffffffffffffffffffffffffffffffffffffff1673ffffffffffffffffffffffffffffffffffffffff16815260200190815260200160002081611f01919061322d565b5060016005600060028481548110611f1557fe5b9060005260206000200154815260200190815260200160002060070154141561231b5760008090505b60028054905081101561231957808214158015611f88575060016005600060028481548110611f6957fe5b9060005260206000200154815260200190815260200160002060070154145b1561230c5760006005600060028481548110611fa057fe5b90600052602060002001548152602001908152602001600020600601546005600060028681548110611fce57fe5b9060005260206000200154815260200190815260200160002060060154036005600060028581548110611ffd57fe5b9060005260206000200154815260200190815260200160002060060154600560006002878154811061202b57fe5b90600052602060002001548152602001908152602001600020600601540302600560006002858154811061205b57fe5b9060005260206000200154815260200190815260200160002060050154600560006002878154811061208957fe5b90600052602060002001548152602001908152602001600020600501540360056000600286815481106120b857fe5b906000526020600020015481526020019081526020016000206005015460056000600288815481106120e657fe5b90600052602060002001548152602001908152602001600020600501540302600560006002868154811061211657fe5b9060005260206000200154815260200190815260200160002060040154600560006002888154811061214457fe5b906000526020600020015481526020019081526020016000206004015403600560006002878154811061217357fe5b906000526020600020015481526020019081526020016000206004015460056000600289815481106121a157fe5b90600052602060002001548152602001908152602001600020600401540302010190506009811361230a57600a600060056000600287815481106121e157fe5b9060005260206000200154815260200190815260200160002060000160009054906101000a900473ffffffffffffffffffffffffffffffffffffffff1673ffffffffffffffffffffffffffffffffffffffff1673ffffffffffffffffffffffffffffffffffffffff168152602001908152602001600020600560006002858154811061226957fe5b9060005260206000200154815260200190815260200160002060000160009054906101000a900473ffffffffffffffffffffffffffffffffffffffff1690806001815401808255809150509060018203906000526020600020016000909192909190916101000a81548173ffffffffffffffffffffffffffffffffffffffff021916908373ffffffffffffffffffffffffffffffffffffffff160217905550505b505b8080600101915050611f3e565b505b8080600101915050611e5b565b50565b600160009054906101000a900473ffffffffffffffffffffffffffffffffffffffff1673ffffffffffffffffffffffffffffffffffffffff163373ffffffffffffffffffffffffffffffffffffffff161461238557600080fd5b6000600160146101000a81548160ff0219169083151502179055506000600860006101000a81548160ff0219169083151502179055506000811415612729576000600560006003600954815481106123d957fe5b906000526020600020906004020160000154815260200190815260200160002060070181905550600460006005600060036009548154811061241757fe5b906000526020600020906004020160000154815260200190815260200160002060000160009054906101000a900473ffffffffffffffffffffffffffffffffffffffff1673ffffffffffffffffffffffffffffffffffffffff1673ffffffffffffffffffffffffffffffffffffffff16815260200190815260200160002060008154809291906001019190505550600a60046000600560006003600954815481106124be57fe5b906000526020600020906004020160000154815260200190815260200160002060000160009054906101000a900473ffffffffffffffffffffffffffffffffffffffff1673ffffffffffffffffffffffffffffffffffffffff1673ffffffffffffffffffffffffffffffffffffffff16815260200190815260200160002054026005600060036009548154811061255157fe5b906000526020600020906004020160000154815260200190815260200160002060020181905550671bc16d674ec80000600460006005600060036009548154811061259857fe5b906000526020600020906004020160000154815260200190815260200160002060000160009054906101000a900473ffffffffffffffffffffffffffffffffffffffff1673ffffffffffffffffffffffffffffffffffffffff1673ffffffffffffffffffffffffffffffffffffffff16815260200190815260200160002054026005600060036009548154811061262b57fe5b906000526020600020906004020160000154815260200190815260200160002060030181905550426005600060036009548154811061266657fe5b906000526020600020906004020160000154815260200190815260200160002060080181905550600560006003600954815481106126a057fe5b906000526020600020906004020160000154815260200190815260200160002060000160009054906101000a900473ffffffffffffffffffffffffffffffffffffffff16600860016101000a81548173ffffffffffffffffffffffffffffffffffffffff021916908373ffffffffffffffffffffffffffffffffffffffff160217905550612b25565b6000600190505b600380549050811015612b2357600360008154811061274b57fe5b90600052602060002090600402016002016040516127699190613992565b60405180910390206003828154811061277e57fe5b906000526020600020906004020160020160405161279c9190613992565b604051809103902014612b1657600060056000600360018503815481106127bf57fe5b9060005260206000209060040201600001548152602001908152602001600020600701819055506004600060056000600360018603815481106127fe57fe5b906000526020600020906004020160000154815260200190815260200160002060000160009054906101000a900473ffffffffffffffffffffffffffffffffffffffff1673ffffffffffffffffffffffffffffffffffffffff1673ffffffffffffffffffffffffffffffffffffffff16815260200190815260200160002060008154809291906001019190505550600a6004600060056000600360018703815481106128a657fe5b906000526020600020906004020160000154815260200190815260200160002060000160009054906101000a900473ffffffffffffffffffffffffffffffffffffffff1673ffffffffffffffffffffffffffffffffffffffff1673ffffffffffffffffffffffffffffffffffffffff1681526020019081526020016000205402600560006003600185038154811061293a57fe5b906000526020600020906004020160000154815260200190815260200160002060020181905550671bc16d674ec8000060046000600560006003600187038154811061298257fe5b906000526020600020906004020160000154815260200190815260200160002060000160009054906101000a900473ffffffffffffffffffffffffffffffffffffffff1673ffffffffffffffffffffffffffffffffffffffff1673ffffffffffffffffffffffffffffffffffffffff16815260200190815260200160002054026005600060036001850381548110612a1657fe5b906000526020600020906004020160000154815260200190815260200160002060030181905550426005600060036001850381548110612a5257fe5b9060005260206000209060040201600001548152602001908152602001600020600801819055506005600060036001840381548110612a8d57fe5b906000526020600020906004020160000154815260200190815260200160002060000160009054906101000a900473ffffffffffffffffffffffffffffffffffffffff16600860016101000a81548173ffffffffffffffffffffffffffffffffffffffff021916908373ffffffffffffffffffffffffffffffffffffffff160217905550612b23565b8080600101915050612730565b505b612b2d612ec4565b50565b6000600860019054906101000a900473ffffffffffffffffffffffffffffffffffffffff16905090565b600160149054906101000a900460ff1681565b60011515600160149054906101000a900460ff161515148015612be55750600060056000600660003373ffffffffffffffffffffffffffffffffffffffff1673ffffffffffffffffffffffffffffffffffffffff16815260200190815260200160002054815260200190815260200160002060020154145b612bee57600080fd5b6000600660003373ffffffffffffffffffffffffffffffffffffffff1673ffffffffffffffffffffffffffffffffffffffff1681526020019081526020016000205414612d7157600060056000600660003373ffffffffffffffffffffffffffffffffffffffff1673ffffffffffffffffffffffffffffffffffffffff16815260200190815260200160002054815260200190815260200160002060090154148015612cef5750600060056000600660003373ffffffffffffffffffffffffffffffffffffffff1673ffffffffffffffffffffffffffffffffffffffff16815260200190815260200160002054815260200190815260200160002060070154145b8015612d025750670de0b6b3a764000034145b15612d6757600160056000600660003373ffffffffffffffffffffffffffffffffffffffff1673ffffffffffffffffffffffffffffffffffffffff16815260200190815260200160002054815260200190815260200160002060070181905550612d6c565b612ec1565b612d76565b612ec1565b80600081518110612d8357fe5b602002602001015160056000600660003373ffffffffffffffffffffffffffffffffffffffff1673ffffffffffffffffffffffffffffffffffffffff1681526020019081526020016000205481526020019081526020016000206004018190555080600181518110612df157fe5b602002602001015160056000600660003373ffffffffffffffffffffffffffffffffffffffff1673ffffffffffffffffffffffffffffffffffffffff1681526020019081526020016000205481526020019081526020016000206005018190555080600281518110612e5f57fe5b602002602001015160056000600660003373ffffffffffffffffffffffffffffffffffffffff1673ffffffffffffffffffffffffffffffffffffffff168152602001908152602001600020548152602001908152602001600020600601819055505b50565b60008090505b6002805490508110156130bd576000600a60006005600060028681548110612eee57fe5b9060005260206000200154815260200190815260200160002060000160009054906101000a900473ffffffffffffffffffffffffffffffffffffffff1673ffffffffffffffffffffffffffffffffffffffff1673ffffffffffffffffffffffffffffffffffffffff16815260200190815260200160002081612f70919061322d565b5060016005600060028481548110612f8457fe5b9060005260206000200154815260200190815260200160002060070154148015612fdb575060006005600060028481548110612fbc57fe5b9060005260206000200154815260200190815260200160002060090154145b156130b05760006005600060028481548110612ff357fe5b9060005260206000200154815260200190815260200160002060070181905550600560006002838154811061302457fe5b9060005260206000200154815260200190815260200160002060000160009054906101000a900473ffffffffffffffffffffffffffffffffffffffff1673ffffffffffffffffffffffffffffffffffffffff166108fc670de0b6b3a76400009081150290604051600060405180830381858888f193505050501580156130ae573d6000803e3d6000fd5b505b8080600101915050612eca565b50565b600080606060056000600660003373ffffffffffffffffffffffffffffffffffffffff1673ffffffffffffffffffffffffffffffffffffffff16815260200190815260200160002054815260200190815260200160002060020154600460003373ffffffffffffffffffffffffffffffffffffffff1673ffffffffffffffffffffffffffffffffffffffff16815260200190815260200160002054600a60003373ffffffffffffffffffffffffffffffffffffffff1673ffffffffffffffffffffffffffffffffffffffff1681526020019081526020016000208080548060200260200160405190810160405280929190818152602001828054801561321b57602002820191906000526020600020905b8160009054906101000a900473ffffffffffffffffffffffffffffffffffffffff1673ffffffffffffffffffffffffffffffffffffffff16815260200190600101908083116131d1575b50505050509050925092509250909192565b815481835581811115613254578183600052602060002091820191016132539190613464565b5b505050565b50805460018160011615610100020316600290046000825580601f1061327f575061329e565b601f01602090049060005260206000209081019061329d9190613464565b5b50565b50805460008255906000526020600020908101906132bf9190613464565b50565b828054600181600116156101000203166002900490600052602060002090601f016020900481019282601f106132fb5780548555613338565b8280016001018555821561333857600052602060002091601f016020900482015b8281111561333757825482559160010191906001019061331c565b5b5090506133459190613464565b5090565b815481835581811115613376576004028160040283600052602060002091820191016133759190613489565b5b505050565b828054600181600116156101000203166002900490600052602060002090601f016020900481019282601f106133bc57805160ff19168380011785556133ea565b828001600101855582156133ea579182015b828111156133e95782518255916020019190600101906133ce565b5b5090506133f79190613464565b5090565b604051806101400160405280600073ffffffffffffffffffffffffffffffffffffffff1681526020016060815260200160008152602001600081526020016000815260200160008152602001600081526020016000815260200160008152602001600081525090565b61348691905b8082111561348257600081600090555060010161346a565b5090565b90565b6134ec91905b808211156134e8576000808201600090556001820160006101000a81549073ffffffffffffffffffffffffffffffffffffffff02191690556002820160006134d79190613259565b60038201600090555060040161348f565b5090565b90565b6000813590506134fe81613c61565b92915050565b600082601f83011261351557600080fd5b813561352861352382613ac5565b613a98565b9150818183526020840193506020810190508385602084028201111561354d57600080fd5b60005b8381101561357d57816135638882613587565b845260208401935060208301925050600181019050613550565b5050505092915050565b60008135905061359681613c78565b92915050565b600082601f8301126135ad57600080fd5b81356135c06135bb82613aed565b613a98565b915080825260208301602083018583830111156135dc57600080fd5b6135e7838284613c0e565b50505092915050565b6000813590506135ff81613c8f565b92915050565b60006020828403121561361757600080fd5b6000613625848285016134ef565b91505092915050565b60006020828403121561364057600080fd5b600082013567ffffffffffffffff81111561365a57600080fd5b61366684828501613504565b91505092915050565b60006020828403121561368157600080fd5b600082013567ffffffffffffffff81111561369b57600080fd5b6136a78482850161359c565b91505092915050565b6000602082840312156136c257600080fd5b60006136d0848285016135f0565b91505092915050565b60006136e5838361370f565b60208301905092915050565b6136fa81613bbc565b82525050565b61370981613bbc565b82525050565b61371881613baa565b82525050565b600061372982613b3e565b6137338185613b6c565b935061373e83613b19565b8060005b8381101561376f57815161375688826136d9565b975061376183613b5f565b925050600181019050613742565b5085935050505092915050565b61378581613bce565b82525050565b6000815460018116600081146137a857600181146137cd57613811565b607f60028304166137b98187613b7d565b955060ff1983168652808601935050613811565b600282046137db8187613b7d565b95506137e685613b29565b60005b82811015613808578154818901526001820191506020810190506137e9565b82880195505050505b505092915050565b61382281613bda565b82525050565b600061383382613b54565b61383d8185613b99565b935061384d818560208601613c1d565b61385681613c50565b840191505092915050565b600061386c82613b49565b6138768185613b88565b9350613886818560208601613c1d565b61388f81613c50565b840191505092915050565b6000610140830160008301516138b360008601826136f1565b50602083015184820360208601526138cb8282613861565b91505060408301516138e06040860182613974565b5060608301516138f36060860182613974565b5060808301516139066080860182613819565b5060a083015161391960a0860182613819565b5060c083015161392c60c0860182613819565b5060e083015161393f60e0860182613974565b50610100830151613954610100860182613974565b50610120830151613969610120860182613974565b508091505092915050565b61397d81613c04565b82525050565b61398c81613c04565b82525050565b600061399e828461378b565b915081905092915050565b60006020820190506139be6000830184613700565b92915050565b60006020820190506139d9600083018461377c565b92915050565b600060208201905081810360008301526139f98184613828565b905092915050565b60006060820190508181036000830152613a1b818661389a565b9050613a2a6020830185613983565b613a376040830184613983565b949350505050565b6000602082019050613a546000830184613983565b92915050565b6000606082019050613a6f6000830186613983565b613a7c6020830185613983565b8181036040830152613a8e818461371e565b9050949350505050565b6000604051905081810181811067ffffffffffffffff82111715613abb57600080fd5b8060405250919050565b600067ffffffffffffffff821115613adc57600080fd5b602082029050602081019050919050565b600067ffffffffffffffff821115613b0457600080fd5b601f19601f8301169050602081019050919050565b6000819050602082019050919050565b60008190508160005260206000209050919050565b600081519050919050565b600081519050919050565b600081519050919050565b6000602082019050919050565b600082825260208201905092915050565b600081905092915050565b600082825260208201905092915050565b600082825260208201905092915050565b6000613bb582613be4565b9050919050565b6000613bc782613be4565b9050919050565b60008115159050919050565b6000819050919050565b600073ffffffffffffffffffffffffffffffffffffffff82169050919050565b6000819050919050565b82818337600083830152505050565b60005b83811015613c3b578082015181840152602081019050613c20565b83811115613c4a576000848401525b50505050565b6000601f19601f8301169050919050565b613c6a81613bbc565b8114613c7557600080fd5b50565b613c8181613bda565b8114613c8c57600080fd5b50565b613c9881613c04565b8114613ca357600080fd5b5056fea365627a7a72315820590234759abec06fb52ff4af26d086c93640420b8786c9a336e3d6bb86954e5c6c6578706572696d656e74616cf564736f6c634300051000402d2d2d2d2d424547494e205055424c4943204b45592d2d2d2d2d0a4d4947664d413047435371475349623344514542415155414134474e4144434269514b42675144596e6f475239616b546c39666b635170394b44757a484847580a3458366a7557392b6c5a414c314f7954567075434478757853317043554d3377455274347a5567466964566d364a5269464f426d746d564d5a66742b412f632b0a2b706b65446f47673077554738526b637a3466426b7446364f514c67375933784f4c455578516b456d32664379575068324b38523435474f6b6f704e633447490a697854323349774f4a732b56414b7a786b774944415141420a2d2d2d2d2d454e44205055424c4943204b45592d2d2d2d2d2d2d2d2d2d424547494e205055424c4943204b45592d2d2d2d2d0a4d4947664d413047435371475349623344514542415155414134474e4144434269514b426751433837616a31317677562f6a693538634c69677048766353544a0a74654164616a4a3350776e5576484843546a6835526a683037735a4f62314d563276634f4236506d786c48716f63714945766d5431504271496f4c4e396a70420a432f7462545774444c61664e4569726474737a6555675032733876467a684b33463759714e47487a7a3748694f435637465956734465346a796a5631307645660a42357453587430704832374c4a6970755a774944415141420a2d2d2d2d2d454e44205055424c4943204b45592d2d2d2d2d2d2d2d2d2d424547494e205055424c4943204b45592d2d2d2d2d0a4d4947664d413047435371475349623344514542415155414134474e4144434269514b426751444d4a6c7367334669654a73624339784c47794643384d646b450a39563059633333576a755a71553663613779374b334155752b54734d59734b474168514a76634e75355078775a77666b7564592b77496d2f2f4e726f537433730a4768724d6b614e6f465441573155633851355937374b314c2f6b70394d306265305558584735516233515a2f64637a454444706e6d30694c48757354597a37520a6e774f694a5474663965477435436c5a34774944415141420a2d2d2d2d2d454e44205055424c4943204b45592d2d2d2d2d2d2d2d2d2d424547494e205055424c4943204b45592d2d2d2d2d0a4d4947664d413047435371475349623344514542415155414134474e4144434269514b4267514431556d6b467976503450523663654d435539786954427641350a524869375134572f5864726c526f71584834744267777458504f624c6370706a7447636773467436677537553832576b314f5a386952454f795931754e544b440a2b61543366584c74476257364b446966654d35453639444f5032566a66783631626943434e726a794d5a6a35714a7662696e4e76436f2f5133372b30644775550a704b5a393932665734467a4654424d4b76514944415141420a2d2d2d2d2d454e44205055424c4943204b45592d2d2d2d2d2d2d2d2d2d424547494e205055424c4943204b45592d2d2d2d2d0a4d4947664d413047435371475349623344514542415155414134474e4144434269514b426751434470514c2f682b396e59493630503246546355744134675a760a30724f6b6e5755336f7a4574304e79573859546a4b5a54436c59793876626447485359566271687863716369675651614446715a684a4a6556512f4a4b37624d0a4a4737762f417546456a477533554b6676496944645371413747516e51484e34615432313741304d7461523956546f7334797462356e31682b737249523864720a41315362713072544a434f4e457a4e3277774944415141420a2d2d2d2d2d454e44205055424c4943204b45592d2d2d2d2d2d2d2d2d2d424547494e205055424c4943204b45592d2d2d2d2d0a4d4947664d413047435371475349623344514542415155414134474e4144434269514b42675143515a676c6b74394f504a526147672b457a45454170747834350a4970303453384670575144506d576a7967344c78556f7959625557493259574a59656b62776f696a6c624a57457a5a4d2b5a64346275526e48503836323830560a434e56524e5a435552517750363259675076537250666930727a5556664350476f7a7543697033565757454577652f6a4d6e664259614e6f76794f45584b62560a6c6a6a706f4c6471665a2b4d7768534565774944415141420a2d2d2d2d2d454e44205055424c4943204b45592d2d2d2d2d2d2d2d2d2d424547494e205055424c4943204b45592d2d2d2d2d0a4d4947664d413047435371475349623344514542415155414134474e4144434269514b426751446764655747797869467048706f63687959464d4d79775350540a41677258335431625934537757625a73675357693541656f73586b76526e4247437848623755434a637459544576314f7138476b424a4b3663467837536a2f4f0a6474462b4d637342335166674f737370637345624a56596e7654576c666732706445574d5a433967324d307a334c756471536451594b5a6a67676e54627a66380a65774235624334584b49555a4d59412f77774944415141420a2d2d2d2d2d454e44205055424c4943204b45592d2d2d2d2d2d2d2d2d2d424547494e205055424c4943204b45592d2d2d2d2d0a4d4947664d413047435371475349623344514542415155414134474e4144434269514b426751436533623043785061505a35795558464d555a45794232506f6c0a4b47555367485365564130764b42634a6d4c38533878766e4a4637566b6942644574386a34745030474c72773030484534414c5563305a642b3776542b4d6e310a7766637474394d45774c654f67555571464b746a51785078494b696372327439304a2b787974584338696455583532574242534e6c58535a71776d73316265790a6354575155416775666e636d484a6b7578774944415141420a2d2d2d2d2d454e44205055424c4943204b45592d2d2d2d2d2d2d2d2d2d424547494e205055424c4943204b45592d2d2d2d2d0a4d4947664d413047435371475349623344514542415155414134474e4144434269514b4267514374745142324377586a314f2b424e4677456b5333415a6756560a494d564357506e464c53484966347238394d696c6b543562704c6f5a787478742f78716b74666d32593479326f73484267336f4c2b5a6f3136336a49392f72610a574a474f4f667248686947686b5476566170317a6a32556738342b424d56726a4659736b6f574c566d32416d5831412b542f517055756c6f69536a65663046620a6e6e416d6e41526270304a52486e356174514944415141420a2d2d2d2d2d454e44205055424c4943204b45592d2d2d2d2d",
  "source": "pragma solidity >=0.4.21 <0.6.0;\npragma experimental ABIEncoderV2;\nimport \"./UAV.sol\";\n\ncontract DataSending is Registration{\n  uint timestamp;\n  bool successful;\n  address payable culprit;\n  uint count=0;\n\n  mapping (address => address[]) routeTable;\n\n  constructor() public{\n\n    successful=false;\n\n  }\n\n  function doTrans(address payable dest) public{\n\n    require(transaction==false && msg.sender!=dest);\n    transaction=true;\n    source=msg.sender;\n    destination=dest;\n    timestamp=now;\n\n  }\n\n\n  function registerCoordinates(int[] memory coordinates) public payable\n  {\n    require(transaction==true && registered[pubToMac[msg.sender]].faulty==0);\n    if(pubToMac[msg.sender]!=0)\n    {\n      if(registered[pubToMac[msg.sender]].bcs==0 && registered[pubToMac[msg.sender]].participating==0 && msg.value==1 ether)\n      {\n        registered[pubToMac[msg.sender]].participating=1;\n      }\n      else\n        return;\n    }\n    else\n      return;\n    registered[pubToMac[msg.sender]].x=coordinates[0];\n    registered[pubToMac[msg.sender]].y=coordinates[1];\n    registered[pubToMac[msg.sender]].z=coordinates[2];\n\n  }\n\n  function getTable() public view returns(uint,uint,address[] memory)\n  {\n\n    return (registered[pubToMac[msg.sender]].faulty,blacklisted[msg.sender],routeTable[msg.sender]);\n\n  }\n\n\n  function updateGraph() public\n  {\n\n    require((msg.sender==source || msg.sender==registered[1].publicKey || msg.sender==registered[2].publicKey || msg.sender==registered[3].publicKey) && transaction==true);\n    for(uint i=0;i<list.length;i++)\n    {\n\n      routeTable[registered[list[i]].publicKey].length=0;\n      // emit x1(registered[list[i]].participating);\n      //   emit x1(list[i]);\n      if(registered[list[i]].participating==1){\n      for(uint j=0;j<list.length;j++)\n      {\n        if(i!=j && registered[list[j]].participating==1)\n        {\n            int distance=(registered[list[i]].x-registered[list[j]].x)*(registered[list[i]].x-registered[list[j]].x) + (registered[list[i]].y-registered[list[j]].y)*(registered[list[i]].y-registered[list[j]].y) + (registered[list[i]].z-registered[list[j]].z)*(registered[list[i]].z-registered[list[j]].z);\n            if(distance<=9)\n            {\n              routeTable[registered[list[i]].publicKey].push(registered[list[j]].publicKey);\n            }\n        }\n      }}\n    }\n\n  }\n\n  function success() public payable returns(bool){\n\n      if(msg.sender==destination)\n        {\n            Route[count].timestamp=now;\n            successful=true;\n            count=0;\n            destination=0x0000000000000000000000000000000000000000;\n            sendBackToken();\n        }\n        else\n          return false;\n  }\n\n  function sendBackToken() public payable\n  {\n    for(uint i=0;i<list.length;i++)\n    {\n        routeTable[registered[list[i]].publicKey].length=0;\n      if(registered[list[i]].participating==1 && registered[list[i]].bcs==0)\n      {\n\n        registered[list[i]].participating=0;\n        registered[list[i]].publicKey.transfer(1 ether);\n      }\n\n    }\n  }\n  function unsuccessful(uint x) public payable {\n\n      require(msg.sender==destination);\n      transaction=false;\n      successful=false;\n      if(x==0)\n      {\n\n        registered[Route[count].id].participating=0;\n        blacklisted[registered[Route[count].id].publicKey]++;\n        registered[Route[count].id].faulty=blacklisted[registered[Route[count].id].publicKey]*10;\n        registered[Route[count].id].penaltytoken=blacklisted[registered[Route[count].id].publicKey]*2 ether;\n        registered[Route[count].id].timestamp=now;\n        culprit=registered[Route[count].id].publicKey;\n      }\n      else\n      {\n        for(uint i=1;i<Route.length;i++)\n        {\n          if(keccak256(bytes(Route[i].data))!=keccak256(bytes(Route[0].data)))\n          {\n            registered[Route[i-1].id].participating=0;\n            blacklisted[registered[Route[i-1].id].publicKey]++;\n            registered[Route[i-1].id].faulty=blacklisted[registered[Route[i-1].id].publicKey]*10;\n            registered[Route[i-1].id].penaltytoken=blacklisted[registered[Route[i-1].id].publicKey]*2 ether;\n            registered[Route[i-1].id].timestamp=now;\n            culprit=registered[Route[i-1].id].publicKey;\n            break;\n          }\n        }\n      }\n      sendBackToken();\n  }\n  function returnCulprit() public view returns(address payable)\n  {\n      return culprit;\n  }\n\n  function transCompleted() public payable{\n\n      require(msg.sender==source && transaction==true && successful==true);\n      count=0;\n      uint divide=0;\n      if(Route.length-2!=0)\n        divide=msg.value/(Route.length-2);\n      for(uint i=1;i<Route.length-1;i++)\n      {\n        registered[Route[i].id].publicKey.transfer(divide);\n      }\n      Route.length=0;\n      transaction=false;\n      successful=false;\n      source=0x0000000000000000000000000000000000000000;\n\n\n  }\n\n  function send(string memory x) public{\n      require(msg.sender==registered[Route[count].id].publicKey);\n      if(count==0)\n        Route[count].data=string(x);\n      Route[count].timestamp=now;\n      if(count+1<=Route.length-1)\n        Route[count+1].data=string(x);\n      count++;\n  }\n  function getData() public view returns (string memory) {\n    if(msg.sender==registered[Route[count].id].publicKey)\n      return Route[count].data;\n    else\n      return \"\";\n  }\n  function abort() public{\n    uint count1=0;\n      uint[] memory list1=new uint[](list.length);\n      for(uint i=0;i<list.length;i++)\n      {\n        pubToMac[registered[list[i]].publicKey]=0;\n\n        routeTable[registered[list[i]].publicKey].length=0;\n        if(blacklisted[registered[list[i]].publicKey]<=10)\n        {\n          list1[count1]=list[i];\n          count1++;\n        }\n        else\n        {\n            delete registered[list[i]];\n        }\n      }\n      delete list;\n      for(uint i=0;i<count1;i++)\n      {\n          list.push(list1[i]);\n          registered[i+1]=registered[list[i]];\n          if(i+1 != list[i])\n            delete registered[list[i]];\n          pubToMac[registered[i+1].publicKey]=i+1;\n          list[i]=i+1;\n      }\n      delete list1;\n\n      Route.length=0;\n      transaction=false;\n      successful=false;\n      count=0;\n      source=0x0000000000000000000000000000000000000000;\n      destination=0x0000000000000000000000000000000000000000;\n\n\n  }\n  function getRegistered() public view returns(IOT memory,uint,uint)\n  {\n    return (registered[pubToMac[msg.sender]],blacklisted[msg.sender],pubToMac[msg.sender]);\n  }\n\n}\n",
  "sourcePath": "/home/anushka/Desktop/UAVNET/Major-Blockchain/src/contracts/DataSending.sol",
  "compiler": {
    "name": "solc",
    "version": "0.5.16+commit.9c3226ce.Emscripten.clang"
  },
  "schemaVersion": "3.1.0",
  "updatedAt": "2020-05-29T18:35:25.668Z",
  "devdoc": {
    "methods": {}
  },
  "userdoc": {
    "methods": {}
  }
}