{
  "contractName": "DataSending",
  "abi": [
    {
      "constant": true,
      "inputs": [],
      "name": "transaction",
      "outputs": [
        {
          "name": "",
          "type": "bool"
        }
      ],
      "payable": false,
      "stateMutability": "view",
      "type": "function"
    },
    {
      "inputs": [],
      "payable": false,
      "stateMutability": "nonpayable",
      "type": "constructor"
    },
    {
      "anonymous": false,
      "inputs": [
        {
          "indexed": false,
          "name": "a",
          "type": "uint256"
        }
      ],
      "name": "x1",
      "type": "event"
    },
    {
      "constant": false,
      "inputs": [
        {
          "name": "dest",
          "type": "address"
        }
      ],
      "name": "doTrans",
      "outputs": [],
      "payable": false,
      "stateMutability": "nonpayable",
      "type": "function"
    },
    {
      "constant": false,
      "inputs": [
        {
          "name": "coordinates",
          "type": "int256[]"
        }
      ],
      "name": "registerCoordinates",
      "outputs": [],
      "payable": true,
      "stateMutability": "payable",
      "type": "function"
    },
    {
      "constant": true,
      "inputs": [],
      "name": "getTable",
      "outputs": [
        {
          "name": "",
          "type": "uint256"
        },
        {
          "name": "",
          "type": "uint256"
        },
        {
          "name": "",
          "type": "address[]"
        }
      ],
      "payable": false,
      "stateMutability": "view",
      "type": "function"
    },
    {
      "constant": false,
      "inputs": [],
      "name": "updateGraph",
      "outputs": [],
      "payable": false,
      "stateMutability": "nonpayable",
      "type": "function"
    },
    {
      "constant": false,
      "inputs": [],
      "name": "success",
      "outputs": [
        {
          "name": "",
          "type": "bool"
        }
      ],
      "payable": true,
      "stateMutability": "payable",
      "type": "function"
    },
    {
      "constant": false,
      "inputs": [],
      "name": "sendBackToken",
      "outputs": [],
      "payable": true,
      "stateMutability": "payable",
      "type": "function"
    },
    {
      "constant": false,
      "inputs": [
        {
          "name": "x",
          "type": "uint256"
        }
      ],
      "name": "unsuccessful",
      "outputs": [],
      "payable": true,
      "stateMutability": "payable",
      "type": "function"
    },
    {
      "constant": true,
      "inputs": [],
      "name": "returnCulprit",
      "outputs": [
        {
          "name": "",
          "type": "address"
        }
      ],
      "payable": false,
      "stateMutability": "view",
      "type": "function"
    },
    {
      "constant": false,
      "inputs": [],
      "name": "transCompleted",
      "outputs": [],
      "payable": true,
      "stateMutability": "payable",
      "type": "function"
    },
    {
      "constant": false,
      "inputs": [
        {
          "name": "x",
          "type": "string"
        }
      ],
      "name": "send",
      "outputs": [],
      "payable": false,
      "stateMutability": "nonpayable",
      "type": "function"
    },
    {
      "constant": true,
      "inputs": [],
      "name": "getData",
      "outputs": [
        {
          "name": "",
          "type": "string"
        }
      ],
      "payable": false,
      "stateMutability": "view",
      "type": "function"
    },
    {
      "constant": false,
      "inputs": [],
      "name": "abort",
      "outputs": [],
      "payable": false,
      "stateMutability": "nonpayable",
      "type": "function"
    }
  ],
  "bytecode": "0x608060405260006009553480156200001657600080fd5b506000600160146101000a81548160ff021916908315150217905550610140604051908101604052807383385acc745e5af5f2408e5a9d3ca41b8033f13473ffffffffffffffffffffffffffffffffffffffff1681526020016101406040519081016040528061010f815260200162004be161010f91398152602001600081526020016000815260200160008152602001600081526020016000815260200160018152602001600081526020016001815250600560006001815260200190815260200160002060008201518160000160006101000a81548173ffffffffffffffffffffffffffffffffffffffff021916908373ffffffffffffffffffffffffffffffffffffffff160217905550602082015181600101908051906020019062000141929190620010c1565b5060408201518160020155606082015181600301556080820151816004015560a0820151816005015560c0820151816006015560e082015181600701556101008201518160080155610120820151816009015590505061014060405190810160405280738ee94701c39929eb9722a09315f0e1695abf555d73ffffffffffffffffffffffffffffffffffffffff1681526020016101406040519081016040528061010f81526020016200523b61010f91398152602001600081526020016000815260200160068152602001600081526020016000815260200160018152602001600081526020016001815250600560006002815260200190815260200160002060008201518160000160006101000a81548173ffffffffffffffffffffffffffffffffffffffff021916908373ffffffffffffffffffffffffffffffffffffffff1602179055506020820151816001019080519060200190620002a6929190620010c1565b5060408201518160020155606082015181600301556080820151816004015560a0820151816005015560c0820151816006015560e082015181600701556101008201518160080155610120820151816009015590505061014060405190810160405280737c0300b35b26924a92cbc9da5682279ad18a6e7b73ffffffffffffffffffffffffffffffffffffffff1681526020016101406040519081016040528061010f81526020016200512c61010f91398152602001600081526020016000815260200160048152602001600081526020016000815260200160018152602001600081526020016001815250600560006003815260200190815260200160002060008201518160000160006101000a81548173ffffffffffffffffffffffffffffffffffffffff021916908373ffffffffffffffffffffffffffffffffffffffff16021790555060208201518160010190805190602001906200040b929190620010c1565b5060408201518160020155606082015181600301556080820151816004015560a0820151816005015560c0820151816006015560e0820151816007015561010082015181600801556101208201518160090155905050610140604051908101604052807323018548f67d4a0ff7027db2870d61ca6d88b81873ffffffffffffffffffffffffffffffffffffffff1681526020016101406040519081016040528061010f81526020016200534a61010f91398152602001600081526020016000815260200160008152602001600281526020016000815260200160008152602001600081526020016000815250600560006004815260200190815260200160002060008201518160000160006101000a81548173ffffffffffffffffffffffffffffffffffffffff021916908373ffffffffffffffffffffffffffffffffffffffff160217905550602082015181600101908051906020019062000570929190620010c1565b5060408201518160020155606082015181600301556080820151816004015560a0820151816005015560c0820151816006015560e08201518160070155610100820151816008015561012082015181600901559050506101406040519081016040528073107f93c9e5ee222a4281843d96a745c68387bd5973ffffffffffffffffffffffffffffffffffffffff1681526020016101406040519081016040528061010f81526020016200501d61010f91398152602001600081526020016000815260200160008152602001600481526020016000815260200160008152602001600081526020016000815250600560006005815260200190815260200160002060008201518160000160006101000a81548173ffffffffffffffffffffffffffffffffffffffff021916908373ffffffffffffffffffffffffffffffffffffffff1602179055506020820151816001019080519060200190620006d5929190620010c1565b5060408201518160020155606082015181600301556080820151816004015560a0820151816005015560c0820151816006015560e082015181600701556101008201518160080155610120820151816009015590505061014060405190810160405280737dedcfb08c4e7c2856d44b35411893419d6e6cf373ffffffffffffffffffffffffffffffffffffffff1681526020016101406040519081016040528061010f815260200162004cf061010f91398152602001600081526020016000815260200160028152602001600481526020016000815260200160008152602001600081526020016000815250600560006006815260200190815260200160002060008201518160000160006101000a81548173ffffffffffffffffffffffffffffffffffffffff021916908373ffffffffffffffffffffffffffffffffffffffff16021790555060208201518160010190805190602001906200083a929190620010c1565b5060408201518160020155606082015181600301556080820151816004015560a0820151816005015560c0820151816006015560e0820151816007015561010082015181600801556101208201518160090155905050610140604051908101604052807334dcf4e9c4b0ed9f835c5b4173b2d90804b2a11f73ffffffffffffffffffffffffffffffffffffffff1681526020016101406040519081016040528061010f815260200162004dff61010f91398152602001600081526020016000815260200160048152602001600481526020016000815260200160008152602001600081526020016000815250600560006007815260200190815260200160002060008201518160000160006101000a81548173ffffffffffffffffffffffffffffffffffffffff021916908373ffffffffffffffffffffffffffffffffffffffff16021790555060208201518160010190805190602001906200099f929190620010c1565b5060408201518160020155606082015181600301556080820151816004015560a0820151816005015560c0820151816006015560e082015181600701556101008201518160080155610120820151816009015590505061014060405190810160405280735af5e7eacd4552ed39e40aa82b2fa164b6a441a873ffffffffffffffffffffffffffffffffffffffff1681526020016101406040519081016040528061010f815260200162004f0e61010f91398152602001600081526020016000815260200160048152602001600281526020016000815260200160008152602001600081526020016000815250600560006008815260200190815260200160002060008201518160000160006101000a81548173ffffffffffffffffffffffffffffffffffffffff021916908373ffffffffffffffffffffffffffffffffffffffff160217905550602082015181600101908051906020019062000b04929190620010c1565b5060408201518160020155606082015181600301556080820151816004015560a0820151816005015560c0820151816006015560e0820151816007015561010082015181600801556101208201518160090155905050600160066000600560006001815260200190815260200160002060000160009054906101000a900473ffffffffffffffffffffffffffffffffffffffff1673ffffffffffffffffffffffffffffffffffffffff1673ffffffffffffffffffffffffffffffffffffffff16815260200190815260200160002081905550600260066000600560006002815260200190815260200160002060000160009054906101000a900473ffffffffffffffffffffffffffffffffffffffff1673ffffffffffffffffffffffffffffffffffffffff1673ffffffffffffffffffffffffffffffffffffffff16815260200190815260200160002081905550600360066000600560006003815260200190815260200160002060000160009054906101000a900473ffffffffffffffffffffffffffffffffffffffff1673ffffffffffffffffffffffffffffffffffffffff1673ffffffffffffffffffffffffffffffffffffffff16815260200190815260200160002081905550600460066000600560006004815260200190815260200160002060000160009054906101000a900473ffffffffffffffffffffffffffffffffffffffff1673ffffffffffffffffffffffffffffffffffffffff1673ffffffffffffffffffffffffffffffffffffffff16815260200190815260200160002081905550600560066000600560006005815260200190815260200160002060000160009054906101000a900473ffffffffffffffffffffffffffffffffffffffff1673ffffffffffffffffffffffffffffffffffffffff1673ffffffffffffffffffffffffffffffffffffffff168152602001908152602001600020819055506006806000600560006006815260200190815260200160002060000160009054906101000a900473ffffffffffffffffffffffffffffffffffffffff1673ffffffffffffffffffffffffffffffffffffffff1673ffffffffffffffffffffffffffffffffffffffff16815260200190815260200160002081905550600760066000600560006007815260200190815260200160002060000160009054906101000a900473ffffffffffffffffffffffffffffffffffffffff1673ffffffffffffffffffffffffffffffffffffffff1673ffffffffffffffffffffffffffffffffffffffff16815260200190815260200160002081905550600860066000600560006008815260200190815260200160002060000160009054906101000a900473ffffffffffffffffffffffffffffffffffffffff1673ffffffffffffffffffffffffffffffffffffffff1673ffffffffffffffffffffffffffffffffffffffff1681526020019081526020016000208190555060026001908060018154018082558091505090600182039060005260206000200160009091929091909150555060028090806001815401808255809150509060018203906000526020600020016000909192909190915055506002600390806001815401808255809150509060018203906000526020600020016000909192909190915055506002600490806001815401808255809150509060018203906000526020600020016000909192909190915055506002600590806001815401808255809150509060018203906000526020600020016000909192909190915055506002600690806001815401808255809150509060018203906000526020600020016000909192909190915055506002600790806001815401808255809150509060018203906000526020600020016000909192909190915055506002600890806001815401808255809150509060018203906000526020600020016000909192909190915055506000600860006101000a81548160ff02191690831515021790555062001170565b828054600181600116156101000203166002900490600052602060002090601f016020900481019282601f106200110457805160ff191683800117855562001135565b8280016001018555821562001135579182015b828111156200113457825182559160200191906001019062001117565b5b50905062001144919062001148565b5090565b6200116d91905b80821115620011695760008160009055506001016200114f565b5090565b90565b613a6180620011806000396000f3fe6080604052600436106100c5576000357c0100000000000000000000000000000000000000000000000000000000900463ffffffff1680630b93381b146100ca57806335a063b4146100e85780633bc5de30146100ff57806347426fad1461012a57806357c6a8431461015357806366792ba11461015d5780638f99123d1461018657806396fbe5eb1461019d578063af707c0b146101b9578063c99de57e146101e4578063f3b8b7d11461020f578063f421a16b1461022b578063fb6391ab14610235575b600080fd5b6100d2610262565b6040516100df919061380d565b60405180910390f35b3480156100f457600080fd5b506100fd610360565b005b34801561010b57600080fd5b50610114610c39565b6040516101219190613828565b60405180910390f35b34801561013657600080fd5b50610151600480360361014c9190810190613651565b610cfb565b005b61015b610dfa565b005b34801561016957600080fd5b50610184600480360361017f91908101906136bb565b610fff565b005b34801561019257600080fd5b5061019b611161565b005b6101b760048036036101b291908101906136fc565b6118d2565b005b3480156101c557600080fd5b506101ce612259565b6040516101db91906137f2565b60405180910390f35b3480156101f057600080fd5b506101f9612283565b604051610206919061380d565b60405180910390f35b6102296004803603610224919081019061367a565b612296565b005b610233612f15565b005b34801561024157600080fd5b5061024a61311b565b60405161025993929190613865565b60405180910390f35b6000600160009054906101000a900473ffffffffffffffffffffffffffffffffffffffff1673ffffffffffffffffffffffffffffffffffffffff163373ffffffffffffffffffffffffffffffffffffffff161415610353574260036009548154811015156102cc57fe5b9060005260206000209060030201600201819055506001600860006101000a81548160ff02191690831515021790555060006009819055506000600160006101000a81548173ffffffffffffffffffffffffffffffffffffffff021916908373ffffffffffffffffffffffffffffffffffffffff16021790555061034e612f15565b61035c565b6000905061035d565b5b90565b600560006001815260200190815260200160002060000160009054906101000a900473ffffffffffffffffffffffffffffffffffffffff1673ffffffffffffffffffffffffffffffffffffffff163373ffffffffffffffffffffffffffffffffffffffff1614806104335750600560006002815260200190815260200160002060000160009054906101000a900473ffffffffffffffffffffffffffffffffffffffff1673ffffffffffffffffffffffffffffffffffffffff163373ffffffffffffffffffffffffffffffffffffffff16145b806104a05750600560006003815260200190815260200160002060000160009054906101000a900473ffffffffffffffffffffffffffffffffffffffff1673ffffffffffffffffffffffffffffffffffffffff163373ffffffffffffffffffffffffffffffffffffffff16145b15156104ab57600080fd5b600080905060606002805490506040519080825280602002602001820160405280156104e65781602001602082028038833980820191505090505b50905060008090505b6002805490508110156108615760006005600060028481548110151561051157fe5b906000526020600020015481526020019081526020016000206009015414801561056a575060016005600060028481548110151561054b57fe5b9060005260206000200154815260200190815260200160002060070154145b156105a55760006005600060028481548110151561058457fe5b90600052602060002001548152602001908152602001600020600701819055505b6000600a6000600560006002868154811015156105be57fe5b9060005260206000200154815260200190815260200160002060000160009054906101000a900473ffffffffffffffffffffffffffffffffffffffff1673ffffffffffffffffffffffffffffffffffffffff1673ffffffffffffffffffffffffffffffffffffffff168152602001908152602001600020816106409190613288565b50600a600460006005600060028681548110151561065a57fe5b9060005260206000200154815260200190815260200160002060000160009054906101000a900473ffffffffffffffffffffffffffffffffffffffff1673ffffffffffffffffffffffffffffffffffffffff1673ffffffffffffffffffffffffffffffffffffffff16815260200190815260200160002054101561071b576002818154811015156106e757fe5b9060005260206000200154828481518110151561070057fe5b906020019060200201818152505082806001019350506107c2565b6005600060028381548110151561072e57fe5b90600052602060002001548152602001908152602001600020600080820160006101000a81549073ffffffffffffffffffffffffffffffffffffffff021916905560018201600061077f91906132b4565b6002820160009055600382016000905560048201600090556005820160009055600682016000905560078201600090556008820160009055600982016000905550505b60066000600560006002858154811015156107d957fe5b9060005260206000200154815260200190815260200160002060000160009054906101000a900473ffffffffffffffffffffffffffffffffffffffff1673ffffffffffffffffffffffffffffffffffffffff1673ffffffffffffffffffffffffffffffffffffffff1681526020019081526020016000206000905580806001019150506104ef565b506002600061087091906132fc565b60008090505b82811015610b5f576002828281518110151561088e57fe5b906020019060200201519080600181540180825580915050906001820390600052602060002001600090919290919091505550600560006002838154811015156108d457fe5b90600052602060002001548152602001908152602001600020600560006001840181526020019081526020016000206000820160009054906101000a900473ffffffffffffffffffffffffffffffffffffffff168160000160006101000a81548173ffffffffffffffffffffffffffffffffffffffff021916908373ffffffffffffffffffffffffffffffffffffffff1602179055506001820181600101908054600181600116156101000203166002900461099192919061331d565b5060028201548160020155600382015481600301556004820154816004015560058201548160050155600682015481600601556007820154816007015560088201548160080155600982015481600901559050506002818154811015156109f457fe5b906000526020600020015460018201141515610ab15760056000600283815481101515610a1d57fe5b90600052602060002001548152602001908152602001600020600080820160006101000a81549073ffffffffffffffffffffffffffffffffffffffff0219169055600182016000610a6e91906132b4565b6002820160009055600382016000905560048201600090556005820160009055600682016000905560078201600090556008820160009055600982016000905550505b60018101600660006005600060018601815260200190815260200160002060000160009054906101000a900473ffffffffffffffffffffffffffffffffffffffff1673ffffffffffffffffffffffffffffffffffffffff1673ffffffffffffffffffffffffffffffffffffffff1681526020019081526020016000208190555060018101600282815481101515610b4457fe5b90600052602060002001819055508080600101915050610876565b50606090506000600381610b7391906133a4565b506000600160146101000a81548160ff0219169083151502179055506000600860006101000a81548160ff021916908315150217905550600060098190555060008060006101000a81548173ffffffffffffffffffffffffffffffffffffffff021916908373ffffffffffffffffffffffffffffffffffffffff1602179055506000600160006101000a81548173ffffffffffffffffffffffffffffffffffffffff021916908373ffffffffffffffffffffffffffffffffffffffff1602179055505050565b60606003600954815481101515610c4c57fe5b90600052602060002090600302016001018054600181600116156101000203166002900480601f016020809104026020016040519081016040528092919081815260200182805460018160011615610100020316600290048015610cf15780601f10610cc657610100808354040283529160200191610cf1565b820191906000526020600020905b815481529060010190602001808311610cd457829003601f168201915b5050505050905090565b60001515600160149054906101000a900460ff161515148015610d4a57508073ffffffffffffffffffffffffffffffffffffffff163373ffffffffffffffffffffffffffffffffffffffff1614155b1515610d5557600080fd5b60018060146101000a81548160ff021916908315150217905550336000806101000a81548173ffffffffffffffffffffffffffffffffffffffff021916908373ffffffffffffffffffffffffffffffffffffffff16021790555080600160006101000a81548173ffffffffffffffffffffffffffffffffffffffff021916908373ffffffffffffffffffffffffffffffffffffffff1602179055504260078190555050565b6000809054906101000a900473ffffffffffffffffffffffffffffffffffffffff1673ffffffffffffffffffffffffffffffffffffffff163373ffffffffffffffffffffffffffffffffffffffff16148015610e69575060011515600160149054906101000a900460ff161515145b8015610e88575060011515600860009054906101000a900460ff161515145b1515610e9357600080fd5b6000600981905550600060026003805490500334811515610eb057fe5b0490506000600190505b600160038054905003811015610f745760056000600383815481101515610edd57fe5b906000526020600020906003020160000154815260200190815260200160002060000160009054906101000a900473ffffffffffffffffffffffffffffffffffffffff1673ffffffffffffffffffffffffffffffffffffffff166108fc839081150290604051600060405180830381858888f19350505050158015610f66573d6000803e3d6000fd5b508080600101915050610eba565b506000600381610f8491906133a4565b506000600160146101000a81548160ff0219169083151502179055506000600860006101000a81548160ff02191690831515021790555060008060006101000a81548173ffffffffffffffffffffffffffffffffffffffff021916908373ffffffffffffffffffffffffffffffffffffffff16021790555050565b60056000600360095481548110151561101457fe5b906000526020600020906003020160000154815260200190815260200160002060000160009054906101000a900473ffffffffffffffffffffffffffffffffffffffff1673ffffffffffffffffffffffffffffffffffffffff163373ffffffffffffffffffffffffffffffffffffffff1614151561109157600080fd5b600060095414156110d4578060036009548154811015156110ae57fe5b906000526020600020906003020160010190805190602001906110d29291906133d6565b505b4260036009548154811015156110e657fe5b90600052602060002090600302016002018190555060016003805490500360016009540111151561114c5780600360016009540181548110151561112657fe5b9060005260206000209060030201600101908051906020019061114a9291906133d6565b505b60096000815480929190600101919050555050565b6000809054906101000a900473ffffffffffffffffffffffffffffffffffffffff1673ffffffffffffffffffffffffffffffffffffffff163373ffffffffffffffffffffffffffffffffffffffff16148061121e5750600560006001815260200190815260200160002060000160009054906101000a900473ffffffffffffffffffffffffffffffffffffffff1673ffffffffffffffffffffffffffffffffffffffff163373ffffffffffffffffffffffffffffffffffffffff16145b8061128b5750600560006002815260200190815260200160002060000160009054906101000a900473ffffffffffffffffffffffffffffffffffffffff1673ffffffffffffffffffffffffffffffffffffffff163373ffffffffffffffffffffffffffffffffffffffff16145b806112f85750600560006003815260200190815260200160002060000160009054906101000a900473ffffffffffffffffffffffffffffffffffffffff1673ffffffffffffffffffffffffffffffffffffffff163373ffffffffffffffffffffffffffffffffffffffff16145b8015611317575060011515600160149054906101000a900460ff161515145b151561132257600080fd5b60008090505b6002805490508110156118cf576000600a60006005600060028681548110151561134e57fe5b9060005260206000200154815260200190815260200160002060000160009054906101000a900473ffffffffffffffffffffffffffffffffffffffff1673ffffffffffffffffffffffffffffffffffffffff1673ffffffffffffffffffffffffffffffffffffffff168152602001908152602001600020816113d09190613288565b507fd5952913006a4406ddb9abce3129b519939f02c06ab2e91f0091837789cef12d6005600060028481548110151561140557fe5b906000526020600020015481526020019081526020016000206007015460405161142f919061384a565b60405180910390a17fd5952913006a4406ddb9abce3129b519939f02c06ab2e91f0091837789cef12d60028281548110151561146757fe5b906000526020600020015460405161147f919061384a565b60405180910390a160016005600060028481548110151561149c57fe5b906000526020600020015481526020019081526020016000206007015414156118c25760008090505b6002805490508110156118c05780821415801561151157506001600560006002848154811015156114f257fe5b9060005260206000200154815260200190815260200160002060070154145b156118b35760006005600060028481548110151561152b57fe5b90600052602060002001548152602001908152602001600020600601546005600060028681548110151561155b57fe5b9060005260206000200154815260200190815260200160002060060154036005600060028581548110151561158c57fe5b9060005260206000200154815260200190815260200160002060060154600560006002878154811015156115bc57fe5b90600052602060002001548152602001908152602001600020600601540302600560006002858154811015156115ee57fe5b90600052602060002001548152602001908152602001600020600501546005600060028781548110151561161e57fe5b9060005260206000200154815260200190815260200160002060050154036005600060028681548110151561164f57fe5b90600052602060002001548152602001908152602001600020600501546005600060028881548110151561167f57fe5b90600052602060002001548152602001908152602001600020600501540302600560006002868154811015156116b157fe5b9060005260206000200154815260200190815260200160002060040154600560006002888154811015156116e157fe5b9060005260206000200154815260200190815260200160002060040154036005600060028781548110151561171257fe5b90600052602060002001548152602001908152602001600020600401546005600060028981548110151561174257fe5b90600052602060002001548152602001908152602001600020600401540302010190506004811315156118b157600a60006005600060028781548110151561178657fe5b9060005260206000200154815260200190815260200160002060000160009054906101000a900473ffffffffffffffffffffffffffffffffffffffff1673ffffffffffffffffffffffffffffffffffffffff1673ffffffffffffffffffffffffffffffffffffffff1681526020019081526020016000206005600060028581548110151561181057fe5b9060005260206000200154815260200190815260200160002060000160009054906101000a900473ffffffffffffffffffffffffffffffffffffffff1690806001815401808255809150509060018203906000526020600020016000909192909190916101000a81548173ffffffffffffffffffffffffffffffffffffffff021916908373ffffffffffffffffffffffffffffffffffffffff160217905550505b505b80806001019150506114c5565b505b8080600101915050611328565b50565b600160009054906101000a900473ffffffffffffffffffffffffffffffffffffffff1673ffffffffffffffffffffffffffffffffffffffff163373ffffffffffffffffffffffffffffffffffffffff161480156119335750601e6007544203115b151561193e57600080fd5b6000600160146101000a81548160ff0219169083151502179055506000600860006101000a81548160ff0219169083151502179055506000811415611cf257600060056000600360095481548110151561199457fe5b906000526020600020906003020160000154815260200190815260200160002060070181905550600460006005600060036009548154811015156119d457fe5b906000526020600020906003020160000154815260200190815260200160002060000160009054906101000a900473ffffffffffffffffffffffffffffffffffffffff1673ffffffffffffffffffffffffffffffffffffffff1673ffffffffffffffffffffffffffffffffffffffff16815260200190815260200160002060008154809291906001019190505550600a60046000600560006003600954815481101515611a7d57fe5b906000526020600020906003020160000154815260200190815260200160002060000160009054906101000a900473ffffffffffffffffffffffffffffffffffffffff1673ffffffffffffffffffffffffffffffffffffffff1673ffffffffffffffffffffffffffffffffffffffff1681526020019081526020016000205402600560006003600954815481101515611b1257fe5b906000526020600020906003020160000154815260200190815260200160002060020181905550671bc16d674ec8000060046000600560006003600954815481101515611b5b57fe5b906000526020600020906003020160000154815260200190815260200160002060000160009054906101000a900473ffffffffffffffffffffffffffffffffffffffff1673ffffffffffffffffffffffffffffffffffffffff1673ffffffffffffffffffffffffffffffffffffffff1681526020019081526020016000205402600560006003600954815481101515611bf057fe5b90600052602060002090600302016000015481526020019081526020016000206003018190555042600560006003600954815481101515611c2d57fe5b906000526020600020906003020160000154815260200190815260200160002060080181905550600560006003600954815481101515611c6957fe5b906000526020600020906003020160000154815260200190815260200160002060000160009054906101000a900473ffffffffffffffffffffffffffffffffffffffff16600860016101000a81548173ffffffffffffffffffffffffffffffffffffffff021916908373ffffffffffffffffffffffffffffffffffffffff1602179055506121aa565b6000600190505b6003805490508110156121a85760036000815481101515611d1657fe5b90600052602060002090600302016001016040518082805460018160011615610100020316600290048015611d825780601f10611d60576101008083540402835291820191611d82565b820191906000526020600020905b815481529060010190602001808311611d6e575b50509150506040518091039020600382815481101515611d9e57fe5b90600052602060002090600302016001016040518082805460018160011615610100020316600290048015611e0a5780601f10611de8576101008083540402835291820191611e0a565b820191906000526020600020905b815481529060010190602001808311611df6575b5050915050604051809103902014151561219b57600060056000600360018503815481101515611e3657fe5b9060005260206000209060030201600001548152602001908152602001600020600701819055506004600060056000600360018603815481101515611e7757fe5b906000526020600020906003020160000154815260200190815260200160002060000160009054906101000a900473ffffffffffffffffffffffffffffffffffffffff1673ffffffffffffffffffffffffffffffffffffffff1673ffffffffffffffffffffffffffffffffffffffff16815260200190815260200160002060008154809291906001019190505550600a6004600060056000600360018703815481101515611f2157fe5b906000526020600020906003020160000154815260200190815260200160002060000160009054906101000a900473ffffffffffffffffffffffffffffffffffffffff1673ffffffffffffffffffffffffffffffffffffffff1673ffffffffffffffffffffffffffffffffffffffff168152602001908152602001600020540260056000600360018503815481101515611fb757fe5b906000526020600020906003020160000154815260200190815260200160002060020181905550671bc16d674ec80000600460006005600060036001870381548110151561200157fe5b906000526020600020906003020160000154815260200190815260200160002060000160009054906101000a900473ffffffffffffffffffffffffffffffffffffffff1673ffffffffffffffffffffffffffffffffffffffff1673ffffffffffffffffffffffffffffffffffffffff16815260200190815260200160002054026005600060036001850381548110151561209757fe5b90600052602060002090600302016000015481526020019081526020016000206003018190555042600560006003600185038154811015156120d557fe5b9060005260206000209060030201600001548152602001908152602001600020600801819055506005600060036001840381548110151561211257fe5b906000526020600020906003020160000154815260200190815260200160002060000160009054906101000a900473ffffffffffffffffffffffffffffffffffffffff16600860016101000a81548173ffffffffffffffffffffffffffffffffffffffff021916908373ffffffffffffffffffffffffffffffffffffffff1602179055506121a8565b8080600101915050611cf9565b505b6121b2612f15565b60006003816121c191906133a4565b50600060098190555060008060006101000a81548173ffffffffffffffffffffffffffffffffffffffff021916908373ffffffffffffffffffffffffffffffffffffffff1602179055506000600160006101000a81548173ffffffffffffffffffffffffffffffffffffffff021916908373ffffffffffffffffffffffffffffffffffffffff160217905550612255612259565b5050565b6000600860019054906101000a900473ffffffffffffffffffffffffffffffffffffffff16905090565b600160149054906101000a900460ff1681565b6000600660003373ffffffffffffffffffffffffffffffffffffffff1673ffffffffffffffffffffffffffffffffffffffff168152602001908152602001600020541415801561233b5750600060056000600660003373ffffffffffffffffffffffffffffffffffffffff1673ffffffffffffffffffffffffffffffffffffffff16815260200190815260200160002054815260200190815260200160002060020154145b1561247c57600060056000600660003373ffffffffffffffffffffffffffffffffffffffff1673ffffffffffffffffffffffffffffffffffffffff168152602001908152602001600020548152602001908152602001600020600901541480156123fa5750600060056000600660003373ffffffffffffffffffffffffffffffffffffffff1673ffffffffffffffffffffffffffffffffffffffff16815260200190815260200160002054815260200190815260200160002060070154145b801561240d5750670de0b6b3a764000034145b1561247257600160056000600660003373ffffffffffffffffffffffffffffffffffffffff1673ffffffffffffffffffffffffffffffffffffffff16815260200190815260200160002054815260200190815260200160002060070181905550612477565b612f12565b612dbb565b6000600660003373ffffffffffffffffffffffffffffffffffffffff1673ffffffffffffffffffffffffffffffffffffffff168152602001908152602001600020541480156124d25750674563918244f4000034145b801561251d57506000600460003373ffffffffffffffffffffffffffffffffffffffff1673ffffffffffffffffffffffffffffffffffffffff16815260200190815260200160002054145b1561280a5760026001600280549050019080600181540180825580915050906001820390600052602060002001600090919290919091505550600280549050600660003373ffffffffffffffffffffffffffffffffffffffff1673ffffffffffffffffffffffffffffffffffffffff168152602001908152602001600020819055503360056000600660003373ffffffffffffffffffffffffffffffffffffffff1673ffffffffffffffffffffffffffffffffffffffff16815260200190815260200160002054815260200190815260200160002060000160006101000a81548173ffffffffffffffffffffffffffffffffffffffff021916908373ffffffffffffffffffffffffffffffffffffffff16021790555060003660056000600660003373ffffffffffffffffffffffffffffffffffffffff1673ffffffffffffffffffffffffffffffffffffffff1681526020019081526020016000205481526020019081526020016000206001019190612698929190613456565b50600060056000600660003373ffffffffffffffffffffffffffffffffffffffff1673ffffffffffffffffffffffffffffffffffffffff16815260200190815260200160002054815260200190815260200160002060020181905550600060056000600660003373ffffffffffffffffffffffffffffffffffffffff1673ffffffffffffffffffffffffffffffffffffffff16815260200190815260200160002054815260200190815260200160002060030181905550600060056000600660003373ffffffffffffffffffffffffffffffffffffffff1673ffffffffffffffffffffffffffffffffffffffff16815260200190815260200160002054815260200190815260200160002060070181905550600060056000600660003373ffffffffffffffffffffffffffffffffffffffff1673ffffffffffffffffffffffffffffffffffffffff16815260200190815260200160002054815260200190815260200160002060090181905550612dba565b6000600460003373ffffffffffffffffffffffffffffffffffffffff1673ffffffffffffffffffffffffffffffffffffffff168152602001908152602001600020541015801561289a5750600a600460003373ffffffffffffffffffffffffffffffffffffffff1673ffffffffffffffffffffffffffffffffffffffff1681526020019081526020016000205411155b15612d6b573460056000600660003373ffffffffffffffffffffffffffffffffffffffff1673ffffffffffffffffffffffffffffffffffffffff168152602001908152602001600020548152602001908152602001600020600301541480156129af575060056000600660003373ffffffffffffffffffffffffffffffffffffffff1673ffffffffffffffffffffffffffffffffffffffff1681526020019081526020016000205481526020019081526020016000206002015460056000600660003373ffffffffffffffffffffffffffffffffffffffff1673ffffffffffffffffffffffffffffffffffffffff16815260200190815260200160002054815260200190815260200160002060080154420311155b15612aca57600060056000600660003373ffffffffffffffffffffffffffffffffffffffff1673ffffffffffffffffffffffffffffffffffffffff16815260200190815260200160002054815260200190815260200160002060030181905550600060056000600660003373ffffffffffffffffffffffffffffffffffffffff1673ffffffffffffffffffffffffffffffffffffffff16815260200190815260200160002054815260200190815260200160002060020181905550600160056000600660003373ffffffffffffffffffffffffffffffffffffffff1673ffffffffffffffffffffffffffffffffffffffff16815260200190815260200160002054815260200190815260200160002060070181905550612d66565b60056000600660003373ffffffffffffffffffffffffffffffffffffffff1673ffffffffffffffffffffffffffffffffffffffff1681526020019081526020016000205481526020019081526020016000206002015460056000600660003373ffffffffffffffffffffffffffffffffffffffff1673ffffffffffffffffffffffffffffffffffffffff1681526020019081526020016000205481526020019081526020016000206008015442031115612c4b57600260056000600660003373ffffffffffffffffffffffffffffffffffffffff1673ffffffffffffffffffffffffffffffffffffffff16815260200190815260200160002054815260200190815260200160002060030160008282540192505081905550600a60056000600660003373ffffffffffffffffffffffffffffffffffffffff1673ffffffffffffffffffffffffffffffffffffffff16815260200190815260200160002054815260200190815260200160002060020160008282540192505081905550612f12565b3460056000600660003373ffffffffffffffffffffffffffffffffffffffff1673ffffffffffffffffffffffffffffffffffffffff16815260200190815260200160002054815260200190815260200160002060030154148015612d5b575060056000600660003373ffffffffffffffffffffffffffffffffffffffff1673ffffffffffffffffffffffffffffffffffffffff1681526020019081526020016000205481526020019081526020016000206002015460056000600660003373ffffffffffffffffffffffffffffffffffffffff1673ffffffffffffffffffffffffffffffffffffffff16815260200190815260200160002054815260200190815260200160002060080154420311155b15612d6557612f12565b5b612db9565b600a600460003373ffffffffffffffffffffffffffffffffffffffff1673ffffffffffffffffffffffffffffffffffffffff168152602001908152602001600020541115612db857612f12565b5b5b5b806000815181101515612dca57fe5b9060200190602002015160056000600660003373ffffffffffffffffffffffffffffffffffffffff1673ffffffffffffffffffffffffffffffffffffffff16815260200190815260200160002054815260200190815260200160002060040181905550806001815181101515612e3c57fe5b9060200190602002015160056000600660003373ffffffffffffffffffffffffffffffffffffffff1673ffffffffffffffffffffffffffffffffffffffff16815260200190815260200160002054815260200190815260200160002060050181905550806002815181101515612eae57fe5b9060200190602002015160056000600660003373ffffffffffffffffffffffffffffffffffffffff1673ffffffffffffffffffffffffffffffffffffffff168152602001908152602001600020548152602001908152602001600020600601819055505b50565b60008090505b600280549050811015613118576000600a600060056000600286815481101515612f4157fe5b9060005260206000200154815260200190815260200160002060000160009054906101000a900473ffffffffffffffffffffffffffffffffffffffff1673ffffffffffffffffffffffffffffffffffffffff1673ffffffffffffffffffffffffffffffffffffffff16815260200190815260200160002081612fc39190613288565b50600160056000600284815481101515612fd957fe5b9060005260206000200154815260200190815260200160002060070154148015613032575060006005600060028481548110151561301357fe5b9060005260206000200154815260200190815260200160002060090154145b1561310b5760006005600060028481548110151561304c57fe5b90600052602060002001548152602001908152602001600020600701819055506005600060028381548110151561307f57fe5b9060005260206000200154815260200190815260200160002060000160009054906101000a900473ffffffffffffffffffffffffffffffffffffffff1673ffffffffffffffffffffffffffffffffffffffff166108fc670de0b6b3a76400009081150290604051600060405180830381858888f19350505050158015613109573d6000803e3d6000fd5b505b8080600101915050612f1b565b50565b600080606060056000600660003373ffffffffffffffffffffffffffffffffffffffff1673ffffffffffffffffffffffffffffffffffffffff16815260200190815260200160002054815260200190815260200160002060020154600460003373ffffffffffffffffffffffffffffffffffffffff1673ffffffffffffffffffffffffffffffffffffffff16815260200190815260200160002054600a60003373ffffffffffffffffffffffffffffffffffffffff1673ffffffffffffffffffffffffffffffffffffffff1681526020019081526020016000208080548060200260200160405190810160405280929190818152602001828054801561327657602002820191906000526020600020905b8160009054906101000a900473ffffffffffffffffffffffffffffffffffffffff1673ffffffffffffffffffffffffffffffffffffffff168152602001906001019080831161322c575b50505050509050925092509250909192565b8154818355818111156132af578183600052602060002091820191016132ae91906134d6565b5b505050565b50805460018160011615610100020316600290046000825580601f106132da57506132f9565b601f0160209004906000526020600020908101906132f891906134d6565b5b50565b508054600082559060005260206000209081019061331a91906134d6565b50565b828054600181600116156101000203166002900490600052602060002090601f016020900481019282601f106133565780548555613393565b8280016001018555821561339357600052602060002091601f016020900482015b82811115613392578254825591600101919060010190613377565b5b5090506133a091906134d6565b5090565b8154818355818111156133d1576003028160030283600052602060002091820191016133d091906134fb565b5b505050565b828054600181600116156101000203166002900490600052602060002090601f016020900481019282601f1061341757805160ff1916838001178555613445565b82800160010185558215613445579182015b82811115613444578251825591602001919060010190613429565b5b50905061345291906134d6565b5090565b828054600181600116156101000203166002900490600052602060002090601f016020900481019282601f1061349757803560ff19168380011785556134c5565b828001600101855582156134c5579182015b828111156134c45782358255916020019190600101906134a9565b5b5090506134d291906134d6565b5090565b6134f891905b808211156134f45760008160009055506001016134dc565b5090565b90565b61353791905b808211156135335760008082016000905560018201600061352291906132b4565b600282016000905550600301613501565b5090565b90565b600061354682356139ae565b905092915050565b600082601f830112151561356157600080fd5b813561357461356f826138d0565b6138a3565b9150818183526020840193506020810190508385602084028201111561359957600080fd5b60005b838110156135c957816135af88826135d3565b84526020840193506020830192505060018101905061359c565b5050505092915050565b60006135df82356139c0565b905092915050565b600082601f83011215156135fa57600080fd5b813561360d613608826138f8565b6138a3565b9150808252602083016020830185838301111561362957600080fd5b6136348382846139d4565b50505092915050565b600061364982356139ca565b905092915050565b60006020828403121561366357600080fd5b60006136718482850161353a565b91505092915050565b60006020828403121561368c57600080fd5b600082013567ffffffffffffffff8111156136a657600080fd5b6136b28482850161354e565b91505092915050565b6000602082840312156136cd57600080fd5b600082013567ffffffffffffffff8111156136e757600080fd5b6136f3848285016135e7565b91505092915050565b60006020828403121561370e57600080fd5b600061371c8482850161363d565b91505092915050565b61372e81613966565b82525050565b61373d81613954565b82525050565b600061374e82613931565b80845260208401935061376083613924565b60005b8281101561379257613776868351613734565b61377f82613947565b9150602086019550600181019050613763565b50849250505092915050565b6137a781613978565b82525050565b60006137b88261393c565b8084526137cc8160208601602086016139e3565b6137d581613a16565b602085010191505092915050565b6137ec816139a4565b82525050565b60006020820190506138076000830184613725565b92915050565b6000602082019050613822600083018461379e565b92915050565b6000602082019050818103600083015261384281846137ad565b905092915050565b600060208201905061385f60008301846137e3565b92915050565b600060608201905061387a60008301866137e3565b61388760208301856137e3565b81810360408301526138998184613743565b9050949350505050565b6000604051905081810181811067ffffffffffffffff821117156138c657600080fd5b8060405250919050565b600067ffffffffffffffff8211156138e757600080fd5b602082029050602081019050919050565b600067ffffffffffffffff82111561390f57600080fd5b601f19601f8301169050602081019050919050565b6000602082019050919050565b600081519050919050565b600081519050919050565b6000602082019050919050565b600061395f82613984565b9050919050565b600061397182613984565b9050919050565b60008115159050919050565b600073ffffffffffffffffffffffffffffffffffffffff82169050919050565b6000819050919050565b60006139b982613984565b9050919050565b6000819050919050565b6000819050919050565b82818337600083830152505050565b60005b83811015613a015780820151818401526020810190506139e6565b83811115613a10576000848401525b50505050565b6000601f19601f830116905091905056fea265627a7a72305820759663c5e6a62fb7e1dba760f1fc4f6d33410669f0bb16057d88f8781d27f9776c6578706572696d656e74616cf500372d2d2d2d2d424547494e205055424c4943204b45592d2d2d2d2d0a4d4947664d413047435371475349623344514542415155414134474e4144434269514b42675144596e6f475239616b546c39666b635170394b44757a484847580a3458366a7557392b6c5a414c314f7954567075434478757853317043554d3377455274347a5567466964566d364a5269464f426d746d564d5a66742b412f632b0a2b706b65446f47673077554738526b637a3466426b7446364f514c67375933784f4c455578516b456d32664379575068324b38523435474f6b6f704e633447490a697854323349774f4a732b56414b7a786b774944415141420a2d2d2d2d2d454e44205055424c4943204b45592d2d2d2d2d2d2d2d2d2d424547494e205055424c4943204b45592d2d2d2d2d0a4d4947664d413047435371475349623344514542415155414134474e4144434269514b426751433837616a31317677562f6a693538634c69677048766353544a0a74654164616a4a3350776e5576484843546a6835526a683037735a4f62314d563276634f4236506d786c48716f63714945766d5431504271496f4c4e396a70420a432f7462545774444c61664e4569726474737a6555675032733876467a684b33463759714e47487a7a3748694f435637465956734465346a796a5631307645660a42357453587430704832374c4a6970755a774944415141420a2d2d2d2d2d454e44205055424c4943204b45592d2d2d2d2d2d2d2d2d2d424547494e205055424c4943204b45592d2d2d2d2d0a4d4947664d413047435371475349623344514542415155414134474e4144434269514b426751444d4a6c7367334669654a73624339784c47794643384d646b450a39563059633333576a755a71553663613779374b334155752b54734d59734b474168514a76634e75355078775a77666b7564592b77496d2f2f4e726f537433730a4768724d6b614e6f465441573155633851355937374b314c2f6b70394d306265305558584735516233515a2f64637a454444706e6d30694c48757354597a37520a6e774f694a5474663965477435436c5a34774944415141420a2d2d2d2d2d454e44205055424c4943204b45592d2d2d2d2d2d2d2d2d2d424547494e205055424c4943204b45592d2d2d2d2d0a4d4947664d413047435371475349623344514542415155414134474e4144434269514b4267514431556d6b467976503450523663654d435539786954427641350a524869375134572f5864726c526f71584834744267777458504f624c6370706a7447636773467436677537553832576b314f5a386952454f795931754e544b440a2b61543366584c74476257364b446966654d35453639444f5032566a66783631626943434e726a794d5a6a35714a7662696e4e76436f2f5133372b30644775550a704b5a393932665734467a4654424d4b76514944415141420a2d2d2d2d2d454e44205055424c4943204b45592d2d2d2d2d2d2d2d2d2d424547494e205055424c4943204b45592d2d2d2d2d0a4d4947664d413047435371475349623344514542415155414134474e4144434269514b426751434470514c2f682b396e59493630503246546355744134675a760a30724f6b6e5755336f7a4574304e79573859546a4b5a54436c59793876626447485359566271687863716369675651614446715a684a4a6556512f4a4b37624d0a4a4737762f417546456a477533554b6676496944645371413747516e51484e34615432313741304d7461523956546f7334797462356e31682b737249523864720a41315362713072544a434f4e457a4e3277774944415141420a2d2d2d2d2d454e44205055424c4943204b45592d2d2d2d2d2d2d2d2d2d424547494e205055424c4943204b45592d2d2d2d2d0a4d4947664d413047435371475349623344514542415155414134474e4144434269514b42675143515a676c6b74394f504a526147672b457a45454170747834350a4970303453384670575144506d576a7967344c78556f7959625557493259574a59656b62776f696a6c624a57457a5a4d2b5a64346275526e48503836323830560a434e56524e5a435552517750363259675076537250666930727a5556664350476f7a7543697033565757454577652f6a4d6e664259614e6f76794f45584b62560a6c6a6a706f4c6471665a2b4d7768534565774944415141420a2d2d2d2d2d454e44205055424c4943204b45592d2d2d2d2d2d2d2d2d2d424547494e205055424c4943204b45592d2d2d2d2d0a4d4947664d413047435371475349623344514542415155414134474e4144434269514b426751446764655747797869467048706f63687959464d4d79775350540a41677258335431625934537757625a73675357693541656f73586b76526e4247437848623755434a637459544576314f7138476b424a4b3663467837536a2f4f0a6474462b4d637342335166674f737370637345624a56596e7654576c666732706445574d5a433967324d307a334c756471536451594b5a6a67676e54627a66380a65774235624334584b49555a4d59412f77774944415141420a2d2d2d2d2d454e44205055424c4943204b45592d2d2d2d2d2d2d2d2d2d424547494e205055424c4943204b45592d2d2d2d2d0a4d4947664d413047435371475349623344514542415155414134474e4144434269514b426751436533623043785061505a35795558464d555a45794232506f6c0a4b47555367485365564130764b42634a6d4c38533878766e4a4637566b6942644574386a34745030474c72773030484534414c5563305a642b3776542b4d6e310a7766637474394d45774c654f67555571464b746a51785078494b696372327439304a2b787974584338696455583532574242534e6c58535a71776d73316265790a6354575155416775666e636d484a6b7578774944415141420a2d2d2d2d2d454e44205055424c4943204b45592d2d2d2d2d",
  "source": "pragma solidity >=0.4.21 <0.6.0;\npragma experimental ABIEncoderV2;\nimport \"./UAV.sol\";\n\ncontract DataSending is Registration{\n  uint timestamp;\n  bool successful;\n  address payable culprit;\n  uint count=0;\n  event x1(\n        uint a);\n  mapping (address => address[]) routeTable;\n\n  constructor() public{\n\n    successful=false;\n\n  }\n\n  function doTrans(address payable dest) public{\n\n    require(transaction==false && msg.sender!=dest);\n    transaction=true;\n    source=msg.sender;\n    destination=dest;\n    timestamp=now;\n\n  }\n\n\n  function registerCoordinates(int[] memory coordinates) public payable\n  {\n    if(pubToMac[msg.sender]!=0 && registered[pubToMac[msg.sender]].faulty==0)\n    {\n      if(registered[pubToMac[msg.sender]].bcs==0 && registered[pubToMac[msg.sender]].participating==0 && msg.value==1 ether)\n      {\n        registered[pubToMac[msg.sender]].participating=1;\n      }\n      else\n        return;\n    }\n\n    else if(pubToMac[msg.sender]==0 && msg.value==5 ether && blacklisted[msg.sender]==0)\n    {\n      list.push(list.length+1);\n      pubToMac[msg.sender]=list.length;\n      registered[pubToMac[msg.sender]].publicKey=msg.sender;\n      registered[pubToMac[msg.sender]].encrypt=string(msg.data);\n      registered[pubToMac[msg.sender]].faulty=0;\n      registered[pubToMac[msg.sender]].penaltytoken=0;\n      registered[pubToMac[msg.sender]].participating=0;\n      registered[pubToMac[msg.sender]].bcs=0;\n\n    }\n    else if(blacklisted[msg.sender]>=0 && blacklisted[msg.sender]<=10)\n    {\n        if(registered[pubToMac[msg.sender]].penaltytoken == msg.value && (now-registered[pubToMac[msg.sender]].timestamp)<=registered[pubToMac[msg.sender]].faulty)\n        {\n          registered[pubToMac[msg.sender]].penaltytoken=0;\n          registered[pubToMac[msg.sender]].faulty=0;\n          registered[pubToMac[msg.sender]].participating=1;\n        }\n        else if( (now-registered[pubToMac[msg.sender]].timestamp)>registered[pubToMac[msg.sender]].faulty)\n        {\n            registered[pubToMac[msg.sender]].penaltytoken+=2;\n            registered[pubToMac[msg.sender]].faulty+=10;\n            return;\n        }\n        else if(registered[pubToMac[msg.sender]].penaltytoken == msg.value && (now-registered[pubToMac[msg.sender]].timestamp)<=registered[pubToMac[msg.sender]].faulty)\n        {\n            return;\n        }\n    }\n    else if(blacklisted[msg.sender]>10)\n        return;\n    registered[pubToMac[msg.sender]].x=coordinates[0];\n    registered[pubToMac[msg.sender]].y=coordinates[1];\n    registered[pubToMac[msg.sender]].z=coordinates[2];\n\n  }\n\n  function getTable() public view returns(uint,uint,address[] memory)\n  {\n\n    return (registered[pubToMac[msg.sender]].faulty,blacklisted[msg.sender],routeTable[msg.sender]);\n\n  }\n\n\n  function updateGraph() public\n  {\n\n    require((msg.sender==source || msg.sender==registered[1].publicKey || msg.sender==registered[2].publicKey || msg.sender==registered[3].publicKey) && transaction==true);\n    for(uint i=0;i<list.length;i++)\n    {\n\n      routeTable[registered[list[i]].publicKey].length=0;\n      emit x1(registered[list[i]].participating);\n        emit x1(list[i]);\n      if(registered[list[i]].participating==1){\n      for(uint j=0;j<list.length;j++)\n      {\n        if(i!=j && registered[list[j]].participating==1)\n        {\n            int distance=(registered[list[i]].x-registered[list[j]].x)*(registered[list[i]].x-registered[list[j]].x) + (registered[list[i]].y-registered[list[j]].y)*(registered[list[i]].y-registered[list[j]].y) + (registered[list[i]].z-registered[list[j]].z)*(registered[list[i]].z-registered[list[j]].z);\n            if(distance<=4)\n            {\n              routeTable[registered[list[i]].publicKey].push(registered[list[j]].publicKey);\n            }\n        }\n      }}\n    }\n\n  }\n\n  function success() public payable returns(bool){\n\n      if(msg.sender==destination)\n        {\n            Route[count].timestamp=now;\n            successful=true;\n            count=0;\n            destination=0x0000000000000000000000000000000000000000;\n            sendBackToken();\n        }\n    else\n        return false;\n  }\n\n  function sendBackToken() public payable\n  {\n    for(uint i=0;i<list.length;i++)\n    {\n        routeTable[registered[list[i]].publicKey].length=0;\n      if(registered[list[i]].participating==1 && registered[list[i]].bcs==0)\n      {\n\n        registered[list[i]].participating=0;\n        registered[list[i]].publicKey.transfer(1 ether);\n      }\n\n    }\n  }\n  function unsuccessful(uint x) public payable {\n\n      require(msg.sender==destination && now-timestamp>30);\n\n      transaction=false;\n      successful=false;\n      if(x==0)\n      {\n\n        registered[Route[count].id].participating=0;\n        blacklisted[registered[Route[count].id].publicKey]++;\n        registered[Route[count].id].faulty=blacklisted[registered[Route[count].id].publicKey]*10;\n        registered[Route[count].id].penaltytoken=blacklisted[registered[Route[count].id].publicKey]*2 ether;\n        registered[Route[count].id].timestamp=now;\n        culprit=registered[Route[count].id].publicKey;\n      }\n      else\n      {\n        for(uint i=1;i<Route.length;i++)\n        {\n          if(keccak256(bytes(Route[i].data))!=keccak256(bytes(Route[0].data)))\n          {\n            registered[Route[i-1].id].participating=0;\n            blacklisted[registered[Route[i-1].id].publicKey]++;\n            registered[Route[i-1].id].faulty=blacklisted[registered[Route[i-1].id].publicKey]*10;\n            registered[Route[i-1].id].penaltytoken=blacklisted[registered[Route[i-1].id].publicKey]*2 ether;\n            registered[Route[i-1].id].timestamp=now;\n            culprit=registered[Route[i-1].id].publicKey;\n            break;\n          }\n        }\n      }\n      sendBackToken();\n      Route.length=0;\n      count=0;\n      source=0x0000000000000000000000000000000000000000;\n      destination=0x0000000000000000000000000000000000000000;\n      returnCulprit();\n\n  }\n  function returnCulprit() public view returns(address payable)\n  {\n      return culprit;\n  }\n\n  function transCompleted() public payable{\n\n      require(msg.sender==source && transaction==true && successful==true);\n      count=0;\n      uint divide=msg.value/(Route.length-2);\n      for(uint i=1;i<Route.length-1;i++)\n      {\n        registered[Route[i].id].publicKey.transfer(divide);\n      }\n      Route.length=0;\n      transaction=false;\n      successful=false;\n      source=0x0000000000000000000000000000000000000000;\n\n\n  }\n\n  function send(string memory x) public{\n      require(msg.sender==registered[Route[count].id].publicKey);\n      if(count==0)\n        Route[count].data=string(x);\n      Route[count].timestamp=now;\n      if(count+1<=Route.length-1)\n        Route[count+1].data=string(x);\n      count++;\n  }\n  function getData() public view returns (string memory) {\n\n      return Route[count].data;\n  }\n  function abort() public{\n\n    require(msg.sender==registered[1].publicKey || msg.sender==registered[2].publicKey || msg.sender==registered[3].publicKey);\n     uint count1=0;\n      uint[] memory list1=new uint[](list.length);\n      for(uint i=0;i<list.length;i++)\n      {\n        if(registered[list[i]].bcs==0 && registered[list[i]].participating==1)\n        {\n            registered[list[i]].participating=0;\n\n        }\n        routeTable[registered[list[i]].publicKey].length=0;\n        if(blacklisted[registered[list[i]].publicKey]<10)\n        {\n          list1[count1]=list[i];\n          count1++;\n        }\n        else\n        {\n            delete registered[list[i]];\n        }\n        delete pubToMac[registered[list[i]].publicKey];\n      }\n      delete list;\n      for(uint i=0;i<count1;i++)\n      {\n          list.push(list1[i]);\n          registered[i+1]=registered[list[i]];\n          if(i+1 != list[i])\n            delete registered[list[i]];\n          pubToMac[registered[i+1].publicKey]=i+1;\n          list[i]=i+1;\n      }\n      delete list1;\n\n\n\n    Route.length=0;\n    transaction=false;\n    successful=false;\n    count=0;\n    source=0x0000000000000000000000000000000000000000;\n    destination=0x0000000000000000000000000000000000000000;\n\n\n  }\n\n}\n",
  "sourcePath": "/home/stellet/Desktop/blockchain/Major-Blockchain/src/contracts/DataSending.sol",
  "compiler": {
    "name": "solc",
    "version": "0.5.0+commit.1d4f565a.Emscripten.clang"
  },
  "schemaVersion": "3.0.2",
  "updatedAt": "2020-05-21T23:31:47.153Z",
  "devdoc": {
    "methods": {}
  },
  "userdoc": {
    "methods": {}
  }
}