{
  "contractName": "DataSending",
  "abi": [
    {
      "constant": true,
      "inputs": [],
      "name": "checkBlacklisted",
      "outputs": [
        {
          "name": "",
          "type": "uint256"
        }
      ],
      "payable": false,
      "stateMutability": "view",
      "type": "function"
    },
    {
      "constant": false,
      "inputs": [],
      "name": "removeFromFaulty",
      "outputs": [],
      "payable": true,
      "stateMutability": "payable",
      "type": "function"
    },
    {
      "constant": false,
      "inputs": [
        {
          "name": "pubkey",
          "type": "string"
        }
      ],
      "name": "registration",
      "outputs": [],
      "payable": true,
      "stateMutability": "payable",
      "type": "function"
    },
    {
      "constant": true,
      "inputs": [],
      "name": "transaction",
      "outputs": [
        {
          "name": "",
          "type": "bool"
        }
      ],
      "payable": false,
      "stateMutability": "view",
      "type": "function"
    },
    {
      "inputs": [],
      "payable": false,
      "stateMutability": "nonpayable",
      "type": "constructor"
    },
    {
      "constant": false,
      "inputs": [
        {
          "name": "dest",
          "type": "address"
        }
      ],
      "name": "doTrans",
      "outputs": [],
      "payable": false,
      "stateMutability": "nonpayable",
      "type": "function"
    },
    {
      "constant": false,
      "inputs": [
        {
          "name": "coordinates",
          "type": "int256[]"
        }
      ],
      "name": "registerCoordinates",
      "outputs": [],
      "payable": true,
      "stateMutability": "payable",
      "type": "function"
    },
    {
      "constant": true,
      "inputs": [],
      "name": "getTable",
      "outputs": [
        {
          "name": "",
          "type": "uint256"
        },
        {
          "name": "",
          "type": "uint256"
        },
        {
          "name": "",
          "type": "address[]"
        }
      ],
      "payable": false,
      "stateMutability": "view",
      "type": "function"
    },
    {
      "constant": false,
      "inputs": [],
      "name": "updateGraph",
      "outputs": [],
      "payable": false,
      "stateMutability": "nonpayable",
      "type": "function"
    },
    {
      "constant": false,
      "inputs": [],
      "name": "success",
      "outputs": [
        {
          "name": "",
          "type": "bool"
        }
      ],
      "payable": true,
      "stateMutability": "payable",
      "type": "function"
    },
    {
      "constant": false,
      "inputs": [],
      "name": "sendBackToken",
      "outputs": [],
      "payable": true,
      "stateMutability": "payable",
      "type": "function"
    },
    {
      "constant": false,
      "inputs": [
        {
          "name": "x",
          "type": "uint256"
        }
      ],
      "name": "unsuccessful",
      "outputs": [],
      "payable": true,
      "stateMutability": "payable",
      "type": "function"
    },
    {
      "constant": true,
      "inputs": [],
      "name": "returnCulprit",
      "outputs": [
        {
          "name": "",
          "type": "address"
        }
      ],
      "payable": false,
      "stateMutability": "view",
      "type": "function"
    },
    {
      "constant": false,
      "inputs": [],
      "name": "transCompleted",
      "outputs": [],
      "payable": true,
      "stateMutability": "payable",
      "type": "function"
    },
    {
      "constant": false,
      "inputs": [
        {
          "name": "x",
          "type": "bytes"
        }
      ],
      "name": "send",
      "outputs": [],
      "payable": false,
      "stateMutability": "nonpayable",
      "type": "function"
    },
    {
      "constant": true,
      "inputs": [],
      "name": "getData",
      "outputs": [
        {
          "name": "",
          "type": "bytes"
        }
      ],
      "payable": false,
      "stateMutability": "view",
      "type": "function"
    },
    {
      "constant": false,
      "inputs": [],
      "name": "abort",
      "outputs": [],
      "payable": false,
      "stateMutability": "nonpayable",
      "type": "function"
    },
    {
      "constant": true,
      "inputs": [],
      "name": "getRegistered",
      "outputs": [
        {
          "components": [
            {
              "name": "publicKey",
              "type": "address"
            },
            {
              "name": "encrypt",
              "type": "string"
            },
            {
              "name": "faulty",
              "type": "uint256"
            },
            {
              "name": "penaltytoken",
              "type": "uint256"
            },
            {
              "name": "x",
              "type": "int256"
            },
            {
              "name": "y",
              "type": "int256"
            },
            {
              "name": "z",
              "type": "int256"
            },
            {
              "name": "participating",
              "type": "uint256"
            },
            {
              "name": "timestamp",
              "type": "uint256"
            },
            {
              "name": "bcs",
              "type": "uint256"
            }
          ],
          "name": "",
          "type": "tuple"
        },
        {
          "name": "",
          "type": "uint256"
        },
        {
          "name": "",
          "type": "uint256"
        }
      ],
      "payable": false,
      "stateMutability": "view",
      "type": "function"
    }
  ],
  "bytecode": "0x608060405260006009553480156200001657600080fd5b506000600160146101000a81548160ff021916908315150217905550610140604051908101604052807370e3638080c5f2d79d9ecda07b915bcda59eff5073ffffffffffffffffffffffffffffffffffffffff1681526020016101406040519081016040528061010f81526020016200523861010f91398152602001600081526020016000815260200160008152602001600081526020016000815260200160018152602001600081526020016001815250600560006001815260200190815260200160002060008201518160000160006101000a81548173ffffffffffffffffffffffffffffffffffffffff021916908373ffffffffffffffffffffffffffffffffffffffff16021790555060208201518160010190805190602001906200014192919062001328565b5060408201518160020155606082015181600301556080820151816004015560a0820151816005015560c0820151816006015560e0820151816007015561010082015181600801556101208201518160090155905050610140604051908101604052807389d4046f422b59bb5cab387d07d10126c7506f9573ffffffffffffffffffffffffffffffffffffffff1681526020016101406040519081016040528061010f81526020016200589261010f91398152602001600081526020016000815260200160048152602001600081526020016000815260200160018152602001600081526020016001815250600560006002815260200190815260200160002060008201518160000160006101000a81548173ffffffffffffffffffffffffffffffffffffffff021916908373ffffffffffffffffffffffffffffffffffffffff1602179055506020820151816001019080519060200190620002a692919062001328565b5060408201518160020155606082015181600301556080820151816004015560a0820151816005015560c0820151816006015560e08201518160070155610100820151816008015561012082015181600901559050506101406040519081016040528073921d10d6b1764f4ba35958a580086e1ec8d5cae473ffffffffffffffffffffffffffffffffffffffff1681526020016101406040519081016040528061010f81526020016200578361010f91398152602001600081526020016000815260200160088152602001600081526020016000815260200160018152602001600081526020016001815250600560006003815260200190815260200160002060008201518160000160006101000a81548173ffffffffffffffffffffffffffffffffffffffff021916908373ffffffffffffffffffffffffffffffffffffffff16021790555060208201518160010190805190602001906200040b92919062001328565b5060408201518160020155606082015181600301556080820151816004015560a0820151816005015560c0820151816006015560e08201518160070155610100820151816008015561012082015181600901559050506101406040519081016040528073c335ef44ac81d4d32c4b9636104865a21d4cdd7773ffffffffffffffffffffffffffffffffffffffff1681526020016101406040519081016040528061010f8152602001620059a161010f91398152602001600081526020016000815260200160008152602001600281526020016000815260200160008152602001600081526020016000815250600560006004815260200190815260200160002060008201518160000160006101000a81548173ffffffffffffffffffffffffffffffffffffffff021916908373ffffffffffffffffffffffffffffffffffffffff16021790555060208201518160010190805190602001906200057092919062001328565b5060408201518160020155606082015181600301556080820151816004015560a0820151816005015560c0820151816006015560e082015181600701556101008201518160080155610120820151816009015590505061014060405190810160405280736dfbc4d1639e7707eacd3787066ea8836f9e0b1573ffffffffffffffffffffffffffffffffffffffff1681526020016101406040519081016040528061010f81526020016200567461010f91398152602001600081526020016000815260200160008152602001600481526020016000815260200160008152602001600081526020016000815250600560006005815260200190815260200160002060008201518160000160006101000a81548173ffffffffffffffffffffffffffffffffffffffff021916908373ffffffffffffffffffffffffffffffffffffffff1602179055506020820151816001019080519060200190620006d592919062001328565b5060408201518160020155606082015181600301556080820151816004015560a0820151816005015560c0820151816006015560e08201518160070155610100820151816008015561012082015181600901559050506101406040519081016040528073b4e174b126bc49f6b81341b54c08037d76d052e273ffffffffffffffffffffffffffffffffffffffff1681526020016101406040519081016040528061010f81526020016200534761010f91398152602001600081526020016000815260200160028152602001600481526020016000815260200160008152602001600081526020016000815250600560006006815260200190815260200160002060008201518160000160006101000a81548173ffffffffffffffffffffffffffffffffffffffff021916908373ffffffffffffffffffffffffffffffffffffffff16021790555060208201518160010190805190602001906200083a92919062001328565b5060408201518160020155606082015181600301556080820151816004015560a0820151816005015560c0820151816006015560e08201518160070155610100820151816008015561012082015181600901559050506101406040519081016040528073464efed2e93050ed8e6f930dd69c651ec653dd5273ffffffffffffffffffffffffffffffffffffffff1681526020016101406040519081016040528061010f81526020016200545661010f91398152602001600081526020016000815260200160048152602001600481526020016000815260200160008152602001600081526020016000815250600560006007815260200190815260200160002060008201518160000160006101000a81548173ffffffffffffffffffffffffffffffffffffffff021916908373ffffffffffffffffffffffffffffffffffffffff16021790555060208201518160010190805190602001906200099f92919062001328565b5060408201518160020155606082015181600301556080820151816004015560a0820151816005015560c0820151816006015560e082015181600701556101008201518160080155610120820151816009015590505061014060405190810160405280730dc98391981033aa1d94518aae1c73406572e9ee73ffffffffffffffffffffffffffffffffffffffff1681526020016101406040519081016040528061010f81526020016200556561010f91398152602001600081526020016000815260200160048152602001600281526020016000815260200160008152602001600081526020016000815250600560006008815260200190815260200160002060008201518160000160006101000a81548173ffffffffffffffffffffffffffffffffffffffff021916908373ffffffffffffffffffffffffffffffffffffffff160217905550602082015181600101908051906020019062000b0492919062001328565b5060408201518160020155606082015181600301556080820151816004015560a0820151816005015560c0820151816006015560e08201518160070155610100820151816008015561012082015181600901559050506101406040519081016040528073728ec075e466b9c39036d580dfccd06204acd9c873ffffffffffffffffffffffffffffffffffffffff1681526020016101406040519081016040528061010f815260200162005ab061010f91398152602001600081526020016000815260200160008152602001600081526020016000815260200160008152602001600081526020016000815250600560006009815260200190815260200160002060008201518160000160006101000a81548173ffffffffffffffffffffffffffffffffffffffff021916908373ffffffffffffffffffffffffffffffffffffffff160217905550602082015181600101908051906020019062000c6992919062001328565b5060408201518160020155606082015181600301556080820151816004015560a0820151816005015560c0820151816006015560e0820151816007015561010082015181600801556101208201518160090155905050600a6004600073c335ef44ac81d4d32c4b9636104865a21d4cdd7773ffffffffffffffffffffffffffffffffffffffff1673ffffffffffffffffffffffffffffffffffffffff16815260200190815260200160002081905550600160066000600560006001815260200190815260200160002060000160009054906101000a900473ffffffffffffffffffffffffffffffffffffffff1673ffffffffffffffffffffffffffffffffffffffff1673ffffffffffffffffffffffffffffffffffffffff16815260200190815260200160002081905550600260066000600560006002815260200190815260200160002060000160009054906101000a900473ffffffffffffffffffffffffffffffffffffffff1673ffffffffffffffffffffffffffffffffffffffff1673ffffffffffffffffffffffffffffffffffffffff16815260200190815260200160002081905550600360066000600560006003815260200190815260200160002060000160009054906101000a900473ffffffffffffffffffffffffffffffffffffffff1673ffffffffffffffffffffffffffffffffffffffff1673ffffffffffffffffffffffffffffffffffffffff16815260200190815260200160002081905550600460066000600560006004815260200190815260200160002060000160009054906101000a900473ffffffffffffffffffffffffffffffffffffffff1673ffffffffffffffffffffffffffffffffffffffff1673ffffffffffffffffffffffffffffffffffffffff16815260200190815260200160002081905550600560066000600560006005815260200190815260200160002060000160009054906101000a900473ffffffffffffffffffffffffffffffffffffffff1673ffffffffffffffffffffffffffffffffffffffff1673ffffffffffffffffffffffffffffffffffffffff168152602001908152602001600020819055506006806000600560006006815260200190815260200160002060000160009054906101000a900473ffffffffffffffffffffffffffffffffffffffff1673ffffffffffffffffffffffffffffffffffffffff1673ffffffffffffffffffffffffffffffffffffffff16815260200190815260200160002081905550600760066000600560006007815260200190815260200160002060000160009054906101000a900473ffffffffffffffffffffffffffffffffffffffff1673ffffffffffffffffffffffffffffffffffffffff1673ffffffffffffffffffffffffffffffffffffffff16815260200190815260200160002081905550600860066000600560006008815260200190815260200160002060000160009054906101000a900473ffffffffffffffffffffffffffffffffffffffff1673ffffffffffffffffffffffffffffffffffffffff1673ffffffffffffffffffffffffffffffffffffffff16815260200190815260200160002081905550600960066000600560006009815260200190815260200160002060000160009054906101000a900473ffffffffffffffffffffffffffffffffffffffff1673ffffffffffffffffffffffffffffffffffffffff1673ffffffffffffffffffffffffffffffffffffffff1681526020019081526020016000208190555060026001908060018154018082558091505090600182039060005260206000200160009091929091909150555060028090806001815401808255809150509060018203906000526020600020016000909192909190915055506002600390806001815401808255809150509060018203906000526020600020016000909192909190915055506002600490806001815401808255809150509060018203906000526020600020016000909192909190915055506002600590806001815401808255809150509060018203906000526020600020016000909192909190915055506002600690806001815401808255809150509060018203906000526020600020016000909192909190915055506002600790806001815401808255809150509060018203906000526020600020016000909192909190915055506002600890806001815401808255809150509060018203906000526020600020016000909192909190915055506002600990806001815401808255809150509060018203906000526020600020016000909192909190915055506000600860006101000a81548160ff021916908315150217905550620013d7565b828054600181600116156101000203166002900490600052602060002090601f016020900481019282601f106200136b57805160ff19168380011785556200139c565b828001600101855582156200139c579182015b828111156200139b5782518255916020019190600101906200137e565b5b509050620013ab9190620013af565b5090565b620013d491905b80821115620013d0576000816000905550600101620013b6565b5090565b90565b613e5180620013e76000396000f3fe6080604052600436106100f1576000357c0100000000000000000000000000000000000000000000000000000000900463ffffffff1680630b93381b146100f65780632adc5d2f146101145780632bb1ae7c1461013f57806335a063b4146101685780633bc5de301461017f5780633dd8de3e146101aa57806347426fad146101b457806357c6a843146101dd5780635e7c2f10146101e75780637a6543e2146102035780638f99123d1461023057806396fbe5eb14610247578063af707c0b14610263578063c99de57e1461028e578063f3b8b7d1146102b9578063f421a16b146102d5578063fb6391ab146102df575b600080fd5b6100fe61030c565b60405161010b9190613b7e565b60405180910390f35b34801561012057600080fd5b5061012961040a565b6040516101369190613bf9565b60405180910390f35b34801561014b57600080fd5b50610166600480360361016191908101906138cc565b610451565b005b34801561017457600080fd5b5061017d6105b3565b005b34801561018b57600080fd5b50610194610c9b565b6040516101a19190613b99565b60405180910390f35b6101b2610e02565b005b3480156101c057600080fd5b506101db60048036036101d69190810190613862565b6112bf565b005b6101e56113be565b005b61020160048036036101fc919081019061390d565b6115d9565b005b34801561020f57600080fd5b50610218611a85565b60405161022793929190613bbb565b60405180910390f35b34801561023c57600080fd5b50610245611cc5565b005b610261600480360361025c919081019061394e565b612380565b005b34801561026f57600080fd5b50610278612c53565b6040516102859190613b63565b60405180910390f35b34801561029a57600080fd5b506102a3612c7d565b6040516102b09190613b7e565b60405180910390f35b6102d360048036036102ce919081019061388b565b612c90565b005b6102dd612ff7565b005b3480156102eb57600080fd5b506102f46131fd565b60405161030393929190613c14565b60405180910390f35b6000600160009054906101000a900473ffffffffffffffffffffffffffffffffffffffff1673ffffffffffffffffffffffffffffffffffffffff163373ffffffffffffffffffffffffffffffffffffffff1614156103fd5742600360095481548110151561037657fe5b9060005260206000209060040201600301819055506001600860006101000a81548160ff02191690831515021790555060006009819055506000600160006101000a81548173ffffffffffffffffffffffffffffffffffffffff021916908373ffffffffffffffffffffffffffffffffffffffff1602179055506103f8612ff7565b610406565b60009050610407565b5b90565b6000600460003373ffffffffffffffffffffffffffffffffffffffff1673ffffffffffffffffffffffffffffffffffffffff16815260200190815260200160002054905090565b60056000600360095481548110151561046657fe5b906000526020600020906004020160000154815260200190815260200160002060000160009054906101000a900473ffffffffffffffffffffffffffffffffffffffff1673ffffffffffffffffffffffffffffffffffffffff163373ffffffffffffffffffffffffffffffffffffffff161415156104e357600080fd5b600060095414156105265780600360095481548110151561050057fe5b9060005260206000209060040201600201908051906020019061052492919061336a565b505b42600360095481548110151561053857fe5b90600052602060002090600402016003018190555060016003805490500360016009540111151561059e5780600360016009540181548110151561057857fe5b9060005260206000209060040201600201908051906020019061059c92919061336a565b505b60096000815480929190600101919050555050565b600080905060606002805490506040519080825280602002602001820160405280156105ee5781602001602082028038833980820191505090505b50905060008090505b6002805490508110156108c3576000600660006005600060028681548110151561061d57fe5b9060005260206000200154815260200190815260200160002060000160009054906101000a900473ffffffffffffffffffffffffffffffffffffffff1673ffffffffffffffffffffffffffffffffffffffff1673ffffffffffffffffffffffffffffffffffffffff168152602001908152602001600020819055506000600a6000600560006002868154811015156106b157fe5b9060005260206000200154815260200190815260200160002060000160009054906101000a900473ffffffffffffffffffffffffffffffffffffffff1673ffffffffffffffffffffffffffffffffffffffff1673ffffffffffffffffffffffffffffffffffffffff1681526020019081526020016000208161073391906133ea565b50600a600460006005600060028681548110151561074d57fe5b9060005260206000200154815260200190815260200160002060000160009054906101000a900473ffffffffffffffffffffffffffffffffffffffff1673ffffffffffffffffffffffffffffffffffffffff1673ffffffffffffffffffffffffffffffffffffffff1681526020019081526020016000205411151561080f576002818154811015156107db57fe5b906000526020600020015482848151811015156107f457fe5b906020019060200201818152505082806001019350506108b6565b6005600060028381548110151561082257fe5b90600052602060002001548152602001908152602001600020600080820160006101000a81549073ffffffffffffffffffffffffffffffffffffffff02191690556001820160006108739190613416565b6002820160009055600382016000905560048201600090556005820160009055600682016000905560078201600090556008820160009055600982016000905550505b80806001019150506105f7565b50600260006108d2919061345e565b60008090505b82811015610bc157600282828151811015156108f057fe5b9060200190602002015190806001815401808255809150509060018203906000526020600020016000909192909190915055506005600060028381548110151561093657fe5b90600052602060002001548152602001908152602001600020600560006001840181526020019081526020016000206000820160009054906101000a900473ffffffffffffffffffffffffffffffffffffffff168160000160006101000a81548173ffffffffffffffffffffffffffffffffffffffff021916908373ffffffffffffffffffffffffffffffffffffffff160217905550600182018160010190805460018160011615610100020316600290046109f392919061347f565b506002820154816002015560038201548160030155600482015481600401556005820154816005015560068201548160060155600782015481600701556008820154816008015560098201548160090155905050600281815481101515610a5657fe5b906000526020600020015460018201141515610b135760056000600283815481101515610a7f57fe5b90600052602060002001548152602001908152602001600020600080820160006101000a81549073ffffffffffffffffffffffffffffffffffffffff0219169055600182016000610ad09190613416565b6002820160009055600382016000905560048201600090556005820160009055600682016000905560078201600090556008820160009055600982016000905550505b60018101600660006005600060018601815260200190815260200160002060000160009054906101000a900473ffffffffffffffffffffffffffffffffffffffff1673ffffffffffffffffffffffffffffffffffffffff1673ffffffffffffffffffffffffffffffffffffffff1681526020019081526020016000208190555060018101600282815481101515610ba657fe5b906000526020600020018190555080806001019150506108d8565b50606090506000600381610bd59190613506565b506000600160146101000a81548160ff0219169083151502179055506000600860006101000a81548160ff021916908315150217905550600060098190555060008060006101000a81548173ffffffffffffffffffffffffffffffffffffffff021916908373ffffffffffffffffffffffffffffffffffffffff1602179055506000600160006101000a81548173ffffffffffffffffffffffffffffffffffffffff021916908373ffffffffffffffffffffffffffffffffffffffff1602179055505050565b6060600560006003600954815481101515610cb257fe5b906000526020600020906004020160000154815260200190815260200160002060000160009054906101000a900473ffffffffffffffffffffffffffffffffffffffff1673ffffffffffffffffffffffffffffffffffffffff163373ffffffffffffffffffffffffffffffffffffffff161415610deb576003600954815481101515610d3a57fe5b90600052602060002090600402016002018054600181600116156101000203166002900480601f016020809104026020016040519081016040528092919081815260200182805460018160011615610100020316600290048015610ddf5780601f10610db457610100808354040283529160200191610ddf565b820191906000526020600020905b815481529060010190602001808311610dc257829003601f168201915b50505050509050610dff565b602060405190810160405280600081525090505b90565b6000600660003373ffffffffffffffffffffffffffffffffffffffff1673ffffffffffffffffffffffffffffffffffffffff1681526020019081526020016000205414158015610ea85750600060056000600660003373ffffffffffffffffffffffffffffffffffffffff1673ffffffffffffffffffffffffffffffffffffffff1681526020019081526020016000205481526020019081526020016000206002015414155b156112bc573460056000600660003373ffffffffffffffffffffffffffffffffffffffff1673ffffffffffffffffffffffffffffffffffffffff16815260200190815260200160002054815260200190815260200160002060030154148015610fbd575060056000600660003373ffffffffffffffffffffffffffffffffffffffff1673ffffffffffffffffffffffffffffffffffffffff1681526020019081526020016000205481526020019081526020016000206002015460056000600660003373ffffffffffffffffffffffffffffffffffffffff1673ffffffffffffffffffffffffffffffffffffffff16815260200190815260200160002054815260200190815260200160002060080154420311155b156110d857600060056000600660003373ffffffffffffffffffffffffffffffffffffffff1673ffffffffffffffffffffffffffffffffffffffff16815260200190815260200160002054815260200190815260200160002060030181905550600060056000600660003373ffffffffffffffffffffffffffffffffffffffff1673ffffffffffffffffffffffffffffffffffffffff16815260200190815260200160002054815260200190815260200160002060020181905550600060056000600660003373ffffffffffffffffffffffffffffffffffffffff1673ffffffffffffffffffffffffffffffffffffffff168152602001908152602001600020548152602001908152602001600020600801819055506112b7565b60056000600660003373ffffffffffffffffffffffffffffffffffffffff1673ffffffffffffffffffffffffffffffffffffffff1681526020019081526020016000205481526020019081526020016000206002015460056000600660003373ffffffffffffffffffffffffffffffffffffffff1673ffffffffffffffffffffffffffffffffffffffff16815260200190815260200160002054815260200190815260200160002060080154420311156112b657671bc16d674ec8000060056000600660003373ffffffffffffffffffffffffffffffffffffffff1673ffffffffffffffffffffffffffffffffffffffff16815260200190815260200160002054815260200190815260200160002060030160008282540192505081905550600a60056000600660003373ffffffffffffffffffffffffffffffffffffffff1673ffffffffffffffffffffffffffffffffffffffff168152602001908152602001600020548152602001908152602001600020600201600082825401925050819055504260056000600660003373ffffffffffffffffffffffffffffffffffffffff1673ffffffffffffffffffffffffffffffffffffffff168152602001908152602001600020548152602001908152602001600020600801819055505b5b6112bd565b5b565b60001515600160149054906101000a900460ff16151514801561130e57508073ffffffffffffffffffffffffffffffffffffffff163373ffffffffffffffffffffffffffffffffffffffff1614155b151561131957600080fd5b60018060146101000a81548160ff021916908315150217905550336000806101000a81548173ffffffffffffffffffffffffffffffffffffffff021916908373ffffffffffffffffffffffffffffffffffffffff16021790555080600160006101000a81548173ffffffffffffffffffffffffffffffffffffffff021916908373ffffffffffffffffffffffffffffffffffffffff1602179055504260078190555050565b6000809054906101000a900473ffffffffffffffffffffffffffffffffffffffff1673ffffffffffffffffffffffffffffffffffffffff163373ffffffffffffffffffffffffffffffffffffffff1614801561142d575060011515600160149054906101000a900460ff161515145b801561144c575060011515600860009054906101000a900460ff161515145b151561145757600080fd5b60006009819055506000809050600060026003805490500314151561148d576002600380549050033481151561148957fe5b0490505b6000600190505b60016003805490500381101561154e57600560006003838154811015156114b757fe5b906000526020600020906004020160000154815260200190815260200160002060000160009054906101000a900473ffffffffffffffffffffffffffffffffffffffff1673ffffffffffffffffffffffffffffffffffffffff166108fc839081150290604051600060405180830381858888f19350505050158015611540573d6000803e3d6000fd5b508080600101915050611494565b50600060038161155e9190613506565b506000600160146101000a81548160ff0219169083151502179055506000600860006101000a81548160ff02191690831515021790555060008060006101000a81548173ffffffffffffffffffffffffffffffffffffffff021916908373ffffffffffffffffffffffffffffffffffffffff16021790555050565b6000600660003373ffffffffffffffffffffffffffffffffffffffff1673ffffffffffffffffffffffffffffffffffffffff1681526020019081526020016000205414801561166757506000600460003373ffffffffffffffffffffffffffffffffffffffff1673ffffffffffffffffffffffffffffffffffffffff16815260200190815260200160002054145b801561167a5750674563918244f4000034145b15611a7c5760026001600280549050019080600181540180825580915050906001820390600052602060002001600090919290919091505550600280549050600660003373ffffffffffffffffffffffffffffffffffffffff1673ffffffffffffffffffffffffffffffffffffffff168152602001908152602001600020819055503360056000600660003373ffffffffffffffffffffffffffffffffffffffff1673ffffffffffffffffffffffffffffffffffffffff16815260200190815260200160002054815260200190815260200160002060000160006101000a81548173ffffffffffffffffffffffffffffffffffffffff021916908373ffffffffffffffffffffffffffffffffffffffff1602179055508060056000600660003373ffffffffffffffffffffffffffffffffffffffff1673ffffffffffffffffffffffffffffffffffffffff16815260200190815260200160002054815260200190815260200160002060010190805190602001906117f9929190613538565b50600060056000600660003373ffffffffffffffffffffffffffffffffffffffff1673ffffffffffffffffffffffffffffffffffffffff16815260200190815260200160002054815260200190815260200160002060020181905550600060056000600660003373ffffffffffffffffffffffffffffffffffffffff1673ffffffffffffffffffffffffffffffffffffffff16815260200190815260200160002054815260200190815260200160002060030181905550600060056000600660003373ffffffffffffffffffffffffffffffffffffffff1673ffffffffffffffffffffffffffffffffffffffff16815260200190815260200160002054815260200190815260200160002060070181905550600060056000600660003373ffffffffffffffffffffffffffffffffffffffff1673ffffffffffffffffffffffffffffffffffffffff16815260200190815260200160002054815260200190815260200160002060090181905550600060056000600660003373ffffffffffffffffffffffffffffffffffffffff1673ffffffffffffffffffffffffffffffffffffffff16815260200190815260200160002054815260200190815260200160002060040181905550600060056000600660003373ffffffffffffffffffffffffffffffffffffffff1673ffffffffffffffffffffffffffffffffffffffff16815260200190815260200160002054815260200190815260200160002060050181905550600060056000600660003373ffffffffffffffffffffffffffffffffffffffff1673ffffffffffffffffffffffffffffffffffffffff16815260200190815260200160002054815260200190815260200160002060060181905550611a81565b611a82565b5b50565b611a8d6135b8565b60008060056000600660003373ffffffffffffffffffffffffffffffffffffffff1673ffffffffffffffffffffffffffffffffffffffff168152602001908152602001600020548152602001908152602001600020600460003373ffffffffffffffffffffffffffffffffffffffff1673ffffffffffffffffffffffffffffffffffffffff16815260200190815260200160002054600660003373ffffffffffffffffffffffffffffffffffffffff1673ffffffffffffffffffffffffffffffffffffffff168152602001908152602001600020548261014060405190810160405290816000820160009054906101000a900473ffffffffffffffffffffffffffffffffffffffff1673ffffffffffffffffffffffffffffffffffffffff1673ffffffffffffffffffffffffffffffffffffffff168152602001600182018054600181600116156101000203166002900480601f016020809104026020016040519081016040528092919081815260200182805460018160011615610100020316600290048015611c5f5780601f10611c3457610100808354040283529160200191611c5f565b820191906000526020600020905b815481529060010190602001808311611c4257829003601f168201915b50505050508152602001600282015481526020016003820154815260200160048201548152602001600582015481526020016006820154815260200160078201548152602001600882015481526020016009820154815250509250925092509250909192565b6000809054906101000a900473ffffffffffffffffffffffffffffffffffffffff1673ffffffffffffffffffffffffffffffffffffffff163373ffffffffffffffffffffffffffffffffffffffff161480611d825750600560006001815260200190815260200160002060000160009054906101000a900473ffffffffffffffffffffffffffffffffffffffff1673ffffffffffffffffffffffffffffffffffffffff163373ffffffffffffffffffffffffffffffffffffffff16145b80611def5750600560006002815260200190815260200160002060000160009054906101000a900473ffffffffffffffffffffffffffffffffffffffff1673ffffffffffffffffffffffffffffffffffffffff163373ffffffffffffffffffffffffffffffffffffffff16145b80611e5c5750600560006003815260200190815260200160002060000160009054906101000a900473ffffffffffffffffffffffffffffffffffffffff1673ffffffffffffffffffffffffffffffffffffffff163373ffffffffffffffffffffffffffffffffffffffff16145b8015611e7b575060011515600160149054906101000a900460ff161515145b1515611e8657600080fd5b60008090505b60028054905081101561237d576000600a600060056000600286815481101515611eb257fe5b9060005260206000200154815260200190815260200160002060000160009054906101000a900473ffffffffffffffffffffffffffffffffffffffff1673ffffffffffffffffffffffffffffffffffffffff1673ffffffffffffffffffffffffffffffffffffffff16815260200190815260200160002081611f3491906133ea565b50600160056000600284815481101515611f4a57fe5b906000526020600020015481526020019081526020016000206007015414156123705760008090505b60028054905081101561236e57808214158015611fbf5750600160056000600284815481101515611fa057fe5b9060005260206000200154815260200190815260200160002060070154145b1561236157600060056000600284815481101515611fd957fe5b90600052602060002001548152602001908152602001600020600601546005600060028681548110151561200957fe5b9060005260206000200154815260200190815260200160002060060154036005600060028581548110151561203a57fe5b90600052602060002001548152602001908152602001600020600601546005600060028781548110151561206a57fe5b906000526020600020015481526020019081526020016000206006015403026005600060028581548110151561209c57fe5b9060005260206000200154815260200190815260200160002060050154600560006002878154811015156120cc57fe5b906000526020600020015481526020019081526020016000206005015403600560006002868154811015156120fd57fe5b90600052602060002001548152602001908152602001600020600501546005600060028881548110151561212d57fe5b906000526020600020015481526020019081526020016000206005015403026005600060028681548110151561215f57fe5b90600052602060002001548152602001908152602001600020600401546005600060028881548110151561218f57fe5b906000526020600020015481526020019081526020016000206004015403600560006002878154811015156121c057fe5b9060005260206000200154815260200190815260200160002060040154600560006002898154811015156121f057fe5b906000526020600020015481526020019081526020016000206004015403020101905060098113151561235f57600a60006005600060028781548110151561223457fe5b9060005260206000200154815260200190815260200160002060000160009054906101000a900473ffffffffffffffffffffffffffffffffffffffff1673ffffffffffffffffffffffffffffffffffffffff1673ffffffffffffffffffffffffffffffffffffffff168152602001908152602001600020600560006002858154811015156122be57fe5b9060005260206000200154815260200190815260200160002060000160009054906101000a900473ffffffffffffffffffffffffffffffffffffffff1690806001815401808255809150509060018203906000526020600020016000909192909190916101000a81548173ffffffffffffffffffffffffffffffffffffffff021916908373ffffffffffffffffffffffffffffffffffffffff160217905550505b505b8080600101915050611f73565b505b8080600101915050611e8c565b50565b600160009054906101000a900473ffffffffffffffffffffffffffffffffffffffff1673ffffffffffffffffffffffffffffffffffffffff163373ffffffffffffffffffffffffffffffffffffffff161415156123dc57600080fd5b6000600160146101000a81548160ff0219169083151502179055506000600860006101000a81548160ff021916908315150217905550600081141561279057600060056000600360095481548110151561243257fe5b9060005260206000209060040201600001548152602001908152602001600020600701819055506004600060056000600360095481548110151561247257fe5b906000526020600020906004020160000154815260200190815260200160002060000160009054906101000a900473ffffffffffffffffffffffffffffffffffffffff1673ffffffffffffffffffffffffffffffffffffffff1673ffffffffffffffffffffffffffffffffffffffff16815260200190815260200160002060008154809291906001019190505550600a6004600060056000600360095481548110151561251b57fe5b906000526020600020906004020160000154815260200190815260200160002060000160009054906101000a900473ffffffffffffffffffffffffffffffffffffffff1673ffffffffffffffffffffffffffffffffffffffff1673ffffffffffffffffffffffffffffffffffffffff16815260200190815260200160002054026005600060036009548154811015156125b057fe5b906000526020600020906004020160000154815260200190815260200160002060020181905550671bc16d674ec80000600460006005600060036009548154811015156125f957fe5b906000526020600020906004020160000154815260200190815260200160002060000160009054906101000a900473ffffffffffffffffffffffffffffffffffffffff1673ffffffffffffffffffffffffffffffffffffffff1673ffffffffffffffffffffffffffffffffffffffff168152602001908152602001600020540260056000600360095481548110151561268e57fe5b906000526020600020906004020160000154815260200190815260200160002060030181905550426005600060036009548154811015156126cb57fe5b90600052602060002090600402016000015481526020019081526020016000206008018190555060056000600360095481548110151561270757fe5b906000526020600020906004020160000154815260200190815260200160002060000160009054906101000a900473ffffffffffffffffffffffffffffffffffffffff16600860016101000a81548173ffffffffffffffffffffffffffffffffffffffff021916908373ffffffffffffffffffffffffffffffffffffffff160217905550612c48565b6000600190505b600380549050811015612c4657600360008154811015156127b457fe5b906000526020600020906004020160020160405180828054600181600116156101000203166002900480156128205780601f106127fe576101008083540402835291820191612820565b820191906000526020600020905b81548152906001019060200180831161280c575b5050915050604051809103902060038281548110151561283c57fe5b906000526020600020906004020160020160405180828054600181600116156101000203166002900480156128a85780601f106128865761010080835404028352918201916128a8565b820191906000526020600020905b815481529060010190602001808311612894575b50509150506040518091039020141515612c39576000600560006003600185038154811015156128d457fe5b906000526020600020906004020160000154815260200190815260200160002060070181905550600460006005600060036001860381548110151561291557fe5b906000526020600020906004020160000154815260200190815260200160002060000160009054906101000a900473ffffffffffffffffffffffffffffffffffffffff1673ffffffffffffffffffffffffffffffffffffffff1673ffffffffffffffffffffffffffffffffffffffff16815260200190815260200160002060008154809291906001019190505550600a60046000600560006003600187038154811015156129bf57fe5b906000526020600020906004020160000154815260200190815260200160002060000160009054906101000a900473ffffffffffffffffffffffffffffffffffffffff1673ffffffffffffffffffffffffffffffffffffffff1673ffffffffffffffffffffffffffffffffffffffff168152602001908152602001600020540260056000600360018503815481101515612a5557fe5b906000526020600020906004020160000154815260200190815260200160002060020181905550671bc16d674ec800006004600060056000600360018703815481101515612a9f57fe5b906000526020600020906004020160000154815260200190815260200160002060000160009054906101000a900473ffffffffffffffffffffffffffffffffffffffff1673ffffffffffffffffffffffffffffffffffffffff1673ffffffffffffffffffffffffffffffffffffffff168152602001908152602001600020540260056000600360018503815481101515612b3557fe5b9060005260206000209060040201600001548152602001908152602001600020600301819055504260056000600360018503815481101515612b7357fe5b90600052602060002090600402016000015481526020019081526020016000206008018190555060056000600360018403815481101515612bb057fe5b906000526020600020906004020160000154815260200190815260200160002060000160009054906101000a900473ffffffffffffffffffffffffffffffffffffffff16600860016101000a81548173ffffffffffffffffffffffffffffffffffffffff021916908373ffffffffffffffffffffffffffffffffffffffff160217905550612c46565b8080600101915050612797565b505b612c50612ff7565b50565b6000600860019054906101000a900473ffffffffffffffffffffffffffffffffffffffff16905090565b600160149054906101000a900460ff1681565b60011515600160149054906101000a900460ff161515148015612d085750600060056000600660003373ffffffffffffffffffffffffffffffffffffffff1673ffffffffffffffffffffffffffffffffffffffff16815260200190815260200160002054815260200190815260200160002060020154145b1515612d1357600080fd5b6000600660003373ffffffffffffffffffffffffffffffffffffffff1673ffffffffffffffffffffffffffffffffffffffff16815260200190815260200160002054141515612e9857600060056000600660003373ffffffffffffffffffffffffffffffffffffffff1673ffffffffffffffffffffffffffffffffffffffff16815260200190815260200160002054815260200190815260200160002060090154148015612e165750600060056000600660003373ffffffffffffffffffffffffffffffffffffffff1673ffffffffffffffffffffffffffffffffffffffff16815260200190815260200160002054815260200190815260200160002060070154145b8015612e295750670de0b6b3a764000034145b15612e8e57600160056000600660003373ffffffffffffffffffffffffffffffffffffffff1673ffffffffffffffffffffffffffffffffffffffff16815260200190815260200160002054815260200190815260200160002060070181905550612e93565b612ff4565b612e9d565b612ff4565b806000815181101515612eac57fe5b9060200190602002015160056000600660003373ffffffffffffffffffffffffffffffffffffffff1673ffffffffffffffffffffffffffffffffffffffff16815260200190815260200160002054815260200190815260200160002060040181905550806001815181101515612f1e57fe5b9060200190602002015160056000600660003373ffffffffffffffffffffffffffffffffffffffff1673ffffffffffffffffffffffffffffffffffffffff16815260200190815260200160002054815260200190815260200160002060050181905550806002815181101515612f9057fe5b9060200190602002015160056000600660003373ffffffffffffffffffffffffffffffffffffffff1673ffffffffffffffffffffffffffffffffffffffff168152602001908152602001600020548152602001908152602001600020600601819055505b50565b60008090505b6002805490508110156131fa576000600a60006005600060028681548110151561302357fe5b9060005260206000200154815260200190815260200160002060000160009054906101000a900473ffffffffffffffffffffffffffffffffffffffff1673ffffffffffffffffffffffffffffffffffffffff1673ffffffffffffffffffffffffffffffffffffffff168152602001908152602001600020816130a591906133ea565b506001600560006002848154811015156130bb57fe5b906000526020600020015481526020019081526020016000206007015414801561311457506000600560006002848154811015156130f557fe5b9060005260206000200154815260200190815260200160002060090154145b156131ed5760006005600060028481548110151561312e57fe5b90600052602060002001548152602001908152602001600020600701819055506005600060028381548110151561316157fe5b9060005260206000200154815260200190815260200160002060000160009054906101000a900473ffffffffffffffffffffffffffffffffffffffff1673ffffffffffffffffffffffffffffffffffffffff166108fc670de0b6b3a76400009081150290604051600060405180830381858888f193505050501580156131eb573d6000803e3d6000fd5b505b8080600101915050612ffd565b50565b600080606060056000600660003373ffffffffffffffffffffffffffffffffffffffff1673ffffffffffffffffffffffffffffffffffffffff16815260200190815260200160002054815260200190815260200160002060020154600460003373ffffffffffffffffffffffffffffffffffffffff1673ffffffffffffffffffffffffffffffffffffffff16815260200190815260200160002054600a60003373ffffffffffffffffffffffffffffffffffffffff1673ffffffffffffffffffffffffffffffffffffffff1681526020019081526020016000208080548060200260200160405190810160405280929190818152602001828054801561335857602002820191906000526020600020905b8160009054906101000a900473ffffffffffffffffffffffffffffffffffffffff1673ffffffffffffffffffffffffffffffffffffffff168152602001906001019080831161330e575b50505050509050925092509250909192565b828054600181600116156101000203166002900490600052602060002090601f016020900481019282601f106133ab57805160ff19168380011785556133d9565b828001600101855582156133d9579182015b828111156133d85782518255916020019190600101906133bd565b5b5090506133e69190613622565b5090565b815481835581811115613411578183600052602060002091820191016134109190613622565b5b505050565b50805460018160011615610100020316600290046000825580601f1061343c575061345b565b601f01602090049060005260206000209081019061345a9190613622565b5b50565b508054600082559060005260206000209081019061347c9190613622565b50565b828054600181600116156101000203166002900490600052602060002090601f016020900481019282601f106134b857805485556134f5565b828001600101855582156134f557600052602060002091601f016020900482015b828111156134f45782548255916001019190600101906134d9565b5b5090506135029190613622565b5090565b815481835581811115613533576004028160040283600052602060002091820191016135329190613647565b5b505050565b828054600181600116156101000203166002900490600052602060002090601f016020900481019282601f1061357957805160ff19168380011785556135a7565b828001600101855582156135a7579182015b828111156135a657825182559160200191906001019061358b565b5b5090506135b49190613622565b5090565b61014060405190810160405280600073ffffffffffffffffffffffffffffffffffffffff1681526020016060815260200160008152602001600081526020016000815260200160008152602001600081526020016000815260200160008152602001600081525090565b61364491905b80821115613640576000816000905550600101613628565b5090565b90565b6136aa91905b808211156136a6576000808201600090556001820160006101000a81549073ffffffffffffffffffffffffffffffffffffffff021916905560028201600061369591906136ad565b60038201600090555060040161364d565b5090565b90565b50805460018160011615610100020316600290046000825580601f106136d357506136f2565b601f0160209004906000526020600020908101906136f19190613622565b5b50565b60006137018235613d9e565b905092915050565b600082601f830112151561371c57600080fd5b813561372f61372a82613c7f565b613c52565b9150818183526020840193506020810190508385602084028201111561375457600080fd5b60005b83811015613784578161376a88826137e4565b845260208401935060208301925050600181019050613757565b5050505092915050565b600082601f83011215156137a157600080fd5b81356137b46137af82613ca7565b613c52565b915080825260208301602083018583830111156137d057600080fd5b6137db838284613dc4565b50505092915050565b60006137f08235613db0565b905092915050565b600082601f830112151561380b57600080fd5b813561381e61381982613cd3565b613c52565b9150808252602083016020830185838301111561383a57600080fd5b613845838284613dc4565b50505092915050565b600061385a8235613dba565b905092915050565b60006020828403121561387457600080fd5b6000613882848285016136f5565b91505092915050565b60006020828403121561389d57600080fd5b600082013567ffffffffffffffff8111156138b757600080fd5b6138c384828501613709565b91505092915050565b6000602082840312156138de57600080fd5b600082013567ffffffffffffffff8111156138f857600080fd5b6139048482850161378e565b91505092915050565b60006020828403121561391f57600080fd5b600082013567ffffffffffffffff81111561393957600080fd5b613945848285016137f8565b91505092915050565b60006020828403121561396057600080fd5b600061396e8482850161384e565b91505092915050565b61398081613d4c565b82525050565b61398f81613d3a565b82525050565b60006139a082613d0c565b8084526020840193506139b283613cff565b60005b828110156139e4576139c8868351613986565b6139d182613d2d565b91506020860195506001810190506139b5565b50849250505092915050565b6139f981613d5e565b82525050565b6000613a0a82613d17565b808452613a1e816020860160208601613dd3565b613a2781613e06565b602085010191505092915050565b613a3e81613d6a565b82525050565b6000613a4f82613d22565b808452613a63816020860160208601613dd3565b613a6c81613e06565b602085010191505092915050565b600061014083016000830151613a936000860182613977565b5060208301518482036020860152613aab8282613a44565b9150506040830151613ac06040860182613b54565b506060830151613ad36060860182613b54565b506080830151613ae66080860182613a35565b5060a0830151613af960a0860182613a35565b5060c0830151613b0c60c0860182613a35565b5060e0830151613b1f60e0860182613b54565b50610100830151613b34610100860182613b54565b50610120830151613b49610120860182613b54565b508091505092915050565b613b5d81613d94565b82525050565b6000602082019050613b786000830184613977565b92915050565b6000602082019050613b9360008301846139f0565b92915050565b60006020820190508181036000830152613bb381846139ff565b905092915050565b60006060820190508181036000830152613bd58186613a7a565b9050613be46020830185613b54565b613bf16040830184613b54565b949350505050565b6000602082019050613c0e6000830184613b54565b92915050565b6000606082019050613c296000830186613b54565b613c366020830185613b54565b8181036040830152613c488184613995565b9050949350505050565b6000604051905081810181811067ffffffffffffffff82111715613c7557600080fd5b8060405250919050565b600067ffffffffffffffff821115613c9657600080fd5b602082029050602081019050919050565b600067ffffffffffffffff821115613cbe57600080fd5b601f19601f8301169050602081019050919050565b600067ffffffffffffffff821115613cea57600080fd5b601f19601f8301169050602081019050919050565b6000602082019050919050565b600081519050919050565b600081519050919050565b600081519050919050565b6000602082019050919050565b6000613d4582613d74565b9050919050565b6000613d5782613d74565b9050919050565b60008115159050919050565b6000819050919050565b600073ffffffffffffffffffffffffffffffffffffffff82169050919050565b6000819050919050565b6000613da982613d74565b9050919050565b6000819050919050565b6000819050919050565b82818337600083830152505050565b60005b83811015613df1578082015181840152602081019050613dd6565b83811115613e00576000848401525b50505050565b6000601f19601f830116905091905056fea265627a7a723058205162a1eb3e6e081d361210cc6bce69c7f31a753a40a37db1d2c8fd1f0cb1244a6c6578706572696d656e74616cf500372d2d2d2d2d424547494e205055424c4943204b45592d2d2d2d2d0a4d4947664d413047435371475349623344514542415155414134474e4144434269514b42675144596e6f475239616b546c39666b635170394b44757a484847580a3458366a7557392b6c5a414c314f7954567075434478757853317043554d3377455274347a5567466964566d364a5269464f426d746d564d5a66742b412f632b0a2b706b65446f47673077554738526b637a3466426b7446364f514c67375933784f4c455578516b456d32664379575068324b38523435474f6b6f704e633447490a697854323349774f4a732b56414b7a786b774944415141420a2d2d2d2d2d454e44205055424c4943204b45592d2d2d2d2d2d2d2d2d2d424547494e205055424c4943204b45592d2d2d2d2d0a4d4947664d413047435371475349623344514542415155414134474e4144434269514b426751433837616a31317677562f6a693538634c69677048766353544a0a74654164616a4a3350776e5576484843546a6835526a683037735a4f62314d563276634f4236506d786c48716f63714945766d5431504271496f4c4e396a70420a432f7462545774444c61664e4569726474737a6555675032733876467a684b33463759714e47487a7a3748694f435637465956734465346a796a5631307645660a42357453587430704832374c4a6970755a774944415141420a2d2d2d2d2d454e44205055424c4943204b45592d2d2d2d2d2d2d2d2d2d424547494e205055424c4943204b45592d2d2d2d2d0a4d4947664d413047435371475349623344514542415155414134474e4144434269514b426751444d4a6c7367334669654a73624339784c47794643384d646b450a39563059633333576a755a71553663613779374b334155752b54734d59734b474168514a76634e75355078775a77666b7564592b77496d2f2f4e726f537433730a4768724d6b614e6f465441573155633851355937374b314c2f6b70394d306265305558584735516233515a2f64637a454444706e6d30694c48757354597a37520a6e774f694a5474663965477435436c5a34774944415141420a2d2d2d2d2d454e44205055424c4943204b45592d2d2d2d2d2d2d2d2d2d424547494e205055424c4943204b45592d2d2d2d2d0a4d4947664d413047435371475349623344514542415155414134474e4144434269514b4267514431556d6b467976503450523663654d435539786954427641350a524869375134572f5864726c526f71584834744267777458504f624c6370706a7447636773467436677537553832576b314f5a386952454f795931754e544b440a2b61543366584c74476257364b446966654d35453639444f5032566a66783631626943434e726a794d5a6a35714a7662696e4e76436f2f5133372b30644775550a704b5a393932665734467a4654424d4b76514944415141420a2d2d2d2d2d454e44205055424c4943204b45592d2d2d2d2d2d2d2d2d2d424547494e205055424c4943204b45592d2d2d2d2d0a4d4947664d413047435371475349623344514542415155414134474e4144434269514b426751434470514c2f682b396e59493630503246546355744134675a760a30724f6b6e5755336f7a4574304e79573859546a4b5a54436c59793876626447485359566271687863716369675651614446715a684a4a6556512f4a4b37624d0a4a4737762f417546456a477533554b6676496944645371413747516e51484e34615432313741304d7461523956546f7334797462356e31682b737249523864720a41315362713072544a434f4e457a4e3277774944415141420a2d2d2d2d2d454e44205055424c4943204b45592d2d2d2d2d2d2d2d2d2d424547494e205055424c4943204b45592d2d2d2d2d0a4d4947664d413047435371475349623344514542415155414134474e4144434269514b42675143515a676c6b74394f504a526147672b457a45454170747834350a4970303453384670575144506d576a7967344c78556f7959625557493259574a59656b62776f696a6c624a57457a5a4d2b5a64346275526e48503836323830560a434e56524e5a435552517750363259675076537250666930727a5556664350476f7a7543697033565757454577652f6a4d6e664259614e6f76794f45584b62560a6c6a6a706f4c6471665a2b4d7768534565774944415141420a2d2d2d2d2d454e44205055424c4943204b45592d2d2d2d2d2d2d2d2d2d424547494e205055424c4943204b45592d2d2d2d2d0a4d4947664d413047435371475349623344514542415155414134474e4144434269514b426751446764655747797869467048706f63687959464d4d79775350540a41677258335431625934537757625a73675357693541656f73586b76526e4247437848623755434a637459544576314f7138476b424a4b3663467837536a2f4f0a6474462b4d637342335166674f737370637345624a56596e7654576c666732706445574d5a433967324d307a334c756471536451594b5a6a67676e54627a66380a65774235624334584b49555a4d59412f77774944415141420a2d2d2d2d2d454e44205055424c4943204b45592d2d2d2d2d2d2d2d2d2d424547494e205055424c4943204b45592d2d2d2d2d0a4d4947664d413047435371475349623344514542415155414134474e4144434269514b426751436533623043785061505a35795558464d555a45794232506f6c0a4b47555367485365564130764b42634a6d4c38533878766e4a4637566b6942644574386a34745030474c72773030484534414c5563305a642b3776542b4d6e310a7766637474394d45774c654f67555571464b746a51785078494b696372327439304a2b787974584338696455583532574242534e6c58535a71776d73316265790a6354575155416775666e636d484a6b7578774944415141420a2d2d2d2d2d454e44205055424c4943204b45592d2d2d2d2d2d2d2d2d2d424547494e205055424c4943204b45592d2d2d2d2d0a4d4947664d413047435371475349623344514542415155414134474e4144434269514b4267514374745142324377586a314f2b424e4677456b5333415a6756560a494d564357506e464c53484966347238394d696c6b543562704c6f5a787478742f78716b74666d32593479326f73484267336f4c2b5a6f3136336a49392f72610a574a474f4f667248686947686b5476566170317a6a32556738342b424d56726a4659736b6f574c566d32416d5831412b542f517055756c6f69536a65663046620a6e6e416d6e41526270304a52486e356174514944415141420a2d2d2d2d2d454e44205055424c4943204b45592d2d2d2d2d",
  "source": "pragma solidity >=0.4.21 <0.6.0;\npragma experimental ABIEncoderV2;\nimport \"./UAV.sol\";\n\ncontract DataSending is Registration{\n  uint timestamp;\n  bool successful;\n  address payable culprit;\n  uint count=0;\n\n  mapping (address => address[]) routeTable;\n\n  constructor() public{\n\n    successful=false;\n\n  }\n\n  function doTrans(address payable dest) public{\n\n    require(transaction==false && msg.sender!=dest);\n    transaction=true;\n    source=msg.sender;\n    destination=dest;\n    timestamp=now;\n\n  }\n\n\n  function registerCoordinates(int[] memory coordinates) public payable\n  {\n    require(transaction==true && registered[pubToMac[msg.sender]].faulty==0);\n    if(pubToMac[msg.sender]!=0)\n    {\n      if(registered[pubToMac[msg.sender]].bcs==0 && registered[pubToMac[msg.sender]].participating==0 && msg.value==1 ether)\n      {\n        registered[pubToMac[msg.sender]].participating=1;\n      }\n      else\n        return;\n    }\n    else\n      return;\n    registered[pubToMac[msg.sender]].x=coordinates[0];\n    registered[pubToMac[msg.sender]].y=coordinates[1];\n    registered[pubToMac[msg.sender]].z=coordinates[2];\n\n  }\n\n  function getTable() public view returns(uint,uint,address[] memory)\n  {\n\n    return (registered[pubToMac[msg.sender]].faulty,blacklisted[msg.sender],routeTable[msg.sender]);\n\n  }\n\n\n  function updateGraph() public\n  {\n\n    require((msg.sender==source || msg.sender==registered[1].publicKey || msg.sender==registered[2].publicKey || msg.sender==registered[3].publicKey) && transaction==true);\n    for(uint i=0;i<list.length;i++)\n    {\n\n      routeTable[registered[list[i]].publicKey].length=0;\n      // emit x1(registered[list[i]].participating);\n      //   emit x1(list[i]);\n      if(registered[list[i]].participating==1){\n      for(uint j=0;j<list.length;j++)\n      {\n        if(i!=j && registered[list[j]].participating==1)\n        {\n            int distance=(registered[list[i]].x-registered[list[j]].x)*(registered[list[i]].x-registered[list[j]].x) + (registered[list[i]].y-registered[list[j]].y)*(registered[list[i]].y-registered[list[j]].y) + (registered[list[i]].z-registered[list[j]].z)*(registered[list[i]].z-registered[list[j]].z);\n            if(distance<=9)\n            {\n              routeTable[registered[list[i]].publicKey].push(registered[list[j]].publicKey);\n            }\n        }\n      }}\n    }\n\n  }\n\n  function success() public payable returns(bool){\n\n      if(msg.sender==destination)\n        {\n            Route[count].timestamp=now;\n            successful=true;\n            count=0;\n            destination=0x0000000000000000000000000000000000000000;\n            sendBackToken();\n        }\n        else\n          return false;\n  }\n\n  function sendBackToken() public payable\n  {\n    for(uint i=0;i<list.length;i++)\n    {\n        routeTable[registered[list[i]].publicKey].length=0;\n      if(registered[list[i]].participating==1 && registered[list[i]].bcs==0)\n      {\n\n        registered[list[i]].participating=0;\n        registered[list[i]].publicKey.transfer(1 ether);\n      }\n\n    }\n  }\n  function unsuccessful(uint x) public payable {\n\n      require(msg.sender==destination);\n      transaction=false;\n      successful=false;\n      if(x==0)\n      {\n\n        registered[Route[count].id].participating=0;\n        blacklisted[registered[Route[count].id].publicKey]++;\n        registered[Route[count].id].faulty=blacklisted[registered[Route[count].id].publicKey]*10;\n        registered[Route[count].id].penaltytoken=blacklisted[registered[Route[count].id].publicKey]*2 ether;\n        registered[Route[count].id].timestamp=now;\n        culprit=registered[Route[count].id].publicKey;\n      }\n      else\n      {\n        for(uint i=1;i<Route.length;i++)\n        {\n          if(keccak256(Route[i].data)!=keccak256(Route[0].data))\n          {\n            registered[Route[i-1].id].participating=0;\n            blacklisted[registered[Route[i-1].id].publicKey]++;\n            registered[Route[i-1].id].faulty=blacklisted[registered[Route[i-1].id].publicKey]*10;\n            registered[Route[i-1].id].penaltytoken=blacklisted[registered[Route[i-1].id].publicKey]*2 ether;\n            registered[Route[i-1].id].timestamp=now;\n            culprit=registered[Route[i-1].id].publicKey;\n            break;\n          }\n        }\n      }\n      sendBackToken();\n  }\n  function returnCulprit() public view returns(address payable)\n  {\n      return culprit;\n  }\n\n  function transCompleted() public payable{\n\n      require(msg.sender==source && transaction==true && successful==true);\n      count=0;\n      uint divide=0;\n      if(Route.length-2!=0)\n        divide=msg.value/(Route.length-2);\n      for(uint i=1;i<Route.length-1;i++)\n      {\n        registered[Route[i].id].publicKey.transfer(divide);\n      }\n      Route.length=0;\n      transaction=false;\n      successful=false;\n      source=0x0000000000000000000000000000000000000000;\n\n\n  }\n\n  function send(bytes memory x) public{\n      require(msg.sender==registered[Route[count].id].publicKey);\n      if(count==0)\n        Route[count].data=x;\n      Route[count].timestamp=now;\n      if(count+1<=Route.length-1)\n        Route[count+1].data=x;\n      count++;\n  }\n  function getData() public view returns (bytes memory) {\n    if(msg.sender==registered[Route[count].id].publicKey)\n      return Route[count].data;\n    else\n      return \"\";\n  }\n  function abort() public{\n    uint count1=0;\n      uint[] memory list1=new uint[](list.length);\n      for(uint i=0;i<list.length;i++)\n      {\n        pubToMac[registered[list[i]].publicKey]=0;\n\n        routeTable[registered[list[i]].publicKey].length=0;\n        if(blacklisted[registered[list[i]].publicKey]<=10)\n        {\n          list1[count1]=list[i];\n          count1++;\n        }\n        else\n        {\n            delete registered[list[i]];\n        }\n      }\n      delete list;\n      for(uint i=0;i<count1;i++)\n      {\n          list.push(list1[i]);\n          registered[i+1]=registered[list[i]];\n          if(i+1 != list[i])\n            delete registered[list[i]];\n          pubToMac[registered[i+1].publicKey]=i+1;\n          list[i]=i+1;\n      }\n      delete list1;\n\n      Route.length=0;\n      transaction=false;\n      successful=false;\n      count=0;\n      source=0x0000000000000000000000000000000000000000;\n      destination=0x0000000000000000000000000000000000000000;\n\n\n  }\n  function getRegistered() public view returns(IOT memory,uint,uint)\n  {\n    return (registered[pubToMac[msg.sender]],blacklisted[msg.sender],pubToMac[msg.sender]);\n  }\n\n}\n",
  "sourcePath": "/home/stellet/Desktop/Major Project-1/Major-Blockchain/src/contracts/DataSending.sol",
  "compiler": {
    "name": "solc",
    "version": "0.5.0+commit.1d4f565a.Emscripten.clang"
  },
  "schemaVersion": "3.0.2",
  "updatedAt": "2020-05-30T12:24:48.932Z",
  "devdoc": {
    "methods": {}
  },
  "userdoc": {
    "methods": {}
  }
}