{
  "contractName": "DataSending",
  "abi": [
    {
      "constant": true,
      "inputs": [
        {
          "name": "",
          "type": "address"
        }
      ],
      "name": "pubToMac",
      "outputs": [
        {
          "name": "",
          "type": "string"
        }
      ],
      "payable": false,
      "stateMutability": "view",
      "type": "function",
      "signature": "0x6282a4a8"
    },
    {
      "inputs": [],
      "payable": false,
      "stateMutability": "nonpayable",
      "type": "constructor",
      "signature": "constructor"
    },
    {
      "constant": false,
      "inputs": [
        {
          "name": "coordinates",
          "type": "int256[]"
        }
      ],
      "name": "updateCoordinates",
      "outputs": [],
      "payable": false,
      "stateMutability": "nonpayable",
      "type": "function",
      "signature": "0x3c9364a4"
    },
    {
      "constant": true,
      "inputs": [],
      "name": "getTable",
      "outputs": [
        {
          "name": "",
          "type": "address[]"
        }
      ],
      "payable": false,
      "stateMutability": "view",
      "type": "function",
      "signature": "0xfb6391ab"
    }
  ],
  "bytecode": "0x608060405234801561001057600080fd5b5060c06040519081016040528073ca35b7d915458ef540ade6068dfe2f44e8fa733c73ffffffffffffffffffffffffffffffffffffffff168152602001600081526020016001815260200160008152602001600081526020016000815250600060405180807f41000000000000000000000000000000000000000000000000000000000000008152506001019050908152602001604051809103902060008201518160000160006101000a81548173ffffffffffffffffffffffffffffffffffffffff021916908373ffffffffffffffffffffffffffffffffffffffff1602179055506020820151816001015560408201518160020155606082015181600301556080820151816004015560a0820151816005015590505060c0604051908101604052807314723a09acff6d2a60dcdf7aa4aff308fddc160c73ffffffffffffffffffffffffffffffffffffffff168152602001600081526020016001815260200160008152602001600181526020016000815250600060405180807f42000000000000000000000000000000000000000000000000000000000000008152506001019050908152602001604051809103902060008201518160000160006101000a81548173ffffffffffffffffffffffffffffffffffffffff021916908373ffffffffffffffffffffffffffffffffffffffff1602179055506020820151816001015560408201518160020155606082015181600301556080820151816004015560a0820151816005015590505060c060405190810160405280734b0897b0513fdc7c541b6d9d7e929c4e5364d2db73ffffffffffffffffffffffffffffffffffffffff168152602001600081526020016001815260200160008152602001600281526020016000815250600060405180807f43000000000000000000000000000000000000000000000000000000000000008152506001019050908152602001604051809103902060008201518160000160006101000a81548173ffffffffffffffffffffffffffffffffffffffff021916908373ffffffffffffffffffffffffffffffffffffffff1602179055506020820151816001015560408201518160020155606082015181600301556080820151816004015560a0820151816005015590505060c06040519081016040528073583031d1113ad414f02576bd6afabfb30214022573ffffffffffffffffffffffffffffffffffffffff168152602001600081526020016001815260200160008152602001600381526020016000815250600060405180807f44000000000000000000000000000000000000000000000000000000000000008152506001019050908152602001604051809103902060008201518160000160006101000a81548173ffffffffffffffffffffffffffffffffffffffff021916908373ffffffffffffffffffffffffffffffffffffffff1602179055506020820151816001015560408201518160020155606082015181600301556080820151816004015560a0820151816005015590505060c06040519081016040528073dd870fa1b7c4700f2bd7f44238821c26f739214873ffffffffffffffffffffffffffffffffffffffff168152602001600081526020016001815260200160008152602001600481526020016000815250600060405180807f45000000000000000000000000000000000000000000000000000000000000008152506001019050908152602001604051809103902060008201518160000160006101000a81548173ffffffffffffffffffffffffffffffffffffffff021916908373ffffffffffffffffffffffffffffffffffffffff1602179055506020820151816001015560408201518160020155606082015181600301556080820151816004015560a082015181600501559050506040805190810160405280600181526020017f4100000000000000000000000000000000000000000000000000000000000000815250600160008060405180807f41000000000000000000000000000000000000000000000000000000000000008152506001019050908152602001604051809103902060000160009054906101000a900473ffffffffffffffffffffffffffffffffffffffff1673ffffffffffffffffffffffffffffffffffffffff1673ffffffffffffffffffffffffffffffffffffffff168152602001908152602001600020908051906020019061066c929190611536565b506040805190810160405280600181526020017f4200000000000000000000000000000000000000000000000000000000000000815250600160008060405180807f42000000000000000000000000000000000000000000000000000000000000008152506001019050908152602001604051809103902060000160009054906101000a900473ffffffffffffffffffffffffffffffffffffffff1673ffffffffffffffffffffffffffffffffffffffff1673ffffffffffffffffffffffffffffffffffffffff1681526020019081526020016000209080519060200190610755929190611536565b506040805190810160405280600181526020017f4300000000000000000000000000000000000000000000000000000000000000815250600160008060405180807f43000000000000000000000000000000000000000000000000000000000000008152506001019050908152602001604051809103902060000160009054906101000a900473ffffffffffffffffffffffffffffffffffffffff1673ffffffffffffffffffffffffffffffffffffffff1673ffffffffffffffffffffffffffffffffffffffff168152602001908152602001600020908051906020019061083e929190611536565b506040805190810160405280600181526020017f4400000000000000000000000000000000000000000000000000000000000000815250600160008060405180807f44000000000000000000000000000000000000000000000000000000000000008152506001019050908152602001604051809103902060000160009054906101000a900473ffffffffffffffffffffffffffffffffffffffff1673ffffffffffffffffffffffffffffffffffffffff1673ffffffffffffffffffffffffffffffffffffffff1681526020019081526020016000209080519060200190610927929190611536565b506040805190810160405280600181526020017f4500000000000000000000000000000000000000000000000000000000000000815250600160008060405180807f45000000000000000000000000000000000000000000000000000000000000008152506001019050908152602001604051809103902060000160009054906101000a900473ffffffffffffffffffffffffffffffffffffffff1673ffffffffffffffffffffffffffffffffffffffff1673ffffffffffffffffffffffffffffffffffffffff1681526020019081526020016000209080519060200190610a10929190611536565b50600260008060405180807f41000000000000000000000000000000000000000000000000000000000000008152506001019050908152602001604051809103902060000160009054906101000a900473ffffffffffffffffffffffffffffffffffffffff1673ffffffffffffffffffffffffffffffffffffffff1673ffffffffffffffffffffffffffffffffffffffff168152602001908152602001600020600060405180807f42000000000000000000000000000000000000000000000000000000000000008152506001019050908152602001604051809103902060000160009054906101000a900473ffffffffffffffffffffffffffffffffffffffff1690806001815401808255809150509060018203906000526020600020016000909192909190916101000a81548173ffffffffffffffffffffffffffffffffffffffff021916908373ffffffffffffffffffffffffffffffffffffffff16021790555050600260008060405180807f42000000000000000000000000000000000000000000000000000000000000008152506001019050908152602001604051809103902060000160009054906101000a900473ffffffffffffffffffffffffffffffffffffffff1673ffffffffffffffffffffffffffffffffffffffff1673ffffffffffffffffffffffffffffffffffffffff168152602001908152602001600020600060405180807f41000000000000000000000000000000000000000000000000000000000000008152506001019050908152602001604051809103902060000160009054906101000a900473ffffffffffffffffffffffffffffffffffffffff1690806001815401808255809150509060018203906000526020600020016000909192909190916101000a81548173ffffffffffffffffffffffffffffffffffffffff021916908373ffffffffffffffffffffffffffffffffffffffff16021790555050600260008060405180807f42000000000000000000000000000000000000000000000000000000000000008152506001019050908152602001604051809103902060000160009054906101000a900473ffffffffffffffffffffffffffffffffffffffff1673ffffffffffffffffffffffffffffffffffffffff1673ffffffffffffffffffffffffffffffffffffffff168152602001908152602001600020600060405180807f43000000000000000000000000000000000000000000000000000000000000008152506001019050908152602001604051809103902060000160009054906101000a900473ffffffffffffffffffffffffffffffffffffffff1690806001815401808255809150509060018203906000526020600020016000909192909190916101000a81548173ffffffffffffffffffffffffffffffffffffffff021916908373ffffffffffffffffffffffffffffffffffffffff16021790555050600260008060405180807f43000000000000000000000000000000000000000000000000000000000000008152506001019050908152602001604051809103902060000160009054906101000a900473ffffffffffffffffffffffffffffffffffffffff1673ffffffffffffffffffffffffffffffffffffffff1673ffffffffffffffffffffffffffffffffffffffff168152602001908152602001600020600060405180807f42000000000000000000000000000000000000000000000000000000000000008152506001019050908152602001604051809103902060000160009054906101000a900473ffffffffffffffffffffffffffffffffffffffff1690806001815401808255809150509060018203906000526020600020016000909192909190916101000a81548173ffffffffffffffffffffffffffffffffffffffff021916908373ffffffffffffffffffffffffffffffffffffffff16021790555050600260008060405180807f43000000000000000000000000000000000000000000000000000000000000008152506001019050908152602001604051809103902060000160009054906101000a900473ffffffffffffffffffffffffffffffffffffffff1673ffffffffffffffffffffffffffffffffffffffff1673ffffffffffffffffffffffffffffffffffffffff168152602001908152602001600020600060405180807f44000000000000000000000000000000000000000000000000000000000000008152506001019050908152602001604051809103902060000160009054906101000a900473ffffffffffffffffffffffffffffffffffffffff1690806001815401808255809150509060018203906000526020600020016000909192909190916101000a81548173ffffffffffffffffffffffffffffffffffffffff021916908373ffffffffffffffffffffffffffffffffffffffff16021790555050600260008060405180807f44000000000000000000000000000000000000000000000000000000000000008152506001019050908152602001604051809103902060000160009054906101000a900473ffffffffffffffffffffffffffffffffffffffff1673ffffffffffffffffffffffffffffffffffffffff1673ffffffffffffffffffffffffffffffffffffffff168152602001908152602001600020600060405180807f43000000000000000000000000000000000000000000000000000000000000008152506001019050908152602001604051809103902060000160009054906101000a900473ffffffffffffffffffffffffffffffffffffffff1690806001815401808255809150509060018203906000526020600020016000909192909190916101000a81548173ffffffffffffffffffffffffffffffffffffffff021916908373ffffffffffffffffffffffffffffffffffffffff16021790555050600260008060405180807f44000000000000000000000000000000000000000000000000000000000000008152506001019050908152602001604051809103902060000160009054906101000a900473ffffffffffffffffffffffffffffffffffffffff1673ffffffffffffffffffffffffffffffffffffffff1673ffffffffffffffffffffffffffffffffffffffff168152602001908152602001600020600060405180807f45000000000000000000000000000000000000000000000000000000000000008152506001019050908152602001604051809103902060000160009054906101000a900473ffffffffffffffffffffffffffffffffffffffff1690806001815401808255809150509060018203906000526020600020016000909192909190916101000a81548173ffffffffffffffffffffffffffffffffffffffff021916908373ffffffffffffffffffffffffffffffffffffffff16021790555050600260008060405180807f45000000000000000000000000000000000000000000000000000000000000008152506001019050908152602001604051809103902060000160009054906101000a900473ffffffffffffffffffffffffffffffffffffffff1673ffffffffffffffffffffffffffffffffffffffff1673ffffffffffffffffffffffffffffffffffffffff168152602001908152602001600020600060405180807f44000000000000000000000000000000000000000000000000000000000000008152506001019050908152602001604051809103902060000160009054906101000a900473ffffffffffffffffffffffffffffffffffffffff1690806001815401808255809150509060018203906000526020600020016000909192909190916101000a81548173ffffffffffffffffffffffffffffffffffffffff021916908373ffffffffffffffffffffffffffffffffffffffff160217905550506115db565b828054600181600116156101000203166002900490600052602060002090601f016020900481019282601f1061157757805160ff19168380011785556115a5565b828001600101855582156115a5579182015b828111156115a4578251825591602001919060010190611589565b5b5090506115b291906115b6565b5090565b6115d891905b808211156115d45760008160009055506001016115bc565b5090565b90565b610824806115ea6000396000f3fe608060405260043610610057576000357c0100000000000000000000000000000000000000000000000000000000900463ffffffff1680633c9364a41461005c5780636282a4a814610085578063fb6391ab146100c2575b600080fd5b34801561006857600080fd5b50610083600480360361007e91908101906105ae565b6100ed565b005b34801561009157600080fd5b506100ac60048036036100a79190810190610585565b61035d565b6040516100b991906106b1565b60405180910390f35b3480156100ce57600080fd5b506100d761040d565b6040516100e4919061068f565b60405180910390f35b8060008151811015156100fc57fe5b906020019060200201516000600160003373ffffffffffffffffffffffffffffffffffffffff1673ffffffffffffffffffffffffffffffffffffffff16815260200190815260200160002060405180828054600181600116156101000203166002900480156101a25780601f106101805761010080835404028352918201916101a2565b820191906000526020600020905b81548152906001019060200180831161018e575b50509150509081526020016040518091039020600301819055508060018151811015156101cb57fe5b906020019060200201516000600160003373ffffffffffffffffffffffffffffffffffffffff1673ffffffffffffffffffffffffffffffffffffffff16815260200190815260200160002060405180828054600181600116156101000203166002900480156102715780601f1061024f576101008083540402835291820191610271565b820191906000526020600020905b81548152906001019060200180831161025d575b505091505090815260200160405180910390206004018190555080600281518110151561029a57fe5b906020019060200201516000600160003373ffffffffffffffffffffffffffffffffffffffff1673ffffffffffffffffffffffffffffffffffffffff16815260200190815260200160002060405180828054600181600116156101000203166002900480156103405780601f1061031e576101008083540402835291820191610340565b820191906000526020600020905b81548152906001019060200180831161032c575b505091505090815260200160405180910390206005018190555050565b60016020528060005260406000206000915090508054600181600116156101000203166002900480601f0160208091040260200160405190810160405280929190818152602001828054600181600116156101000203166002900480156104055780601f106103da57610100808354040283529160200191610405565b820191906000526020600020905b8154815290600101906020018083116103e857829003601f168201915b505050505081565b6060600260003373ffffffffffffffffffffffffffffffffffffffff1673ffffffffffffffffffffffffffffffffffffffff1681526020019081526020016000208054806020026020016040519081016040528092919081815260200182805480156104ce57602002820191906000526020600020905b8160009054906101000a900473ffffffffffffffffffffffffffffffffffffffff1673ffffffffffffffffffffffffffffffffffffffff1681526020019060010190808311610484575b5050505050905090565b60006104e4823561078a565b905092915050565b600082601f83011215156104ff57600080fd5b813561051261050d82610700565b6106d3565b9150818183526020840193506020810190508385602084028201111561053757600080fd5b60005b83811015610567578161054d8882610571565b84526020840193506020830192505060018101905061053a565b5050505092915050565b600061057d823561079c565b905092915050565b60006020828403121561059757600080fd5b60006105a5848285016104d8565b91505092915050565b6000602082840312156105c057600080fd5b600082013567ffffffffffffffff8111156105da57600080fd5b6105e6848285016104ec565b91505092915050565b6105f881610758565b82525050565b600061060982610735565b80845260208401935061061b83610728565b60005b8281101561064d576106318683516105ef565b61063a8261074b565b915060208601955060018101905061061e565b50849250505092915050565b600061066482610740565b8084526106788160208601602086016107a6565b610681816107d9565b602085010191505092915050565b600060208201905081810360008301526106a981846105fe565b905092915050565b600060208201905081810360008301526106cb8184610659565b905092915050565b6000604051905081810181811067ffffffffffffffff821117156106f657600080fd5b8060405250919050565b600067ffffffffffffffff82111561071757600080fd5b602082029050602081019050919050565b6000602082019050919050565b600081519050919050565b600081519050919050565b6000602082019050919050565b60006107638261076a565b9050919050565b600073ffffffffffffffffffffffffffffffffffffffff82169050919050565b60006107958261076a565b9050919050565b6000819050919050565b60005b838110156107c45780820151818401526020810190506107a9565b838111156107d3576000848401525b50505050565b6000601f19601f830116905091905056fea265627a7a72305820d7446a371c0418dcb0dc15fd868f18cd2cc933719623999cb914376cdc916c766c6578706572696d656e74616cf50037",
  "source": "pragma solidity >=0.4.21 <0.6.0;\npragma experimental ABIEncoderV2;\ncontract Registration{\n\n  struct IOT{\n    address publicKey;\n    uint blacklist;\n    uint token;\n    int x;\n    int y;\n    int z;\n  }\n\n  mapping (string => IOT) registered;\n  mapping (address=>string) public pubToMac;\n  constructor() public{\n    registered[\"A\"]=IOT(0xCA35b7d915458EF540aDe6068dFe2F44E8fa733c,0,1,0,0,0);\n    registered[\"B\"]=IOT(0x14723A09ACff6D2A60DcdF7aA4AFf308FDDC160C,0,1,0,1,0);\n    registered[\"C\"]=IOT(0x4B0897b0513fdC7C541B6d9D7E929C4e5364D2dB,0,1,0,2,0);\n    registered[\"D\"]=IOT(0x583031D1113aD414F02576BD6afaBfb302140225,0,1,0,3,0);\n    registered[\"E\"]=IOT(0xdD870fA1b7C4700F2BD7f44238821C26f7392148,0,1,0,4,0);\n    pubToMac[registered[\"A\"].publicKey]=\"A\";\n    pubToMac[registered[\"B\"].publicKey]=\"B\";\n    pubToMac[registered[\"C\"].publicKey]=\"C\";\n    pubToMac[registered[\"D\"].publicKey]=\"D\";\n    pubToMac[registered[\"E\"].publicKey]=\"E\";\n  }\n}\ncontract DataSending is Registration{\n\n  mapping (address => address[]) routeTable;\n  constructor() public{\n    routeTable[registered[\"A\"].publicKey].push(registered[\"B\"].publicKey);\n    routeTable[registered[\"B\"].publicKey].push(registered[\"A\"].publicKey);\n    routeTable[registered[\"B\"].publicKey].push(registered[\"C\"].publicKey);\n    routeTable[registered[\"C\"].publicKey].push(registered[\"B\"].publicKey);\n    routeTable[registered[\"C\"].publicKey].push(registered[\"D\"].publicKey);\n    routeTable[registered[\"D\"].publicKey].push(registered[\"C\"].publicKey);\n    routeTable[registered[\"D\"].publicKey].push(registered[\"E\"].publicKey);\n    routeTable[registered[\"E\"].publicKey].push(registered[\"D\"].publicKey);\n\n  }\n  function updateCoordinates(int[] memory coordinates) public\n  {\n    registered[pubToMac[msg.sender]].x=coordinates[0];\n    registered[pubToMac[msg.sender]].y=coordinates[1];\n    registered[pubToMac[msg.sender]].z=coordinates[2];\n  }\n\n  function getTable() public view returns(address[] memory)\n  {\n    return routeTable[msg.sender];\n  }\n\n}\n",
  "sourcePath": "/home/stellet/Desktop/blockchain/Major-Blockchain/src/contracts/DataSending.sol",
  "compiler": {
    "name": "solc",
    "version": "0.5.0+commit.1d4f565a.Emscripten.clang"
  },
  "schemaVersion": "3.0.2",
  "updatedAt": "2020-05-17T00:48:32.919Z",
  "devdoc": {
    "methods": {}
  },
  "userdoc": {
    "methods": {}
  }
}