{
  "contractName": "DataSending",
  "abi": [
    {
      "constant": true,
      "inputs": [],
      "name": "checkBlacklisted",
      "outputs": [
        {
          "name": "",
          "type": "uint256"
        }
      ],
      "payable": false,
      "stateMutability": "view",
      "type": "function"
    },
    {
      "constant": false,
      "inputs": [],
      "name": "removeFromFaulty",
      "outputs": [],
      "payable": true,
      "stateMutability": "payable",
      "type": "function"
    },
    {
      "constant": false,
      "inputs": [
        {
          "name": "pubkey",
          "type": "string"
        }
      ],
      "name": "registration",
      "outputs": [],
      "payable": true,
      "stateMutability": "payable",
      "type": "function"
    },
    {
      "constant": true,
      "inputs": [],
      "name": "transaction",
      "outputs": [
        {
          "name": "",
          "type": "bool"
        }
      ],
      "payable": false,
      "stateMutability": "view",
      "type": "function"
    },
    {
      "inputs": [],
      "payable": false,
      "stateMutability": "nonpayable",
      "type": "constructor"
    },
    {
      "constant": false,
      "inputs": [
        {
          "name": "dest",
          "type": "address"
        }
      ],
      "name": "doTrans",
      "outputs": [],
      "payable": false,
      "stateMutability": "nonpayable",
      "type": "function"
    },
    {
      "constant": false,
      "inputs": [
        {
          "name": "coordinates",
          "type": "int256[]"
        }
      ],
      "name": "registerCoordinates",
      "outputs": [],
      "payable": true,
      "stateMutability": "payable",
      "type": "function"
    },
    {
      "constant": true,
      "inputs": [],
      "name": "getTable",
      "outputs": [
        {
          "name": "",
          "type": "uint256"
        },
        {
          "name": "",
          "type": "uint256"
        },
        {
          "name": "",
          "type": "address[]"
        }
      ],
      "payable": false,
      "stateMutability": "view",
      "type": "function"
    },
    {
      "constant": false,
      "inputs": [],
      "name": "updateGraph",
      "outputs": [],
      "payable": false,
      "stateMutability": "nonpayable",
      "type": "function"
    },
    {
      "constant": false,
      "inputs": [],
      "name": "success",
      "outputs": [
        {
          "name": "",
          "type": "bool"
        }
      ],
      "payable": true,
      "stateMutability": "payable",
      "type": "function"
    },
    {
      "constant": false,
      "inputs": [],
      "name": "sendBackToken",
      "outputs": [],
      "payable": true,
      "stateMutability": "payable",
      "type": "function"
    },
    {
      "constant": false,
      "inputs": [
        {
          "name": "x",
          "type": "uint256"
        }
      ],
      "name": "unsuccessful",
      "outputs": [],
      "payable": true,
      "stateMutability": "payable",
      "type": "function"
    },
    {
      "constant": true,
      "inputs": [],
      "name": "returnCulprit",
      "outputs": [
        {
          "name": "",
          "type": "address"
        }
      ],
      "payable": false,
      "stateMutability": "view",
      "type": "function"
    },
    {
      "constant": false,
      "inputs": [],
      "name": "transCompleted",
      "outputs": [],
      "payable": true,
      "stateMutability": "payable",
      "type": "function"
    },
    {
      "constant": false,
      "inputs": [
        {
          "name": "x",
          "type": "string"
        }
      ],
      "name": "send",
      "outputs": [],
      "payable": false,
      "stateMutability": "nonpayable",
      "type": "function"
    },
    {
      "constant": true,
      "inputs": [],
      "name": "getData",
      "outputs": [
        {
          "name": "",
          "type": "string"
        }
      ],
      "payable": false,
      "stateMutability": "view",
      "type": "function"
    },
    {
      "constant": false,
      "inputs": [],
      "name": "abort",
      "outputs": [],
      "payable": false,
      "stateMutability": "nonpayable",
      "type": "function"
    },
    {
      "constant": true,
      "inputs": [],
      "name": "getRegistered",
      "outputs": [
        {
          "components": [
            {
              "name": "publicKey",
              "type": "address"
            },
            {
              "name": "encrypt",
              "type": "string"
            },
            {
              "name": "faulty",
              "type": "uint256"
            },
            {
              "name": "penaltytoken",
              "type": "uint256"
            },
            {
              "name": "x",
              "type": "int256"
            },
            {
              "name": "y",
              "type": "int256"
            },
            {
              "name": "z",
              "type": "int256"
            },
            {
              "name": "participating",
              "type": "uint256"
            },
            {
              "name": "timestamp",
              "type": "uint256"
            },
            {
              "name": "bcs",
              "type": "uint256"
            }
          ],
          "name": "",
          "type": "tuple"
        },
        {
          "name": "",
          "type": "uint256"
        },
        {
          "name": "",
          "type": "uint256"
        }
      ],
      "payable": false,
      "stateMutability": "view",
      "type": "function"
    }
  ],
  "bytecode": "0x608060405260006009553480156200001657600080fd5b506000600160146101000a81548160ff021916908315150217905550610140604051908101604052807383385acc745e5af5f2408e5a9d3ca41b8033f13473ffffffffffffffffffffffffffffffffffffffff1681526020016101406040519081016040528061010f815260200162004e7761010f91398152602001600081526020016000815260200160008152602001600081526020016000815260200160018152602001600081526020016001815250600560006001815260200190815260200160002060008201518160000160006101000a81548173ffffffffffffffffffffffffffffffffffffffff021916908373ffffffffffffffffffffffffffffffffffffffff1602179055506020820151816001019080519060200190620001419291906200111a565b5060408201518160020155606082015181600301556080820151816004015560a0820151816005015560c0820151816006015560e082015181600701556101008201518160080155610120820151816009015590505061014060405190810160405280738ee94701c39929eb9722a09315f0e1695abf555d73ffffffffffffffffffffffffffffffffffffffff1681526020016101406040519081016040528061010f8152602001620054d161010f91398152602001600081526020016000815260200160068152602001600081526020016000815260200160018152602001600081526020016001815250600560006002815260200190815260200160002060008201518160000160006101000a81548173ffffffffffffffffffffffffffffffffffffffff021916908373ffffffffffffffffffffffffffffffffffffffff1602179055506020820151816001019080519060200190620002a69291906200111a565b5060408201518160020155606082015181600301556080820151816004015560a0820151816005015560c0820151816006015560e082015181600701556101008201518160080155610120820151816009015590505061014060405190810160405280737c0300b35b26924a92cbc9da5682279ad18a6e7b73ffffffffffffffffffffffffffffffffffffffff1681526020016101406040519081016040528061010f8152602001620053c261010f91398152602001600081526020016000815260200160048152602001600081526020016000815260200160018152602001600081526020016001815250600560006003815260200190815260200160002060008201518160000160006101000a81548173ffffffffffffffffffffffffffffffffffffffff021916908373ffffffffffffffffffffffffffffffffffffffff16021790555060208201518160010190805190602001906200040b9291906200111a565b5060408201518160020155606082015181600301556080820151816004015560a0820151816005015560c0820151816006015560e0820151816007015561010082015181600801556101208201518160090155905050610140604051908101604052807323018548f67d4a0ff7027db2870d61ca6d88b81873ffffffffffffffffffffffffffffffffffffffff1681526020016101406040519081016040528061010f8152602001620055e061010f91398152602001600081526020016000815260200160008152602001600281526020016000815260200160008152602001600081526020016000815250600560006004815260200190815260200160002060008201518160000160006101000a81548173ffffffffffffffffffffffffffffffffffffffff021916908373ffffffffffffffffffffffffffffffffffffffff1602179055506020820151816001019080519060200190620005709291906200111a565b5060408201518160020155606082015181600301556080820151816004015560a0820151816005015560c0820151816006015560e08201518160070155610100820151816008015561012082015181600901559050506101406040519081016040528073107f93c9e5ee222a4281843d96a745c68387bd5973ffffffffffffffffffffffffffffffffffffffff1681526020016101406040519081016040528061010f8152602001620052b361010f91398152602001600081526020016000815260200160008152602001600481526020016000815260200160008152602001600081526020016000815250600560006005815260200190815260200160002060008201518160000160006101000a81548173ffffffffffffffffffffffffffffffffffffffff021916908373ffffffffffffffffffffffffffffffffffffffff1602179055506020820151816001019080519060200190620006d59291906200111a565b5060408201518160020155606082015181600301556080820151816004015560a0820151816005015560c0820151816006015560e082015181600701556101008201518160080155610120820151816009015590505061014060405190810160405280737dedcfb08c4e7c2856d44b35411893419d6e6cf373ffffffffffffffffffffffffffffffffffffffff1681526020016101406040519081016040528061010f815260200162004f8661010f91398152602001600081526020016000815260200160028152602001600481526020016000815260200160008152602001600081526020016000815250600560006006815260200190815260200160002060008201518160000160006101000a81548173ffffffffffffffffffffffffffffffffffffffff021916908373ffffffffffffffffffffffffffffffffffffffff16021790555060208201518160010190805190602001906200083a9291906200111a565b5060408201518160020155606082015181600301556080820151816004015560a0820151816005015560c0820151816006015560e0820151816007015561010082015181600801556101208201518160090155905050610140604051908101604052807334dcf4e9c4b0ed9f835c5b4173b2d90804b2a11f73ffffffffffffffffffffffffffffffffffffffff1681526020016101406040519081016040528061010f81526020016200509561010f91398152602001600081526020016000815260200160048152602001600481526020016000815260200160008152602001600081526020016000815250600560006007815260200190815260200160002060008201518160000160006101000a81548173ffffffffffffffffffffffffffffffffffffffff021916908373ffffffffffffffffffffffffffffffffffffffff16021790555060208201518160010190805190602001906200099f9291906200111a565b5060408201518160020155606082015181600301556080820151816004015560a0820151816005015560c0820151816006015560e082015181600701556101008201518160080155610120820151816009015590505061014060405190810160405280735af5e7eacd4552ed39e40aa82b2fa164b6a441a873ffffffffffffffffffffffffffffffffffffffff1681526020016101406040519081016040528061010f8152602001620051a461010f91398152602001600081526020016000815260200160048152602001600281526020016000815260200160008152602001600081526020016000815250600560006008815260200190815260200160002060008201518160000160006101000a81548173ffffffffffffffffffffffffffffffffffffffff021916908373ffffffffffffffffffffffffffffffffffffffff160217905550602082015181600101908051906020019062000b049291906200111a565b5060408201518160020155606082015181600301556080820151816004015560a0820151816005015560c0820151816006015560e0820151816007015561010082015181600801556101208201518160090155905050600a600460007323018548f67d4a0ff7027db2870d61ca6d88b81873ffffffffffffffffffffffffffffffffffffffff1673ffffffffffffffffffffffffffffffffffffffff16815260200190815260200160002081905550600160066000600560006001815260200190815260200160002060000160009054906101000a900473ffffffffffffffffffffffffffffffffffffffff1673ffffffffffffffffffffffffffffffffffffffff1673ffffffffffffffffffffffffffffffffffffffff16815260200190815260200160002081905550600260066000600560006002815260200190815260200160002060000160009054906101000a900473ffffffffffffffffffffffffffffffffffffffff1673ffffffffffffffffffffffffffffffffffffffff1673ffffffffffffffffffffffffffffffffffffffff16815260200190815260200160002081905550600360066000600560006003815260200190815260200160002060000160009054906101000a900473ffffffffffffffffffffffffffffffffffffffff1673ffffffffffffffffffffffffffffffffffffffff1673ffffffffffffffffffffffffffffffffffffffff16815260200190815260200160002081905550600460066000600560006004815260200190815260200160002060000160009054906101000a900473ffffffffffffffffffffffffffffffffffffffff1673ffffffffffffffffffffffffffffffffffffffff1673ffffffffffffffffffffffffffffffffffffffff16815260200190815260200160002081905550600560066000600560006005815260200190815260200160002060000160009054906101000a900473ffffffffffffffffffffffffffffffffffffffff1673ffffffffffffffffffffffffffffffffffffffff1673ffffffffffffffffffffffffffffffffffffffff168152602001908152602001600020819055506006806000600560006006815260200190815260200160002060000160009054906101000a900473ffffffffffffffffffffffffffffffffffffffff1673ffffffffffffffffffffffffffffffffffffffff1673ffffffffffffffffffffffffffffffffffffffff16815260200190815260200160002081905550600760066000600560006007815260200190815260200160002060000160009054906101000a900473ffffffffffffffffffffffffffffffffffffffff1673ffffffffffffffffffffffffffffffffffffffff1673ffffffffffffffffffffffffffffffffffffffff16815260200190815260200160002081905550600860066000600560006008815260200190815260200160002060000160009054906101000a900473ffffffffffffffffffffffffffffffffffffffff1673ffffffffffffffffffffffffffffffffffffffff1673ffffffffffffffffffffffffffffffffffffffff1681526020019081526020016000208190555060026001908060018154018082558091505090600182039060005260206000200160009091929091909150555060028090806001815401808255809150509060018203906000526020600020016000909192909190915055506002600390806001815401808255809150509060018203906000526020600020016000909192909190915055506002600490806001815401808255809150509060018203906000526020600020016000909192909190915055506002600590806001815401808255809150509060018203906000526020600020016000909192909190915055506002600690806001815401808255809150509060018203906000526020600020016000909192909190915055506002600790806001815401808255809150509060018203906000526020600020016000909192909190915055506002600890806001815401808255809150509060018203906000526020600020016000909192909190915055506000600860006101000a81548160ff021916908315150217905550620011c9565b828054600181600116156101000203166002900490600052602060002090601f016020900481019282601f106200115d57805160ff19168380011785556200118e565b828001600101855582156200118e579182015b828111156200118d57825182559160200191906001019062001170565b5b5090506200119d9190620011a1565b5090565b620011c691905b80821115620011c2576000816000905550600101620011a8565b5090565b90565b613c9e80620011d96000396000f3fe6080604052600436106100f1576000357c0100000000000000000000000000000000000000000000000000000000900463ffffffff1680630b93381b146100f65780632adc5d2f1461011457806335a063b41461013f5780633bc5de30146101565780633dd8de3e1461018157806347426fad1461018b57806357c6a843146101b45780635e7c2f10146101be57806366792ba1146101da5780637a6543e2146102035780638f99123d1461023057806396fbe5eb14610247578063af707c0b14610263578063c99de57e1461028e578063f3b8b7d1146102b9578063f421a16b146102d5578063fb6391ab146102df575b600080fd5b6100fe61030c565b60405161010b91906139f7565b60405180910390f35b34801561012057600080fd5b5061012961040a565b6040516101369190613a72565b60405180910390f35b34801561014b57600080fd5b50610154610451565b005b34801561016257600080fd5b5061016b610b38565b6040516101789190613a12565b60405180910390f35b610189610c9f565b005b34801561019757600080fd5b506101b260048036036101ad919081019061371c565b61115c565b005b6101bc61125b565b005b6101d860048036036101d39190810190613786565b611476565b005b3480156101e657600080fd5b5061020160048036036101fc9190810190613786565b611922565b005b34801561020f57600080fd5b50610218611a84565b60405161022793929190613a34565b60405180910390f35b34801561023c57600080fd5b50610245611cc4565b005b610261600480360361025c91908101906137c7565b61237f565b005b34801561026f57600080fd5b50610278612c52565b60405161028591906139dc565b60405180910390f35b34801561029a57600080fd5b506102a3612c7c565b6040516102b091906139f7565b60405180910390f35b6102d360048036036102ce9190810190613745565b612c8f565b005b6102dd612ff6565b005b3480156102eb57600080fd5b506102f46131fc565b60405161030393929190613a8d565b60405180910390f35b6000600160009054906101000a900473ffffffffffffffffffffffffffffffffffffffff1673ffffffffffffffffffffffffffffffffffffffff163373ffffffffffffffffffffffffffffffffffffffff1614156103fd5742600360095481548110151561037657fe5b9060005260206000209060030201600201819055506001600860006101000a81548160ff02191690831515021790555060006009819055506000600160006101000a81548173ffffffffffffffffffffffffffffffffffffffff021916908373ffffffffffffffffffffffffffffffffffffffff1602179055506103f8612ff6565b610406565b60009050610407565b5b90565b6000600460003373ffffffffffffffffffffffffffffffffffffffff1673ffffffffffffffffffffffffffffffffffffffff16815260200190815260200160002054905090565b6000809050606060028054905060405190808252806020026020018201604052801561048c5781602001602082028038833980820191505090505b50905060008090505b60028054905081101561076057600060066000600560006002868154811015156104bb57fe5b9060005260206000200154815260200190815260200160002060000160009054906101000a900473ffffffffffffffffffffffffffffffffffffffff1673ffffffffffffffffffffffffffffffffffffffff1673ffffffffffffffffffffffffffffffffffffffff168152602001908152602001600020819055506000600a60006005600060028681548110151561054f57fe5b9060005260206000200154815260200190815260200160002060000160009054906101000a900473ffffffffffffffffffffffffffffffffffffffff1673ffffffffffffffffffffffffffffffffffffffff1673ffffffffffffffffffffffffffffffffffffffff168152602001908152602001600020816105d19190613369565b50600a60046000600560006002868154811015156105eb57fe5b9060005260206000200154815260200190815260200160002060000160009054906101000a900473ffffffffffffffffffffffffffffffffffffffff1673ffffffffffffffffffffffffffffffffffffffff1673ffffffffffffffffffffffffffffffffffffffff1681526020019081526020016000205410156106ac5760028181548110151561067857fe5b9060005260206000200154828481518110151561069157fe5b90602001906020020181815250508280600101935050610753565b600560006002838154811015156106bf57fe5b90600052602060002001548152602001908152602001600020600080820160006101000a81549073ffffffffffffffffffffffffffffffffffffffff02191690556001820160006107109190613395565b6002820160009055600382016000905560048201600090556005820160009055600682016000905560078201600090556008820160009055600982016000905550505b8080600101915050610495565b506002600061076f91906133dd565b60008090505b82811015610a5e576002828281518110151561078d57fe5b906020019060200201519080600181540180825580915050906001820390600052602060002001600090919290919091505550600560006002838154811015156107d357fe5b90600052602060002001548152602001908152602001600020600560006001840181526020019081526020016000206000820160009054906101000a900473ffffffffffffffffffffffffffffffffffffffff168160000160006101000a81548173ffffffffffffffffffffffffffffffffffffffff021916908373ffffffffffffffffffffffffffffffffffffffff160217905550600182018160010190805460018160011615610100020316600290046108909291906133fe565b5060028201548160020155600382015481600301556004820154816004015560058201548160050155600682015481600601556007820154816007015560088201548160080155600982015481600901559050506002818154811015156108f357fe5b9060005260206000200154600182011415156109b0576005600060028381548110151561091c57fe5b90600052602060002001548152602001908152602001600020600080820160006101000a81549073ffffffffffffffffffffffffffffffffffffffff021916905560018201600061096d9190613395565b6002820160009055600382016000905560048201600090556005820160009055600682016000905560078201600090556008820160009055600982016000905550505b60018101600660006005600060018601815260200190815260200160002060000160009054906101000a900473ffffffffffffffffffffffffffffffffffffffff1673ffffffffffffffffffffffffffffffffffffffff1673ffffffffffffffffffffffffffffffffffffffff1681526020019081526020016000208190555060018101600282815481101515610a4357fe5b90600052602060002001819055508080600101915050610775565b50606090506000600381610a729190613485565b506000600160146101000a81548160ff0219169083151502179055506000600860006101000a81548160ff021916908315150217905550600060098190555060008060006101000a81548173ffffffffffffffffffffffffffffffffffffffff021916908373ffffffffffffffffffffffffffffffffffffffff1602179055506000600160006101000a81548173ffffffffffffffffffffffffffffffffffffffff021916908373ffffffffffffffffffffffffffffffffffffffff1602179055505050565b6060600560006003600954815481101515610b4f57fe5b906000526020600020906003020160000154815260200190815260200160002060000160009054906101000a900473ffffffffffffffffffffffffffffffffffffffff1673ffffffffffffffffffffffffffffffffffffffff163373ffffffffffffffffffffffffffffffffffffffff161415610c88576003600954815481101515610bd757fe5b90600052602060002090600302016001018054600181600116156101000203166002900480601f016020809104026020016040519081016040528092919081815260200182805460018160011615610100020316600290048015610c7c5780601f10610c5157610100808354040283529160200191610c7c565b820191906000526020600020905b815481529060010190602001808311610c5f57829003601f168201915b50505050509050610c9c565b602060405190810160405280600081525090505b90565b6000600660003373ffffffffffffffffffffffffffffffffffffffff1673ffffffffffffffffffffffffffffffffffffffff1681526020019081526020016000205414158015610d455750600060056000600660003373ffffffffffffffffffffffffffffffffffffffff1673ffffffffffffffffffffffffffffffffffffffff1681526020019081526020016000205481526020019081526020016000206002015414155b15611159573460056000600660003373ffffffffffffffffffffffffffffffffffffffff1673ffffffffffffffffffffffffffffffffffffffff16815260200190815260200160002054815260200190815260200160002060030154148015610e5a575060056000600660003373ffffffffffffffffffffffffffffffffffffffff1673ffffffffffffffffffffffffffffffffffffffff1681526020019081526020016000205481526020019081526020016000206002015460056000600660003373ffffffffffffffffffffffffffffffffffffffff1673ffffffffffffffffffffffffffffffffffffffff16815260200190815260200160002054815260200190815260200160002060080154420311155b15610f7557600060056000600660003373ffffffffffffffffffffffffffffffffffffffff1673ffffffffffffffffffffffffffffffffffffffff16815260200190815260200160002054815260200190815260200160002060030181905550600060056000600660003373ffffffffffffffffffffffffffffffffffffffff1673ffffffffffffffffffffffffffffffffffffffff16815260200190815260200160002054815260200190815260200160002060020181905550600060056000600660003373ffffffffffffffffffffffffffffffffffffffff1673ffffffffffffffffffffffffffffffffffffffff16815260200190815260200160002054815260200190815260200160002060080181905550611154565b60056000600660003373ffffffffffffffffffffffffffffffffffffffff1673ffffffffffffffffffffffffffffffffffffffff1681526020019081526020016000205481526020019081526020016000206002015460056000600660003373ffffffffffffffffffffffffffffffffffffffff1673ffffffffffffffffffffffffffffffffffffffff168152602001908152602001600020548152602001908152602001600020600801544203111561115357671bc16d674ec8000060056000600660003373ffffffffffffffffffffffffffffffffffffffff1673ffffffffffffffffffffffffffffffffffffffff16815260200190815260200160002054815260200190815260200160002060030160008282540192505081905550600a60056000600660003373ffffffffffffffffffffffffffffffffffffffff1673ffffffffffffffffffffffffffffffffffffffff168152602001908152602001600020548152602001908152602001600020600201600082825401925050819055504260056000600660003373ffffffffffffffffffffffffffffffffffffffff1673ffffffffffffffffffffffffffffffffffffffff168152602001908152602001600020548152602001908152602001600020600801819055505b5b61115a565b5b565b60001515600160149054906101000a900460ff1615151480156111ab57508073ffffffffffffffffffffffffffffffffffffffff163373ffffffffffffffffffffffffffffffffffffffff1614155b15156111b657600080fd5b60018060146101000a81548160ff021916908315150217905550336000806101000a81548173ffffffffffffffffffffffffffffffffffffffff021916908373ffffffffffffffffffffffffffffffffffffffff16021790555080600160006101000a81548173ffffffffffffffffffffffffffffffffffffffff021916908373ffffffffffffffffffffffffffffffffffffffff1602179055504260078190555050565b6000809054906101000a900473ffffffffffffffffffffffffffffffffffffffff1673ffffffffffffffffffffffffffffffffffffffff163373ffffffffffffffffffffffffffffffffffffffff161480156112ca575060011515600160149054906101000a900460ff161515145b80156112e9575060011515600860009054906101000a900460ff161515145b15156112f457600080fd5b60006009819055506000809050600060026003805490500314151561132a576002600380549050033481151561132657fe5b0490505b6000600190505b6001600380549050038110156113eb576005600060038381548110151561135457fe5b906000526020600020906003020160000154815260200190815260200160002060000160009054906101000a900473ffffffffffffffffffffffffffffffffffffffff1673ffffffffffffffffffffffffffffffffffffffff166108fc839081150290604051600060405180830381858888f193505050501580156113dd573d6000803e3d6000fd5b508080600101915050611331565b5060006003816113fb9190613485565b506000600160146101000a81548160ff0219169083151502179055506000600860006101000a81548160ff02191690831515021790555060008060006101000a81548173ffffffffffffffffffffffffffffffffffffffff021916908373ffffffffffffffffffffffffffffffffffffffff16021790555050565b6000600660003373ffffffffffffffffffffffffffffffffffffffff1673ffffffffffffffffffffffffffffffffffffffff1681526020019081526020016000205414801561150457506000600460003373ffffffffffffffffffffffffffffffffffffffff1673ffffffffffffffffffffffffffffffffffffffff16815260200190815260200160002054145b80156115175750674563918244f4000034145b156119195760026001600280549050019080600181540180825580915050906001820390600052602060002001600090919290919091505550600280549050600660003373ffffffffffffffffffffffffffffffffffffffff1673ffffffffffffffffffffffffffffffffffffffff168152602001908152602001600020819055503360056000600660003373ffffffffffffffffffffffffffffffffffffffff1673ffffffffffffffffffffffffffffffffffffffff16815260200190815260200160002054815260200190815260200160002060000160006101000a81548173ffffffffffffffffffffffffffffffffffffffff021916908373ffffffffffffffffffffffffffffffffffffffff1602179055508060056000600660003373ffffffffffffffffffffffffffffffffffffffff1673ffffffffffffffffffffffffffffffffffffffff16815260200190815260200160002054815260200190815260200160002060010190805190602001906116969291906134b7565b50600060056000600660003373ffffffffffffffffffffffffffffffffffffffff1673ffffffffffffffffffffffffffffffffffffffff16815260200190815260200160002054815260200190815260200160002060020181905550600060056000600660003373ffffffffffffffffffffffffffffffffffffffff1673ffffffffffffffffffffffffffffffffffffffff16815260200190815260200160002054815260200190815260200160002060030181905550600060056000600660003373ffffffffffffffffffffffffffffffffffffffff1673ffffffffffffffffffffffffffffffffffffffff16815260200190815260200160002054815260200190815260200160002060070181905550600060056000600660003373ffffffffffffffffffffffffffffffffffffffff1673ffffffffffffffffffffffffffffffffffffffff16815260200190815260200160002054815260200190815260200160002060090181905550600060056000600660003373ffffffffffffffffffffffffffffffffffffffff1673ffffffffffffffffffffffffffffffffffffffff16815260200190815260200160002054815260200190815260200160002060040181905550600060056000600660003373ffffffffffffffffffffffffffffffffffffffff1673ffffffffffffffffffffffffffffffffffffffff16815260200190815260200160002054815260200190815260200160002060050181905550600060056000600660003373ffffffffffffffffffffffffffffffffffffffff1673ffffffffffffffffffffffffffffffffffffffff1681526020019081526020016000205481526020019081526020016000206006018190555061191e565b61191f565b5b50565b60056000600360095481548110151561193757fe5b906000526020600020906003020160000154815260200190815260200160002060000160009054906101000a900473ffffffffffffffffffffffffffffffffffffffff1673ffffffffffffffffffffffffffffffffffffffff163373ffffffffffffffffffffffffffffffffffffffff161415156119b457600080fd5b600060095414156119f7578060036009548154811015156119d157fe5b906000526020600020906003020160010190805190602001906119f59291906134b7565b505b426003600954815481101515611a0957fe5b906000526020600020906003020160020181905550600160038054905003600160095401111515611a6f57806003600160095401815481101515611a4957fe5b90600052602060002090600302016001019080519060200190611a6d9291906134b7565b505b60096000815480929190600101919050555050565b611a8c613537565b60008060056000600660003373ffffffffffffffffffffffffffffffffffffffff1673ffffffffffffffffffffffffffffffffffffffff168152602001908152602001600020548152602001908152602001600020600460003373ffffffffffffffffffffffffffffffffffffffff1673ffffffffffffffffffffffffffffffffffffffff16815260200190815260200160002054600660003373ffffffffffffffffffffffffffffffffffffffff1673ffffffffffffffffffffffffffffffffffffffff168152602001908152602001600020548261014060405190810160405290816000820160009054906101000a900473ffffffffffffffffffffffffffffffffffffffff1673ffffffffffffffffffffffffffffffffffffffff1673ffffffffffffffffffffffffffffffffffffffff168152602001600182018054600181600116156101000203166002900480601f016020809104026020016040519081016040528092919081815260200182805460018160011615610100020316600290048015611c5e5780601f10611c3357610100808354040283529160200191611c5e565b820191906000526020600020905b815481529060010190602001808311611c4157829003601f168201915b50505050508152602001600282015481526020016003820154815260200160048201548152602001600582015481526020016006820154815260200160078201548152602001600882015481526020016009820154815250509250925092509250909192565b6000809054906101000a900473ffffffffffffffffffffffffffffffffffffffff1673ffffffffffffffffffffffffffffffffffffffff163373ffffffffffffffffffffffffffffffffffffffff161480611d815750600560006001815260200190815260200160002060000160009054906101000a900473ffffffffffffffffffffffffffffffffffffffff1673ffffffffffffffffffffffffffffffffffffffff163373ffffffffffffffffffffffffffffffffffffffff16145b80611dee5750600560006002815260200190815260200160002060000160009054906101000a900473ffffffffffffffffffffffffffffffffffffffff1673ffffffffffffffffffffffffffffffffffffffff163373ffffffffffffffffffffffffffffffffffffffff16145b80611e5b5750600560006003815260200190815260200160002060000160009054906101000a900473ffffffffffffffffffffffffffffffffffffffff1673ffffffffffffffffffffffffffffffffffffffff163373ffffffffffffffffffffffffffffffffffffffff16145b8015611e7a575060011515600160149054906101000a900460ff161515145b1515611e8557600080fd5b60008090505b60028054905081101561237c576000600a600060056000600286815481101515611eb157fe5b9060005260206000200154815260200190815260200160002060000160009054906101000a900473ffffffffffffffffffffffffffffffffffffffff1673ffffffffffffffffffffffffffffffffffffffff1673ffffffffffffffffffffffffffffffffffffffff16815260200190815260200160002081611f339190613369565b50600160056000600284815481101515611f4957fe5b9060005260206000200154815260200190815260200160002060070154141561236f5760008090505b60028054905081101561236d57808214158015611fbe5750600160056000600284815481101515611f9f57fe5b9060005260206000200154815260200190815260200160002060070154145b1561236057600060056000600284815481101515611fd857fe5b90600052602060002001548152602001908152602001600020600601546005600060028681548110151561200857fe5b9060005260206000200154815260200190815260200160002060060154036005600060028581548110151561203957fe5b90600052602060002001548152602001908152602001600020600601546005600060028781548110151561206957fe5b906000526020600020015481526020019081526020016000206006015403026005600060028581548110151561209b57fe5b9060005260206000200154815260200190815260200160002060050154600560006002878154811015156120cb57fe5b906000526020600020015481526020019081526020016000206005015403600560006002868154811015156120fc57fe5b90600052602060002001548152602001908152602001600020600501546005600060028881548110151561212c57fe5b906000526020600020015481526020019081526020016000206005015403026005600060028681548110151561215e57fe5b90600052602060002001548152602001908152602001600020600401546005600060028881548110151561218e57fe5b906000526020600020015481526020019081526020016000206004015403600560006002878154811015156121bf57fe5b9060005260206000200154815260200190815260200160002060040154600560006002898154811015156121ef57fe5b906000526020600020015481526020019081526020016000206004015403020101905060048113151561235e57600a60006005600060028781548110151561223357fe5b9060005260206000200154815260200190815260200160002060000160009054906101000a900473ffffffffffffffffffffffffffffffffffffffff1673ffffffffffffffffffffffffffffffffffffffff1673ffffffffffffffffffffffffffffffffffffffff168152602001908152602001600020600560006002858154811015156122bd57fe5b9060005260206000200154815260200190815260200160002060000160009054906101000a900473ffffffffffffffffffffffffffffffffffffffff1690806001815401808255809150509060018203906000526020600020016000909192909190916101000a81548173ffffffffffffffffffffffffffffffffffffffff021916908373ffffffffffffffffffffffffffffffffffffffff160217905550505b505b8080600101915050611f72565b505b8080600101915050611e8b565b50565b600160009054906101000a900473ffffffffffffffffffffffffffffffffffffffff1673ffffffffffffffffffffffffffffffffffffffff163373ffffffffffffffffffffffffffffffffffffffff161415156123db57600080fd5b6000600160146101000a81548160ff0219169083151502179055506000600860006101000a81548160ff021916908315150217905550600081141561278f57600060056000600360095481548110151561243157fe5b9060005260206000209060030201600001548152602001908152602001600020600701819055506004600060056000600360095481548110151561247157fe5b906000526020600020906003020160000154815260200190815260200160002060000160009054906101000a900473ffffffffffffffffffffffffffffffffffffffff1673ffffffffffffffffffffffffffffffffffffffff1673ffffffffffffffffffffffffffffffffffffffff16815260200190815260200160002060008154809291906001019190505550600a6004600060056000600360095481548110151561251a57fe5b906000526020600020906003020160000154815260200190815260200160002060000160009054906101000a900473ffffffffffffffffffffffffffffffffffffffff1673ffffffffffffffffffffffffffffffffffffffff1673ffffffffffffffffffffffffffffffffffffffff16815260200190815260200160002054026005600060036009548154811015156125af57fe5b906000526020600020906003020160000154815260200190815260200160002060020181905550671bc16d674ec80000600460006005600060036009548154811015156125f857fe5b906000526020600020906003020160000154815260200190815260200160002060000160009054906101000a900473ffffffffffffffffffffffffffffffffffffffff1673ffffffffffffffffffffffffffffffffffffffff1673ffffffffffffffffffffffffffffffffffffffff168152602001908152602001600020540260056000600360095481548110151561268d57fe5b906000526020600020906003020160000154815260200190815260200160002060030181905550426005600060036009548154811015156126ca57fe5b90600052602060002090600302016000015481526020019081526020016000206008018190555060056000600360095481548110151561270657fe5b906000526020600020906003020160000154815260200190815260200160002060000160009054906101000a900473ffffffffffffffffffffffffffffffffffffffff16600860016101000a81548173ffffffffffffffffffffffffffffffffffffffff021916908373ffffffffffffffffffffffffffffffffffffffff160217905550612c47565b6000600190505b600380549050811015612c4557600360008154811015156127b357fe5b9060005260206000209060030201600101604051808280546001816001161561010002031660029004801561281f5780601f106127fd57610100808354040283529182019161281f565b820191906000526020600020905b81548152906001019060200180831161280b575b5050915050604051809103902060038281548110151561283b57fe5b906000526020600020906003020160010160405180828054600181600116156101000203166002900480156128a75780601f106128855761010080835404028352918201916128a7565b820191906000526020600020905b815481529060010190602001808311612893575b50509150506040518091039020141515612c38576000600560006003600185038154811015156128d357fe5b906000526020600020906003020160000154815260200190815260200160002060070181905550600460006005600060036001860381548110151561291457fe5b906000526020600020906003020160000154815260200190815260200160002060000160009054906101000a900473ffffffffffffffffffffffffffffffffffffffff1673ffffffffffffffffffffffffffffffffffffffff1673ffffffffffffffffffffffffffffffffffffffff16815260200190815260200160002060008154809291906001019190505550600a60046000600560006003600187038154811015156129be57fe5b906000526020600020906003020160000154815260200190815260200160002060000160009054906101000a900473ffffffffffffffffffffffffffffffffffffffff1673ffffffffffffffffffffffffffffffffffffffff1673ffffffffffffffffffffffffffffffffffffffff168152602001908152602001600020540260056000600360018503815481101515612a5457fe5b906000526020600020906003020160000154815260200190815260200160002060020181905550671bc16d674ec800006004600060056000600360018703815481101515612a9e57fe5b906000526020600020906003020160000154815260200190815260200160002060000160009054906101000a900473ffffffffffffffffffffffffffffffffffffffff1673ffffffffffffffffffffffffffffffffffffffff1673ffffffffffffffffffffffffffffffffffffffff168152602001908152602001600020540260056000600360018503815481101515612b3457fe5b9060005260206000209060030201600001548152602001908152602001600020600301819055504260056000600360018503815481101515612b7257fe5b90600052602060002090600302016000015481526020019081526020016000206008018190555060056000600360018403815481101515612baf57fe5b906000526020600020906003020160000154815260200190815260200160002060000160009054906101000a900473ffffffffffffffffffffffffffffffffffffffff16600860016101000a81548173ffffffffffffffffffffffffffffffffffffffff021916908373ffffffffffffffffffffffffffffffffffffffff160217905550612c45565b8080600101915050612796565b505b612c4f612ff6565b50565b6000600860019054906101000a900473ffffffffffffffffffffffffffffffffffffffff16905090565b600160149054906101000a900460ff1681565b60011515600160149054906101000a900460ff161515148015612d075750600060056000600660003373ffffffffffffffffffffffffffffffffffffffff1673ffffffffffffffffffffffffffffffffffffffff16815260200190815260200160002054815260200190815260200160002060020154145b1515612d1257600080fd5b6000600660003373ffffffffffffffffffffffffffffffffffffffff1673ffffffffffffffffffffffffffffffffffffffff16815260200190815260200160002054141515612e9757600060056000600660003373ffffffffffffffffffffffffffffffffffffffff1673ffffffffffffffffffffffffffffffffffffffff16815260200190815260200160002054815260200190815260200160002060090154148015612e155750600060056000600660003373ffffffffffffffffffffffffffffffffffffffff1673ffffffffffffffffffffffffffffffffffffffff16815260200190815260200160002054815260200190815260200160002060070154145b8015612e285750670de0b6b3a764000034145b15612e8d57600160056000600660003373ffffffffffffffffffffffffffffffffffffffff1673ffffffffffffffffffffffffffffffffffffffff16815260200190815260200160002054815260200190815260200160002060070181905550612e92565b612ff3565b612e9c565b612ff3565b806000815181101515612eab57fe5b9060200190602002015160056000600660003373ffffffffffffffffffffffffffffffffffffffff1673ffffffffffffffffffffffffffffffffffffffff16815260200190815260200160002054815260200190815260200160002060040181905550806001815181101515612f1d57fe5b9060200190602002015160056000600660003373ffffffffffffffffffffffffffffffffffffffff1673ffffffffffffffffffffffffffffffffffffffff16815260200190815260200160002054815260200190815260200160002060050181905550806002815181101515612f8f57fe5b9060200190602002015160056000600660003373ffffffffffffffffffffffffffffffffffffffff1673ffffffffffffffffffffffffffffffffffffffff168152602001908152602001600020548152602001908152602001600020600601819055505b50565b60008090505b6002805490508110156131f9576000600a60006005600060028681548110151561302257fe5b9060005260206000200154815260200190815260200160002060000160009054906101000a900473ffffffffffffffffffffffffffffffffffffffff1673ffffffffffffffffffffffffffffffffffffffff1673ffffffffffffffffffffffffffffffffffffffff168152602001908152602001600020816130a49190613369565b506001600560006002848154811015156130ba57fe5b906000526020600020015481526020019081526020016000206007015414801561311357506000600560006002848154811015156130f457fe5b9060005260206000200154815260200190815260200160002060090154145b156131ec5760006005600060028481548110151561312d57fe5b90600052602060002001548152602001908152602001600020600701819055506005600060028381548110151561316057fe5b9060005260206000200154815260200190815260200160002060000160009054906101000a900473ffffffffffffffffffffffffffffffffffffffff1673ffffffffffffffffffffffffffffffffffffffff166108fc670de0b6b3a76400009081150290604051600060405180830381858888f193505050501580156131ea573d6000803e3d6000fd5b505b8080600101915050612ffc565b50565b600080606060056000600660003373ffffffffffffffffffffffffffffffffffffffff1673ffffffffffffffffffffffffffffffffffffffff16815260200190815260200160002054815260200190815260200160002060020154600460003373ffffffffffffffffffffffffffffffffffffffff1673ffffffffffffffffffffffffffffffffffffffff16815260200190815260200160002054600a60003373ffffffffffffffffffffffffffffffffffffffff1673ffffffffffffffffffffffffffffffffffffffff1681526020019081526020016000208080548060200260200160405190810160405280929190818152602001828054801561335757602002820191906000526020600020905b8160009054906101000a900473ffffffffffffffffffffffffffffffffffffffff1673ffffffffffffffffffffffffffffffffffffffff168152602001906001019080831161330d575b50505050509050925092509250909192565b8154818355818111156133905781836000526020600020918201910161338f91906135a1565b5b505050565b50805460018160011615610100020316600290046000825580601f106133bb57506133da565b601f0160209004906000526020600020908101906133d991906135a1565b5b50565b50805460008255906000526020600020908101906133fb91906135a1565b50565b828054600181600116156101000203166002900490600052602060002090601f016020900481019282601f106134375780548555613474565b8280016001018555821561347457600052602060002091601f016020900482015b82811115613473578254825591600101919060010190613458565b5b50905061348191906135a1565b5090565b8154818355818111156134b2576003028160030283600052602060002091820191016134b191906135c6565b5b505050565b828054600181600116156101000203166002900490600052602060002090601f016020900481019282601f106134f857805160ff1916838001178555613526565b82800160010185558215613526579182015b8281111561352557825182559160200191906001019061350a565b5b50905061353391906135a1565b5090565b61014060405190810160405280600073ffffffffffffffffffffffffffffffffffffffff1681526020016060815260200160008152602001600081526020016000815260200160008152602001600081526020016000815260200160008152602001600081525090565b6135c391905b808211156135bf5760008160009055506001016135a7565b5090565b90565b61360291905b808211156135fe576000808201600090556001820160006135ed9190613395565b6002820160009055506003016135cc565b5090565b90565b60006136118235613beb565b905092915050565b600082601f830112151561362c57600080fd5b813561363f61363a82613af8565b613acb565b9150818183526020840193506020810190508385602084028201111561366457600080fd5b60005b83811015613694578161367a888261369e565b845260208401935060208301925050600181019050613667565b5050505092915050565b60006136aa8235613bfd565b905092915050565b600082601f83011215156136c557600080fd5b81356136d86136d382613b20565b613acb565b915080825260208301602083018583830111156136f457600080fd5b6136ff838284613c11565b50505092915050565b60006137148235613c07565b905092915050565b60006020828403121561372e57600080fd5b600061373c84828501613605565b91505092915050565b60006020828403121561375757600080fd5b600082013567ffffffffffffffff81111561377157600080fd5b61377d84828501613619565b91505092915050565b60006020828403121561379857600080fd5b600082013567ffffffffffffffff8111156137b257600080fd5b6137be848285016136b2565b91505092915050565b6000602082840312156137d957600080fd5b60006137e784828501613708565b91505092915050565b6137f981613b99565b82525050565b61380881613b87565b82525050565b600061381982613b59565b80845260208401935061382b83613b4c565b60005b8281101561385d576138418683516137ff565b61384a82613b7a565b915060208601955060018101905061382e565b50849250505092915050565b61387281613bab565b82525050565b61388181613bb7565b82525050565b600061389282613b6f565b8084526138a6816020860160208601613c20565b6138af81613c53565b602085010191505092915050565b60006138c882613b64565b8084526138dc816020860160208601613c20565b6138e581613c53565b602085010191505092915050565b60006101408301600083015161390c60008601826137f0565b506020830151848203602086015261392482826138bd565b915050604083015161393960408601826139cd565b50606083015161394c60608601826139cd565b50608083015161395f6080860182613878565b5060a083015161397260a0860182613878565b5060c083015161398560c0860182613878565b5060e083015161399860e08601826139cd565b506101008301516139ad6101008601826139cd565b506101208301516139c26101208601826139cd565b508091505092915050565b6139d681613be1565b82525050565b60006020820190506139f160008301846137f0565b92915050565b6000602082019050613a0c6000830184613869565b92915050565b60006020820190508181036000830152613a2c8184613887565b905092915050565b60006060820190508181036000830152613a4e81866138f3565b9050613a5d60208301856139cd565b613a6a60408301846139cd565b949350505050565b6000602082019050613a8760008301846139cd565b92915050565b6000606082019050613aa260008301866139cd565b613aaf60208301856139cd565b8181036040830152613ac1818461380e565b9050949350505050565b6000604051905081810181811067ffffffffffffffff82111715613aee57600080fd5b8060405250919050565b600067ffffffffffffffff821115613b0f57600080fd5b602082029050602081019050919050565b600067ffffffffffffffff821115613b3757600080fd5b601f19601f8301169050602081019050919050565b6000602082019050919050565b600081519050919050565b600081519050919050565b600081519050919050565b6000602082019050919050565b6000613b9282613bc1565b9050919050565b6000613ba482613bc1565b9050919050565b60008115159050919050565b6000819050919050565b600073ffffffffffffffffffffffffffffffffffffffff82169050919050565b6000819050919050565b6000613bf682613bc1565b9050919050565b6000819050919050565b6000819050919050565b82818337600083830152505050565b60005b83811015613c3e578082015181840152602081019050613c23565b83811115613c4d576000848401525b50505050565b6000601f19601f830116905091905056fea265627a7a7230582052125a41ce5c348b41f3b68a06c663382ebcb2ec8db43c96c5518779ea6705736c6578706572696d656e74616cf500372d2d2d2d2d424547494e205055424c4943204b45592d2d2d2d2d0a4d4947664d413047435371475349623344514542415155414134474e4144434269514b42675144596e6f475239616b546c39666b635170394b44757a484847580a3458366a7557392b6c5a414c314f7954567075434478757853317043554d3377455274347a5567466964566d364a5269464f426d746d564d5a66742b412f632b0a2b706b65446f47673077554738526b637a3466426b7446364f514c67375933784f4c455578516b456d32664379575068324b38523435474f6b6f704e633447490a697854323349774f4a732b56414b7a786b774944415141420a2d2d2d2d2d454e44205055424c4943204b45592d2d2d2d2d2d2d2d2d2d424547494e205055424c4943204b45592d2d2d2d2d0a4d4947664d413047435371475349623344514542415155414134474e4144434269514b426751433837616a31317677562f6a693538634c69677048766353544a0a74654164616a4a3350776e5576484843546a6835526a683037735a4f62314d563276634f4236506d786c48716f63714945766d5431504271496f4c4e396a70420a432f7462545774444c61664e4569726474737a6555675032733876467a684b33463759714e47487a7a3748694f435637465956734465346a796a5631307645660a42357453587430704832374c4a6970755a774944415141420a2d2d2d2d2d454e44205055424c4943204b45592d2d2d2d2d2d2d2d2d2d424547494e205055424c4943204b45592d2d2d2d2d0a4d4947664d413047435371475349623344514542415155414134474e4144434269514b426751444d4a6c7367334669654a73624339784c47794643384d646b450a39563059633333576a755a71553663613779374b334155752b54734d59734b474168514a76634e75355078775a77666b7564592b77496d2f2f4e726f537433730a4768724d6b614e6f465441573155633851355937374b314c2f6b70394d306265305558584735516233515a2f64637a454444706e6d30694c48757354597a37520a6e774f694a5474663965477435436c5a34774944415141420a2d2d2d2d2d454e44205055424c4943204b45592d2d2d2d2d2d2d2d2d2d424547494e205055424c4943204b45592d2d2d2d2d0a4d4947664d413047435371475349623344514542415155414134474e4144434269514b4267514431556d6b467976503450523663654d435539786954427641350a524869375134572f5864726c526f71584834744267777458504f624c6370706a7447636773467436677537553832576b314f5a386952454f795931754e544b440a2b61543366584c74476257364b446966654d35453639444f5032566a66783631626943434e726a794d5a6a35714a7662696e4e76436f2f5133372b30644775550a704b5a393932665734467a4654424d4b76514944415141420a2d2d2d2d2d454e44205055424c4943204b45592d2d2d2d2d2d2d2d2d2d424547494e205055424c4943204b45592d2d2d2d2d0a4d4947664d413047435371475349623344514542415155414134474e4144434269514b426751434470514c2f682b396e59493630503246546355744134675a760a30724f6b6e5755336f7a4574304e79573859546a4b5a54436c59793876626447485359566271687863716369675651614446715a684a4a6556512f4a4b37624d0a4a4737762f417546456a477533554b6676496944645371413747516e51484e34615432313741304d7461523956546f7334797462356e31682b737249523864720a41315362713072544a434f4e457a4e3277774944415141420a2d2d2d2d2d454e44205055424c4943204b45592d2d2d2d2d2d2d2d2d2d424547494e205055424c4943204b45592d2d2d2d2d0a4d4947664d413047435371475349623344514542415155414134474e4144434269514b42675143515a676c6b74394f504a526147672b457a45454170747834350a4970303453384670575144506d576a7967344c78556f7959625557493259574a59656b62776f696a6c624a57457a5a4d2b5a64346275526e48503836323830560a434e56524e5a435552517750363259675076537250666930727a5556664350476f7a7543697033565757454577652f6a4d6e664259614e6f76794f45584b62560a6c6a6a706f4c6471665a2b4d7768534565774944415141420a2d2d2d2d2d454e44205055424c4943204b45592d2d2d2d2d2d2d2d2d2d424547494e205055424c4943204b45592d2d2d2d2d0a4d4947664d413047435371475349623344514542415155414134474e4144434269514b426751446764655747797869467048706f63687959464d4d79775350540a41677258335431625934537757625a73675357693541656f73586b76526e4247437848623755434a637459544576314f7138476b424a4b3663467837536a2f4f0a6474462b4d637342335166674f737370637345624a56596e7654576c666732706445574d5a433967324d307a334c756471536451594b5a6a67676e54627a66380a65774235624334584b49555a4d59412f77774944415141420a2d2d2d2d2d454e44205055424c4943204b45592d2d2d2d2d2d2d2d2d2d424547494e205055424c4943204b45592d2d2d2d2d0a4d4947664d413047435371475349623344514542415155414134474e4144434269514b426751436533623043785061505a35795558464d555a45794232506f6c0a4b47555367485365564130764b42634a6d4c38533878766e4a4637566b6942644574386a34745030474c72773030484534414c5563305a642b3776542b4d6e310a7766637474394d45774c654f67555571464b746a51785078494b696372327439304a2b787974584338696455583532574242534e6c58535a71776d73316265790a6354575155416775666e636d484a6b7578774944415141420a2d2d2d2d2d454e44205055424c4943204b45592d2d2d2d2d",
  "source": "pragma solidity >=0.4.21 <0.6.0;\npragma experimental ABIEncoderV2;\nimport \"./UAV.sol\";\n\ncontract DataSending is Registration{\n  uint timestamp;\n  bool successful;\n  address payable culprit;\n  uint count=0;\n\n  mapping (address => address[]) routeTable;\n\n  constructor() public{\n\n    successful=false;\n\n  }\n\n  function doTrans(address payable dest) public{\n\n    require(transaction==false && msg.sender!=dest);\n    transaction=true;\n    source=msg.sender;\n    destination=dest;\n    timestamp=now;\n\n  }\n\n\n  function registerCoordinates(int[] memory coordinates) public payable\n  {\n    require(transaction==true && registered[pubToMac[msg.sender]].faulty==0);\n    if(pubToMac[msg.sender]!=0)\n    {\n      if(registered[pubToMac[msg.sender]].bcs==0 && registered[pubToMac[msg.sender]].participating==0 && msg.value==1 ether)\n      {\n        registered[pubToMac[msg.sender]].participating=1;\n      }\n      else\n        return;\n    }\n    else\n      return;\n    registered[pubToMac[msg.sender]].x=coordinates[0];\n    registered[pubToMac[msg.sender]].y=coordinates[1];\n    registered[pubToMac[msg.sender]].z=coordinates[2];\n\n  }\n\n  function getTable() public view returns(uint,uint,address[] memory)\n  {\n\n    return (registered[pubToMac[msg.sender]].faulty,blacklisted[msg.sender],routeTable[msg.sender]);\n\n  }\n\n\n  function updateGraph() public\n  {\n\n    require((msg.sender==source || msg.sender==registered[1].publicKey || msg.sender==registered[2].publicKey || msg.sender==registered[3].publicKey) && transaction==true);\n    for(uint i=0;i<list.length;i++)\n    {\n\n      routeTable[registered[list[i]].publicKey].length=0;\n      // emit x1(registered[list[i]].participating);\n      //   emit x1(list[i]);\n      if(registered[list[i]].participating==1){\n      for(uint j=0;j<list.length;j++)\n      {\n        if(i!=j && registered[list[j]].participating==1)\n        {\n            int distance=(registered[list[i]].x-registered[list[j]].x)*(registered[list[i]].x-registered[list[j]].x) + (registered[list[i]].y-registered[list[j]].y)*(registered[list[i]].y-registered[list[j]].y) + (registered[list[i]].z-registered[list[j]].z)*(registered[list[i]].z-registered[list[j]].z);\n            if(distance<=4)\n            {\n              routeTable[registered[list[i]].publicKey].push(registered[list[j]].publicKey);\n            }\n        }\n      }}\n    }\n\n  }\n\n  function success() public payable returns(bool){\n\n      if(msg.sender==destination)\n        {\n            Route[count].timestamp=now;\n            successful=true;\n            count=0;\n            destination=0x0000000000000000000000000000000000000000;\n            sendBackToken();\n        }\n        else\n          return false;\n  }\n\n  function sendBackToken() public payable\n  {\n    for(uint i=0;i<list.length;i++)\n    {\n        routeTable[registered[list[i]].publicKey].length=0;\n      if(registered[list[i]].participating==1 && registered[list[i]].bcs==0)\n      {\n\n        registered[list[i]].participating=0;\n        registered[list[i]].publicKey.transfer(1 ether);\n      }\n\n    }\n  }\n  function unsuccessful(uint x) public payable {\n\n      require(msg.sender==destination);\n      transaction=false;\n      successful=false;\n      if(x==0)\n      {\n\n        registered[Route[count].id].participating=0;\n        blacklisted[registered[Route[count].id].publicKey]++;\n        registered[Route[count].id].faulty=blacklisted[registered[Route[count].id].publicKey]*10;\n        registered[Route[count].id].penaltytoken=blacklisted[registered[Route[count].id].publicKey]*2 ether;\n        registered[Route[count].id].timestamp=now;\n        culprit=registered[Route[count].id].publicKey;\n      }\n      else\n      {\n        for(uint i=1;i<Route.length;i++)\n        {\n          if(keccak256(bytes(Route[i].data))!=keccak256(bytes(Route[0].data)))\n          {\n            registered[Route[i-1].id].participating=0;\n            blacklisted[registered[Route[i-1].id].publicKey]++;\n            registered[Route[i-1].id].faulty=blacklisted[registered[Route[i-1].id].publicKey]*10;\n            registered[Route[i-1].id].penaltytoken=blacklisted[registered[Route[i-1].id].publicKey]*2 ether;\n            registered[Route[i-1].id].timestamp=now;\n            culprit=registered[Route[i-1].id].publicKey;\n            break;\n          }\n        }\n      }\n      sendBackToken();\n  }\n  function returnCulprit() public view returns(address payable)\n  {\n      return culprit;\n  }\n\n  function transCompleted() public payable{\n\n      require(msg.sender==source && transaction==true && successful==true);\n      count=0;\n      uint divide=0;\n      if(Route.length-2!=0)\n        divide=msg.value/(Route.length-2);\n      for(uint i=1;i<Route.length-1;i++)\n      {\n        registered[Route[i].id].publicKey.transfer(divide);\n      }\n      Route.length=0;\n      transaction=false;\n      successful=false;\n      source=0x0000000000000000000000000000000000000000;\n\n\n  }\n\n  function send(string memory x) public{\n      require(msg.sender==registered[Route[count].id].publicKey);\n      if(count==0)\n        Route[count].data=string(x);\n      Route[count].timestamp=now;\n      if(count+1<=Route.length-1)\n        Route[count+1].data=string(x);\n      count++;\n  }\n  function getData() public view returns (string memory) {\n    if(msg.sender==registered[Route[count].id].publicKey)\n      return Route[count].data;\n    else\n      return \"\";\n  }\n  function abort() public{\n    uint count1=0;\n      uint[] memory list1=new uint[](list.length);\n      for(uint i=0;i<list.length;i++)\n      {\n        pubToMac[registered[list[i]].publicKey]=0;\n\n        routeTable[registered[list[i]].publicKey].length=0;\n        if(blacklisted[registered[list[i]].publicKey]<10)\n        {\n          list1[count1]=list[i];\n          count1++;\n        }\n        else\n        {\n            delete registered[list[i]];\n        }\n      }\n      delete list;\n      for(uint i=0;i<count1;i++)\n      {\n          list.push(list1[i]);\n          registered[i+1]=registered[list[i]];\n          if(i+1 != list[i])\n            delete registered[list[i]];\n          pubToMac[registered[i+1].publicKey]=i+1;\n          list[i]=i+1;\n      }\n      delete list1;\n\n      Route.length=0;\n      transaction=false;\n      successful=false;\n      count=0;\n      source=0x0000000000000000000000000000000000000000;\n      destination=0x0000000000000000000000000000000000000000;\n\n\n  }\n  function getRegistered() public view returns(IOT memory,uint,uint)\n  {\n    return (registered[pubToMac[msg.sender]],blacklisted[msg.sender],pubToMac[msg.sender]);\n  }\n\n}\n",
  "sourcePath": "/home/stellet/Desktop/blockchain/Major-Blockchain/src/contracts/DataSending.sol",
  "compiler": {
    "name": "solc",
    "version": "0.5.0+commit.1d4f565a.Emscripten.clang"
  },
  "schemaVersion": "3.0.2",
  "updatedAt": "2020-05-23T00:56:34.339Z",
  "devdoc": {
    "methods": {}
  },
  "userdoc": {
    "methods": {}
  }
}