{
  "contractName": "PathFind",
  "abi": [
    {
      "constant": false,
      "inputs": [],
      "name": "success",
      "outputs": [
        {
          "name": "",
          "type": "bool"
        }
      ],
      "payable": true,
      "stateMutability": "payable",
      "type": "function",
      "signature": "0x0b93381b"
    },
    {
      "constant": false,
      "inputs": [],
      "name": "abort",
      "outputs": [],
      "payable": false,
      "stateMutability": "nonpayable",
      "type": "function",
      "signature": "0x35a063b4"
    },
    {
      "constant": true,
      "inputs": [],
      "name": "getData",
      "outputs": [
        {
          "name": "",
          "type": "string"
        }
      ],
      "payable": false,
      "stateMutability": "view",
      "type": "function",
      "signature": "0x3bc5de30"
    },
    {
      "constant": false,
      "inputs": [
        {
          "name": "dest",
          "type": "address"
        }
      ],
      "name": "doTrans",
      "outputs": [],
      "payable": false,
      "stateMutability": "nonpayable",
      "type": "function",
      "signature": "0x47426fad"
    },
    {
      "constant": false,
      "inputs": [],
      "name": "transCompleted",
      "outputs": [],
      "payable": true,
      "stateMutability": "payable",
      "type": "function",
      "signature": "0x57c6a843"
    },
    {
      "constant": false,
      "inputs": [
        {
          "name": "x",
          "type": "string"
        }
      ],
      "name": "send",
      "outputs": [],
      "payable": false,
      "stateMutability": "nonpayable",
      "type": "function",
      "signature": "0x66792ba1"
    },
    {
      "constant": false,
      "inputs": [],
      "name": "updateGraph",
      "outputs": [],
      "payable": false,
      "stateMutability": "nonpayable",
      "type": "function",
      "signature": "0x8f99123d"
    },
    {
      "constant": false,
      "inputs": [
        {
          "name": "x",
          "type": "uint256"
        }
      ],
      "name": "unsuccessful",
      "outputs": [],
      "payable": true,
      "stateMutability": "payable",
      "type": "function",
      "signature": "0x96fbe5eb"
    },
    {
      "constant": true,
      "inputs": [],
      "name": "returnCulprit",
      "outputs": [
        {
          "name": "",
          "type": "address"
        }
      ],
      "payable": false,
      "stateMutability": "view",
      "type": "function",
      "signature": "0xaf707c0b"
    },
    {
      "constant": true,
      "inputs": [],
      "name": "transaction",
      "outputs": [
        {
          "name": "",
          "type": "bool"
        }
      ],
      "payable": false,
      "stateMutability": "view",
      "type": "function",
      "signature": "0xc99de57e"
    },
    {
      "constant": false,
      "inputs": [
        {
          "name": "coordinates",
          "type": "int256[]"
        }
      ],
      "name": "registerCoordinates",
      "outputs": [],
      "payable": true,
      "stateMutability": "payable",
      "type": "function",
      "signature": "0xf3b8b7d1"
    },
    {
      "constant": false,
      "inputs": [],
      "name": "sendBackToken",
      "outputs": [],
      "payable": true,
      "stateMutability": "payable",
      "type": "function",
      "signature": "0xf421a16b"
    },
    {
      "constant": true,
      "inputs": [],
      "name": "getTable",
      "outputs": [
        {
          "name": "",
          "type": "uint256"
        },
        {
          "name": "",
          "type": "uint256"
        },
        {
          "name": "",
          "type": "address[]"
        }
      ],
      "payable": false,
      "stateMutability": "view",
      "type": "function",
      "signature": "0xfb6391ab"
    },
    {
      "anonymous": false,
      "inputs": [
        {
          "indexed": false,
          "name": "z",
          "type": "bool"
        }
      ],
      "name": "x3",
      "type": "event",
      "signature": "0xc3ad119834eeeb2443fa0b6b3f8ed65e93cd4ff2e8e38c7b8da70c1c578d22ad"
    },
    {
      "anonymous": false,
      "inputs": [
        {
          "indexed": false,
          "name": "a",
          "type": "uint256"
        }
      ],
      "name": "x1",
      "type": "event",
      "signature": "0xd5952913006a4406ddb9abce3129b519939f02c06ab2e91f0091837789cef12d"
    },
    {
      "constant": false,
      "inputs": [
        {
          "name": "pred",
          "type": "uint256[]"
        }
      ],
      "name": "bfs",
      "outputs": [
        {
          "name": "",
          "type": "bool"
        }
      ],
      "payable": false,
      "stateMutability": "nonpayable",
      "type": "function",
      "signature": "0xf6e13efa"
    },
    {
      "constant": false,
      "inputs": [],
      "name": "pathFind",
      "outputs": [],
      "payable": true,
      "stateMutability": "payable",
      "type": "function",
      "signature": "0xb3db2e8c"
    },
    {
      "constant": true,
      "inputs": [],
      "name": "returnRoute",
      "outputs": [
        {
          "components": [
            {
              "name": "id",
              "type": "uint256"
            },
            {
              "name": "data",
              "type": "string"
            },
            {
              "name": "timestamp",
              "type": "uint256"
            }
          ],
          "name": "",
          "type": "tuple[]"
        }
      ],
      "payable": false,
      "stateMutability": "view",
      "type": "function",
      "signature": "0xf8565e04"
    }
  ],
  "bytecode": "0x608060405260006009556000600160146101000a81548160ff021916908315150217905550610140604051908101604052807383385acc745e5af5f2408e5a9d3ca41b8033f13473ffffffffffffffffffffffffffffffffffffffff1681526020016101406040519081016040528061010f81526020016200620061010f91398152602001600081526020016000815260200160008152602001600081526020016000815260200160018152602001600081526020016001815250600560006001815260200190815260200160002060008201518160000160006101000a81548173ffffffffffffffffffffffffffffffffffffffff021916908373ffffffffffffffffffffffffffffffffffffffff160217905550602082015181600101908051906020019062000133929190620010b3565b5060408201518160020155606082015181600301556080820151816004015560a0820151816005015560c0820151816006015560e082015181600701556101008201518160080155610120820151816009015590505061014060405190810160405280738ee94701c39929eb9722a09315f0e1695abf555d73ffffffffffffffffffffffffffffffffffffffff1681526020016101406040519081016040528061010f81526020016200685a61010f91398152602001600081526020016000815260200160068152602001600081526020016000815260200160018152602001600081526020016001815250600560006002815260200190815260200160002060008201518160000160006101000a81548173ffffffffffffffffffffffffffffffffffffffff021916908373ffffffffffffffffffffffffffffffffffffffff160217905550602082015181600101908051906020019062000298929190620010b3565b5060408201518160020155606082015181600301556080820151816004015560a0820151816005015560c0820151816006015560e082015181600701556101008201518160080155610120820151816009015590505061014060405190810160405280737c0300b35b26924a92cbc9da5682279ad18a6e7b73ffffffffffffffffffffffffffffffffffffffff1681526020016101406040519081016040528061010f81526020016200674b61010f91398152602001600081526020016000815260200160048152602001600081526020016000815260200160018152602001600081526020016001815250600560006003815260200190815260200160002060008201518160000160006101000a81548173ffffffffffffffffffffffffffffffffffffffff021916908373ffffffffffffffffffffffffffffffffffffffff1602179055506020820151816001019080519060200190620003fd929190620010b3565b5060408201518160020155606082015181600301556080820151816004015560a0820151816005015560c0820151816006015560e0820151816007015561010082015181600801556101208201518160090155905050610140604051908101604052807323018548f67d4a0ff7027db2870d61ca6d88b81873ffffffffffffffffffffffffffffffffffffffff1681526020016101406040519081016040528061010f81526020016200696961010f91398152602001600081526020016000815260200160008152602001600281526020016000815260200160008152602001600081526020016000815250600560006004815260200190815260200160002060008201518160000160006101000a81548173ffffffffffffffffffffffffffffffffffffffff021916908373ffffffffffffffffffffffffffffffffffffffff160217905550602082015181600101908051906020019062000562929190620010b3565b5060408201518160020155606082015181600301556080820151816004015560a0820151816005015560c0820151816006015560e08201518160070155610100820151816008015561012082015181600901559050506101406040519081016040528073107f93c9e5ee222a4281843d96a745c68387bd5973ffffffffffffffffffffffffffffffffffffffff1681526020016101406040519081016040528061010f81526020016200663c61010f91398152602001600081526020016000815260200160008152602001600481526020016000815260200160008152602001600081526020016000815250600560006005815260200190815260200160002060008201518160000160006101000a81548173ffffffffffffffffffffffffffffffffffffffff021916908373ffffffffffffffffffffffffffffffffffffffff1602179055506020820151816001019080519060200190620006c7929190620010b3565b5060408201518160020155606082015181600301556080820151816004015560a0820151816005015560c0820151816006015560e082015181600701556101008201518160080155610120820151816009015590505061014060405190810160405280737dedcfb08c4e7c2856d44b35411893419d6e6cf373ffffffffffffffffffffffffffffffffffffffff1681526020016101406040519081016040528061010f81526020016200630f61010f91398152602001600081526020016000815260200160028152602001600481526020016000815260200160008152602001600081526020016000815250600560006006815260200190815260200160002060008201518160000160006101000a81548173ffffffffffffffffffffffffffffffffffffffff021916908373ffffffffffffffffffffffffffffffffffffffff16021790555060208201518160010190805190602001906200082c929190620010b3565b5060408201518160020155606082015181600301556080820151816004015560a0820151816005015560c0820151816006015560e0820151816007015561010082015181600801556101208201518160090155905050610140604051908101604052807334dcf4e9c4b0ed9f835c5b4173b2d90804b2a11f73ffffffffffffffffffffffffffffffffffffffff1681526020016101406040519081016040528061010f81526020016200641e61010f91398152602001600081526020016000815260200160048152602001600481526020016000815260200160008152602001600081526020016000815250600560006007815260200190815260200160002060008201518160000160006101000a81548173ffffffffffffffffffffffffffffffffffffffff021916908373ffffffffffffffffffffffffffffffffffffffff160217905550602082015181600101908051906020019062000991929190620010b3565b5060408201518160020155606082015181600301556080820151816004015560a0820151816005015560c0820151816006015560e082015181600701556101008201518160080155610120820151816009015590505061014060405190810160405280735af5e7eacd4552ed39e40aa82b2fa164b6a441a873ffffffffffffffffffffffffffffffffffffffff1681526020016101406040519081016040528061010f81526020016200652d61010f91398152602001600081526020016000815260200160048152602001600281526020016000815260200160008152602001600081526020016000815250600560006008815260200190815260200160002060008201518160000160006101000a81548173ffffffffffffffffffffffffffffffffffffffff021916908373ffffffffffffffffffffffffffffffffffffffff160217905550602082015181600101908051906020019062000af6929190620010b3565b5060408201518160020155606082015181600301556080820151816004015560a0820151816005015560c0820151816006015560e0820151816007015561010082015181600801556101208201518160090155905050600160066000600560006001815260200190815260200160002060000160009054906101000a900473ffffffffffffffffffffffffffffffffffffffff1673ffffffffffffffffffffffffffffffffffffffff1673ffffffffffffffffffffffffffffffffffffffff16815260200190815260200160002081905550600260066000600560006002815260200190815260200160002060000160009054906101000a900473ffffffffffffffffffffffffffffffffffffffff1673ffffffffffffffffffffffffffffffffffffffff1673ffffffffffffffffffffffffffffffffffffffff16815260200190815260200160002081905550600360066000600560006003815260200190815260200160002060000160009054906101000a900473ffffffffffffffffffffffffffffffffffffffff1673ffffffffffffffffffffffffffffffffffffffff1673ffffffffffffffffffffffffffffffffffffffff16815260200190815260200160002081905550600460066000600560006004815260200190815260200160002060000160009054906101000a900473ffffffffffffffffffffffffffffffffffffffff1673ffffffffffffffffffffffffffffffffffffffff1673ffffffffffffffffffffffffffffffffffffffff16815260200190815260200160002081905550600560066000600560006005815260200190815260200160002060000160009054906101000a900473ffffffffffffffffffffffffffffffffffffffff1673ffffffffffffffffffffffffffffffffffffffff1673ffffffffffffffffffffffffffffffffffffffff168152602001908152602001600020819055506006806000600560006006815260200190815260200160002060000160009054906101000a900473ffffffffffffffffffffffffffffffffffffffff1673ffffffffffffffffffffffffffffffffffffffff1673ffffffffffffffffffffffffffffffffffffffff16815260200190815260200160002081905550600760066000600560006007815260200190815260200160002060000160009054906101000a900473ffffffffffffffffffffffffffffffffffffffff1673ffffffffffffffffffffffffffffffffffffffff1673ffffffffffffffffffffffffffffffffffffffff16815260200190815260200160002081905550600860066000600560006008815260200190815260200160002060000160009054906101000a900473ffffffffffffffffffffffffffffffffffffffff1673ffffffffffffffffffffffffffffffffffffffff1673ffffffffffffffffffffffffffffffffffffffff1681526020019081526020016000208190555060026001908060018154018082558091505090600182039060005260206000200160009091929091909150555060028090806001815401808255809150509060018203906000526020600020016000909192909190915055506002600390806001815401808255809150509060018203906000526020600020016000909192909190915055506002600490806001815401808255809150509060018203906000526020600020016000909192909190915055506002600590806001815401808255809150509060018203906000526020600020016000909192909190915055506002600690806001815401808255809150509060018203906000526020600020016000909192909190915055506002600790806001815401808255809150509060018203906000526020600020016000909192909190915055506002600890806001815401808255809150509060018203906000526020600020016000909192909190915055506000600860006101000a81548160ff02191690831515021790555062001162565b828054600181600116156101000203166002900490600052602060002090601f016020900481019282601f10620010f657805160ff191683800117855562001127565b8280016001018555821562001127579182015b828111156200112657825182559160200191906001019062001109565b5b5090506200113691906200113a565b5090565b6200115f91905b808211156200115b57600081600090555060010162001141565b5090565b90565b61508e80620011726000396000f3fe6080604052600436106100e6576000357c0100000000000000000000000000000000000000000000000000000000900463ffffffff1680630b93381b146100eb57806335a063b4146101095780633bc5de301461012057806347426fad1461014b57806357c6a8431461017457806366792ba11461017e5780638f99123d146101a757806396fbe5eb146101be578063af707c0b146101da578063b3db2e8c14610205578063c99de57e1461020f578063f3b8b7d11461023a578063f421a16b14610256578063f6e13efa14610260578063f8565e041461029d578063fb6391ab146102c8575b600080fd5b6100f36102f5565b6040516101009190614bf5565b60405180910390f35b34801561011557600080fd5b5061011e6103f3565b005b34801561012c57600080fd5b50610135610ccc565b6040516101429190614c10565b60405180910390f35b34801561015757600080fd5b50610172600480360361016d9190810190614890565b610d8e565b005b61017c610e8d565b005b34801561018a57600080fd5b506101a560048036036101a09190810190614964565b611092565b005b3480156101b357600080fd5b506101bc6111f4565b005b6101d860048036036101d391908101906149a5565b611965565b005b3480156101e657600080fd5b506101ef6122ec565b6040516101fc9190614bb8565b60405180910390f35b61020d612316565b005b34801561021b57600080fd5b50610224612836565b6040516102319190614bf5565b60405180910390f35b610254600480360361024f91908101906148b9565b612849565b005b61025e6134c8565b005b34801561026c57600080fd5b50610287600480360361028291908101906148fa565b6136ce565b6040516102949190614bf5565b60405180910390f35b3480156102a957600080fd5b506102b26140e5565b6040516102bf9190614bd3565b60405180910390f35b3480156102d457600080fd5b506102dd6141fb565b6040516102ec93929190614c4d565b60405180910390f35b6000600160009054906101000a900473ffffffffffffffffffffffffffffffffffffffff1673ffffffffffffffffffffffffffffffffffffffff163373ffffffffffffffffffffffffffffffffffffffff1614156103e65742600360095481548110151561035f57fe5b9060005260206000209060030201600201819055506001600860006101000a81548160ff02191690831515021790555060006009819055506000600160006101000a81548173ffffffffffffffffffffffffffffffffffffffff021916908373ffffffffffffffffffffffffffffffffffffffff1602179055506103e16134c8565b6103ef565b600090506103f0565b5b90565b600560006001815260200190815260200160002060000160009054906101000a900473ffffffffffffffffffffffffffffffffffffffff1673ffffffffffffffffffffffffffffffffffffffff163373ffffffffffffffffffffffffffffffffffffffff1614806104c65750600560006002815260200190815260200160002060000160009054906101000a900473ffffffffffffffffffffffffffffffffffffffff1673ffffffffffffffffffffffffffffffffffffffff163373ffffffffffffffffffffffffffffffffffffffff16145b806105335750600560006003815260200190815260200160002060000160009054906101000a900473ffffffffffffffffffffffffffffffffffffffff1673ffffffffffffffffffffffffffffffffffffffff163373ffffffffffffffffffffffffffffffffffffffff16145b151561053e57600080fd5b600080905060606002805490506040519080825280602002602001820160405280156105795781602001602082028038833980820191505090505b50905060008090505b6002805490508110156108f4576000600560006002848154811015156105a457fe5b90600052602060002001548152602001908152602001600020600901541480156105fd57506001600560006002848154811015156105de57fe5b9060005260206000200154815260200190815260200160002060070154145b156106385760006005600060028481548110151561061757fe5b90600052602060002001548152602001908152602001600020600701819055505b6000600a60006005600060028681548110151561065157fe5b9060005260206000200154815260200190815260200160002060000160009054906101000a900473ffffffffffffffffffffffffffffffffffffffff1673ffffffffffffffffffffffffffffffffffffffff1673ffffffffffffffffffffffffffffffffffffffff168152602001908152602001600020816106d39190614368565b50600a60046000600560006002868154811015156106ed57fe5b9060005260206000200154815260200190815260200160002060000160009054906101000a900473ffffffffffffffffffffffffffffffffffffffff1673ffffffffffffffffffffffffffffffffffffffff1673ffffffffffffffffffffffffffffffffffffffff1681526020019081526020016000205410156107ae5760028181548110151561077a57fe5b9060005260206000200154828481518110151561079357fe5b90602001906020020181815250508280600101935050610855565b600560006002838154811015156107c157fe5b90600052602060002001548152602001908152602001600020600080820160006101000a81549073ffffffffffffffffffffffffffffffffffffffff02191690556001820160006108129190614394565b6002820160009055600382016000905560048201600090556005820160009055600682016000905560078201600090556008820160009055600982016000905550505b600660006005600060028581548110151561086c57fe5b9060005260206000200154815260200190815260200160002060000160009054906101000a900473ffffffffffffffffffffffffffffffffffffffff1673ffffffffffffffffffffffffffffffffffffffff1673ffffffffffffffffffffffffffffffffffffffff168152602001908152602001600020600090558080600101915050610582565b506002600061090391906143dc565b60008090505b82811015610bf2576002828281518110151561092157fe5b9060200190602002015190806001815401808255809150509060018203906000526020600020016000909192909190915055506005600060028381548110151561096757fe5b90600052602060002001548152602001908152602001600020600560006001840181526020019081526020016000206000820160009054906101000a900473ffffffffffffffffffffffffffffffffffffffff168160000160006101000a81548173ffffffffffffffffffffffffffffffffffffffff021916908373ffffffffffffffffffffffffffffffffffffffff16021790555060018201816001019080546001816001161561010002031660029004610a249291906143fd565b506002820154816002015560038201548160030155600482015481600401556005820154816005015560068201548160060155600782015481600701556008820154816008015560098201548160090155905050600281815481101515610a8757fe5b906000526020600020015460018201141515610b445760056000600283815481101515610ab057fe5b90600052602060002001548152602001908152602001600020600080820160006101000a81549073ffffffffffffffffffffffffffffffffffffffff0219169055600182016000610b019190614394565b6002820160009055600382016000905560048201600090556005820160009055600682016000905560078201600090556008820160009055600982016000905550505b60018101600660006005600060018601815260200190815260200160002060000160009054906101000a900473ffffffffffffffffffffffffffffffffffffffff1673ffffffffffffffffffffffffffffffffffffffff1673ffffffffffffffffffffffffffffffffffffffff1681526020019081526020016000208190555060018101600282815481101515610bd757fe5b90600052602060002001819055508080600101915050610909565b50606090506000600381610c069190614484565b506000600160146101000a81548160ff0219169083151502179055506000600860006101000a81548160ff021916908315150217905550600060098190555060008060006101000a81548173ffffffffffffffffffffffffffffffffffffffff021916908373ffffffffffffffffffffffffffffffffffffffff1602179055506000600160006101000a81548173ffffffffffffffffffffffffffffffffffffffff021916908373ffffffffffffffffffffffffffffffffffffffff1602179055505050565b60606003600954815481101515610cdf57fe5b90600052602060002090600302016001018054600181600116156101000203166002900480601f016020809104026020016040519081016040528092919081815260200182805460018160011615610100020316600290048015610d845780601f10610d5957610100808354040283529160200191610d84565b820191906000526020600020905b815481529060010190602001808311610d6757829003601f168201915b5050505050905090565b60001515600160149054906101000a900460ff161515148015610ddd57508073ffffffffffffffffffffffffffffffffffffffff163373ffffffffffffffffffffffffffffffffffffffff1614155b1515610de857600080fd5b60018060146101000a81548160ff021916908315150217905550336000806101000a81548173ffffffffffffffffffffffffffffffffffffffff021916908373ffffffffffffffffffffffffffffffffffffffff16021790555080600160006101000a81548173ffffffffffffffffffffffffffffffffffffffff021916908373ffffffffffffffffffffffffffffffffffffffff1602179055504260078190555050565b6000809054906101000a900473ffffffffffffffffffffffffffffffffffffffff1673ffffffffffffffffffffffffffffffffffffffff163373ffffffffffffffffffffffffffffffffffffffff16148015610efc575060011515600160149054906101000a900460ff161515145b8015610f1b575060011515600860009054906101000a900460ff161515145b1515610f2657600080fd5b6000600981905550600060026003805490500334811515610f4357fe5b0490506000600190505b6001600380549050038110156110075760056000600383815481101515610f7057fe5b906000526020600020906003020160000154815260200190815260200160002060000160009054906101000a900473ffffffffffffffffffffffffffffffffffffffff1673ffffffffffffffffffffffffffffffffffffffff166108fc839081150290604051600060405180830381858888f19350505050158015610ff9573d6000803e3d6000fd5b508080600101915050610f4d565b5060006003816110179190614484565b506000600160146101000a81548160ff0219169083151502179055506000600860006101000a81548160ff02191690831515021790555060008060006101000a81548173ffffffffffffffffffffffffffffffffffffffff021916908373ffffffffffffffffffffffffffffffffffffffff16021790555050565b6005600060036009548154811015156110a757fe5b906000526020600020906003020160000154815260200190815260200160002060000160009054906101000a900473ffffffffffffffffffffffffffffffffffffffff1673ffffffffffffffffffffffffffffffffffffffff163373ffffffffffffffffffffffffffffffffffffffff1614151561112457600080fd5b600060095414156111675780600360095481548110151561114157fe5b906000526020600020906003020160010190805190602001906111659291906144b6565b505b42600360095481548110151561117957fe5b9060005260206000209060030201600201819055506001600380549050036001600954011115156111df578060036001600954018154811015156111b957fe5b906000526020600020906003020160010190805190602001906111dd9291906144b6565b505b60096000815480929190600101919050555050565b6000809054906101000a900473ffffffffffffffffffffffffffffffffffffffff1673ffffffffffffffffffffffffffffffffffffffff163373ffffffffffffffffffffffffffffffffffffffff1614806112b15750600560006001815260200190815260200160002060000160009054906101000a900473ffffffffffffffffffffffffffffffffffffffff1673ffffffffffffffffffffffffffffffffffffffff163373ffffffffffffffffffffffffffffffffffffffff16145b8061131e5750600560006002815260200190815260200160002060000160009054906101000a900473ffffffffffffffffffffffffffffffffffffffff1673ffffffffffffffffffffffffffffffffffffffff163373ffffffffffffffffffffffffffffffffffffffff16145b8061138b5750600560006003815260200190815260200160002060000160009054906101000a900473ffffffffffffffffffffffffffffffffffffffff1673ffffffffffffffffffffffffffffffffffffffff163373ffffffffffffffffffffffffffffffffffffffff16145b80156113aa575060011515600160149054906101000a900460ff161515145b15156113b557600080fd5b60008090505b600280549050811015611962576000600a6000600560006002868154811015156113e157fe5b9060005260206000200154815260200190815260200160002060000160009054906101000a900473ffffffffffffffffffffffffffffffffffffffff1673ffffffffffffffffffffffffffffffffffffffff1673ffffffffffffffffffffffffffffffffffffffff168152602001908152602001600020816114639190614368565b507fd5952913006a4406ddb9abce3129b519939f02c06ab2e91f0091837789cef12d6005600060028481548110151561149857fe5b90600052602060002001548152602001908152602001600020600701546040516114c29190614c32565b60405180910390a17fd5952913006a4406ddb9abce3129b519939f02c06ab2e91f0091837789cef12d6002828154811015156114fa57fe5b90600052602060002001546040516115129190614c32565b60405180910390a160016005600060028481548110151561152f57fe5b906000526020600020015481526020019081526020016000206007015414156119555760008090505b600280549050811015611953578082141580156115a4575060016005600060028481548110151561158557fe5b9060005260206000200154815260200190815260200160002060070154145b15611946576000600560006002848154811015156115be57fe5b9060005260206000200154815260200190815260200160002060060154600560006002868154811015156115ee57fe5b9060005260206000200154815260200190815260200160002060060154036005600060028581548110151561161f57fe5b90600052602060002001548152602001908152602001600020600601546005600060028781548110151561164f57fe5b906000526020600020015481526020019081526020016000206006015403026005600060028581548110151561168157fe5b9060005260206000200154815260200190815260200160002060050154600560006002878154811015156116b157fe5b906000526020600020015481526020019081526020016000206005015403600560006002868154811015156116e257fe5b90600052602060002001548152602001908152602001600020600501546005600060028881548110151561171257fe5b906000526020600020015481526020019081526020016000206005015403026005600060028681548110151561174457fe5b90600052602060002001548152602001908152602001600020600401546005600060028881548110151561177457fe5b906000526020600020015481526020019081526020016000206004015403600560006002878154811015156117a557fe5b9060005260206000200154815260200190815260200160002060040154600560006002898154811015156117d557fe5b906000526020600020015481526020019081526020016000206004015403020101905060048113151561194457600a60006005600060028781548110151561181957fe5b9060005260206000200154815260200190815260200160002060000160009054906101000a900473ffffffffffffffffffffffffffffffffffffffff1673ffffffffffffffffffffffffffffffffffffffff1673ffffffffffffffffffffffffffffffffffffffff168152602001908152602001600020600560006002858154811015156118a357fe5b9060005260206000200154815260200190815260200160002060000160009054906101000a900473ffffffffffffffffffffffffffffffffffffffff1690806001815401808255809150509060018203906000526020600020016000909192909190916101000a81548173ffffffffffffffffffffffffffffffffffffffff021916908373ffffffffffffffffffffffffffffffffffffffff160217905550505b505b8080600101915050611558565b505b80806001019150506113bb565b50565b600160009054906101000a900473ffffffffffffffffffffffffffffffffffffffff1673ffffffffffffffffffffffffffffffffffffffff163373ffffffffffffffffffffffffffffffffffffffff161480156119c65750601e6007544203115b15156119d157600080fd5b6000600160146101000a81548160ff0219169083151502179055506000600860006101000a81548160ff0219169083151502179055506000811415611d85576000600560006003600954815481101515611a2757fe5b90600052602060002090600302016000015481526020019081526020016000206007018190555060046000600560006003600954815481101515611a6757fe5b906000526020600020906003020160000154815260200190815260200160002060000160009054906101000a900473ffffffffffffffffffffffffffffffffffffffff1673ffffffffffffffffffffffffffffffffffffffff1673ffffffffffffffffffffffffffffffffffffffff16815260200190815260200160002060008154809291906001019190505550600a60046000600560006003600954815481101515611b1057fe5b906000526020600020906003020160000154815260200190815260200160002060000160009054906101000a900473ffffffffffffffffffffffffffffffffffffffff1673ffffffffffffffffffffffffffffffffffffffff1673ffffffffffffffffffffffffffffffffffffffff1681526020019081526020016000205402600560006003600954815481101515611ba557fe5b906000526020600020906003020160000154815260200190815260200160002060020181905550671bc16d674ec8000060046000600560006003600954815481101515611bee57fe5b906000526020600020906003020160000154815260200190815260200160002060000160009054906101000a900473ffffffffffffffffffffffffffffffffffffffff1673ffffffffffffffffffffffffffffffffffffffff1673ffffffffffffffffffffffffffffffffffffffff1681526020019081526020016000205402600560006003600954815481101515611c8357fe5b90600052602060002090600302016000015481526020019081526020016000206003018190555042600560006003600954815481101515611cc057fe5b906000526020600020906003020160000154815260200190815260200160002060080181905550600560006003600954815481101515611cfc57fe5b906000526020600020906003020160000154815260200190815260200160002060000160009054906101000a900473ffffffffffffffffffffffffffffffffffffffff16600860016101000a81548173ffffffffffffffffffffffffffffffffffffffff021916908373ffffffffffffffffffffffffffffffffffffffff16021790555061223d565b6000600190505b60038054905081101561223b5760036000815481101515611da957fe5b90600052602060002090600302016001016040518082805460018160011615610100020316600290048015611e155780601f10611df3576101008083540402835291820191611e15565b820191906000526020600020905b815481529060010190602001808311611e01575b50509150506040518091039020600382815481101515611e3157fe5b90600052602060002090600302016001016040518082805460018160011615610100020316600290048015611e9d5780601f10611e7b576101008083540402835291820191611e9d565b820191906000526020600020905b815481529060010190602001808311611e89575b5050915050604051809103902014151561222e57600060056000600360018503815481101515611ec957fe5b9060005260206000209060030201600001548152602001908152602001600020600701819055506004600060056000600360018603815481101515611f0a57fe5b906000526020600020906003020160000154815260200190815260200160002060000160009054906101000a900473ffffffffffffffffffffffffffffffffffffffff1673ffffffffffffffffffffffffffffffffffffffff1673ffffffffffffffffffffffffffffffffffffffff16815260200190815260200160002060008154809291906001019190505550600a6004600060056000600360018703815481101515611fb457fe5b906000526020600020906003020160000154815260200190815260200160002060000160009054906101000a900473ffffffffffffffffffffffffffffffffffffffff1673ffffffffffffffffffffffffffffffffffffffff1673ffffffffffffffffffffffffffffffffffffffff16815260200190815260200160002054026005600060036001850381548110151561204a57fe5b906000526020600020906003020160000154815260200190815260200160002060020181905550671bc16d674ec80000600460006005600060036001870381548110151561209457fe5b906000526020600020906003020160000154815260200190815260200160002060000160009054906101000a900473ffffffffffffffffffffffffffffffffffffffff1673ffffffffffffffffffffffffffffffffffffffff1673ffffffffffffffffffffffffffffffffffffffff16815260200190815260200160002054026005600060036001850381548110151561212a57fe5b906000526020600020906003020160000154815260200190815260200160002060030181905550426005600060036001850381548110151561216857fe5b906000526020600020906003020160000154815260200190815260200160002060080181905550600560006003600184038154811015156121a557fe5b906000526020600020906003020160000154815260200190815260200160002060000160009054906101000a900473ffffffffffffffffffffffffffffffffffffffff16600860016101000a81548173ffffffffffffffffffffffffffffffffffffffff021916908373ffffffffffffffffffffffffffffffffffffffff16021790555061223b565b8080600101915050611d8c565b505b6122456134c8565b60006003816122549190614484565b50600060098190555060008060006101000a81548173ffffffffffffffffffffffffffffffffffffffff021916908373ffffffffffffffffffffffffffffffffffffffff1602179055506000600160006101000a81548173ffffffffffffffffffffffffffffffffffffffff021916908373ffffffffffffffffffffffffffffffffffffffff1602179055506122e86122ec565b5050565b6000600860019054906101000a900473ffffffffffffffffffffffffffffffffffffffff16905090565b6000809054906101000a900473ffffffffffffffffffffffffffffffffffffffff1673ffffffffffffffffffffffffffffffffffffffff163373ffffffffffffffffffffffffffffffffffffffff16148015612385575060011515600160149054906101000a900460ff161515145b151561239057600080fd5b60606001600280549050016040519080825280602002602001820160405280156123c95781602001602082028038833980820191505090505b509050600015156123d9826136ce565b151514156124375760006003816123f09190614484565b506123f96134c8565b7fc3ad119834eeeb2443fa0b6b3f8ed65e93cd4ff2e8e38c7b8da70c1c578d22ad60006040516124299190614bf5565b60405180910390a150612834565b600060066000600160009054906101000a900473ffffffffffffffffffffffffffffffffffffffff1673ffffffffffffffffffffffffffffffffffffffff1673ffffffffffffffffffffffffffffffffffffffff16815260200190815260200160002054905060036060604051908101604052808381526020016020604051908101604052806000815250815260200160008152509080600181540180825580915050906001820390600052602060002090600302016000909192909190915060008201518160000155602082015181600101908051906020019061251d929190614536565b50604082015181600201555050505b6000828281518110151561253c57fe5b90602001906020020151141515612611576003606060405190810160405280848481518110151561256957fe5b906020019060200201518152602001602060405190810160405280600081525081526020016000815250908060018154018082558091505090600182039060005260206000209060030201600090919290919091506000820151816000015560208201518160010190805190602001906125e4929190614536565b5060408201518160020155505050818181518110151561260057fe5b90602001906020020151905061252c565b6000809050600060016003805490500390505b808210156127f7576126346145b6565b60038381548110151561264357fe5b90600052602060002090600302016060604051908101604052908160008201548152602001600182018054600181600116156101000203166002900480601f0160208091040260200160405190810160405280929190818152602001828054600181600116156101000203166002900480156127005780601f106126d557610100808354040283529160200191612700565b820191906000526020600020905b8154815290600101906020018083116126e357829003601f168201915b50505050508152602001600282015481525050905060038281548110151561272457fe5b906000526020600020906003020160038481548110151561274157fe5b906000526020600020906003020160008201548160000155600182018160010190805460018160011615610100020316600290046127809291906143fd565b50600282015481600201559050508060038381548110151561279e57fe5b90600052602060002090600302016000820151816000015560208201518160010190805190602001906127d2929190614536565b5060408201518160020155905050828060010193505081806001900392505050612624565b7fc3ad119834eeeb2443fa0b6b3f8ed65e93cd4ff2e8e38c7b8da70c1c578d22ad60016040516128279190614bf5565b60405180910390a1505050505b565b600160149054906101000a900460ff1681565b6000600660003373ffffffffffffffffffffffffffffffffffffffff1673ffffffffffffffffffffffffffffffffffffffff16815260200190815260200160002054141580156128ee5750600060056000600660003373ffffffffffffffffffffffffffffffffffffffff1673ffffffffffffffffffffffffffffffffffffffff16815260200190815260200160002054815260200190815260200160002060020154145b15612a2f57600060056000600660003373ffffffffffffffffffffffffffffffffffffffff1673ffffffffffffffffffffffffffffffffffffffff168152602001908152602001600020548152602001908152602001600020600901541480156129ad5750600060056000600660003373ffffffffffffffffffffffffffffffffffffffff1673ffffffffffffffffffffffffffffffffffffffff16815260200190815260200160002054815260200190815260200160002060070154145b80156129c05750670de0b6b3a764000034145b15612a2557600160056000600660003373ffffffffffffffffffffffffffffffffffffffff1673ffffffffffffffffffffffffffffffffffffffff16815260200190815260200160002054815260200190815260200160002060070181905550612a2a565b6134c5565b61336e565b6000600660003373ffffffffffffffffffffffffffffffffffffffff1673ffffffffffffffffffffffffffffffffffffffff16815260200190815260200160002054148015612a855750674563918244f4000034145b8015612ad057506000600460003373ffffffffffffffffffffffffffffffffffffffff1673ffffffffffffffffffffffffffffffffffffffff16815260200190815260200160002054145b15612dbd5760026001600280549050019080600181540180825580915050906001820390600052602060002001600090919290919091505550600280549050600660003373ffffffffffffffffffffffffffffffffffffffff1673ffffffffffffffffffffffffffffffffffffffff168152602001908152602001600020819055503360056000600660003373ffffffffffffffffffffffffffffffffffffffff1673ffffffffffffffffffffffffffffffffffffffff16815260200190815260200160002054815260200190815260200160002060000160006101000a81548173ffffffffffffffffffffffffffffffffffffffff021916908373ffffffffffffffffffffffffffffffffffffffff16021790555060003660056000600660003373ffffffffffffffffffffffffffffffffffffffff1673ffffffffffffffffffffffffffffffffffffffff1681526020019081526020016000205481526020019081526020016000206001019190612c4b9291906145d8565b50600060056000600660003373ffffffffffffffffffffffffffffffffffffffff1673ffffffffffffffffffffffffffffffffffffffff16815260200190815260200160002054815260200190815260200160002060020181905550600060056000600660003373ffffffffffffffffffffffffffffffffffffffff1673ffffffffffffffffffffffffffffffffffffffff16815260200190815260200160002054815260200190815260200160002060030181905550600060056000600660003373ffffffffffffffffffffffffffffffffffffffff1673ffffffffffffffffffffffffffffffffffffffff16815260200190815260200160002054815260200190815260200160002060070181905550600060056000600660003373ffffffffffffffffffffffffffffffffffffffff1673ffffffffffffffffffffffffffffffffffffffff1681526020019081526020016000205481526020019081526020016000206009018190555061336d565b6000600460003373ffffffffffffffffffffffffffffffffffffffff1673ffffffffffffffffffffffffffffffffffffffff1681526020019081526020016000205410158015612e4d5750600a600460003373ffffffffffffffffffffffffffffffffffffffff1673ffffffffffffffffffffffffffffffffffffffff1681526020019081526020016000205411155b1561331e573460056000600660003373ffffffffffffffffffffffffffffffffffffffff1673ffffffffffffffffffffffffffffffffffffffff16815260200190815260200160002054815260200190815260200160002060030154148015612f62575060056000600660003373ffffffffffffffffffffffffffffffffffffffff1673ffffffffffffffffffffffffffffffffffffffff1681526020019081526020016000205481526020019081526020016000206002015460056000600660003373ffffffffffffffffffffffffffffffffffffffff1673ffffffffffffffffffffffffffffffffffffffff16815260200190815260200160002054815260200190815260200160002060080154420311155b1561307d57600060056000600660003373ffffffffffffffffffffffffffffffffffffffff1673ffffffffffffffffffffffffffffffffffffffff16815260200190815260200160002054815260200190815260200160002060030181905550600060056000600660003373ffffffffffffffffffffffffffffffffffffffff1673ffffffffffffffffffffffffffffffffffffffff16815260200190815260200160002054815260200190815260200160002060020181905550600160056000600660003373ffffffffffffffffffffffffffffffffffffffff1673ffffffffffffffffffffffffffffffffffffffff16815260200190815260200160002054815260200190815260200160002060070181905550613319565b60056000600660003373ffffffffffffffffffffffffffffffffffffffff1673ffffffffffffffffffffffffffffffffffffffff1681526020019081526020016000205481526020019081526020016000206002015460056000600660003373ffffffffffffffffffffffffffffffffffffffff1673ffffffffffffffffffffffffffffffffffffffff16815260200190815260200160002054815260200190815260200160002060080154420311156131fe57600260056000600660003373ffffffffffffffffffffffffffffffffffffffff1673ffffffffffffffffffffffffffffffffffffffff16815260200190815260200160002054815260200190815260200160002060030160008282540192505081905550600a60056000600660003373ffffffffffffffffffffffffffffffffffffffff1673ffffffffffffffffffffffffffffffffffffffff168152602001908152602001600020548152602001908152602001600020600201600082825401925050819055506134c5565b3460056000600660003373ffffffffffffffffffffffffffffffffffffffff1673ffffffffffffffffffffffffffffffffffffffff1681526020019081526020016000205481526020019081526020016000206003015414801561330e575060056000600660003373ffffffffffffffffffffffffffffffffffffffff1673ffffffffffffffffffffffffffffffffffffffff1681526020019081526020016000205481526020019081526020016000206002015460056000600660003373ffffffffffffffffffffffffffffffffffffffff1673ffffffffffffffffffffffffffffffffffffffff16815260200190815260200160002054815260200190815260200160002060080154420311155b15613318576134c5565b5b61336c565b600a600460003373ffffffffffffffffffffffffffffffffffffffff1673ffffffffffffffffffffffffffffffffffffffff16815260200190815260200160002054111561336b576134c5565b5b5b5b80600081518110151561337d57fe5b9060200190602002015160056000600660003373ffffffffffffffffffffffffffffffffffffffff1673ffffffffffffffffffffffffffffffffffffffff168152602001908152602001600020548152602001908152602001600020600401819055508060018151811015156133ef57fe5b9060200190602002015160056000600660003373ffffffffffffffffffffffffffffffffffffffff1673ffffffffffffffffffffffffffffffffffffffff1681526020019081526020016000205481526020019081526020016000206005018190555080600281518110151561346157fe5b9060200190602002015160056000600660003373ffffffffffffffffffffffffffffffffffffffff1673ffffffffffffffffffffffffffffffffffffffff168152602001908152602001600020548152602001908152602001600020600601819055505b50565b60008090505b6002805490508110156136cb576000600a6000600560006002868154811015156134f457fe5b9060005260206000200154815260200190815260200160002060000160009054906101000a900473ffffffffffffffffffffffffffffffffffffffff1673ffffffffffffffffffffffffffffffffffffffff1673ffffffffffffffffffffffffffffffffffffffff168152602001908152602001600020816135769190614368565b5060016005600060028481548110151561358c57fe5b90600052602060002001548152602001908152602001600020600701541480156135e557506000600560006002848154811015156135c657fe5b9060005260206000200154815260200190815260200160002060090154145b156136be576000600560006002848154811015156135ff57fe5b90600052602060002001548152602001908152602001600020600701819055506005600060028381548110151561363257fe5b9060005260206000200154815260200190815260200160002060000160009054906101000a900473ffffffffffffffffffffffffffffffffffffffff1673ffffffffffffffffffffffffffffffffffffffff166108fc670de0b6b3a76400009081150290604051600060405180830381858888f193505050501580156136bc573d6000803e3d6000fd5b505b80806001019150506134ce565b50565b6000806136d9614658565b604051809103906000f0801580156136f5573d6000803e3d6000fd5b50905060606001600280549050016040519080825280602002602001820160405280156137315781602001602082028038833980820191505090505b50905060008090505b8151811015613792576000828281518110151561375357fe5b90602001906020020190151590811515815250506000858281518110151561377757fe5b9060200190602002018181525050808060010191505061373a565b50600181600660008060009054906101000a900473ffffffffffffffffffffffffffffffffffffffff1673ffffffffffffffffffffffffffffffffffffffff1673ffffffffffffffffffffffffffffffffffffffff1681526020019081526020016000205481518110151561380357fe5b90602001906020020190151590811515815250508173ffffffffffffffffffffffffffffffffffffffff16631ffc735d600660008060009054906101000a900473ffffffffffffffffffffffffffffffffffffffff1673ffffffffffffffffffffffffffffffffffffffff1673ffffffffffffffffffffffffffffffffffffffff168152602001908152602001600020546040518263ffffffff167c01000000000000000000000000000000000000000000000000000000000281526004016138cc9190614c32565b600060405180830381600087803b1580156138e657600080fd5b505af11580156138fa573d6000803e3d6000fd5b505050505b600015158273ffffffffffffffffffffffffffffffffffffffff1663681fe70c6040518163ffffffff167c010000000000000000000000000000000000000000000000000000000002815260040160206040518083038186803b15801561396557600080fd5b505afa158015613979573d6000803e3d6000fd5b505050506040513d601f19601f8201168201806040525061399d919081019061493b565b151514156140d95760008273ffffffffffffffffffffffffffffffffffffffff1663957908d16040518163ffffffff167c0100000000000000000000000000000000000000000000000000000000028152600401602060405180830381600087803b158015613a0b57600080fd5b505af1158015613a1f573d6000803e3d6000fd5b505050506040513d601f19601f82011682018060405250613a4391908101906149ce565b905060008090505b600a60006005600085815260200190815260200160002060000160009054906101000a900473ffffffffffffffffffffffffffffffffffffffff1673ffffffffffffffffffffffffffffffffffffffff1673ffffffffffffffffffffffffffffffffffffffff168152602001908152602001600020805490508110156140d257600015158360066000600a60006005600089815260200190815260200160002060000160009054906101000a900473ffffffffffffffffffffffffffffffffffffffff1673ffffffffffffffffffffffffffffffffffffffff1673ffffffffffffffffffffffffffffffffffffffff16815260200190815260200160002085815481101515613b5657fe5b9060005260206000200160009054906101000a900473ffffffffffffffffffffffffffffffffffffffff1673ffffffffffffffffffffffffffffffffffffffff1673ffffffffffffffffffffffffffffffffffffffff16815260200190815260200160002054815181101515613bc857fe5b90602001906020020151151514156140c55760018360066000600a60006005600089815260200190815260200160002060000160009054906101000a900473ffffffffffffffffffffffffffffffffffffffff1673ffffffffffffffffffffffffffffffffffffffff1673ffffffffffffffffffffffffffffffffffffffff16815260200190815260200160002085815481101515613c6357fe5b9060005260206000200160009054906101000a900473ffffffffffffffffffffffffffffffffffffffff1673ffffffffffffffffffffffffffffffffffffffff1673ffffffffffffffffffffffffffffffffffffffff16815260200190815260200160002054815181101515613cd557fe5b9060200190602002019015159081151581525050818660066000600a60006005600089815260200190815260200160002060000160009054906101000a900473ffffffffffffffffffffffffffffffffffffffff1673ffffffffffffffffffffffffffffffffffffffff1673ffffffffffffffffffffffffffffffffffffffff16815260200190815260200160002085815481101515613d7157fe5b9060005260206000200160009054906101000a900473ffffffffffffffffffffffffffffffffffffffff1673ffffffffffffffffffffffffffffffffffffffff1673ffffffffffffffffffffffffffffffffffffffff16815260200190815260200160002054815181101515613de357fe5b90602001906020020181815250508373ffffffffffffffffffffffffffffffffffffffff16631ffc735d60066000600a60006005600089815260200190815260200160002060000160009054906101000a900473ffffffffffffffffffffffffffffffffffffffff1673ffffffffffffffffffffffffffffffffffffffff1673ffffffffffffffffffffffffffffffffffffffff16815260200190815260200160002085815481101515613e9357fe5b9060005260206000200160009054906101000a900473ffffffffffffffffffffffffffffffffffffffff1673ffffffffffffffffffffffffffffffffffffffff1673ffffffffffffffffffffffffffffffffffffffff168152602001908152602001600020546040518263ffffffff167c0100000000000000000000000000000000000000000000000000000000028152600401613f319190614c32565b600060405180830381600087803b158015613f4b57600080fd5b505af1158015613f5f573d6000803e3d6000fd5b5050505060066000600160009054906101000a900473ffffffffffffffffffffffffffffffffffffffff1673ffffffffffffffffffffffffffffffffffffffff1673ffffffffffffffffffffffffffffffffffffffff1681526020019081526020016000205460066000600a60006005600088815260200190815260200160002060000160009054906101000a900473ffffffffffffffffffffffffffffffffffffffff1673ffffffffffffffffffffffffffffffffffffffff1673ffffffffffffffffffffffffffffffffffffffff1681526020019081526020016000208481548110151561404b57fe5b9060005260206000200160009054906101000a900473ffffffffffffffffffffffffffffffffffffffff1673ffffffffffffffffffffffffffffffffffffffff1673ffffffffffffffffffffffffffffffffffffffff1681526020019081526020016000205414156140c45760019450505050506140e0565b5b8080600101915050613a4b565b50506138ff565b6000925050505b919050565b60606003805480602002602001604051908101604052809291908181526020016000905b828210156141f257838290600052602060002090600302016060604051908101604052908160008201548152602001600182018054600181600116156101000203166002900480601f0160208091040260200160405190810160405280929190818152602001828054600181600116156101000203166002900480156141d05780601f106141a5576101008083540402835291602001916141d0565b820191906000526020600020905b8154815290600101906020018083116141b357829003601f168201915b5050505050815260200160028201548152505081526020019060010190614109565b50505050905090565b600080606060056000600660003373ffffffffffffffffffffffffffffffffffffffff1673ffffffffffffffffffffffffffffffffffffffff16815260200190815260200160002054815260200190815260200160002060020154600460003373ffffffffffffffffffffffffffffffffffffffff1673ffffffffffffffffffffffffffffffffffffffff16815260200190815260200160002054600a60003373ffffffffffffffffffffffffffffffffffffffff1673ffffffffffffffffffffffffffffffffffffffff1681526020019081526020016000208080548060200260200160405190810160405280929190818152602001828054801561435657602002820191906000526020600020905b8160009054906101000a900473ffffffffffffffffffffffffffffffffffffffff1673ffffffffffffffffffffffffffffffffffffffff168152602001906001019080831161430c575b50505050509050925092509250909192565b81548183558181111561438f5781836000526020600020918201910161438e9190614668565b5b505050565b50805460018160011615610100020316600290046000825580601f106143ba57506143d9565b601f0160209004906000526020600020908101906143d89190614668565b5b50565b50805460008255906000526020600020908101906143fa9190614668565b50565b828054600181600116156101000203166002900490600052602060002090601f016020900481019282601f106144365780548555614473565b8280016001018555821561447357600052602060002091601f016020900482015b82811115614472578254825591600101919060010190614457565b5b5090506144809190614668565b5090565b8154818355818111156144b1576003028160030283600052602060002091820191016144b0919061468d565b5b505050565b828054600181600116156101000203166002900490600052602060002090601f016020900481019282601f106144f757805160ff1916838001178555614525565b82800160010185558215614525579182015b82811115614524578251825591602001919060010190614509565b5b5090506145329190614668565b5090565b828054600181600116156101000203166002900490600052602060002090601f016020900481019282601f1061457757805160ff19168380011785556145a5565b828001600101855582156145a5579182015b828111156145a4578251825591602001919060010190614589565b5b5090506145b29190614668565b5090565b6060604051908101604052806000815260200160608152602001600081525090565b828054600181600116156101000203166002900490600052602060002090601f016020900481019282601f1061461957803560ff1916838001178555614647565b82800160010185558215614647579182015b8281111561464657823582559160200191906001019061462b565b5b5090506146549190614668565b5090565b6040516101e180614e7483390190565b61468a91905b8082111561468657600081600090555060010161466e565b5090565b90565b6146c991905b808211156146c5576000808201600090556001820160006146b49190614394565b600282016000905550600301614693565b5090565b90565b60006146d88235614dee565b905092915050565b600082601f83011215156146f357600080fd5b813561470661470182614cb8565b614c8b565b9150818183526020840193506020810190508385602084028201111561472b57600080fd5b60005b8381101561475b578161474188826147fe565b84526020840193506020830192505060018101905061472e565b5050505092915050565b600082601f830112151561477857600080fd5b813561478b61478682614ce0565b614c8b565b915081818352602084019350602081019050838560208402820111156147b057600080fd5b60005b838110156147e057816147c68882614868565b8452602084019350602083019250506001810190506147b3565b5050505092915050565b60006147f68251614e00565b905092915050565b600061480a8235614e0c565b905092915050565b600082601f830112151561482557600080fd5b813561483861483382614d08565b614c8b565b9150808252602083016020830185838301111561485457600080fd5b61485f838284614e20565b50505092915050565b60006148748235614e16565b905092915050565b60006148888251614e16565b905092915050565b6000602082840312156148a257600080fd5b60006148b0848285016146cc565b91505092915050565b6000602082840312156148cb57600080fd5b600082013567ffffffffffffffff8111156148e557600080fd5b6148f1848285016146e0565b91505092915050565b60006020828403121561490c57600080fd5b600082013567ffffffffffffffff81111561492657600080fd5b61493284828501614765565b91505092915050565b60006020828403121561494d57600080fd5b600061495b848285016147ea565b91505092915050565b60006020828403121561497657600080fd5b600082013567ffffffffffffffff81111561499057600080fd5b61499c84828501614812565b91505092915050565b6000602082840312156149b757600080fd5b60006149c584828501614868565b91505092915050565b6000602082840312156149e057600080fd5b60006149ee8482850161487c565b91505092915050565b614a0081614da6565b82525050565b614a0f81614d94565b82525050565b6000614a2082614d4e565b808452602084019350614a3283614d34565b60005b82811015614a6457614a48868351614a06565b614a5182614d7a565b9150602086019550600181019050614a35565b50849250505092915050565b6000614a7b82614d59565b80845260208401935083602082028501614a9485614d41565b60005b84811015614acd578383038852614aaf838351614b59565b9250614aba82614d87565b9150602088019750600181019050614a97565b508196508694505050505092915050565b614ae781614db8565b82525050565b6000614af882614d6f565b808452614b0c816020860160208601614e2f565b614b1581614e62565b602085010191505092915050565b6000614b2e82614d64565b808452614b42816020860160208601614e2f565b614b4b81614e62565b602085010191505092915050565b6000606083016000830151614b716000860182614ba9565b5060208301518482036020860152614b898282614b23565b9150506040830151614b9e6040860182614ba9565b508091505092915050565b614bb281614de4565b82525050565b6000602082019050614bcd60008301846149f7565b92915050565b60006020820190508181036000830152614bed8184614a70565b905092915050565b6000602082019050614c0a6000830184614ade565b92915050565b60006020820190508181036000830152614c2a8184614aed565b905092915050565b6000602082019050614c476000830184614ba9565b92915050565b6000606082019050614c626000830186614ba9565b614c6f6020830185614ba9565b8181036040830152614c818184614a15565b9050949350505050565b6000604051905081810181811067ffffffffffffffff82111715614cae57600080fd5b8060405250919050565b600067ffffffffffffffff821115614ccf57600080fd5b602082029050602081019050919050565b600067ffffffffffffffff821115614cf757600080fd5b602082029050602081019050919050565b600067ffffffffffffffff821115614d1f57600080fd5b601f19601f8301169050602081019050919050565b6000602082019050919050565b6000602082019050919050565b600081519050919050565b600081519050919050565b600081519050919050565b600081519050919050565b6000602082019050919050565b6000602082019050919050565b6000614d9f82614dc4565b9050919050565b6000614db182614dc4565b9050919050565b60008115159050919050565b600073ffffffffffffffffffffffffffffffffffffffff82169050919050565b6000819050919050565b6000614df982614dc4565b9050919050565b60008115159050919050565b6000819050919050565b6000819050919050565b82818337600083830152505050565b60005b83811015614e4d578082015181840152602081019050614e32565b83811115614e5c576000848401525b50505050565b6000601f19601f830116905091905056fe608060405234801561001057600080fd5b506001808190555060006002819055506101b28061002f6000396000f3fe608060405260043610610057576000357c0100000000000000000000000000000000000000000000000000000000900463ffffffff1680631ffc735d1461005c578063681fe70c14610097578063957908d1146100c6575b600080fd5b34801561006857600080fd5b506100956004803603602081101561007f57600080fd5b81019080803590602001909291905050506100f1565b005b3480156100a357600080fd5b506100ac61011e565b604051808215151515815260200191505060405180910390f35b3480156100d257600080fd5b506100db61013d565b6040518082815260200191505060405180910390f35b60016002600082825401925050819055508060008060025481526020019081526020016000208190555050565b60006002546001541115610135576001905061013a565b600090505b90565b600080600080600154815260200190815260200160002054905060008060015481526020019081526020016000206000905560018060008282540192505081905550809150509056fea165627a7a723058209612bb5009bfd880490b4954d3310cc4d4119083eac7f27a258b083a3a8b4de50029a265627a7a723058209e7d8635b89ddbf97f415721c5e3a134db48b72ce8d81df62d1ff6ec63e0116b6c6578706572696d656e74616cf500372d2d2d2d2d424547494e205055424c4943204b45592d2d2d2d2d0a4d4947664d413047435371475349623344514542415155414134474e4144434269514b42675144596e6f475239616b546c39666b635170394b44757a484847580a3458366a7557392b6c5a414c314f7954567075434478757853317043554d3377455274347a5567466964566d364a5269464f426d746d564d5a66742b412f632b0a2b706b65446f47673077554738526b637a3466426b7446364f514c67375933784f4c455578516b456d32664379575068324b38523435474f6b6f704e633447490a697854323349774f4a732b56414b7a786b774944415141420a2d2d2d2d2d454e44205055424c4943204b45592d2d2d2d2d2d2d2d2d2d424547494e205055424c4943204b45592d2d2d2d2d0a4d4947664d413047435371475349623344514542415155414134474e4144434269514b426751433837616a31317677562f6a693538634c69677048766353544a0a74654164616a4a3350776e5576484843546a6835526a683037735a4f62314d563276634f4236506d786c48716f63714945766d5431504271496f4c4e396a70420a432f7462545774444c61664e4569726474737a6555675032733876467a684b33463759714e47487a7a3748694f435637465956734465346a796a5631307645660a42357453587430704832374c4a6970755a774944415141420a2d2d2d2d2d454e44205055424c4943204b45592d2d2d2d2d2d2d2d2d2d424547494e205055424c4943204b45592d2d2d2d2d0a4d4947664d413047435371475349623344514542415155414134474e4144434269514b426751444d4a6c7367334669654a73624339784c47794643384d646b450a39563059633333576a755a71553663613779374b334155752b54734d59734b474168514a76634e75355078775a77666b7564592b77496d2f2f4e726f537433730a4768724d6b614e6f465441573155633851355937374b314c2f6b70394d306265305558584735516233515a2f64637a454444706e6d30694c48757354597a37520a6e774f694a5474663965477435436c5a34774944415141420a2d2d2d2d2d454e44205055424c4943204b45592d2d2d2d2d2d2d2d2d2d424547494e205055424c4943204b45592d2d2d2d2d0a4d4947664d413047435371475349623344514542415155414134474e4144434269514b4267514431556d6b467976503450523663654d435539786954427641350a524869375134572f5864726c526f71584834744267777458504f624c6370706a7447636773467436677537553832576b314f5a386952454f795931754e544b440a2b61543366584c74476257364b446966654d35453639444f5032566a66783631626943434e726a794d5a6a35714a7662696e4e76436f2f5133372b30644775550a704b5a393932665734467a4654424d4b76514944415141420a2d2d2d2d2d454e44205055424c4943204b45592d2d2d2d2d2d2d2d2d2d424547494e205055424c4943204b45592d2d2d2d2d0a4d4947664d413047435371475349623344514542415155414134474e4144434269514b426751434470514c2f682b396e59493630503246546355744134675a760a30724f6b6e5755336f7a4574304e79573859546a4b5a54436c59793876626447485359566271687863716369675651614446715a684a4a6556512f4a4b37624d0a4a4737762f417546456a477533554b6676496944645371413747516e51484e34615432313741304d7461523956546f7334797462356e31682b737249523864720a41315362713072544a434f4e457a4e3277774944415141420a2d2d2d2d2d454e44205055424c4943204b45592d2d2d2d2d2d2d2d2d2d424547494e205055424c4943204b45592d2d2d2d2d0a4d4947664d413047435371475349623344514542415155414134474e4144434269514b42675143515a676c6b74394f504a526147672b457a45454170747834350a4970303453384670575144506d576a7967344c78556f7959625557493259574a59656b62776f696a6c624a57457a5a4d2b5a64346275526e48503836323830560a434e56524e5a435552517750363259675076537250666930727a5556664350476f7a7543697033565757454577652f6a4d6e664259614e6f76794f45584b62560a6c6a6a706f4c6471665a2b4d7768534565774944415141420a2d2d2d2d2d454e44205055424c4943204b45592d2d2d2d2d2d2d2d2d2d424547494e205055424c4943204b45592d2d2d2d2d0a4d4947664d413047435371475349623344514542415155414134474e4144434269514b426751446764655747797869467048706f63687959464d4d79775350540a41677258335431625934537757625a73675357693541656f73586b76526e4247437848623755434a637459544576314f7138476b424a4b3663467837536a2f4f0a6474462b4d637342335166674f737370637345624a56596e7654576c666732706445574d5a433967324d307a334c756471536451594b5a6a67676e54627a66380a65774235624334584b49555a4d59412f77774944415141420a2d2d2d2d2d454e44205055424c4943204b45592d2d2d2d2d2d2d2d2d2d424547494e205055424c4943204b45592d2d2d2d2d0a4d4947664d413047435371475349623344514542415155414134474e4144434269514b426751436533623043785061505a35795558464d555a45794232506f6c0a4b47555367485365564130764b42634a6d4c38533878766e4a4637566b6942644574386a34745030474c72773030484534414c5563305a642b3776542b4d6e310a7766637474394d45774c654f67555571464b746a51785078494b696372327439304a2b787974584338696455583532574242534e6c58535a71776d73316265790a6354575155416775666e636d484a6b7578774944415141420a2d2d2d2d2d454e44205055424c4943204b45592d2d2d2d2d",
  "source": "pragma solidity >=0.4.21 <0.6.0;\npragma experimental ABIEncoderV2;\nimport \"./DataSending.sol\";\nimport \"./UAV.sol\";\n\ncontract PathFind is DataSending{\n\n    // event x(\n    //     uint y, uint z);\n    event x3(bool z);\n  function bfs(uint[] memory pred) public returns(bool)\n  {\n      Queue q=new Queue();\n      bool[] memory visited=new bool[](list.length+1);\n\n      for (uint i = 0; i < visited.length; i++) {\n          visited[i] = false;\n          pred[i] = 0;\n      }\n\n      visited[pubToMac[source]] = true;\n      q.enqueue(pubToMac[source]);\n      while (q.isEmpty()==false) {\n\n          uint u = q.dequeue();\n\n          for (uint i = 0; i < routeTable[registered[u].publicKey].length; i++) {\n\n              if (visited[pubToMac[routeTable[registered[u].publicKey][i]]] == false) {\n                  visited[pubToMac[routeTable[registered[u].publicKey][i]]] = true;\n                  pred[pubToMac[routeTable[registered[u].publicKey][i]]] = u;\n                  q.enqueue(pubToMac[routeTable[registered[u].publicKey][i]]);\n                //   emit x(u,pubToMac[routeTable[registered[u].publicKey][i]]);\n\n                  if (pubToMac[routeTable[registered[u].publicKey][i]] == pubToMac[destination])\n                      return true;\n              }\n          }\n      }\n      return false;\n  }\n\n  function pathFind() public payable\n  {\n    //   return bfs\n    require(msg.sender==source && transaction==true);\n      uint[] memory pred=new uint[](list.length+1);\n      if(bfs(pred)==false){\n          Route.length=0;\n          sendBackToken();\n          emit x3(false);\n          return;\n      }\n        // emit x1(Route);\n      uint crawl = pubToMac[destination];\n      Route.push(route(crawl,\"\",0));\n      while (pred[crawl] != 0) {\n          Route.push(route(pred[crawl],\"\",0));\n          crawl = pred[crawl];\n      }\n    //   emit x1(Route);\n      uint start=0;\n      uint end=Route.length-1;\n      while (start < end)\n      {\n          route memory temp = Route[start];\n          Route[start] = Route[end];\n          Route[end] = temp;\n          start++;\n          end--;\n      }\n      emit x3(true);\n  }\n  function returnRoute() public view returns(route[] memory)\n    {return Route;}\n}\n",
  "sourcePath": "/home/stellet/Desktop/blockchain/Major-Blockchain/src/contracts/PathFind.sol",
  "compiler": {
    "name": "solc",
    "version": "0.5.0+commit.1d4f565a.Emscripten.clang"
  },
  "schemaVersion": "3.0.2",
  "updatedAt": "2020-05-22T00:31:23.503Z",
  "devdoc": {
    "methods": {}
  },
  "userdoc": {
    "methods": {}
  }
}