{
  "contractName": "PathFind",
  "abi": [
    {
      "constant": false,
      "inputs": [],
      "name": "success",
      "outputs": [
        {
          "name": "",
          "type": "bool"
        }
      ],
      "payable": true,
      "stateMutability": "payable",
      "type": "function",
      "signature": "0x0b93381b"
    },
    {
      "constant": true,
      "inputs": [],
      "name": "checkBlacklisted",
      "outputs": [
        {
          "name": "",
          "type": "uint256"
        }
      ],
      "payable": false,
      "stateMutability": "view",
      "type": "function",
      "signature": "0x2adc5d2f"
    },
    {
      "constant": false,
      "inputs": [],
      "name": "abort",
      "outputs": [],
      "payable": false,
      "stateMutability": "nonpayable",
      "type": "function",
      "signature": "0x35a063b4"
    },
    {
      "constant": true,
      "inputs": [],
      "name": "getData",
      "outputs": [
        {
          "name": "",
          "type": "string"
        }
      ],
      "payable": false,
      "stateMutability": "view",
      "type": "function",
      "signature": "0x3bc5de30"
    },
    {
      "constant": false,
      "inputs": [],
      "name": "removeFromFaulty",
      "outputs": [],
      "payable": true,
      "stateMutability": "payable",
      "type": "function",
      "signature": "0x3dd8de3e"
    },
    {
      "constant": false,
      "inputs": [
        {
          "name": "dest",
          "type": "address"
        }
      ],
      "name": "doTrans",
      "outputs": [],
      "payable": false,
      "stateMutability": "nonpayable",
      "type": "function",
      "signature": "0x47426fad"
    },
    {
      "constant": false,
      "inputs": [],
      "name": "transCompleted",
      "outputs": [],
      "payable": true,
      "stateMutability": "payable",
      "type": "function",
      "signature": "0x57c6a843"
    },
    {
      "constant": false,
      "inputs": [
        {
          "name": "pubkey",
          "type": "string"
        }
      ],
      "name": "registration",
      "outputs": [],
      "payable": true,
      "stateMutability": "payable",
      "type": "function",
      "signature": "0x5e7c2f10"
    },
    {
      "constant": false,
      "inputs": [
        {
          "name": "x",
          "type": "string"
        }
      ],
      "name": "send",
      "outputs": [],
      "payable": false,
      "stateMutability": "nonpayable",
      "type": "function",
      "signature": "0x66792ba1"
    },
    {
      "constant": true,
      "inputs": [],
      "name": "getRegistered",
      "outputs": [
        {
          "components": [
            {
              "name": "publicKey",
              "type": "address"
            },
            {
              "name": "encrypt",
              "type": "string"
            },
            {
              "name": "faulty",
              "type": "uint256"
            },
            {
              "name": "penaltytoken",
              "type": "uint256"
            },
            {
              "name": "x",
              "type": "int256"
            },
            {
              "name": "y",
              "type": "int256"
            },
            {
              "name": "z",
              "type": "int256"
            },
            {
              "name": "participating",
              "type": "uint256"
            },
            {
              "name": "timestamp",
              "type": "uint256"
            },
            {
              "name": "bcs",
              "type": "uint256"
            }
          ],
          "name": "",
          "type": "tuple"
        },
        {
          "name": "",
          "type": "uint256"
        },
        {
          "name": "",
          "type": "uint256"
        }
      ],
      "payable": false,
      "stateMutability": "view",
      "type": "function",
      "signature": "0x7a6543e2"
    },
    {
      "constant": false,
      "inputs": [],
      "name": "updateGraph",
      "outputs": [],
      "payable": false,
      "stateMutability": "nonpayable",
      "type": "function",
      "signature": "0x8f99123d"
    },
    {
      "constant": false,
      "inputs": [
        {
          "name": "x",
          "type": "uint256"
        }
      ],
      "name": "unsuccessful",
      "outputs": [],
      "payable": true,
      "stateMutability": "payable",
      "type": "function",
      "signature": "0x96fbe5eb"
    },
    {
      "constant": true,
      "inputs": [],
      "name": "returnCulprit",
      "outputs": [
        {
          "name": "",
          "type": "address"
        }
      ],
      "payable": false,
      "stateMutability": "view",
      "type": "function",
      "signature": "0xaf707c0b"
    },
    {
      "constant": true,
      "inputs": [],
      "name": "transaction",
      "outputs": [
        {
          "name": "",
          "type": "bool"
        }
      ],
      "payable": false,
      "stateMutability": "view",
      "type": "function",
      "signature": "0xc99de57e"
    },
    {
      "constant": false,
      "inputs": [
        {
          "name": "coordinates",
          "type": "int256[]"
        }
      ],
      "name": "registerCoordinates",
      "outputs": [],
      "payable": true,
      "stateMutability": "payable",
      "type": "function",
      "signature": "0xf3b8b7d1"
    },
    {
      "constant": false,
      "inputs": [],
      "name": "sendBackToken",
      "outputs": [],
      "payable": true,
      "stateMutability": "payable",
      "type": "function",
      "signature": "0xf421a16b"
    },
    {
      "constant": true,
      "inputs": [],
      "name": "getTable",
      "outputs": [
        {
          "name": "",
          "type": "uint256"
        },
        {
          "name": "",
          "type": "uint256"
        },
        {
          "name": "",
          "type": "address[]"
        }
      ],
      "payable": false,
      "stateMutability": "view",
      "type": "function",
      "signature": "0xfb6391ab"
    },
    {
      "constant": false,
      "inputs": [
        {
          "name": "pred",
          "type": "uint256[]"
        }
      ],
      "name": "bfs",
      "outputs": [
        {
          "name": "",
          "type": "bool"
        }
      ],
      "payable": false,
      "stateMutability": "nonpayable",
      "type": "function",
      "signature": "0xf6e13efa"
    },
    {
      "constant": false,
      "inputs": [],
      "name": "pathFind",
      "outputs": [],
      "payable": true,
      "stateMutability": "payable",
      "type": "function",
      "signature": "0xb3db2e8c"
    },
    {
      "constant": true,
      "inputs": [],
      "name": "returnRoute",
      "outputs": [
        {
          "components": [
            {
              "name": "id",
              "type": "uint256"
            },
            {
              "name": "add",
              "type": "address"
            },
            {
              "name": "data",
              "type": "string"
            },
            {
              "name": "timestamp",
              "type": "uint256"
            }
          ],
          "name": "",
          "type": "tuple[]"
        }
      ],
      "payable": false,
      "stateMutability": "view",
      "type": "function",
      "signature": "0xf8565e04"
    }
  ],
  "bytecode": "0x608060405260006009556000600160146101000a81548160ff0219169083151502179055506101406040519081016040528073923eab5f3174c5df357ccaaec450a3eff027d8e273ffffffffffffffffffffffffffffffffffffffff1681526020016101406040519081016040528061010f81526020016200697f61010f91398152602001600081526020016000815260200160008152602001600081526020016000815260200160018152602001600081526020016001815250600560006001815260200190815260200160002060008201518160000160006101000a81548173ffffffffffffffffffffffffffffffffffffffff021916908373ffffffffffffffffffffffffffffffffffffffff1602179055506020820151816001019080519060200190620001339291906200131a565b5060408201518160020155606082015181600301556080820151816004015560a0820151816005015560c0820151816006015560e08201518160070155610100820151816008015561012082015181600901559050506101406040519081016040528073d538e4979b2960dab7660652453c4bef1577b36573ffffffffffffffffffffffffffffffffffffffff1681526020016101406040519081016040528061010f815260200162006fd961010f91398152602001600081526020016000815260200160048152602001600081526020016000815260200160018152602001600081526020016001815250600560006002815260200190815260200160002060008201518160000160006101000a81548173ffffffffffffffffffffffffffffffffffffffff021916908373ffffffffffffffffffffffffffffffffffffffff1602179055506020820151816001019080519060200190620002989291906200131a565b5060408201518160020155606082015181600301556080820151816004015560a0820151816005015560c0820151816006015560e08201518160070155610100820151816008015561012082015181600901559050506101406040519081016040528073c9418a94e0e80c0f1a3be2bf15d1a9beb7a3cdca73ffffffffffffffffffffffffffffffffffffffff1681526020016101406040519081016040528061010f815260200162006eca61010f91398152602001600081526020016000815260200160088152602001600081526020016000815260200160018152602001600081526020016001815250600560006003815260200190815260200160002060008201518160000160006101000a81548173ffffffffffffffffffffffffffffffffffffffff021916908373ffffffffffffffffffffffffffffffffffffffff1602179055506020820151816001019080519060200190620003fd9291906200131a565b5060408201518160020155606082015181600301556080820151816004015560a0820151816005015560c0820151816006015560e0820151816007015561010082015181600801556101208201518160090155905050610140604051908101604052807315eec3bfbbebba4c8615995966c1198335a169f073ffffffffffffffffffffffffffffffffffffffff1681526020016101406040519081016040528061010f8152602001620070e861010f91398152602001600081526020016000815260200160008152602001600281526020016000815260200160008152602001600081526020016000815250600560006004815260200190815260200160002060008201518160000160006101000a81548173ffffffffffffffffffffffffffffffffffffffff021916908373ffffffffffffffffffffffffffffffffffffffff1602179055506020820151816001019080519060200190620005629291906200131a565b5060408201518160020155606082015181600301556080820151816004015560a0820151816005015560c0820151816006015560e0820151816007015561010082015181600801556101208201518160090155905050610140604051908101604052807312c3a5431b0b5995012fde7976aabed676f2b44373ffffffffffffffffffffffffffffffffffffffff1681526020016101406040519081016040528061010f815260200162006dbb61010f91398152602001600081526020016000815260200160008152602001600481526020016000815260200160008152602001600081526020016000815250600560006005815260200190815260200160002060008201518160000160006101000a81548173ffffffffffffffffffffffffffffffffffffffff021916908373ffffffffffffffffffffffffffffffffffffffff1602179055506020820151816001019080519060200190620006c79291906200131a565b5060408201518160020155606082015181600301556080820151816004015560a0820151816005015560c0820151816006015560e08201518160070155610100820151816008015561012082015181600901559050506101406040519081016040528073abfeacbfb9a9adf465f62a6e9d39301efeaab75573ffffffffffffffffffffffffffffffffffffffff1681526020016101406040519081016040528061010f815260200162006a8e61010f91398152602001600081526020016000815260200160028152602001600481526020016000815260200160008152602001600081526020016000815250600560006006815260200190815260200160002060008201518160000160006101000a81548173ffffffffffffffffffffffffffffffffffffffff021916908373ffffffffffffffffffffffffffffffffffffffff16021790555060208201518160010190805190602001906200082c9291906200131a565b5060408201518160020155606082015181600301556080820151816004015560a0820151816005015560c0820151816006015560e0820151816007015561010082015181600801556101208201518160090155905050610140604051908101604052807381f6899b9eab5da73e08ab595ed426127dfbff4f73ffffffffffffffffffffffffffffffffffffffff1681526020016101406040519081016040528061010f815260200162006b9d61010f91398152602001600081526020016000815260200160048152602001600481526020016000815260200160008152602001600081526020016000815250600560006007815260200190815260200160002060008201518160000160006101000a81548173ffffffffffffffffffffffffffffffffffffffff021916908373ffffffffffffffffffffffffffffffffffffffff1602179055506020820151816001019080519060200190620009919291906200131a565b5060408201518160020155606082015181600301556080820151816004015560a0820151816005015560c0820151816006015560e08201518160070155610100820151816008015561012082015181600901559050506101406040519081016040528073cc2900eec5f3202ecd76d6f9140e33c0ac15f17f73ffffffffffffffffffffffffffffffffffffffff1681526020016101406040519081016040528061010f815260200162006cac61010f91398152602001600081526020016000815260200160048152602001600281526020016000815260200160008152602001600081526020016000815250600560006008815260200190815260200160002060008201518160000160006101000a81548173ffffffffffffffffffffffffffffffffffffffff021916908373ffffffffffffffffffffffffffffffffffffffff160217905550602082015181600101908051906020019062000af69291906200131a565b5060408201518160020155606082015181600301556080820151816004015560a0820151816005015560c0820151816006015560e08201518160070155610100820151816008015561012082015181600901559050506101406040519081016040528073e2bf3ab74b375d7bacd555cb894273142c96ae8573ffffffffffffffffffffffffffffffffffffffff1681526020016101406040519081016040528061010f8152602001620071f761010f91398152602001600081526020016000815260200160008152602001600081526020016000815260200160008152602001600081526020016000815250600560006009815260200190815260200160002060008201518160000160006101000a81548173ffffffffffffffffffffffffffffffffffffffff021916908373ffffffffffffffffffffffffffffffffffffffff160217905550602082015181600101908051906020019062000c5b9291906200131a565b5060408201518160020155606082015181600301556080820151816004015560a0820151816005015560c0820151816006015560e0820151816007015561010082015181600801556101208201518160090155905050600a600460007315eec3bfbbebba4c8615995966c1198335a169f073ffffffffffffffffffffffffffffffffffffffff1673ffffffffffffffffffffffffffffffffffffffff16815260200190815260200160002081905550600160066000600560006001815260200190815260200160002060000160009054906101000a900473ffffffffffffffffffffffffffffffffffffffff1673ffffffffffffffffffffffffffffffffffffffff1673ffffffffffffffffffffffffffffffffffffffff16815260200190815260200160002081905550600260066000600560006002815260200190815260200160002060000160009054906101000a900473ffffffffffffffffffffffffffffffffffffffff1673ffffffffffffffffffffffffffffffffffffffff1673ffffffffffffffffffffffffffffffffffffffff16815260200190815260200160002081905550600360066000600560006003815260200190815260200160002060000160009054906101000a900473ffffffffffffffffffffffffffffffffffffffff1673ffffffffffffffffffffffffffffffffffffffff1673ffffffffffffffffffffffffffffffffffffffff16815260200190815260200160002081905550600460066000600560006004815260200190815260200160002060000160009054906101000a900473ffffffffffffffffffffffffffffffffffffffff1673ffffffffffffffffffffffffffffffffffffffff1673ffffffffffffffffffffffffffffffffffffffff16815260200190815260200160002081905550600560066000600560006005815260200190815260200160002060000160009054906101000a900473ffffffffffffffffffffffffffffffffffffffff1673ffffffffffffffffffffffffffffffffffffffff1673ffffffffffffffffffffffffffffffffffffffff168152602001908152602001600020819055506006806000600560006006815260200190815260200160002060000160009054906101000a900473ffffffffffffffffffffffffffffffffffffffff1673ffffffffffffffffffffffffffffffffffffffff1673ffffffffffffffffffffffffffffffffffffffff16815260200190815260200160002081905550600760066000600560006007815260200190815260200160002060000160009054906101000a900473ffffffffffffffffffffffffffffffffffffffff1673ffffffffffffffffffffffffffffffffffffffff1673ffffffffffffffffffffffffffffffffffffffff16815260200190815260200160002081905550600860066000600560006008815260200190815260200160002060000160009054906101000a900473ffffffffffffffffffffffffffffffffffffffff1673ffffffffffffffffffffffffffffffffffffffff1673ffffffffffffffffffffffffffffffffffffffff16815260200190815260200160002081905550600960066000600560006009815260200190815260200160002060000160009054906101000a900473ffffffffffffffffffffffffffffffffffffffff1673ffffffffffffffffffffffffffffffffffffffff1673ffffffffffffffffffffffffffffffffffffffff1681526020019081526020016000208190555060026001908060018154018082558091505090600182039060005260206000200160009091929091909150555060028090806001815401808255809150509060018203906000526020600020016000909192909190915055506002600390806001815401808255809150509060018203906000526020600020016000909192909190915055506002600490806001815401808255809150509060018203906000526020600020016000909192909190915055506002600590806001815401808255809150509060018203906000526020600020016000909192909190915055506002600690806001815401808255809150509060018203906000526020600020016000909192909190915055506002600790806001815401808255809150509060018203906000526020600020016000909192909190915055506002600890806001815401808255809150509060018203906000526020600020016000909192909190915055506002600990806001815401808255809150509060018203906000526020600020016000909192909190915055506000600860006101000a81548160ff021916908315150217905550620013c9565b828054600181600116156101000203166002900490600052602060002090601f016020900481019282601f106200135d57805160ff19168380011785556200138e565b828001600101855582156200138e579182015b828111156200138d57825182559160200191906001019062001370565b5b5090506200139d9190620013a1565b5090565b620013c691905b80821115620013c2576000816000905550600101620013a8565b5090565b90565b6155a680620013d96000396000f3fe608060405260043610610112576000357c0100000000000000000000000000000000000000000000000000000000900463ffffffff1680630b93381b146101175780632adc5d2f1461013557806335a063b4146101605780633bc5de30146101775780633dd8de3e146101a257806347426fad146101ac57806357c6a843146101d55780635e7c2f10146101df57806366792ba1146101fb5780637a6543e2146102245780638f99123d1461025157806396fbe5eb14610268578063af707c0b14610284578063b3db2e8c146102af578063c99de57e146102b9578063f3b8b7d1146102e4578063f421a16b14610300578063f6e13efa1461030a578063f8565e0414610347578063fb6391ab14610372575b600080fd5b61011f61039f565b60405161012c91906150c5565b60405180910390f35b34801561014157600080fd5b5061014a61049d565b6040516101579190615140565b60405180910390f35b34801561016c57600080fd5b506101756104e4565b005b34801561018357600080fd5b5061018c610bcb565b60405161019991906150e0565b60405180910390f35b6101aa610d32565b005b3480156101b857600080fd5b506101d360048036036101ce9190810190614c64565b6111ef565b005b6101dd6112ee565b005b6101f960048036036101f49190810190614d38565b611509565b005b34801561020757600080fd5b50610222600480360361021d9190810190614d38565b6119b5565b005b34801561023057600080fd5b50610239611b17565b60405161024893929190615102565b60405180910390f35b34801561025d57600080fd5b50610266611d57565b005b610282600480360361027d9190810190614d79565b612412565b005b34801561029057600080fd5b50610299612ce5565b6040516102a69190615088565b60405180910390f35b6102b7612d0f565b005b3480156102c557600080fd5b506102ce61349e565b6040516102db91906150c5565b60405180910390f35b6102fe60048036036102f99190810190614c8d565b6134b1565b005b610308613818565b005b34801561031657600080fd5b50610331600480360361032c9190810190614cce565b613a1e565b60405161033e91906150c5565b60405180910390f35b34801561035357600080fd5b5061035c614435565b60405161036991906150a3565b60405180910390f35b34801561037e57600080fd5b506103876145a1565b6040516103969392919061515b565b60405180910390f35b6000600160009054906101000a900473ffffffffffffffffffffffffffffffffffffffff1673ffffffffffffffffffffffffffffffffffffffff163373ffffffffffffffffffffffffffffffffffffffff1614156104905742600360095481548110151561040957fe5b9060005260206000209060040201600301819055506001600860006101000a81548160ff02191690831515021790555060006009819055506000600160006101000a81548173ffffffffffffffffffffffffffffffffffffffff021916908373ffffffffffffffffffffffffffffffffffffffff16021790555061048b613818565b610499565b6000905061049a565b5b90565b6000600460003373ffffffffffffffffffffffffffffffffffffffff1673ffffffffffffffffffffffffffffffffffffffff16815260200190815260200160002054905090565b6000809050606060028054905060405190808252806020026020018201604052801561051f5781602001602082028038833980820191505090505b50905060008090505b6002805490508110156107f3576000600660006005600060028681548110151561054e57fe5b9060005260206000200154815260200190815260200160002060000160009054906101000a900473ffffffffffffffffffffffffffffffffffffffff1673ffffffffffffffffffffffffffffffffffffffff1673ffffffffffffffffffffffffffffffffffffffff168152602001908152602001600020819055506000600a6000600560006002868154811015156105e257fe5b9060005260206000200154815260200190815260200160002060000160009054906101000a900473ffffffffffffffffffffffffffffffffffffffff1673ffffffffffffffffffffffffffffffffffffffff1673ffffffffffffffffffffffffffffffffffffffff16815260200190815260200160002081610664919061470e565b50600a600460006005600060028681548110151561067e57fe5b9060005260206000200154815260200190815260200160002060000160009054906101000a900473ffffffffffffffffffffffffffffffffffffffff1673ffffffffffffffffffffffffffffffffffffffff1673ffffffffffffffffffffffffffffffffffffffff16815260200190815260200160002054101561073f5760028181548110151561070b57fe5b9060005260206000200154828481518110151561072457fe5b906020019060200201818152505082806001019350506107e6565b6005600060028381548110151561075257fe5b90600052602060002001548152602001908152602001600020600080820160006101000a81549073ffffffffffffffffffffffffffffffffffffffff02191690556001820160006107a3919061473a565b6002820160009055600382016000905560048201600090556005820160009055600682016000905560078201600090556008820160009055600982016000905550505b8080600101915050610528565b50600260006108029190614782565b60008090505b82811015610af1576002828281518110151561082057fe5b9060200190602002015190806001815401808255809150509060018203906000526020600020016000909192909190915055506005600060028381548110151561086657fe5b90600052602060002001548152602001908152602001600020600560006001840181526020019081526020016000206000820160009054906101000a900473ffffffffffffffffffffffffffffffffffffffff168160000160006101000a81548173ffffffffffffffffffffffffffffffffffffffff021916908373ffffffffffffffffffffffffffffffffffffffff160217905550600182018160010190805460018160011615610100020316600290046109239291906147a3565b50600282015481600201556003820154816003015560048201548160040155600582015481600501556006820154816006015560078201548160070155600882015481600801556009820154816009015590505060028181548110151561098657fe5b906000526020600020015460018201141515610a4357600560006002838154811015156109af57fe5b90600052602060002001548152602001908152602001600020600080820160006101000a81549073ffffffffffffffffffffffffffffffffffffffff0219169055600182016000610a00919061473a565b6002820160009055600382016000905560048201600090556005820160009055600682016000905560078201600090556008820160009055600982016000905550505b60018101600660006005600060018601815260200190815260200160002060000160009054906101000a900473ffffffffffffffffffffffffffffffffffffffff1673ffffffffffffffffffffffffffffffffffffffff1673ffffffffffffffffffffffffffffffffffffffff1681526020019081526020016000208190555060018101600282815481101515610ad657fe5b90600052602060002001819055508080600101915050610808565b50606090506000600381610b05919061482a565b506000600160146101000a81548160ff0219169083151502179055506000600860006101000a81548160ff021916908315150217905550600060098190555060008060006101000a81548173ffffffffffffffffffffffffffffffffffffffff021916908373ffffffffffffffffffffffffffffffffffffffff1602179055506000600160006101000a81548173ffffffffffffffffffffffffffffffffffffffff021916908373ffffffffffffffffffffffffffffffffffffffff1602179055505050565b6060600560006003600954815481101515610be257fe5b906000526020600020906004020160000154815260200190815260200160002060000160009054906101000a900473ffffffffffffffffffffffffffffffffffffffff1673ffffffffffffffffffffffffffffffffffffffff163373ffffffffffffffffffffffffffffffffffffffff161415610d1b576003600954815481101515610c6a57fe5b90600052602060002090600402016002018054600181600116156101000203166002900480601f016020809104026020016040519081016040528092919081815260200182805460018160011615610100020316600290048015610d0f5780601f10610ce457610100808354040283529160200191610d0f565b820191906000526020600020905b815481529060010190602001808311610cf257829003601f168201915b50505050509050610d2f565b602060405190810160405280600081525090505b90565b6000600660003373ffffffffffffffffffffffffffffffffffffffff1673ffffffffffffffffffffffffffffffffffffffff1681526020019081526020016000205414158015610dd85750600060056000600660003373ffffffffffffffffffffffffffffffffffffffff1673ffffffffffffffffffffffffffffffffffffffff1681526020019081526020016000205481526020019081526020016000206002015414155b156111ec573460056000600660003373ffffffffffffffffffffffffffffffffffffffff1673ffffffffffffffffffffffffffffffffffffffff16815260200190815260200160002054815260200190815260200160002060030154148015610eed575060056000600660003373ffffffffffffffffffffffffffffffffffffffff1673ffffffffffffffffffffffffffffffffffffffff1681526020019081526020016000205481526020019081526020016000206002015460056000600660003373ffffffffffffffffffffffffffffffffffffffff1673ffffffffffffffffffffffffffffffffffffffff16815260200190815260200160002054815260200190815260200160002060080154420311155b1561100857600060056000600660003373ffffffffffffffffffffffffffffffffffffffff1673ffffffffffffffffffffffffffffffffffffffff16815260200190815260200160002054815260200190815260200160002060030181905550600060056000600660003373ffffffffffffffffffffffffffffffffffffffff1673ffffffffffffffffffffffffffffffffffffffff16815260200190815260200160002054815260200190815260200160002060020181905550600060056000600660003373ffffffffffffffffffffffffffffffffffffffff1673ffffffffffffffffffffffffffffffffffffffff168152602001908152602001600020548152602001908152602001600020600801819055506111e7565b60056000600660003373ffffffffffffffffffffffffffffffffffffffff1673ffffffffffffffffffffffffffffffffffffffff1681526020019081526020016000205481526020019081526020016000206002015460056000600660003373ffffffffffffffffffffffffffffffffffffffff1673ffffffffffffffffffffffffffffffffffffffff16815260200190815260200160002054815260200190815260200160002060080154420311156111e657671bc16d674ec8000060056000600660003373ffffffffffffffffffffffffffffffffffffffff1673ffffffffffffffffffffffffffffffffffffffff16815260200190815260200160002054815260200190815260200160002060030160008282540192505081905550600a60056000600660003373ffffffffffffffffffffffffffffffffffffffff1673ffffffffffffffffffffffffffffffffffffffff168152602001908152602001600020548152602001908152602001600020600201600082825401925050819055504260056000600660003373ffffffffffffffffffffffffffffffffffffffff1673ffffffffffffffffffffffffffffffffffffffff168152602001908152602001600020548152602001908152602001600020600801819055505b5b6111ed565b5b565b60001515600160149054906101000a900460ff16151514801561123e57508073ffffffffffffffffffffffffffffffffffffffff163373ffffffffffffffffffffffffffffffffffffffff1614155b151561124957600080fd5b60018060146101000a81548160ff021916908315150217905550336000806101000a81548173ffffffffffffffffffffffffffffffffffffffff021916908373ffffffffffffffffffffffffffffffffffffffff16021790555080600160006101000a81548173ffffffffffffffffffffffffffffffffffffffff021916908373ffffffffffffffffffffffffffffffffffffffff1602179055504260078190555050565b6000809054906101000a900473ffffffffffffffffffffffffffffffffffffffff1673ffffffffffffffffffffffffffffffffffffffff163373ffffffffffffffffffffffffffffffffffffffff1614801561135d575060011515600160149054906101000a900460ff161515145b801561137c575060011515600860009054906101000a900460ff161515145b151561138757600080fd5b6000600981905550600080905060006002600380549050031415156113bd57600260038054905003348115156113b957fe5b0490505b6000600190505b60016003805490500381101561147e57600560006003838154811015156113e757fe5b906000526020600020906004020160000154815260200190815260200160002060000160009054906101000a900473ffffffffffffffffffffffffffffffffffffffff1673ffffffffffffffffffffffffffffffffffffffff166108fc839081150290604051600060405180830381858888f19350505050158015611470573d6000803e3d6000fd5b5080806001019150506113c4565b50600060038161148e919061482a565b506000600160146101000a81548160ff0219169083151502179055506000600860006101000a81548160ff02191690831515021790555060008060006101000a81548173ffffffffffffffffffffffffffffffffffffffff021916908373ffffffffffffffffffffffffffffffffffffffff16021790555050565b6000600660003373ffffffffffffffffffffffffffffffffffffffff1673ffffffffffffffffffffffffffffffffffffffff1681526020019081526020016000205414801561159757506000600460003373ffffffffffffffffffffffffffffffffffffffff1673ffffffffffffffffffffffffffffffffffffffff16815260200190815260200160002054145b80156115aa5750674563918244f4000034145b156119ac5760026001600280549050019080600181540180825580915050906001820390600052602060002001600090919290919091505550600280549050600660003373ffffffffffffffffffffffffffffffffffffffff1673ffffffffffffffffffffffffffffffffffffffff168152602001908152602001600020819055503360056000600660003373ffffffffffffffffffffffffffffffffffffffff1673ffffffffffffffffffffffffffffffffffffffff16815260200190815260200160002054815260200190815260200160002060000160006101000a81548173ffffffffffffffffffffffffffffffffffffffff021916908373ffffffffffffffffffffffffffffffffffffffff1602179055508060056000600660003373ffffffffffffffffffffffffffffffffffffffff1673ffffffffffffffffffffffffffffffffffffffff168152602001908152602001600020548152602001908152602001600020600101908051906020019061172992919061485c565b50600060056000600660003373ffffffffffffffffffffffffffffffffffffffff1673ffffffffffffffffffffffffffffffffffffffff16815260200190815260200160002054815260200190815260200160002060020181905550600060056000600660003373ffffffffffffffffffffffffffffffffffffffff1673ffffffffffffffffffffffffffffffffffffffff16815260200190815260200160002054815260200190815260200160002060030181905550600060056000600660003373ffffffffffffffffffffffffffffffffffffffff1673ffffffffffffffffffffffffffffffffffffffff16815260200190815260200160002054815260200190815260200160002060070181905550600060056000600660003373ffffffffffffffffffffffffffffffffffffffff1673ffffffffffffffffffffffffffffffffffffffff16815260200190815260200160002054815260200190815260200160002060090181905550600060056000600660003373ffffffffffffffffffffffffffffffffffffffff1673ffffffffffffffffffffffffffffffffffffffff16815260200190815260200160002054815260200190815260200160002060040181905550600060056000600660003373ffffffffffffffffffffffffffffffffffffffff1673ffffffffffffffffffffffffffffffffffffffff16815260200190815260200160002054815260200190815260200160002060050181905550600060056000600660003373ffffffffffffffffffffffffffffffffffffffff1673ffffffffffffffffffffffffffffffffffffffff168152602001908152602001600020548152602001908152602001600020600601819055506119b1565b6119b2565b5b50565b6005600060036009548154811015156119ca57fe5b906000526020600020906004020160000154815260200190815260200160002060000160009054906101000a900473ffffffffffffffffffffffffffffffffffffffff1673ffffffffffffffffffffffffffffffffffffffff163373ffffffffffffffffffffffffffffffffffffffff16141515611a4757600080fd5b60006009541415611a8a57806003600954815481101515611a6457fe5b90600052602060002090600402016002019080519060200190611a8892919061485c565b505b426003600954815481101515611a9c57fe5b906000526020600020906004020160030181905550600160038054905003600160095401111515611b0257806003600160095401815481101515611adc57fe5b90600052602060002090600402016002019080519060200190611b0092919061485c565b505b60096000815480929190600101919050555050565b611b1f6148dc565b60008060056000600660003373ffffffffffffffffffffffffffffffffffffffff1673ffffffffffffffffffffffffffffffffffffffff168152602001908152602001600020548152602001908152602001600020600460003373ffffffffffffffffffffffffffffffffffffffff1673ffffffffffffffffffffffffffffffffffffffff16815260200190815260200160002054600660003373ffffffffffffffffffffffffffffffffffffffff1673ffffffffffffffffffffffffffffffffffffffff168152602001908152602001600020548261014060405190810160405290816000820160009054906101000a900473ffffffffffffffffffffffffffffffffffffffff1673ffffffffffffffffffffffffffffffffffffffff1673ffffffffffffffffffffffffffffffffffffffff168152602001600182018054600181600116156101000203166002900480601f016020809104026020016040519081016040528092919081815260200182805460018160011615610100020316600290048015611cf15780601f10611cc657610100808354040283529160200191611cf1565b820191906000526020600020905b815481529060010190602001808311611cd457829003601f168201915b50505050508152602001600282015481526020016003820154815260200160048201548152602001600582015481526020016006820154815260200160078201548152602001600882015481526020016009820154815250509250925092509250909192565b6000809054906101000a900473ffffffffffffffffffffffffffffffffffffffff1673ffffffffffffffffffffffffffffffffffffffff163373ffffffffffffffffffffffffffffffffffffffff161480611e145750600560006001815260200190815260200160002060000160009054906101000a900473ffffffffffffffffffffffffffffffffffffffff1673ffffffffffffffffffffffffffffffffffffffff163373ffffffffffffffffffffffffffffffffffffffff16145b80611e815750600560006002815260200190815260200160002060000160009054906101000a900473ffffffffffffffffffffffffffffffffffffffff1673ffffffffffffffffffffffffffffffffffffffff163373ffffffffffffffffffffffffffffffffffffffff16145b80611eee5750600560006003815260200190815260200160002060000160009054906101000a900473ffffffffffffffffffffffffffffffffffffffff1673ffffffffffffffffffffffffffffffffffffffff163373ffffffffffffffffffffffffffffffffffffffff16145b8015611f0d575060011515600160149054906101000a900460ff161515145b1515611f1857600080fd5b60008090505b60028054905081101561240f576000600a600060056000600286815481101515611f4457fe5b9060005260206000200154815260200190815260200160002060000160009054906101000a900473ffffffffffffffffffffffffffffffffffffffff1673ffffffffffffffffffffffffffffffffffffffff1673ffffffffffffffffffffffffffffffffffffffff16815260200190815260200160002081611fc6919061470e565b50600160056000600284815481101515611fdc57fe5b906000526020600020015481526020019081526020016000206007015414156124025760008090505b60028054905081101561240057808214158015612051575060016005600060028481548110151561203257fe5b9060005260206000200154815260200190815260200160002060070154145b156123f35760006005600060028481548110151561206b57fe5b90600052602060002001548152602001908152602001600020600601546005600060028681548110151561209b57fe5b906000526020600020015481526020019081526020016000206006015403600560006002858154811015156120cc57fe5b9060005260206000200154815260200190815260200160002060060154600560006002878154811015156120fc57fe5b906000526020600020015481526020019081526020016000206006015403026005600060028581548110151561212e57fe5b90600052602060002001548152602001908152602001600020600501546005600060028781548110151561215e57fe5b9060005260206000200154815260200190815260200160002060050154036005600060028681548110151561218f57fe5b9060005260206000200154815260200190815260200160002060050154600560006002888154811015156121bf57fe5b90600052602060002001548152602001908152602001600020600501540302600560006002868154811015156121f157fe5b90600052602060002001548152602001908152602001600020600401546005600060028881548110151561222157fe5b9060005260206000200154815260200190815260200160002060040154036005600060028781548110151561225257fe5b90600052602060002001548152602001908152602001600020600401546005600060028981548110151561228257fe5b90600052602060002001548152602001908152602001600020600401540302010190506009811315156123f157600a6000600560006002878154811015156122c657fe5b9060005260206000200154815260200190815260200160002060000160009054906101000a900473ffffffffffffffffffffffffffffffffffffffff1673ffffffffffffffffffffffffffffffffffffffff1673ffffffffffffffffffffffffffffffffffffffff1681526020019081526020016000206005600060028581548110151561235057fe5b9060005260206000200154815260200190815260200160002060000160009054906101000a900473ffffffffffffffffffffffffffffffffffffffff1690806001815401808255809150509060018203906000526020600020016000909192909190916101000a81548173ffffffffffffffffffffffffffffffffffffffff021916908373ffffffffffffffffffffffffffffffffffffffff160217905550505b505b8080600101915050612005565b505b8080600101915050611f1e565b50565b600160009054906101000a900473ffffffffffffffffffffffffffffffffffffffff1673ffffffffffffffffffffffffffffffffffffffff163373ffffffffffffffffffffffffffffffffffffffff1614151561246e57600080fd5b6000600160146101000a81548160ff0219169083151502179055506000600860006101000a81548160ff02191690831515021790555060008114156128225760006005600060036009548154811015156124c457fe5b9060005260206000209060040201600001548152602001908152602001600020600701819055506004600060056000600360095481548110151561250457fe5b906000526020600020906004020160000154815260200190815260200160002060000160009054906101000a900473ffffffffffffffffffffffffffffffffffffffff1673ffffffffffffffffffffffffffffffffffffffff1673ffffffffffffffffffffffffffffffffffffffff16815260200190815260200160002060008154809291906001019190505550600a600460006005600060036009548154811015156125ad57fe5b906000526020600020906004020160000154815260200190815260200160002060000160009054906101000a900473ffffffffffffffffffffffffffffffffffffffff1673ffffffffffffffffffffffffffffffffffffffff1673ffffffffffffffffffffffffffffffffffffffff168152602001908152602001600020540260056000600360095481548110151561264257fe5b906000526020600020906004020160000154815260200190815260200160002060020181905550671bc16d674ec800006004600060056000600360095481548110151561268b57fe5b906000526020600020906004020160000154815260200190815260200160002060000160009054906101000a900473ffffffffffffffffffffffffffffffffffffffff1673ffffffffffffffffffffffffffffffffffffffff1673ffffffffffffffffffffffffffffffffffffffff168152602001908152602001600020540260056000600360095481548110151561272057fe5b9060005260206000209060040201600001548152602001908152602001600020600301819055504260056000600360095481548110151561275d57fe5b90600052602060002090600402016000015481526020019081526020016000206008018190555060056000600360095481548110151561279957fe5b906000526020600020906004020160000154815260200190815260200160002060000160009054906101000a900473ffffffffffffffffffffffffffffffffffffffff16600860016101000a81548173ffffffffffffffffffffffffffffffffffffffff021916908373ffffffffffffffffffffffffffffffffffffffff160217905550612cda565b6000600190505b600380549050811015612cd8576003600081548110151561284657fe5b906000526020600020906004020160020160405180828054600181600116156101000203166002900480156128b25780601f106128905761010080835404028352918201916128b2565b820191906000526020600020905b81548152906001019060200180831161289e575b505091505060405180910390206003828154811015156128ce57fe5b9060005260206000209060040201600201604051808280546001816001161561010002031660029004801561293a5780601f1061291857610100808354040283529182019161293a565b820191906000526020600020905b815481529060010190602001808311612926575b50509150506040518091039020141515612ccb5760006005600060036001850381548110151561296657fe5b90600052602060002090600402016000015481526020019081526020016000206007018190555060046000600560006003600186038154811015156129a757fe5b906000526020600020906004020160000154815260200190815260200160002060000160009054906101000a900473ffffffffffffffffffffffffffffffffffffffff1673ffffffffffffffffffffffffffffffffffffffff1673ffffffffffffffffffffffffffffffffffffffff16815260200190815260200160002060008154809291906001019190505550600a6004600060056000600360018703815481101515612a5157fe5b906000526020600020906004020160000154815260200190815260200160002060000160009054906101000a900473ffffffffffffffffffffffffffffffffffffffff1673ffffffffffffffffffffffffffffffffffffffff1673ffffffffffffffffffffffffffffffffffffffff168152602001908152602001600020540260056000600360018503815481101515612ae757fe5b906000526020600020906004020160000154815260200190815260200160002060020181905550671bc16d674ec800006004600060056000600360018703815481101515612b3157fe5b906000526020600020906004020160000154815260200190815260200160002060000160009054906101000a900473ffffffffffffffffffffffffffffffffffffffff1673ffffffffffffffffffffffffffffffffffffffff1673ffffffffffffffffffffffffffffffffffffffff168152602001908152602001600020540260056000600360018503815481101515612bc757fe5b9060005260206000209060040201600001548152602001908152602001600020600301819055504260056000600360018503815481101515612c0557fe5b90600052602060002090600402016000015481526020019081526020016000206008018190555060056000600360018403815481101515612c4257fe5b906000526020600020906004020160000154815260200190815260200160002060000160009054906101000a900473ffffffffffffffffffffffffffffffffffffffff16600860016101000a81548173ffffffffffffffffffffffffffffffffffffffff021916908373ffffffffffffffffffffffffffffffffffffffff160217905550612cd8565b8080600101915050612829565b505b612ce2613818565b50565b6000600860019054906101000a900473ffffffffffffffffffffffffffffffffffffffff16905090565b6000809054906101000a900473ffffffffffffffffffffffffffffffffffffffff1673ffffffffffffffffffffffffffffffffffffffff163373ffffffffffffffffffffffffffffffffffffffff16148015612d7e575060011515600160149054906101000a900460ff161515145b1515612d8957600080fd5b6060600160028054905001604051908082528060200260200182016040528015612dc25781602001602082028038833980820191505090505b50905060001515612dd282613a1e565b15151415612e9e576000600381612de9919061482a565b50612df2613818565b600060098190555060008060006101000a81548173ffffffffffffffffffffffffffffffffffffffff021916908373ffffffffffffffffffffffffffffffffffffffff1602179055506000600160006101000a81548173ffffffffffffffffffffffffffffffffffffffff021916908373ffffffffffffffffffffffffffffffffffffffff1602179055506000600160146101000a81548160ff0219169083151502179055505061349c565b600060066000600160009054906101000a900473ffffffffffffffffffffffffffffffffffffffff1673ffffffffffffffffffffffffffffffffffffffff1673ffffffffffffffffffffffffffffffffffffffff1681526020019081526020016000205490506003608060405190810160405280838152602001600160009054906101000a900473ffffffffffffffffffffffffffffffffffffffff1673ffffffffffffffffffffffffffffffffffffffff168152602001602060405190810160405280600081525081526020016000815250908060018154018082558091505090600182039060005260206000209060040201600090919290919091506000820151816000015560208201518160010160006101000a81548173ffffffffffffffffffffffffffffffffffffffff021916908373ffffffffffffffffffffffffffffffffffffffff1602179055506040820151816002019080519060200190613009929190614946565b50606082015181600301555050505b6000828281518110151561302857fe5b906020019060200201511415156131ad576003608060405190810160405280848481518110151561305557fe5b90602001906020020151815260200160056000868681518110151561307657fe5b90602001906020020151815260200190815260200160002060000160009054906101000a900473ffffffffffffffffffffffffffffffffffffffff1673ffffffffffffffffffffffffffffffffffffffff168152602001602060405190810160405280600081525081526020016000815250908060018154018082558091505090600182039060005260206000209060040201600090919290919091506000820151816000015560208201518160010160006101000a81548173ffffffffffffffffffffffffffffffffffffffff021916908373ffffffffffffffffffffffffffffffffffffffff1602179055506040820151816002019080519060200190613180929190614946565b5060608201518160030155505050818181518110151561319c57fe5b906020019060200201519050613018565b6000809050600060016003805490500390505b80821015613497576131d06149c6565b6003838154811015156131df57fe5b906000526020600020906004020160806040519081016040529081600082015481526020016001820160009054906101000a900473ffffffffffffffffffffffffffffffffffffffff1673ffffffffffffffffffffffffffffffffffffffff1673ffffffffffffffffffffffffffffffffffffffff168152602001600282018054600181600116156101000203166002900480601f0160208091040260200160405190810160405280929190818152602001828054600181600116156101000203166002900480156132f25780601f106132c7576101008083540402835291602001916132f2565b820191906000526020600020905b8154815290600101906020018083116132d557829003601f168201915b50505050508152602001600382015481525050905060038281548110151561331657fe5b906000526020600020906004020160038481548110151561333357fe5b9060005260206000209060040201600082015481600001556001820160009054906101000a900473ffffffffffffffffffffffffffffffffffffffff168160010160006101000a81548173ffffffffffffffffffffffffffffffffffffffff021916908373ffffffffffffffffffffffffffffffffffffffff160217905550600282018160020190805460018160011615610100020316600290046133d99291906147a3565b5060038201548160030155905050806003838154811015156133f757fe5b90600052602060002090600402016000820151816000015560208201518160010160006101000a81548173ffffffffffffffffffffffffffffffffffffffff021916908373ffffffffffffffffffffffffffffffffffffffff1602179055506040820151816002019080519060200190613472929190614946565b50606082015181600301559050508280600101935050818060019003925050506131c0565b505050505b565b600160149054906101000a900460ff1681565b60011515600160149054906101000a900460ff1615151480156135295750600060056000600660003373ffffffffffffffffffffffffffffffffffffffff1673ffffffffffffffffffffffffffffffffffffffff16815260200190815260200160002054815260200190815260200160002060020154145b151561353457600080fd5b6000600660003373ffffffffffffffffffffffffffffffffffffffff1673ffffffffffffffffffffffffffffffffffffffff168152602001908152602001600020541415156136b957600060056000600660003373ffffffffffffffffffffffffffffffffffffffff1673ffffffffffffffffffffffffffffffffffffffff168152602001908152602001600020548152602001908152602001600020600901541480156136375750600060056000600660003373ffffffffffffffffffffffffffffffffffffffff1673ffffffffffffffffffffffffffffffffffffffff16815260200190815260200160002054815260200190815260200160002060070154145b801561364a5750670de0b6b3a764000034145b156136af57600160056000600660003373ffffffffffffffffffffffffffffffffffffffff1673ffffffffffffffffffffffffffffffffffffffff168152602001908152602001600020548152602001908152602001600020600701819055506136b4565b613815565b6136be565b613815565b8060008151811015156136cd57fe5b9060200190602002015160056000600660003373ffffffffffffffffffffffffffffffffffffffff1673ffffffffffffffffffffffffffffffffffffffff1681526020019081526020016000205481526020019081526020016000206004018190555080600181518110151561373f57fe5b9060200190602002015160056000600660003373ffffffffffffffffffffffffffffffffffffffff1673ffffffffffffffffffffffffffffffffffffffff168152602001908152602001600020548152602001908152602001600020600501819055508060028151811015156137b157fe5b9060200190602002015160056000600660003373ffffffffffffffffffffffffffffffffffffffff1673ffffffffffffffffffffffffffffffffffffffff168152602001908152602001600020548152602001908152602001600020600601819055505b50565b60008090505b600280549050811015613a1b576000600a60006005600060028681548110151561384457fe5b9060005260206000200154815260200190815260200160002060000160009054906101000a900473ffffffffffffffffffffffffffffffffffffffff1673ffffffffffffffffffffffffffffffffffffffff1673ffffffffffffffffffffffffffffffffffffffff168152602001908152602001600020816138c6919061470e565b506001600560006002848154811015156138dc57fe5b9060005260206000200154815260200190815260200160002060070154148015613935575060006005600060028481548110151561391657fe5b9060005260206000200154815260200190815260200160002060090154145b15613a0e5760006005600060028481548110151561394f57fe5b90600052602060002001548152602001908152602001600020600701819055506005600060028381548110151561398257fe5b9060005260206000200154815260200190815260200160002060000160009054906101000a900473ffffffffffffffffffffffffffffffffffffffff1673ffffffffffffffffffffffffffffffffffffffff166108fc670de0b6b3a76400009081150290604051600060405180830381858888f19350505050158015613a0c573d6000803e3d6000fd5b505b808060010191505061381e565b50565b600080613a29614a05565b604051809103906000f080158015613a45573d6000803e3d6000fd5b5090506060600160028054905001604051908082528060200260200182016040528015613a815781602001602082028038833980820191505090505b50905060008090505b8151811015613ae25760008282815181101515613aa357fe5b906020019060200201901515908115158152505060008582815181101515613ac757fe5b90602001906020020181815250508080600101915050613a8a565b50600181600660008060009054906101000a900473ffffffffffffffffffffffffffffffffffffffff1673ffffffffffffffffffffffffffffffffffffffff1673ffffffffffffffffffffffffffffffffffffffff16815260200190815260200160002054815181101515613b5357fe5b90602001906020020190151590811515815250508173ffffffffffffffffffffffffffffffffffffffff16631ffc735d600660008060009054906101000a900473ffffffffffffffffffffffffffffffffffffffff1673ffffffffffffffffffffffffffffffffffffffff1673ffffffffffffffffffffffffffffffffffffffff168152602001908152602001600020546040518263ffffffff167c0100000000000000000000000000000000000000000000000000000000028152600401613c1c9190615140565b600060405180830381600087803b158015613c3657600080fd5b505af1158015613c4a573d6000803e3d6000fd5b505050505b600015158273ffffffffffffffffffffffffffffffffffffffff1663681fe70c6040518163ffffffff167c010000000000000000000000000000000000000000000000000000000002815260040160206040518083038186803b158015613cb557600080fd5b505afa158015613cc9573d6000803e3d6000fd5b505050506040513d601f19601f82011682018060405250613ced9190810190614d0f565b151514156144295760008273ffffffffffffffffffffffffffffffffffffffff1663957908d16040518163ffffffff167c0100000000000000000000000000000000000000000000000000000000028152600401602060405180830381600087803b158015613d5b57600080fd5b505af1158015613d6f573d6000803e3d6000fd5b505050506040513d601f19601f82011682018060405250613d939190810190614da2565b905060008090505b600a60006005600085815260200190815260200160002060000160009054906101000a900473ffffffffffffffffffffffffffffffffffffffff1673ffffffffffffffffffffffffffffffffffffffff1673ffffffffffffffffffffffffffffffffffffffff1681526020019081526020016000208054905081101561442257600015158360066000600a60006005600089815260200190815260200160002060000160009054906101000a900473ffffffffffffffffffffffffffffffffffffffff1673ffffffffffffffffffffffffffffffffffffffff1673ffffffffffffffffffffffffffffffffffffffff16815260200190815260200160002085815481101515613ea657fe5b9060005260206000200160009054906101000a900473ffffffffffffffffffffffffffffffffffffffff1673ffffffffffffffffffffffffffffffffffffffff1673ffffffffffffffffffffffffffffffffffffffff16815260200190815260200160002054815181101515613f1857fe5b90602001906020020151151514156144155760018360066000600a60006005600089815260200190815260200160002060000160009054906101000a900473ffffffffffffffffffffffffffffffffffffffff1673ffffffffffffffffffffffffffffffffffffffff1673ffffffffffffffffffffffffffffffffffffffff16815260200190815260200160002085815481101515613fb357fe5b9060005260206000200160009054906101000a900473ffffffffffffffffffffffffffffffffffffffff1673ffffffffffffffffffffffffffffffffffffffff1673ffffffffffffffffffffffffffffffffffffffff1681526020019081526020016000205481518110151561402557fe5b9060200190602002019015159081151581525050818660066000600a60006005600089815260200190815260200160002060000160009054906101000a900473ffffffffffffffffffffffffffffffffffffffff1673ffffffffffffffffffffffffffffffffffffffff1673ffffffffffffffffffffffffffffffffffffffff168152602001908152602001600020858154811015156140c157fe5b9060005260206000200160009054906101000a900473ffffffffffffffffffffffffffffffffffffffff1673ffffffffffffffffffffffffffffffffffffffff1673ffffffffffffffffffffffffffffffffffffffff1681526020019081526020016000205481518110151561413357fe5b90602001906020020181815250508373ffffffffffffffffffffffffffffffffffffffff16631ffc735d60066000600a60006005600089815260200190815260200160002060000160009054906101000a900473ffffffffffffffffffffffffffffffffffffffff1673ffffffffffffffffffffffffffffffffffffffff1673ffffffffffffffffffffffffffffffffffffffff168152602001908152602001600020858154811015156141e357fe5b9060005260206000200160009054906101000a900473ffffffffffffffffffffffffffffffffffffffff1673ffffffffffffffffffffffffffffffffffffffff1673ffffffffffffffffffffffffffffffffffffffff168152602001908152602001600020546040518263ffffffff167c01000000000000000000000000000000000000000000000000000000000281526004016142819190615140565b600060405180830381600087803b15801561429b57600080fd5b505af11580156142af573d6000803e3d6000fd5b5050505060066000600160009054906101000a900473ffffffffffffffffffffffffffffffffffffffff1673ffffffffffffffffffffffffffffffffffffffff1673ffffffffffffffffffffffffffffffffffffffff1681526020019081526020016000205460066000600a60006005600088815260200190815260200160002060000160009054906101000a900473ffffffffffffffffffffffffffffffffffffffff1673ffffffffffffffffffffffffffffffffffffffff1673ffffffffffffffffffffffffffffffffffffffff1681526020019081526020016000208481548110151561439b57fe5b9060005260206000200160009054906101000a900473ffffffffffffffffffffffffffffffffffffffff1673ffffffffffffffffffffffffffffffffffffffff1673ffffffffffffffffffffffffffffffffffffffff168152602001908152602001600020541415614414576001945050505050614430565b5b8080600101915050613d9b565b5050613c4f565b6000925050505b919050565b60606003805480602002602001604051908101604052809291908181526020016000905b82821015614598578382906000526020600020906004020160806040519081016040529081600082015481526020016001820160009054906101000a900473ffffffffffffffffffffffffffffffffffffffff1673ffffffffffffffffffffffffffffffffffffffff1673ffffffffffffffffffffffffffffffffffffffff168152602001600282018054600181600116156101000203166002900480601f0160208091040260200160405190810160405280929190818152602001828054600181600116156101000203166002900480156145765780601f1061454b57610100808354040283529160200191614576565b820191906000526020600020905b81548152906001019060200180831161455957829003601f168201915b5050505050815260200160038201548152505081526020019060010190614459565b50505050905090565b600080606060056000600660003373ffffffffffffffffffffffffffffffffffffffff1673ffffffffffffffffffffffffffffffffffffffff16815260200190815260200160002054815260200190815260200160002060020154600460003373ffffffffffffffffffffffffffffffffffffffff1673ffffffffffffffffffffffffffffffffffffffff16815260200190815260200160002054600a60003373ffffffffffffffffffffffffffffffffffffffff1673ffffffffffffffffffffffffffffffffffffffff168152602001908152602001600020808054806020026020016040519081016040528092919081815260200182805480156146fc57602002820191906000526020600020905b8160009054906101000a900473ffffffffffffffffffffffffffffffffffffffff1673ffffffffffffffffffffffffffffffffffffffff16815260200190600101908083116146b2575b50505050509050925092509250909192565b815481835581811115614735578183600052602060002091820191016147349190614a15565b5b505050565b50805460018160011615610100020316600290046000825580601f10614760575061477f565b601f01602090049060005260206000209081019061477e9190614a15565b5b50565b50805460008255906000526020600020908101906147a09190614a15565b50565b828054600181600116156101000203166002900490600052602060002090601f016020900481019282601f106147dc5780548555614819565b8280016001018555821561481957600052602060002091601f016020900482015b828111156148185782548255916001019190600101906147fd565b5b5090506148269190614a15565b5090565b815481835581811115614857576004028160040283600052602060002091820191016148569190614a3a565b5b505050565b828054600181600116156101000203166002900490600052602060002090601f016020900481019282601f1061489d57805160ff19168380011785556148cb565b828001600101855582156148cb579182015b828111156148ca5782518255916020019190600101906148af565b5b5090506148d89190614a15565b5090565b61014060405190810160405280600073ffffffffffffffffffffffffffffffffffffffff1681526020016060815260200160008152602001600081526020016000815260200160008152602001600081526020016000815260200160008152602001600081525090565b828054600181600116156101000203166002900490600052602060002090601f016020900481019282601f1061498757805160ff19168380011785556149b5565b828001600101855582156149b5579182015b828111156149b4578251825591602001919060010190614999565b5b5090506149c29190614a15565b5090565b60806040519081016040528060008152602001600073ffffffffffffffffffffffffffffffffffffffff16815260200160608152602001600081525090565b6040516101e18061538c83390190565b614a3791905b80821115614a33576000816000905550600101614a1b565b5090565b90565b614a9d91905b80821115614a99576000808201600090556001820160006101000a81549073ffffffffffffffffffffffffffffffffffffffff0219169055600282016000614a88919061473a565b600382016000905550600401614a40565b5090565b90565b6000614aac8235615306565b905092915050565b600082601f8301121515614ac757600080fd5b8135614ada614ad5826151c6565b615199565b91508181835260208401935060208101905083856020840282011115614aff57600080fd5b60005b83811015614b2f5781614b158882614bd2565b845260208401935060208301925050600181019050614b02565b5050505092915050565b600082601f8301121515614b4c57600080fd5b8135614b5f614b5a826151ee565b615199565b91508181835260208401935060208101905083856020840282011115614b8457600080fd5b60005b83811015614bb45781614b9a8882614c3c565b845260208401935060208301925050600181019050614b87565b5050505092915050565b6000614bca8251615318565b905092915050565b6000614bde8235615324565b905092915050565b600082601f8301121515614bf957600080fd5b8135614c0c614c0782615216565b615199565b91508082526020830160208301858383011115614c2857600080fd5b614c33838284615338565b50505092915050565b6000614c48823561532e565b905092915050565b6000614c5c825161532e565b905092915050565b600060208284031215614c7657600080fd5b6000614c8484828501614aa0565b91505092915050565b600060208284031215614c9f57600080fd5b600082013567ffffffffffffffff811115614cb957600080fd5b614cc584828501614ab4565b91505092915050565b600060208284031215614ce057600080fd5b600082013567ffffffffffffffff811115614cfa57600080fd5b614d0684828501614b39565b91505092915050565b600060208284031215614d2157600080fd5b6000614d2f84828501614bbe565b91505092915050565b600060208284031215614d4a57600080fd5b600082013567ffffffffffffffff811115614d6457600080fd5b614d7084828501614be6565b91505092915050565b600060208284031215614d8b57600080fd5b6000614d9984828501614c3c565b91505092915050565b600060208284031215614db457600080fd5b6000614dc284828501614c50565b91505092915050565b614dd4816152b4565b82525050565b614de3816152a2565b82525050565b6000614df48261525c565b808452602084019350614e0683615242565b60005b82811015614e3857614e1c868351614dda565b614e2582615288565b9150602086019550600181019050614e09565b50849250505092915050565b6000614e4f82615267565b80845260208401935083602082028501614e688561524f565b60005b84811015614ea1578383038852614e83838351615016565b9250614e8e82615295565b9150602088019750600181019050614e6b565b508196508694505050505092915050565b614ebb816152c6565b82525050565b614eca816152d2565b82525050565b6000614edb8261527d565b808452614eef816020860160208601615347565b614ef88161537a565b602085010191505092915050565b6000614f1182615272565b808452614f25816020860160208601615347565b614f2e8161537a565b602085010191505092915050565b600061014083016000830151614f556000860182614dcb565b5060208301518482036020860152614f6d8282614f06565b9150506040830151614f826040860182615079565b506060830151614f956060860182615079565b506080830151614fa86080860182614ec1565b5060a0830151614fbb60a0860182614ec1565b5060c0830151614fce60c0860182614ec1565b5060e0830151614fe160e0860182615079565b50610100830151614ff6610100860182615079565b5061012083015161500b610120860182615079565b508091505092915050565b600060808301600083015161502e6000860182615079565b5060208301516150416020860182614dcb565b50604083015184820360408601526150598282614f06565b915050606083015161506e6060860182615079565b508091505092915050565b615082816152fc565b82525050565b600060208201905061509d6000830184614dcb565b92915050565b600060208201905081810360008301526150bd8184614e44565b905092915050565b60006020820190506150da6000830184614eb2565b92915050565b600060208201905081810360008301526150fa8184614ed0565b905092915050565b6000606082019050818103600083015261511c8186614f3c565b905061512b6020830185615079565b6151386040830184615079565b949350505050565b60006020820190506151556000830184615079565b92915050565b60006060820190506151706000830186615079565b61517d6020830185615079565b818103604083015261518f8184614de9565b9050949350505050565b6000604051905081810181811067ffffffffffffffff821117156151bc57600080fd5b8060405250919050565b600067ffffffffffffffff8211156151dd57600080fd5b602082029050602081019050919050565b600067ffffffffffffffff82111561520557600080fd5b602082029050602081019050919050565b600067ffffffffffffffff82111561522d57600080fd5b601f19601f8301169050602081019050919050565b6000602082019050919050565b6000602082019050919050565b600081519050919050565b600081519050919050565b600081519050919050565b600081519050919050565b6000602082019050919050565b6000602082019050919050565b60006152ad826152dc565b9050919050565b60006152bf826152dc565b9050919050565b60008115159050919050565b6000819050919050565b600073ffffffffffffffffffffffffffffffffffffffff82169050919050565b6000819050919050565b6000615311826152dc565b9050919050565b60008115159050919050565b6000819050919050565b6000819050919050565b82818337600083830152505050565b60005b8381101561536557808201518184015260208101905061534a565b83811115615374576000848401525b50505050565b6000601f19601f830116905091905056fe608060405234801561001057600080fd5b506001808190555060006002819055506101b28061002f6000396000f3fe608060405260043610610057576000357c0100000000000000000000000000000000000000000000000000000000900463ffffffff1680631ffc735d1461005c578063681fe70c14610097578063957908d1146100c6575b600080fd5b34801561006857600080fd5b506100956004803603602081101561007f57600080fd5b81019080803590602001909291905050506100f1565b005b3480156100a357600080fd5b506100ac61011e565b604051808215151515815260200191505060405180910390f35b3480156100d257600080fd5b506100db61013d565b6040518082815260200191505060405180910390f35b60016002600082825401925050819055508060008060025481526020019081526020016000208190555050565b60006002546001541115610135576001905061013a565b600090505b90565b600080600080600154815260200190815260200160002054905060008060015481526020019081526020016000206000905560018060008282540192505081905550809150509056fea165627a7a72305820a6761f8073672ffa7c5d9824d4edc6f69d8b48744790a1ac5551dbd0bee3aa820029a265627a7a72305820ce9422f937dca4981d6287860b1e24e49603c47c3dca41b6d12b4b98e0ad8b346c6578706572696d656e74616cf500372d2d2d2d2d424547494e205055424c4943204b45592d2d2d2d2d0a4d4947664d413047435371475349623344514542415155414134474e4144434269514b42675144596e6f475239616b546c39666b635170394b44757a484847580a3458366a7557392b6c5a414c314f7954567075434478757853317043554d3377455274347a5567466964566d364a5269464f426d746d564d5a66742b412f632b0a2b706b65446f47673077554738526b637a3466426b7446364f514c67375933784f4c455578516b456d32664379575068324b38523435474f6b6f704e633447490a697854323349774f4a732b56414b7a786b774944415141420a2d2d2d2d2d454e44205055424c4943204b45592d2d2d2d2d2d2d2d2d2d424547494e205055424c4943204b45592d2d2d2d2d0a4d4947664d413047435371475349623344514542415155414134474e4144434269514b426751433837616a31317677562f6a693538634c69677048766353544a0a74654164616a4a3350776e5576484843546a6835526a683037735a4f62314d563276634f4236506d786c48716f63714945766d5431504271496f4c4e396a70420a432f7462545774444c61664e4569726474737a6555675032733876467a684b33463759714e47487a7a3748694f435637465956734465346a796a5631307645660a42357453587430704832374c4a6970755a774944415141420a2d2d2d2d2d454e44205055424c4943204b45592d2d2d2d2d2d2d2d2d2d424547494e205055424c4943204b45592d2d2d2d2d0a4d4947664d413047435371475349623344514542415155414134474e4144434269514b426751444d4a6c7367334669654a73624339784c47794643384d646b450a39563059633333576a755a71553663613779374b334155752b54734d59734b474168514a76634e75355078775a77666b7564592b77496d2f2f4e726f537433730a4768724d6b614e6f465441573155633851355937374b314c2f6b70394d306265305558584735516233515a2f64637a454444706e6d30694c48757354597a37520a6e774f694a5474663965477435436c5a34774944415141420a2d2d2d2d2d454e44205055424c4943204b45592d2d2d2d2d2d2d2d2d2d424547494e205055424c4943204b45592d2d2d2d2d0a4d4947664d413047435371475349623344514542415155414134474e4144434269514b4267514431556d6b467976503450523663654d435539786954427641350a524869375134572f5864726c526f71584834744267777458504f624c6370706a7447636773467436677537553832576b314f5a386952454f795931754e544b440a2b61543366584c74476257364b446966654d35453639444f5032566a66783631626943434e726a794d5a6a35714a7662696e4e76436f2f5133372b30644775550a704b5a393932665734467a4654424d4b76514944415141420a2d2d2d2d2d454e44205055424c4943204b45592d2d2d2d2d2d2d2d2d2d424547494e205055424c4943204b45592d2d2d2d2d0a4d4947664d413047435371475349623344514542415155414134474e4144434269514b426751434470514c2f682b396e59493630503246546355744134675a760a30724f6b6e5755336f7a4574304e79573859546a4b5a54436c59793876626447485359566271687863716369675651614446715a684a4a6556512f4a4b37624d0a4a4737762f417546456a477533554b6676496944645371413747516e51484e34615432313741304d7461523956546f7334797462356e31682b737249523864720a41315362713072544a434f4e457a4e3277774944415141420a2d2d2d2d2d454e44205055424c4943204b45592d2d2d2d2d2d2d2d2d2d424547494e205055424c4943204b45592d2d2d2d2d0a4d4947664d413047435371475349623344514542415155414134474e4144434269514b42675143515a676c6b74394f504a526147672b457a45454170747834350a4970303453384670575144506d576a7967344c78556f7959625557493259574a59656b62776f696a6c624a57457a5a4d2b5a64346275526e48503836323830560a434e56524e5a435552517750363259675076537250666930727a5556664350476f7a7543697033565757454577652f6a4d6e664259614e6f76794f45584b62560a6c6a6a706f4c6471665a2b4d7768534565774944415141420a2d2d2d2d2d454e44205055424c4943204b45592d2d2d2d2d2d2d2d2d2d424547494e205055424c4943204b45592d2d2d2d2d0a4d4947664d413047435371475349623344514542415155414134474e4144434269514b426751446764655747797869467048706f63687959464d4d79775350540a41677258335431625934537757625a73675357693541656f73586b76526e4247437848623755434a637459544576314f7138476b424a4b3663467837536a2f4f0a6474462b4d637342335166674f737370637345624a56596e7654576c666732706445574d5a433967324d307a334c756471536451594b5a6a67676e54627a66380a65774235624334584b49555a4d59412f77774944415141420a2d2d2d2d2d454e44205055424c4943204b45592d2d2d2d2d2d2d2d2d2d424547494e205055424c4943204b45592d2d2d2d2d0a4d4947664d413047435371475349623344514542415155414134474e4144434269514b426751436533623043785061505a35795558464d555a45794232506f6c0a4b47555367485365564130764b42634a6d4c38533878766e4a4637566b6942644574386a34745030474c72773030484534414c5563305a642b3776542b4d6e310a7766637474394d45774c654f67555571464b746a51785078494b696372327439304a2b787974584338696455583532574242534e6c58535a71776d73316265790a6354575155416775666e636d484a6b7578774944415141420a2d2d2d2d2d454e44205055424c4943204b45592d2d2d2d2d2d2d2d2d2d424547494e205055424c4943204b45592d2d2d2d2d0a4d4947664d413047435371475349623344514542415155414134474e4144434269514b4267514374745142324377586a314f2b424e4677456b5333415a6756560a494d564357506e464c53484966347238394d696c6b543562704c6f5a787478742f78716b74666d32593479326f73484267336f4c2b5a6f3136336a49392f72610a574a474f4f667248686947686b5476566170317a6a32556738342b424d56726a4659736b6f574c566d32416d5831412b542f517055756c6f69536a65663046620a6e6e416d6e41526270304a52486e356174514944415141420a2d2d2d2d2d454e44205055424c4943204b45592d2d2d2d2d",
  "source": "pragma solidity >=0.4.21 <0.6.0;\npragma experimental ABIEncoderV2;\nimport \"./DataSending.sol\";\nimport \"./UAV.sol\";\n\ncontract PathFind is DataSending{\n\n  function bfs(uint[] memory pred) public returns(bool)\n  {\n      Queue q=new Queue();\n      bool[] memory visited=new bool[](list.length+1);\n\n      for (uint i = 0; i < visited.length; i++) {\n          visited[i] = false;\n          pred[i] = 0;\n      }\n\n      visited[pubToMac[source]] = true;\n      q.enqueue(pubToMac[source]);\n      while (q.isEmpty()==false) {\n\n          uint u = q.dequeue();\n\n          for (uint i = 0; i < routeTable[registered[u].publicKey].length; i++) {\n\n              if (visited[pubToMac[routeTable[registered[u].publicKey][i]]] == false) {\n                  visited[pubToMac[routeTable[registered[u].publicKey][i]]] = true;\n                  pred[pubToMac[routeTable[registered[u].publicKey][i]]] = u;\n                  q.enqueue(pubToMac[routeTable[registered[u].publicKey][i]]);\n\n                  if (pubToMac[routeTable[registered[u].publicKey][i]] == pubToMac[destination])\n                      return true;\n              }\n          }\n      }\n      return false;\n  }\n\n  function pathFind() public payable\n  {\n    //   return bfs\n    require(msg.sender==source && transaction==true);\n      uint[] memory pred=new uint[](list.length+1);\n      if(bfs(pred)==false){\n          Route.length=0;\n          sendBackToken();\n          count=0;\n          source=0x0000000000000000000000000000000000000000;\n          destination=0x0000000000000000000000000000000000000000;\n          transaction=false;\n          return;\n      }\n      uint crawl = pubToMac[destination];\n      Route.push(route(crawl,destination,\"\",0));\n      while (pred[crawl] != 0) {\n          Route.push(route(pred[crawl],registered[pred[crawl]].publicKey,\"\",0));\n          crawl = pred[crawl];\n      }\n      uint start=0;\n      uint end=Route.length-1;\n      while (start < end)\n      {\n          route memory temp = Route[start];\n          Route[start] = Route[end];\n          Route[end] = temp;\n          start++;\n          end--;\n      }\n  }\n  function returnRoute() public view returns(route[] memory)\n    {return Route;}\n}\n \n",
  "sourcePath": "/home/stellet/Desktop/blockchain/Major-Blockchain/src/contracts/PathFind.sol",
  "compiler": {
    "name": "solc",
    "version": "0.5.0+commit.1d4f565a.Emscripten.clang"
  },
  "schemaVersion": "3.0.2",
  "updatedAt": "2020-05-24T01:20:41.812Z",
  "devdoc": {
    "methods": {}
  },
  "userdoc": {
    "methods": {}
  }
}