{
  "contractName": "PathFind",
  "abi": [
    {
      "constant": false,
      "inputs": [],
      "name": "success",
      "outputs": [
        {
          "name": "",
          "type": "bool"
        }
      ],
      "payable": true,
      "stateMutability": "payable",
      "type": "function",
      "signature": "0x0b93381b"
    },
    {
      "constant": true,
      "inputs": [],
      "name": "checkBlacklisted",
      "outputs": [
        {
          "name": "",
          "type": "uint256"
        }
      ],
      "payable": false,
      "stateMutability": "view",
      "type": "function",
      "signature": "0x2adc5d2f"
    },
    {
      "constant": false,
      "inputs": [
        {
          "name": "x",
          "type": "bytes"
        }
      ],
      "name": "send",
      "outputs": [],
      "payable": false,
      "stateMutability": "nonpayable",
      "type": "function",
      "signature": "0x2bb1ae7c"
    },
    {
      "constant": false,
      "inputs": [],
      "name": "abort",
      "outputs": [],
      "payable": false,
      "stateMutability": "nonpayable",
      "type": "function",
      "signature": "0x35a063b4"
    },
    {
      "constant": true,
      "inputs": [],
      "name": "getData",
      "outputs": [
        {
          "name": "",
          "type": "bytes"
        }
      ],
      "payable": false,
      "stateMutability": "view",
      "type": "function",
      "signature": "0x3bc5de30"
    },
    {
      "constant": false,
      "inputs": [],
      "name": "removeFromFaulty",
      "outputs": [],
      "payable": true,
      "stateMutability": "payable",
      "type": "function",
      "signature": "0x3dd8de3e"
    },
    {
      "constant": false,
      "inputs": [
        {
          "name": "dest",
          "type": "address"
        }
      ],
      "name": "doTrans",
      "outputs": [],
      "payable": false,
      "stateMutability": "nonpayable",
      "type": "function",
      "signature": "0x47426fad"
    },
    {
      "constant": false,
      "inputs": [],
      "name": "transCompleted",
      "outputs": [],
      "payable": true,
      "stateMutability": "payable",
      "type": "function",
      "signature": "0x57c6a843"
    },
    {
      "constant": false,
      "inputs": [
        {
          "name": "pubkey",
          "type": "string"
        }
      ],
      "name": "registration",
      "outputs": [],
      "payable": true,
      "stateMutability": "payable",
      "type": "function",
      "signature": "0x5e7c2f10"
    },
    {
      "constant": true,
      "inputs": [],
      "name": "getRegistered",
      "outputs": [
        {
          "components": [
            {
              "name": "publicKey",
              "type": "address"
            },
            {
              "name": "encrypt",
              "type": "string"
            },
            {
              "name": "faulty",
              "type": "uint256"
            },
            {
              "name": "penaltytoken",
              "type": "uint256"
            },
            {
              "name": "x",
              "type": "int256"
            },
            {
              "name": "y",
              "type": "int256"
            },
            {
              "name": "z",
              "type": "int256"
            },
            {
              "name": "participating",
              "type": "uint256"
            },
            {
              "name": "timestamp",
              "type": "uint256"
            },
            {
              "name": "bcs",
              "type": "uint256"
            }
          ],
          "name": "",
          "type": "tuple"
        },
        {
          "name": "",
          "type": "uint256"
        },
        {
          "name": "",
          "type": "uint256"
        }
      ],
      "payable": false,
      "stateMutability": "view",
      "type": "function",
      "signature": "0x7a6543e2"
    },
    {
      "constant": false,
      "inputs": [],
      "name": "updateGraph",
      "outputs": [],
      "payable": false,
      "stateMutability": "nonpayable",
      "type": "function",
      "signature": "0x8f99123d"
    },
    {
      "constant": false,
      "inputs": [
        {
          "name": "x",
          "type": "uint256"
        }
      ],
      "name": "unsuccessful",
      "outputs": [],
      "payable": true,
      "stateMutability": "payable",
      "type": "function",
      "signature": "0x96fbe5eb"
    },
    {
      "constant": true,
      "inputs": [],
      "name": "returnCulprit",
      "outputs": [
        {
          "name": "",
          "type": "address"
        }
      ],
      "payable": false,
      "stateMutability": "view",
      "type": "function",
      "signature": "0xaf707c0b"
    },
    {
      "constant": true,
      "inputs": [],
      "name": "transaction",
      "outputs": [
        {
          "name": "",
          "type": "bool"
        }
      ],
      "payable": false,
      "stateMutability": "view",
      "type": "function",
      "signature": "0xc99de57e"
    },
    {
      "constant": false,
      "inputs": [
        {
          "name": "coordinates",
          "type": "int256[]"
        }
      ],
      "name": "registerCoordinates",
      "outputs": [],
      "payable": true,
      "stateMutability": "payable",
      "type": "function",
      "signature": "0xf3b8b7d1"
    },
    {
      "constant": false,
      "inputs": [],
      "name": "sendBackToken",
      "outputs": [],
      "payable": true,
      "stateMutability": "payable",
      "type": "function",
      "signature": "0xf421a16b"
    },
    {
      "constant": true,
      "inputs": [],
      "name": "getTable",
      "outputs": [
        {
          "name": "",
          "type": "uint256"
        },
        {
          "name": "",
          "type": "uint256"
        },
        {
          "name": "",
          "type": "address[]"
        }
      ],
      "payable": false,
      "stateMutability": "view",
      "type": "function",
      "signature": "0xfb6391ab"
    },
    {
      "constant": false,
      "inputs": [
        {
          "name": "pred",
          "type": "uint256[]"
        }
      ],
      "name": "bfs",
      "outputs": [
        {
          "name": "",
          "type": "bool"
        }
      ],
      "payable": false,
      "stateMutability": "nonpayable",
      "type": "function",
      "signature": "0xf6e13efa"
    },
    {
      "constant": false,
      "inputs": [],
      "name": "pathFind",
      "outputs": [],
      "payable": true,
      "stateMutability": "payable",
      "type": "function",
      "signature": "0xb3db2e8c"
    },
    {
      "constant": true,
      "inputs": [],
      "name": "returnRoute",
      "outputs": [
        {
          "components": [
            {
              "name": "id",
              "type": "uint256"
            },
            {
              "name": "add",
              "type": "address"
            },
            {
              "name": "data",
              "type": "bytes"
            },
            {
              "name": "timestamp",
              "type": "uint256"
            }
          ],
          "name": "",
          "type": "tuple[]"
        }
      ],
      "payable": false,
      "stateMutability": "view",
      "type": "function",
      "signature": "0xf8565e04"
    }
  ],
  "bytecode": "0x608060405260006009556000600160146101000a81548160ff021916908315150217905550610140604051908101604052807370e3638080c5f2d79d9ecda07b915bcda59eff5073ffffffffffffffffffffffffffffffffffffffff1681526020016101406040519081016040528061010f815260200162006c1f61010f91398152602001600081526020016000815260200160008152602001600081526020016000815260200160018152602001600081526020016001815250600560006001815260200190815260200160002060008201518160000160006101000a81548173ffffffffffffffffffffffffffffffffffffffff021916908373ffffffffffffffffffffffffffffffffffffffff1602179055506020820151816001019080519060200190620001339291906200131a565b5060408201518160020155606082015181600301556080820151816004015560a0820151816005015560c0820151816006015560e0820151816007015561010082015181600801556101208201518160090155905050610140604051908101604052807389d4046f422b59bb5cab387d07d10126c7506f9573ffffffffffffffffffffffffffffffffffffffff1681526020016101406040519081016040528061010f81526020016200727961010f91398152602001600081526020016000815260200160048152602001600081526020016000815260200160018152602001600081526020016001815250600560006002815260200190815260200160002060008201518160000160006101000a81548173ffffffffffffffffffffffffffffffffffffffff021916908373ffffffffffffffffffffffffffffffffffffffff1602179055506020820151816001019080519060200190620002989291906200131a565b5060408201518160020155606082015181600301556080820151816004015560a0820151816005015560c0820151816006015560e08201518160070155610100820151816008015561012082015181600901559050506101406040519081016040528073921d10d6b1764f4ba35958a580086e1ec8d5cae473ffffffffffffffffffffffffffffffffffffffff1681526020016101406040519081016040528061010f81526020016200716a61010f91398152602001600081526020016000815260200160088152602001600081526020016000815260200160018152602001600081526020016001815250600560006003815260200190815260200160002060008201518160000160006101000a81548173ffffffffffffffffffffffffffffffffffffffff021916908373ffffffffffffffffffffffffffffffffffffffff1602179055506020820151816001019080519060200190620003fd9291906200131a565b5060408201518160020155606082015181600301556080820151816004015560a0820151816005015560c0820151816006015560e08201518160070155610100820151816008015561012082015181600901559050506101406040519081016040528073c335ef44ac81d4d32c4b9636104865a21d4cdd7773ffffffffffffffffffffffffffffffffffffffff1681526020016101406040519081016040528061010f81526020016200738861010f91398152602001600081526020016000815260200160008152602001600281526020016000815260200160008152602001600081526020016000815250600560006004815260200190815260200160002060008201518160000160006101000a81548173ffffffffffffffffffffffffffffffffffffffff021916908373ffffffffffffffffffffffffffffffffffffffff1602179055506020820151816001019080519060200190620005629291906200131a565b5060408201518160020155606082015181600301556080820151816004015560a0820151816005015560c0820151816006015560e082015181600701556101008201518160080155610120820151816009015590505061014060405190810160405280736dfbc4d1639e7707eacd3787066ea8836f9e0b1573ffffffffffffffffffffffffffffffffffffffff1681526020016101406040519081016040528061010f81526020016200705b61010f91398152602001600081526020016000815260200160008152602001600481526020016000815260200160008152602001600081526020016000815250600560006005815260200190815260200160002060008201518160000160006101000a81548173ffffffffffffffffffffffffffffffffffffffff021916908373ffffffffffffffffffffffffffffffffffffffff1602179055506020820151816001019080519060200190620006c79291906200131a565b5060408201518160020155606082015181600301556080820151816004015560a0820151816005015560c0820151816006015560e08201518160070155610100820151816008015561012082015181600901559050506101406040519081016040528073b4e174b126bc49f6b81341b54c08037d76d052e273ffffffffffffffffffffffffffffffffffffffff1681526020016101406040519081016040528061010f815260200162006d2e61010f91398152602001600081526020016000815260200160028152602001600481526020016000815260200160008152602001600081526020016000815250600560006006815260200190815260200160002060008201518160000160006101000a81548173ffffffffffffffffffffffffffffffffffffffff021916908373ffffffffffffffffffffffffffffffffffffffff16021790555060208201518160010190805190602001906200082c9291906200131a565b5060408201518160020155606082015181600301556080820151816004015560a0820151816005015560c0820151816006015560e08201518160070155610100820151816008015561012082015181600901559050506101406040519081016040528073464efed2e93050ed8e6f930dd69c651ec653dd5273ffffffffffffffffffffffffffffffffffffffff1681526020016101406040519081016040528061010f815260200162006e3d61010f91398152602001600081526020016000815260200160048152602001600481526020016000815260200160008152602001600081526020016000815250600560006007815260200190815260200160002060008201518160000160006101000a81548173ffffffffffffffffffffffffffffffffffffffff021916908373ffffffffffffffffffffffffffffffffffffffff1602179055506020820151816001019080519060200190620009919291906200131a565b5060408201518160020155606082015181600301556080820151816004015560a0820151816005015560c0820151816006015560e082015181600701556101008201518160080155610120820151816009015590505061014060405190810160405280730dc98391981033aa1d94518aae1c73406572e9ee73ffffffffffffffffffffffffffffffffffffffff1681526020016101406040519081016040528061010f815260200162006f4c61010f91398152602001600081526020016000815260200160048152602001600281526020016000815260200160008152602001600081526020016000815250600560006008815260200190815260200160002060008201518160000160006101000a81548173ffffffffffffffffffffffffffffffffffffffff021916908373ffffffffffffffffffffffffffffffffffffffff160217905550602082015181600101908051906020019062000af69291906200131a565b5060408201518160020155606082015181600301556080820151816004015560a0820151816005015560c0820151816006015560e08201518160070155610100820151816008015561012082015181600901559050506101406040519081016040528073728ec075e466b9c39036d580dfccd06204acd9c873ffffffffffffffffffffffffffffffffffffffff1681526020016101406040519081016040528061010f81526020016200749761010f91398152602001600081526020016000815260200160008152602001600081526020016000815260200160008152602001600081526020016000815250600560006009815260200190815260200160002060008201518160000160006101000a81548173ffffffffffffffffffffffffffffffffffffffff021916908373ffffffffffffffffffffffffffffffffffffffff160217905550602082015181600101908051906020019062000c5b9291906200131a565b5060408201518160020155606082015181600301556080820151816004015560a0820151816005015560c0820151816006015560e0820151816007015561010082015181600801556101208201518160090155905050600a6004600073c335ef44ac81d4d32c4b9636104865a21d4cdd7773ffffffffffffffffffffffffffffffffffffffff1673ffffffffffffffffffffffffffffffffffffffff16815260200190815260200160002081905550600160066000600560006001815260200190815260200160002060000160009054906101000a900473ffffffffffffffffffffffffffffffffffffffff1673ffffffffffffffffffffffffffffffffffffffff1673ffffffffffffffffffffffffffffffffffffffff16815260200190815260200160002081905550600260066000600560006002815260200190815260200160002060000160009054906101000a900473ffffffffffffffffffffffffffffffffffffffff1673ffffffffffffffffffffffffffffffffffffffff1673ffffffffffffffffffffffffffffffffffffffff16815260200190815260200160002081905550600360066000600560006003815260200190815260200160002060000160009054906101000a900473ffffffffffffffffffffffffffffffffffffffff1673ffffffffffffffffffffffffffffffffffffffff1673ffffffffffffffffffffffffffffffffffffffff16815260200190815260200160002081905550600460066000600560006004815260200190815260200160002060000160009054906101000a900473ffffffffffffffffffffffffffffffffffffffff1673ffffffffffffffffffffffffffffffffffffffff1673ffffffffffffffffffffffffffffffffffffffff16815260200190815260200160002081905550600560066000600560006005815260200190815260200160002060000160009054906101000a900473ffffffffffffffffffffffffffffffffffffffff1673ffffffffffffffffffffffffffffffffffffffff1673ffffffffffffffffffffffffffffffffffffffff168152602001908152602001600020819055506006806000600560006006815260200190815260200160002060000160009054906101000a900473ffffffffffffffffffffffffffffffffffffffff1673ffffffffffffffffffffffffffffffffffffffff1673ffffffffffffffffffffffffffffffffffffffff16815260200190815260200160002081905550600760066000600560006007815260200190815260200160002060000160009054906101000a900473ffffffffffffffffffffffffffffffffffffffff1673ffffffffffffffffffffffffffffffffffffffff1673ffffffffffffffffffffffffffffffffffffffff16815260200190815260200160002081905550600860066000600560006008815260200190815260200160002060000160009054906101000a900473ffffffffffffffffffffffffffffffffffffffff1673ffffffffffffffffffffffffffffffffffffffff1673ffffffffffffffffffffffffffffffffffffffff16815260200190815260200160002081905550600960066000600560006009815260200190815260200160002060000160009054906101000a900473ffffffffffffffffffffffffffffffffffffffff1673ffffffffffffffffffffffffffffffffffffffff1673ffffffffffffffffffffffffffffffffffffffff1681526020019081526020016000208190555060026001908060018154018082558091505090600182039060005260206000200160009091929091909150555060028090806001815401808255809150509060018203906000526020600020016000909192909190915055506002600390806001815401808255809150509060018203906000526020600020016000909192909190915055506002600490806001815401808255809150509060018203906000526020600020016000909192909190915055506002600590806001815401808255809150509060018203906000526020600020016000909192909190915055506002600690806001815401808255809150509060018203906000526020600020016000909192909190915055506002600790806001815401808255809150509060018203906000526020600020016000909192909190915055506002600890806001815401808255809150509060018203906000526020600020016000909192909190915055506002600990806001815401808255809150509060018203906000526020600020016000909192909190915055506000600860006101000a81548160ff021916908315150217905550620013c9565b828054600181600116156101000203166002900490600052602060002090601f016020900481019282601f106200135d57805160ff19168380011785556200138e565b828001600101855582156200138e579182015b828111156200138d57825182559160200191906001019062001370565b5b5090506200139d9190620013a1565b5090565b620013c691905b80821115620013c2576000816000905550600101620013a8565b5090565b90565b61584680620013d96000396000f3fe608060405260043610610112576000357c0100000000000000000000000000000000000000000000000000000000900463ffffffff1680630b93381b146101175780632adc5d2f146101355780632bb1ae7c1461016057806335a063b4146101895780633bc5de30146101a05780633dd8de3e146101cb57806347426fad146101d557806357c6a843146101fe5780635e7c2f10146102085780637a6543e2146102245780638f99123d1461025157806396fbe5eb14610268578063af707c0b14610284578063b3db2e8c146102af578063c99de57e146102b9578063f3b8b7d1146102e4578063f421a16b14610300578063f6e13efa1461030a578063f8565e0414610347578063fb6391ab14610372575b600080fd5b61011f61039f565b60405161012c919061532e565b60405180910390f35b34801561014157600080fd5b5061014a61049d565b60405161015791906153a9565b60405180910390f35b34801561016c57600080fd5b5061018760048036036101829190810190614f2a565b6104e4565b005b34801561019557600080fd5b5061019e610646565b005b3480156101ac57600080fd5b506101b5610d2e565b6040516101c29190615349565b60405180910390f35b6101d3610e95565b005b3480156101e157600080fd5b506101fc60048036036101f79190810190614e56565b611352565b005b610206611451565b005b610222600480360361021d9190810190614f6b565b61166c565b005b34801561023057600080fd5b50610239611b18565b6040516102489392919061536b565b60405180910390f35b34801561025d57600080fd5b50610266611d58565b005b610282600480360361027d9190810190614fac565b612413565b005b34801561029057600080fd5b50610299612ce6565b6040516102a691906152f1565b60405180910390f35b6102b7612d10565b005b3480156102c557600080fd5b506102ce61349f565b6040516102db919061532e565b60405180910390f35b6102fe60048036036102f99190810190614e7f565b6134b2565b005b610308613865565b005b34801561031657600080fd5b50610331600480360361032c9190810190614ec0565b613a6b565b60405161033e919061532e565b60405180910390f35b34801561035357600080fd5b5061035c614482565b604051610369919061530c565b60405180910390f35b34801561037e57600080fd5b506103876145ee565b604051610396939291906153c4565b60405180910390f35b6000600160009054906101000a900473ffffffffffffffffffffffffffffffffffffffff1673ffffffffffffffffffffffffffffffffffffffff163373ffffffffffffffffffffffffffffffffffffffff1614156104905742600360095481548110151561040957fe5b9060005260206000209060040201600301819055506001600860006101000a81548160ff02191690831515021790555060006009819055506000600160006101000a81548173ffffffffffffffffffffffffffffffffffffffff021916908373ffffffffffffffffffffffffffffffffffffffff16021790555061048b613865565b610499565b6000905061049a565b5b90565b6000600460003373ffffffffffffffffffffffffffffffffffffffff1673ffffffffffffffffffffffffffffffffffffffff16815260200190815260200160002054905090565b6005600060036009548154811015156104f957fe5b906000526020600020906004020160000154815260200190815260200160002060000160009054906101000a900473ffffffffffffffffffffffffffffffffffffffff1673ffffffffffffffffffffffffffffffffffffffff163373ffffffffffffffffffffffffffffffffffffffff1614151561057657600080fd5b600060095414156105b95780600360095481548110151561059357fe5b906000526020600020906004020160020190805190602001906105b792919061475b565b505b4260036009548154811015156105cb57fe5b9060005260206000209060040201600301819055506001600380549050036001600954011115156106315780600360016009540181548110151561060b57fe5b9060005260206000209060040201600201908051906020019061062f92919061475b565b505b60096000815480929190600101919050555050565b600080905060606002805490506040519080825280602002602001820160405280156106815781602001602082028038833980820191505090505b50905060008090505b60028054905081101561095657600060066000600560006002868154811015156106b057fe5b9060005260206000200154815260200190815260200160002060000160009054906101000a900473ffffffffffffffffffffffffffffffffffffffff1673ffffffffffffffffffffffffffffffffffffffff1673ffffffffffffffffffffffffffffffffffffffff168152602001908152602001600020819055506000600a60006005600060028681548110151561074457fe5b9060005260206000200154815260200190815260200160002060000160009054906101000a900473ffffffffffffffffffffffffffffffffffffffff1673ffffffffffffffffffffffffffffffffffffffff1673ffffffffffffffffffffffffffffffffffffffff168152602001908152602001600020816107c691906147db565b50600a60046000600560006002868154811015156107e057fe5b9060005260206000200154815260200190815260200160002060000160009054906101000a900473ffffffffffffffffffffffffffffffffffffffff1673ffffffffffffffffffffffffffffffffffffffff1673ffffffffffffffffffffffffffffffffffffffff168152602001908152602001600020541115156108a25760028181548110151561086e57fe5b9060005260206000200154828481518110151561088757fe5b90602001906020020181815250508280600101935050610949565b600560006002838154811015156108b557fe5b90600052602060002001548152602001908152602001600020600080820160006101000a81549073ffffffffffffffffffffffffffffffffffffffff02191690556001820160006109069190614807565b6002820160009055600382016000905560048201600090556005820160009055600682016000905560078201600090556008820160009055600982016000905550505b808060010191505061068a565b5060026000610965919061484f565b60008090505b82811015610c54576002828281518110151561098357fe5b906020019060200201519080600181540180825580915050906001820390600052602060002001600090919290919091505550600560006002838154811015156109c957fe5b90600052602060002001548152602001908152602001600020600560006001840181526020019081526020016000206000820160009054906101000a900473ffffffffffffffffffffffffffffffffffffffff168160000160006101000a81548173ffffffffffffffffffffffffffffffffffffffff021916908373ffffffffffffffffffffffffffffffffffffffff16021790555060018201816001019080546001816001161561010002031660029004610a86929190614870565b506002820154816002015560038201548160030155600482015481600401556005820154816005015560068201548160060155600782015481600701556008820154816008015560098201548160090155905050600281815481101515610ae957fe5b906000526020600020015460018201141515610ba65760056000600283815481101515610b1257fe5b90600052602060002001548152602001908152602001600020600080820160006101000a81549073ffffffffffffffffffffffffffffffffffffffff0219169055600182016000610b639190614807565b6002820160009055600382016000905560048201600090556005820160009055600682016000905560078201600090556008820160009055600982016000905550505b60018101600660006005600060018601815260200190815260200160002060000160009054906101000a900473ffffffffffffffffffffffffffffffffffffffff1673ffffffffffffffffffffffffffffffffffffffff1673ffffffffffffffffffffffffffffffffffffffff1681526020019081526020016000208190555060018101600282815481101515610c3957fe5b9060005260206000200181905550808060010191505061096b565b50606090506000600381610c6891906148f7565b506000600160146101000a81548160ff0219169083151502179055506000600860006101000a81548160ff021916908315150217905550600060098190555060008060006101000a81548173ffffffffffffffffffffffffffffffffffffffff021916908373ffffffffffffffffffffffffffffffffffffffff1602179055506000600160006101000a81548173ffffffffffffffffffffffffffffffffffffffff021916908373ffffffffffffffffffffffffffffffffffffffff1602179055505050565b6060600560006003600954815481101515610d4557fe5b906000526020600020906004020160000154815260200190815260200160002060000160009054906101000a900473ffffffffffffffffffffffffffffffffffffffff1673ffffffffffffffffffffffffffffffffffffffff163373ffffffffffffffffffffffffffffffffffffffff161415610e7e576003600954815481101515610dcd57fe5b90600052602060002090600402016002018054600181600116156101000203166002900480601f016020809104026020016040519081016040528092919081815260200182805460018160011615610100020316600290048015610e725780601f10610e4757610100808354040283529160200191610e72565b820191906000526020600020905b815481529060010190602001808311610e5557829003601f168201915b50505050509050610e92565b602060405190810160405280600081525090505b90565b6000600660003373ffffffffffffffffffffffffffffffffffffffff1673ffffffffffffffffffffffffffffffffffffffff1681526020019081526020016000205414158015610f3b5750600060056000600660003373ffffffffffffffffffffffffffffffffffffffff1673ffffffffffffffffffffffffffffffffffffffff1681526020019081526020016000205481526020019081526020016000206002015414155b1561134f573460056000600660003373ffffffffffffffffffffffffffffffffffffffff1673ffffffffffffffffffffffffffffffffffffffff16815260200190815260200160002054815260200190815260200160002060030154148015611050575060056000600660003373ffffffffffffffffffffffffffffffffffffffff1673ffffffffffffffffffffffffffffffffffffffff1681526020019081526020016000205481526020019081526020016000206002015460056000600660003373ffffffffffffffffffffffffffffffffffffffff1673ffffffffffffffffffffffffffffffffffffffff16815260200190815260200160002054815260200190815260200160002060080154420311155b1561116b57600060056000600660003373ffffffffffffffffffffffffffffffffffffffff1673ffffffffffffffffffffffffffffffffffffffff16815260200190815260200160002054815260200190815260200160002060030181905550600060056000600660003373ffffffffffffffffffffffffffffffffffffffff1673ffffffffffffffffffffffffffffffffffffffff16815260200190815260200160002054815260200190815260200160002060020181905550600060056000600660003373ffffffffffffffffffffffffffffffffffffffff1673ffffffffffffffffffffffffffffffffffffffff1681526020019081526020016000205481526020019081526020016000206008018190555061134a565b60056000600660003373ffffffffffffffffffffffffffffffffffffffff1673ffffffffffffffffffffffffffffffffffffffff1681526020019081526020016000205481526020019081526020016000206002015460056000600660003373ffffffffffffffffffffffffffffffffffffffff1673ffffffffffffffffffffffffffffffffffffffff168152602001908152602001600020548152602001908152602001600020600801544203111561134957671bc16d674ec8000060056000600660003373ffffffffffffffffffffffffffffffffffffffff1673ffffffffffffffffffffffffffffffffffffffff16815260200190815260200160002054815260200190815260200160002060030160008282540192505081905550600a60056000600660003373ffffffffffffffffffffffffffffffffffffffff1673ffffffffffffffffffffffffffffffffffffffff168152602001908152602001600020548152602001908152602001600020600201600082825401925050819055504260056000600660003373ffffffffffffffffffffffffffffffffffffffff1673ffffffffffffffffffffffffffffffffffffffff168152602001908152602001600020548152602001908152602001600020600801819055505b5b611350565b5b565b60001515600160149054906101000a900460ff1615151480156113a157508073ffffffffffffffffffffffffffffffffffffffff163373ffffffffffffffffffffffffffffffffffffffff1614155b15156113ac57600080fd5b60018060146101000a81548160ff021916908315150217905550336000806101000a81548173ffffffffffffffffffffffffffffffffffffffff021916908373ffffffffffffffffffffffffffffffffffffffff16021790555080600160006101000a81548173ffffffffffffffffffffffffffffffffffffffff021916908373ffffffffffffffffffffffffffffffffffffffff1602179055504260078190555050565b6000809054906101000a900473ffffffffffffffffffffffffffffffffffffffff1673ffffffffffffffffffffffffffffffffffffffff163373ffffffffffffffffffffffffffffffffffffffff161480156114c0575060011515600160149054906101000a900460ff161515145b80156114df575060011515600860009054906101000a900460ff161515145b15156114ea57600080fd5b600060098190555060008090506000600260038054905003141515611520576002600380549050033481151561151c57fe5b0490505b6000600190505b6001600380549050038110156115e1576005600060038381548110151561154a57fe5b906000526020600020906004020160000154815260200190815260200160002060000160009054906101000a900473ffffffffffffffffffffffffffffffffffffffff1673ffffffffffffffffffffffffffffffffffffffff166108fc839081150290604051600060405180830381858888f193505050501580156115d3573d6000803e3d6000fd5b508080600101915050611527565b5060006003816115f191906148f7565b506000600160146101000a81548160ff0219169083151502179055506000600860006101000a81548160ff02191690831515021790555060008060006101000a81548173ffffffffffffffffffffffffffffffffffffffff021916908373ffffffffffffffffffffffffffffffffffffffff16021790555050565b6000600660003373ffffffffffffffffffffffffffffffffffffffff1673ffffffffffffffffffffffffffffffffffffffff168152602001908152602001600020541480156116fa57506000600460003373ffffffffffffffffffffffffffffffffffffffff1673ffffffffffffffffffffffffffffffffffffffff16815260200190815260200160002054145b801561170d5750674563918244f4000034145b15611b0f5760026001600280549050019080600181540180825580915050906001820390600052602060002001600090919290919091505550600280549050600660003373ffffffffffffffffffffffffffffffffffffffff1673ffffffffffffffffffffffffffffffffffffffff168152602001908152602001600020819055503360056000600660003373ffffffffffffffffffffffffffffffffffffffff1673ffffffffffffffffffffffffffffffffffffffff16815260200190815260200160002054815260200190815260200160002060000160006101000a81548173ffffffffffffffffffffffffffffffffffffffff021916908373ffffffffffffffffffffffffffffffffffffffff1602179055508060056000600660003373ffffffffffffffffffffffffffffffffffffffff1673ffffffffffffffffffffffffffffffffffffffff168152602001908152602001600020548152602001908152602001600020600101908051906020019061188c929190614929565b50600060056000600660003373ffffffffffffffffffffffffffffffffffffffff1673ffffffffffffffffffffffffffffffffffffffff16815260200190815260200160002054815260200190815260200160002060020181905550600060056000600660003373ffffffffffffffffffffffffffffffffffffffff1673ffffffffffffffffffffffffffffffffffffffff16815260200190815260200160002054815260200190815260200160002060030181905550600060056000600660003373ffffffffffffffffffffffffffffffffffffffff1673ffffffffffffffffffffffffffffffffffffffff16815260200190815260200160002054815260200190815260200160002060070181905550600060056000600660003373ffffffffffffffffffffffffffffffffffffffff1673ffffffffffffffffffffffffffffffffffffffff16815260200190815260200160002054815260200190815260200160002060090181905550600060056000600660003373ffffffffffffffffffffffffffffffffffffffff1673ffffffffffffffffffffffffffffffffffffffff16815260200190815260200160002054815260200190815260200160002060040181905550600060056000600660003373ffffffffffffffffffffffffffffffffffffffff1673ffffffffffffffffffffffffffffffffffffffff16815260200190815260200160002054815260200190815260200160002060050181905550600060056000600660003373ffffffffffffffffffffffffffffffffffffffff1673ffffffffffffffffffffffffffffffffffffffff16815260200190815260200160002054815260200190815260200160002060060181905550611b14565b611b15565b5b50565b611b206149a9565b60008060056000600660003373ffffffffffffffffffffffffffffffffffffffff1673ffffffffffffffffffffffffffffffffffffffff168152602001908152602001600020548152602001908152602001600020600460003373ffffffffffffffffffffffffffffffffffffffff1673ffffffffffffffffffffffffffffffffffffffff16815260200190815260200160002054600660003373ffffffffffffffffffffffffffffffffffffffff1673ffffffffffffffffffffffffffffffffffffffff168152602001908152602001600020548261014060405190810160405290816000820160009054906101000a900473ffffffffffffffffffffffffffffffffffffffff1673ffffffffffffffffffffffffffffffffffffffff1673ffffffffffffffffffffffffffffffffffffffff168152602001600182018054600181600116156101000203166002900480601f016020809104026020016040519081016040528092919081815260200182805460018160011615610100020316600290048015611cf25780601f10611cc757610100808354040283529160200191611cf2565b820191906000526020600020905b815481529060010190602001808311611cd557829003601f168201915b50505050508152602001600282015481526020016003820154815260200160048201548152602001600582015481526020016006820154815260200160078201548152602001600882015481526020016009820154815250509250925092509250909192565b6000809054906101000a900473ffffffffffffffffffffffffffffffffffffffff1673ffffffffffffffffffffffffffffffffffffffff163373ffffffffffffffffffffffffffffffffffffffff161480611e155750600560006001815260200190815260200160002060000160009054906101000a900473ffffffffffffffffffffffffffffffffffffffff1673ffffffffffffffffffffffffffffffffffffffff163373ffffffffffffffffffffffffffffffffffffffff16145b80611e825750600560006002815260200190815260200160002060000160009054906101000a900473ffffffffffffffffffffffffffffffffffffffff1673ffffffffffffffffffffffffffffffffffffffff163373ffffffffffffffffffffffffffffffffffffffff16145b80611eef5750600560006003815260200190815260200160002060000160009054906101000a900473ffffffffffffffffffffffffffffffffffffffff1673ffffffffffffffffffffffffffffffffffffffff163373ffffffffffffffffffffffffffffffffffffffff16145b8015611f0e575060011515600160149054906101000a900460ff161515145b1515611f1957600080fd5b60008090505b600280549050811015612410576000600a600060056000600286815481101515611f4557fe5b9060005260206000200154815260200190815260200160002060000160009054906101000a900473ffffffffffffffffffffffffffffffffffffffff1673ffffffffffffffffffffffffffffffffffffffff1673ffffffffffffffffffffffffffffffffffffffff16815260200190815260200160002081611fc791906147db565b50600160056000600284815481101515611fdd57fe5b906000526020600020015481526020019081526020016000206007015414156124035760008090505b60028054905081101561240157808214158015612052575060016005600060028481548110151561203357fe5b9060005260206000200154815260200190815260200160002060070154145b156123f45760006005600060028481548110151561206c57fe5b90600052602060002001548152602001908152602001600020600601546005600060028681548110151561209c57fe5b906000526020600020015481526020019081526020016000206006015403600560006002858154811015156120cd57fe5b9060005260206000200154815260200190815260200160002060060154600560006002878154811015156120fd57fe5b906000526020600020015481526020019081526020016000206006015403026005600060028581548110151561212f57fe5b90600052602060002001548152602001908152602001600020600501546005600060028781548110151561215f57fe5b9060005260206000200154815260200190815260200160002060050154036005600060028681548110151561219057fe5b9060005260206000200154815260200190815260200160002060050154600560006002888154811015156121c057fe5b90600052602060002001548152602001908152602001600020600501540302600560006002868154811015156121f257fe5b90600052602060002001548152602001908152602001600020600401546005600060028881548110151561222257fe5b9060005260206000200154815260200190815260200160002060040154036005600060028781548110151561225357fe5b90600052602060002001548152602001908152602001600020600401546005600060028981548110151561228357fe5b90600052602060002001548152602001908152602001600020600401540302010190506009811315156123f257600a6000600560006002878154811015156122c757fe5b9060005260206000200154815260200190815260200160002060000160009054906101000a900473ffffffffffffffffffffffffffffffffffffffff1673ffffffffffffffffffffffffffffffffffffffff1673ffffffffffffffffffffffffffffffffffffffff1681526020019081526020016000206005600060028581548110151561235157fe5b9060005260206000200154815260200190815260200160002060000160009054906101000a900473ffffffffffffffffffffffffffffffffffffffff1690806001815401808255809150509060018203906000526020600020016000909192909190916101000a81548173ffffffffffffffffffffffffffffffffffffffff021916908373ffffffffffffffffffffffffffffffffffffffff160217905550505b505b8080600101915050612006565b505b8080600101915050611f1f565b50565b600160009054906101000a900473ffffffffffffffffffffffffffffffffffffffff1673ffffffffffffffffffffffffffffffffffffffff163373ffffffffffffffffffffffffffffffffffffffff1614151561246f57600080fd5b6000600160146101000a81548160ff0219169083151502179055506000600860006101000a81548160ff02191690831515021790555060008114156128235760006005600060036009548154811015156124c557fe5b9060005260206000209060040201600001548152602001908152602001600020600701819055506004600060056000600360095481548110151561250557fe5b906000526020600020906004020160000154815260200190815260200160002060000160009054906101000a900473ffffffffffffffffffffffffffffffffffffffff1673ffffffffffffffffffffffffffffffffffffffff1673ffffffffffffffffffffffffffffffffffffffff16815260200190815260200160002060008154809291906001019190505550600a600460006005600060036009548154811015156125ae57fe5b906000526020600020906004020160000154815260200190815260200160002060000160009054906101000a900473ffffffffffffffffffffffffffffffffffffffff1673ffffffffffffffffffffffffffffffffffffffff1673ffffffffffffffffffffffffffffffffffffffff168152602001908152602001600020540260056000600360095481548110151561264357fe5b906000526020600020906004020160000154815260200190815260200160002060020181905550671bc16d674ec800006004600060056000600360095481548110151561268c57fe5b906000526020600020906004020160000154815260200190815260200160002060000160009054906101000a900473ffffffffffffffffffffffffffffffffffffffff1673ffffffffffffffffffffffffffffffffffffffff1673ffffffffffffffffffffffffffffffffffffffff168152602001908152602001600020540260056000600360095481548110151561272157fe5b9060005260206000209060040201600001548152602001908152602001600020600301819055504260056000600360095481548110151561275e57fe5b90600052602060002090600402016000015481526020019081526020016000206008018190555060056000600360095481548110151561279a57fe5b906000526020600020906004020160000154815260200190815260200160002060000160009054906101000a900473ffffffffffffffffffffffffffffffffffffffff16600860016101000a81548173ffffffffffffffffffffffffffffffffffffffff021916908373ffffffffffffffffffffffffffffffffffffffff160217905550612cdb565b6000600190505b600380549050811015612cd9576003600081548110151561284757fe5b906000526020600020906004020160020160405180828054600181600116156101000203166002900480156128b35780601f106128915761010080835404028352918201916128b3565b820191906000526020600020905b81548152906001019060200180831161289f575b505091505060405180910390206003828154811015156128cf57fe5b9060005260206000209060040201600201604051808280546001816001161561010002031660029004801561293b5780601f1061291957610100808354040283529182019161293b565b820191906000526020600020905b815481529060010190602001808311612927575b50509150506040518091039020141515612ccc5760006005600060036001850381548110151561296757fe5b90600052602060002090600402016000015481526020019081526020016000206007018190555060046000600560006003600186038154811015156129a857fe5b906000526020600020906004020160000154815260200190815260200160002060000160009054906101000a900473ffffffffffffffffffffffffffffffffffffffff1673ffffffffffffffffffffffffffffffffffffffff1673ffffffffffffffffffffffffffffffffffffffff16815260200190815260200160002060008154809291906001019190505550600a6004600060056000600360018703815481101515612a5257fe5b906000526020600020906004020160000154815260200190815260200160002060000160009054906101000a900473ffffffffffffffffffffffffffffffffffffffff1673ffffffffffffffffffffffffffffffffffffffff1673ffffffffffffffffffffffffffffffffffffffff168152602001908152602001600020540260056000600360018503815481101515612ae857fe5b906000526020600020906004020160000154815260200190815260200160002060020181905550671bc16d674ec800006004600060056000600360018703815481101515612b3257fe5b906000526020600020906004020160000154815260200190815260200160002060000160009054906101000a900473ffffffffffffffffffffffffffffffffffffffff1673ffffffffffffffffffffffffffffffffffffffff1673ffffffffffffffffffffffffffffffffffffffff168152602001908152602001600020540260056000600360018503815481101515612bc857fe5b9060005260206000209060040201600001548152602001908152602001600020600301819055504260056000600360018503815481101515612c0657fe5b90600052602060002090600402016000015481526020019081526020016000206008018190555060056000600360018403815481101515612c4357fe5b906000526020600020906004020160000154815260200190815260200160002060000160009054906101000a900473ffffffffffffffffffffffffffffffffffffffff16600860016101000a81548173ffffffffffffffffffffffffffffffffffffffff021916908373ffffffffffffffffffffffffffffffffffffffff160217905550612cd9565b808060010191505061282a565b505b612ce3613865565b50565b6000600860019054906101000a900473ffffffffffffffffffffffffffffffffffffffff16905090565b6000809054906101000a900473ffffffffffffffffffffffffffffffffffffffff1673ffffffffffffffffffffffffffffffffffffffff163373ffffffffffffffffffffffffffffffffffffffff16148015612d7f575060011515600160149054906101000a900460ff161515145b1515612d8a57600080fd5b6060600160028054905001604051908082528060200260200182016040528015612dc35781602001602082028038833980820191505090505b50905060001515612dd382613a6b565b15151415612e9f576000600381612dea91906148f7565b50612df3613865565b600060098190555060008060006101000a81548173ffffffffffffffffffffffffffffffffffffffff021916908373ffffffffffffffffffffffffffffffffffffffff1602179055506000600160006101000a81548173ffffffffffffffffffffffffffffffffffffffff021916908373ffffffffffffffffffffffffffffffffffffffff1602179055506000600160146101000a81548160ff0219169083151502179055505061349d565b600060066000600160009054906101000a900473ffffffffffffffffffffffffffffffffffffffff1673ffffffffffffffffffffffffffffffffffffffff1673ffffffffffffffffffffffffffffffffffffffff1681526020019081526020016000205490506003608060405190810160405280838152602001600160009054906101000a900473ffffffffffffffffffffffffffffffffffffffff1673ffffffffffffffffffffffffffffffffffffffff168152602001602060405190810160405280600081525081526020016000815250908060018154018082558091505090600182039060005260206000209060040201600090919290919091506000820151816000015560208201518160010160006101000a81548173ffffffffffffffffffffffffffffffffffffffff021916908373ffffffffffffffffffffffffffffffffffffffff160217905550604082015181600201908051906020019061300a929190614a13565b50606082015181600301555050505b6000828281518110151561302957fe5b906020019060200201511415156131ae576003608060405190810160405280848481518110151561305657fe5b90602001906020020151815260200160056000868681518110151561307757fe5b90602001906020020151815260200190815260200160002060000160009054906101000a900473ffffffffffffffffffffffffffffffffffffffff1673ffffffffffffffffffffffffffffffffffffffff168152602001602060405190810160405280600081525081526020016000815250908060018154018082558091505090600182039060005260206000209060040201600090919290919091506000820151816000015560208201518160010160006101000a81548173ffffffffffffffffffffffffffffffffffffffff021916908373ffffffffffffffffffffffffffffffffffffffff1602179055506040820151816002019080519060200190613181929190614a13565b5060608201518160030155505050818181518110151561319d57fe5b906020019060200201519050613019565b6000809050600060016003805490500390505b80821015613498576131d1614a93565b6003838154811015156131e057fe5b906000526020600020906004020160806040519081016040529081600082015481526020016001820160009054906101000a900473ffffffffffffffffffffffffffffffffffffffff1673ffffffffffffffffffffffffffffffffffffffff1673ffffffffffffffffffffffffffffffffffffffff168152602001600282018054600181600116156101000203166002900480601f0160208091040260200160405190810160405280929190818152602001828054600181600116156101000203166002900480156132f35780601f106132c8576101008083540402835291602001916132f3565b820191906000526020600020905b8154815290600101906020018083116132d657829003601f168201915b50505050508152602001600382015481525050905060038281548110151561331757fe5b906000526020600020906004020160038481548110151561333457fe5b9060005260206000209060040201600082015481600001556001820160009054906101000a900473ffffffffffffffffffffffffffffffffffffffff168160010160006101000a81548173ffffffffffffffffffffffffffffffffffffffff021916908373ffffffffffffffffffffffffffffffffffffffff160217905550600282018160020190805460018160011615610100020316600290046133da929190614ad2565b5060038201548160030155905050806003838154811015156133f857fe5b90600052602060002090600402016000820151816000015560208201518160010160006101000a81548173ffffffffffffffffffffffffffffffffffffffff021916908373ffffffffffffffffffffffffffffffffffffffff1602179055506040820151816002019080519060200190613473929190614a13565b50606082015181600301559050508280600101935050818060019003925050506131c1565b505050505b565b600160149054906101000a900460ff1681565b60011515600160149054906101000a900460ff1615151480156135155750600a600460003373ffffffffffffffffffffffffffffffffffffffff1673ffffffffffffffffffffffffffffffffffffffff1681526020019081526020016000205411155b80156135765750600060056000600660003373ffffffffffffffffffffffffffffffffffffffff1673ffffffffffffffffffffffffffffffffffffffff16815260200190815260200160002054815260200190815260200160002060020154145b151561358157600080fd5b6000600660003373ffffffffffffffffffffffffffffffffffffffff1673ffffffffffffffffffffffffffffffffffffffff1681526020019081526020016000205414151561370657600060056000600660003373ffffffffffffffffffffffffffffffffffffffff1673ffffffffffffffffffffffffffffffffffffffff168152602001908152602001600020548152602001908152602001600020600901541480156136845750600060056000600660003373ffffffffffffffffffffffffffffffffffffffff1673ffffffffffffffffffffffffffffffffffffffff16815260200190815260200160002054815260200190815260200160002060070154145b80156136975750670de0b6b3a764000034145b156136fc57600160056000600660003373ffffffffffffffffffffffffffffffffffffffff1673ffffffffffffffffffffffffffffffffffffffff16815260200190815260200160002054815260200190815260200160002060070181905550613701565b613862565b61370b565b613862565b80600081518110151561371a57fe5b9060200190602002015160056000600660003373ffffffffffffffffffffffffffffffffffffffff1673ffffffffffffffffffffffffffffffffffffffff1681526020019081526020016000205481526020019081526020016000206004018190555080600181518110151561378c57fe5b9060200190602002015160056000600660003373ffffffffffffffffffffffffffffffffffffffff1673ffffffffffffffffffffffffffffffffffffffff168152602001908152602001600020548152602001908152602001600020600501819055508060028151811015156137fe57fe5b9060200190602002015160056000600660003373ffffffffffffffffffffffffffffffffffffffff1673ffffffffffffffffffffffffffffffffffffffff168152602001908152602001600020548152602001908152602001600020600601819055505b50565b60008090505b600280549050811015613a68576000600a60006005600060028681548110151561389157fe5b9060005260206000200154815260200190815260200160002060000160009054906101000a900473ffffffffffffffffffffffffffffffffffffffff1673ffffffffffffffffffffffffffffffffffffffff1673ffffffffffffffffffffffffffffffffffffffff1681526020019081526020016000208161391391906147db565b5060016005600060028481548110151561392957fe5b9060005260206000200154815260200190815260200160002060070154148015613982575060006005600060028481548110151561396357fe5b9060005260206000200154815260200190815260200160002060090154145b15613a5b5760006005600060028481548110151561399c57fe5b9060005260206000200154815260200190815260200160002060070181905550600560006002838154811015156139cf57fe5b9060005260206000200154815260200190815260200160002060000160009054906101000a900473ffffffffffffffffffffffffffffffffffffffff1673ffffffffffffffffffffffffffffffffffffffff166108fc670de0b6b3a76400009081150290604051600060405180830381858888f19350505050158015613a59573d6000803e3d6000fd5b505b808060010191505061386b565b50565b600080613a76614b59565b604051809103906000f080158015613a92573d6000803e3d6000fd5b5090506060600160028054905001604051908082528060200260200182016040528015613ace5781602001602082028038833980820191505090505b50905060008090505b8151811015613b2f5760008282815181101515613af057fe5b906020019060200201901515908115158152505060008582815181101515613b1457fe5b90602001906020020181815250508080600101915050613ad7565b50600181600660008060009054906101000a900473ffffffffffffffffffffffffffffffffffffffff1673ffffffffffffffffffffffffffffffffffffffff1673ffffffffffffffffffffffffffffffffffffffff16815260200190815260200160002054815181101515613ba057fe5b90602001906020020190151590811515815250508173ffffffffffffffffffffffffffffffffffffffff16631ffc735d600660008060009054906101000a900473ffffffffffffffffffffffffffffffffffffffff1673ffffffffffffffffffffffffffffffffffffffff1673ffffffffffffffffffffffffffffffffffffffff168152602001908152602001600020546040518263ffffffff167c0100000000000000000000000000000000000000000000000000000000028152600401613c6991906153a9565b600060405180830381600087803b158015613c8357600080fd5b505af1158015613c97573d6000803e3d6000fd5b505050505b600015158273ffffffffffffffffffffffffffffffffffffffff1663681fe70c6040518163ffffffff167c010000000000000000000000000000000000000000000000000000000002815260040160206040518083038186803b158015613d0257600080fd5b505afa158015613d16573d6000803e3d6000fd5b505050506040513d601f19601f82011682018060405250613d3a9190810190614f01565b151514156144765760008273ffffffffffffffffffffffffffffffffffffffff1663957908d16040518163ffffffff167c0100000000000000000000000000000000000000000000000000000000028152600401602060405180830381600087803b158015613da857600080fd5b505af1158015613dbc573d6000803e3d6000fd5b505050506040513d601f19601f82011682018060405250613de09190810190614fd5565b905060008090505b600a60006005600085815260200190815260200160002060000160009054906101000a900473ffffffffffffffffffffffffffffffffffffffff1673ffffffffffffffffffffffffffffffffffffffff1673ffffffffffffffffffffffffffffffffffffffff1681526020019081526020016000208054905081101561446f57600015158360066000600a60006005600089815260200190815260200160002060000160009054906101000a900473ffffffffffffffffffffffffffffffffffffffff1673ffffffffffffffffffffffffffffffffffffffff1673ffffffffffffffffffffffffffffffffffffffff16815260200190815260200160002085815481101515613ef357fe5b9060005260206000200160009054906101000a900473ffffffffffffffffffffffffffffffffffffffff1673ffffffffffffffffffffffffffffffffffffffff1673ffffffffffffffffffffffffffffffffffffffff16815260200190815260200160002054815181101515613f6557fe5b90602001906020020151151514156144625760018360066000600a60006005600089815260200190815260200160002060000160009054906101000a900473ffffffffffffffffffffffffffffffffffffffff1673ffffffffffffffffffffffffffffffffffffffff1673ffffffffffffffffffffffffffffffffffffffff1681526020019081526020016000208581548110151561400057fe5b9060005260206000200160009054906101000a900473ffffffffffffffffffffffffffffffffffffffff1673ffffffffffffffffffffffffffffffffffffffff1673ffffffffffffffffffffffffffffffffffffffff1681526020019081526020016000205481518110151561407257fe5b9060200190602002019015159081151581525050818660066000600a60006005600089815260200190815260200160002060000160009054906101000a900473ffffffffffffffffffffffffffffffffffffffff1673ffffffffffffffffffffffffffffffffffffffff1673ffffffffffffffffffffffffffffffffffffffff1681526020019081526020016000208581548110151561410e57fe5b9060005260206000200160009054906101000a900473ffffffffffffffffffffffffffffffffffffffff1673ffffffffffffffffffffffffffffffffffffffff1673ffffffffffffffffffffffffffffffffffffffff1681526020019081526020016000205481518110151561418057fe5b90602001906020020181815250508373ffffffffffffffffffffffffffffffffffffffff16631ffc735d60066000600a60006005600089815260200190815260200160002060000160009054906101000a900473ffffffffffffffffffffffffffffffffffffffff1673ffffffffffffffffffffffffffffffffffffffff1673ffffffffffffffffffffffffffffffffffffffff1681526020019081526020016000208581548110151561423057fe5b9060005260206000200160009054906101000a900473ffffffffffffffffffffffffffffffffffffffff1673ffffffffffffffffffffffffffffffffffffffff1673ffffffffffffffffffffffffffffffffffffffff168152602001908152602001600020546040518263ffffffff167c01000000000000000000000000000000000000000000000000000000000281526004016142ce91906153a9565b600060405180830381600087803b1580156142e857600080fd5b505af11580156142fc573d6000803e3d6000fd5b5050505060066000600160009054906101000a900473ffffffffffffffffffffffffffffffffffffffff1673ffffffffffffffffffffffffffffffffffffffff1673ffffffffffffffffffffffffffffffffffffffff1681526020019081526020016000205460066000600a60006005600088815260200190815260200160002060000160009054906101000a900473ffffffffffffffffffffffffffffffffffffffff1673ffffffffffffffffffffffffffffffffffffffff1673ffffffffffffffffffffffffffffffffffffffff168152602001908152602001600020848154811015156143e857fe5b9060005260206000200160009054906101000a900473ffffffffffffffffffffffffffffffffffffffff1673ffffffffffffffffffffffffffffffffffffffff1673ffffffffffffffffffffffffffffffffffffffff16815260200190815260200160002054141561446157600194505050505061447d565b5b8080600101915050613de8565b5050613c9c565b6000925050505b919050565b60606003805480602002602001604051908101604052809291908181526020016000905b828210156145e5578382906000526020600020906004020160806040519081016040529081600082015481526020016001820160009054906101000a900473ffffffffffffffffffffffffffffffffffffffff1673ffffffffffffffffffffffffffffffffffffffff1673ffffffffffffffffffffffffffffffffffffffff168152602001600282018054600181600116156101000203166002900480601f0160208091040260200160405190810160405280929190818152602001828054600181600116156101000203166002900480156145c35780601f10614598576101008083540402835291602001916145c3565b820191906000526020600020905b8154815290600101906020018083116145a657829003601f168201915b50505050508152602001600382015481525050815260200190600101906144a6565b50505050905090565b600080606060056000600660003373ffffffffffffffffffffffffffffffffffffffff1673ffffffffffffffffffffffffffffffffffffffff16815260200190815260200160002054815260200190815260200160002060020154600460003373ffffffffffffffffffffffffffffffffffffffff1673ffffffffffffffffffffffffffffffffffffffff16815260200190815260200160002054600a60003373ffffffffffffffffffffffffffffffffffffffff1673ffffffffffffffffffffffffffffffffffffffff1681526020019081526020016000208080548060200260200160405190810160405280929190818152602001828054801561474957602002820191906000526020600020905b8160009054906101000a900473ffffffffffffffffffffffffffffffffffffffff1673ffffffffffffffffffffffffffffffffffffffff16815260200190600101908083116146ff575b50505050509050925092509250909192565b828054600181600116156101000203166002900490600052602060002090601f016020900481019282601f1061479c57805160ff19168380011785556147ca565b828001600101855582156147ca579182015b828111156147c95782518255916020019190600101906147ae565b5b5090506147d79190614b69565b5090565b815481835581811115614802578183600052602060002091820191016148019190614b69565b5b505050565b50805460018160011615610100020316600290046000825580601f1061482d575061484c565b601f01602090049060005260206000209081019061484b9190614b69565b5b50565b508054600082559060005260206000209081019061486d9190614b69565b50565b828054600181600116156101000203166002900490600052602060002090601f016020900481019282601f106148a957805485556148e6565b828001600101855582156148e657600052602060002091601f016020900482015b828111156148e55782548255916001019190600101906148ca565b5b5090506148f39190614b69565b5090565b815481835581811115614924576004028160040283600052602060002091820191016149239190614b8e565b5b505050565b828054600181600116156101000203166002900490600052602060002090601f016020900481019282601f1061496a57805160ff1916838001178555614998565b82800160010185558215614998579182015b8281111561499757825182559160200191906001019061497c565b5b5090506149a59190614b69565b5090565b61014060405190810160405280600073ffffffffffffffffffffffffffffffffffffffff1681526020016060815260200160008152602001600081526020016000815260200160008152602001600081526020016000815260200160008152602001600081525090565b828054600181600116156101000203166002900490600052602060002090601f016020900481019282601f10614a5457805160ff1916838001178555614a82565b82800160010185558215614a82579182015b82811115614a81578251825591602001919060010190614a66565b5b509050614a8f9190614b69565b5090565b60806040519081016040528060008152602001600073ffffffffffffffffffffffffffffffffffffffff16815260200160608152602001600081525090565b828054600181600116156101000203166002900490600052602060002090601f016020900481019282601f10614b0b5780548555614b48565b82800160010185558215614b4857600052602060002091601f016020900482015b82811115614b47578254825591600101919060010190614b2c565b5b509050614b559190614b69565b5090565b6040516101e18061562c83390190565b614b8b91905b80821115614b87576000816000905550600101614b6f565b5090565b90565b614bf191905b80821115614bed576000808201600090556001820160006101000a81549073ffffffffffffffffffffffffffffffffffffffff0219169055600282016000614bdc9190614bf4565b600382016000905550600401614b94565b5090565b90565b50805460018160011615610100020316600290046000825580601f10614c1a5750614c39565b601f016020900490600052602060002090810190614c389190614b69565b5b50565b6000614c4882356155a6565b905092915050565b600082601f8301121515614c6357600080fd5b8135614c76614c718261542f565b615402565b91508181835260208401935060208101905083856020840282011115614c9b57600080fd5b60005b83811015614ccb5781614cb18882614dc4565b845260208401935060208301925050600181019050614c9e565b5050505092915050565b600082601f8301121515614ce857600080fd5b8135614cfb614cf682615457565b615402565b91508181835260208401935060208101905083856020840282011115614d2057600080fd5b60005b83811015614d505781614d368882614e2e565b845260208401935060208301925050600181019050614d23565b5050505092915050565b6000614d6682516155b8565b905092915050565b600082601f8301121515614d8157600080fd5b8135614d94614d8f8261547f565b615402565b91508082526020830160208301858383011115614db057600080fd5b614dbb8382846155d8565b50505092915050565b6000614dd082356155c4565b905092915050565b600082601f8301121515614deb57600080fd5b8135614dfe614df9826154ab565b615402565b91508082526020830160208301858383011115614e1a57600080fd5b614e258382846155d8565b50505092915050565b6000614e3a82356155ce565b905092915050565b6000614e4e82516155ce565b905092915050565b600060208284031215614e6857600080fd5b6000614e7684828501614c3c565b91505092915050565b600060208284031215614e9157600080fd5b600082013567ffffffffffffffff811115614eab57600080fd5b614eb784828501614c50565b91505092915050565b600060208284031215614ed257600080fd5b600082013567ffffffffffffffff811115614eec57600080fd5b614ef884828501614cd5565b91505092915050565b600060208284031215614f1357600080fd5b6000614f2184828501614d5a565b91505092915050565b600060208284031215614f3c57600080fd5b600082013567ffffffffffffffff811115614f5657600080fd5b614f6284828501614d6e565b91505092915050565b600060208284031215614f7d57600080fd5b600082013567ffffffffffffffff811115614f9757600080fd5b614fa384828501614dd8565b91505092915050565b600060208284031215614fbe57600080fd5b6000614fcc84828501614e2e565b91505092915050565b600060208284031215614fe757600080fd5b6000614ff584828501614e42565b91505092915050565b61500781615554565b82525050565b61501681615542565b82525050565b6000615027826154f1565b808452602084019350615039836154d7565b60005b8281101561506b5761504f86835161500d565b61505882615528565b915060208601955060018101905061503c565b50849250505092915050565b6000615082826154fc565b8084526020840193508360208202850161509b856154e4565b60005b848110156150d45783830388526150b683835161527f565b92506150c182615535565b915060208801975060018101905061509e565b508196508694505050505092915050565b6150ee81615566565b82525050565b60006150ff82615512565b8084526151138160208601602086016155e7565b61511c8161561a565b602085010191505092915050565b600061513582615507565b8084526151498160208601602086016155e7565b6151528161561a565b602085010191505092915050565b61516981615572565b82525050565b600061517a8261551d565b80845261518e8160208601602086016155e7565b6151978161561a565b602085010191505092915050565b6000610140830160008301516151be6000860182614ffe565b50602083015184820360208601526151d6828261516f565b91505060408301516151eb60408601826152e2565b5060608301516151fe60608601826152e2565b5060808301516152116080860182615160565b5060a083015161522460a0860182615160565b5060c083015161523760c0860182615160565b5060e083015161524a60e08601826152e2565b5061010083015161525f6101008601826152e2565b506101208301516152746101208601826152e2565b508091505092915050565b600060808301600083015161529760008601826152e2565b5060208301516152aa6020860182614ffe565b50604083015184820360408601526152c2828261512a565b91505060608301516152d760608601826152e2565b508091505092915050565b6152eb8161559c565b82525050565b60006020820190506153066000830184614ffe565b92915050565b600060208201905081810360008301526153268184615077565b905092915050565b600060208201905061534360008301846150e5565b92915050565b6000602082019050818103600083015261536381846150f4565b905092915050565b6000606082019050818103600083015261538581866151a5565b905061539460208301856152e2565b6153a160408301846152e2565b949350505050565b60006020820190506153be60008301846152e2565b92915050565b60006060820190506153d960008301866152e2565b6153e660208301856152e2565b81810360408301526153f8818461501c565b9050949350505050565b6000604051905081810181811067ffffffffffffffff8211171561542557600080fd5b8060405250919050565b600067ffffffffffffffff82111561544657600080fd5b602082029050602081019050919050565b600067ffffffffffffffff82111561546e57600080fd5b602082029050602081019050919050565b600067ffffffffffffffff82111561549657600080fd5b601f19601f8301169050602081019050919050565b600067ffffffffffffffff8211156154c257600080fd5b601f19601f8301169050602081019050919050565b6000602082019050919050565b6000602082019050919050565b600081519050919050565b600081519050919050565b600081519050919050565b600081519050919050565b600081519050919050565b6000602082019050919050565b6000602082019050919050565b600061554d8261557c565b9050919050565b600061555f8261557c565b9050919050565b60008115159050919050565b6000819050919050565b600073ffffffffffffffffffffffffffffffffffffffff82169050919050565b6000819050919050565b60006155b18261557c565b9050919050565b60008115159050919050565b6000819050919050565b6000819050919050565b82818337600083830152505050565b60005b838110156156055780820151818401526020810190506155ea565b83811115615614576000848401525b50505050565b6000601f19601f830116905091905056fe608060405234801561001057600080fd5b506001808190555060006002819055506101b28061002f6000396000f3fe608060405260043610610057576000357c0100000000000000000000000000000000000000000000000000000000900463ffffffff1680631ffc735d1461005c578063681fe70c14610097578063957908d1146100c6575b600080fd5b34801561006857600080fd5b506100956004803603602081101561007f57600080fd5b81019080803590602001909291905050506100f1565b005b3480156100a357600080fd5b506100ac61011e565b604051808215151515815260200191505060405180910390f35b3480156100d257600080fd5b506100db61013d565b6040518082815260200191505060405180910390f35b60016002600082825401925050819055508060008060025481526020019081526020016000208190555050565b60006002546001541115610135576001905061013a565b600090505b90565b600080600080600154815260200190815260200160002054905060008060015481526020019081526020016000206000905560018060008282540192505081905550809150509056fea165627a7a72305820ad56a5c2be3113d8213e4f43eecf1e4a8be391ff586069a33dfea4b08ff110cf0029a265627a7a723058200e41c73f6f6572a1c9f0b4c7214ca4e590deda9bb037a4c0fd07788dd555c6046c6578706572696d656e74616cf500372d2d2d2d2d424547494e205055424c4943204b45592d2d2d2d2d0a4d4947664d413047435371475349623344514542415155414134474e4144434269514b42675144596e6f475239616b546c39666b635170394b44757a484847580a3458366a7557392b6c5a414c314f7954567075434478757853317043554d3377455274347a5567466964566d364a5269464f426d746d564d5a66742b412f632b0a2b706b65446f47673077554738526b637a3466426b7446364f514c67375933784f4c455578516b456d32664379575068324b38523435474f6b6f704e633447490a697854323349774f4a732b56414b7a786b774944415141420a2d2d2d2d2d454e44205055424c4943204b45592d2d2d2d2d2d2d2d2d2d424547494e205055424c4943204b45592d2d2d2d2d0a4d4947664d413047435371475349623344514542415155414134474e4144434269514b426751433837616a31317677562f6a693538634c69677048766353544a0a74654164616a4a3350776e5576484843546a6835526a683037735a4f62314d563276634f4236506d786c48716f63714945766d5431504271496f4c4e396a70420a432f7462545774444c61664e4569726474737a6555675032733876467a684b33463759714e47487a7a3748694f435637465956734465346a796a5631307645660a42357453587430704832374c4a6970755a774944415141420a2d2d2d2d2d454e44205055424c4943204b45592d2d2d2d2d2d2d2d2d2d424547494e205055424c4943204b45592d2d2d2d2d0a4d4947664d413047435371475349623344514542415155414134474e4144434269514b426751444d4a6c7367334669654a73624339784c47794643384d646b450a39563059633333576a755a71553663613779374b334155752b54734d59734b474168514a76634e75355078775a77666b7564592b77496d2f2f4e726f537433730a4768724d6b614e6f465441573155633851355937374b314c2f6b70394d306265305558584735516233515a2f64637a454444706e6d30694c48757354597a37520a6e774f694a5474663965477435436c5a34774944415141420a2d2d2d2d2d454e44205055424c4943204b45592d2d2d2d2d2d2d2d2d2d424547494e205055424c4943204b45592d2d2d2d2d0a4d4947664d413047435371475349623344514542415155414134474e4144434269514b4267514431556d6b467976503450523663654d435539786954427641350a524869375134572f5864726c526f71584834744267777458504f624c6370706a7447636773467436677537553832576b314f5a386952454f795931754e544b440a2b61543366584c74476257364b446966654d35453639444f5032566a66783631626943434e726a794d5a6a35714a7662696e4e76436f2f5133372b30644775550a704b5a393932665734467a4654424d4b76514944415141420a2d2d2d2d2d454e44205055424c4943204b45592d2d2d2d2d2d2d2d2d2d424547494e205055424c4943204b45592d2d2d2d2d0a4d4947664d413047435371475349623344514542415155414134474e4144434269514b426751434470514c2f682b396e59493630503246546355744134675a760a30724f6b6e5755336f7a4574304e79573859546a4b5a54436c59793876626447485359566271687863716369675651614446715a684a4a6556512f4a4b37624d0a4a4737762f417546456a477533554b6676496944645371413747516e51484e34615432313741304d7461523956546f7334797462356e31682b737249523864720a41315362713072544a434f4e457a4e3277774944415141420a2d2d2d2d2d454e44205055424c4943204b45592d2d2d2d2d2d2d2d2d2d424547494e205055424c4943204b45592d2d2d2d2d0a4d4947664d413047435371475349623344514542415155414134474e4144434269514b42675143515a676c6b74394f504a526147672b457a45454170747834350a4970303453384670575144506d576a7967344c78556f7959625557493259574a59656b62776f696a6c624a57457a5a4d2b5a64346275526e48503836323830560a434e56524e5a435552517750363259675076537250666930727a5556664350476f7a7543697033565757454577652f6a4d6e664259614e6f76794f45584b62560a6c6a6a706f4c6471665a2b4d7768534565774944415141420a2d2d2d2d2d454e44205055424c4943204b45592d2d2d2d2d2d2d2d2d2d424547494e205055424c4943204b45592d2d2d2d2d0a4d4947664d413047435371475349623344514542415155414134474e4144434269514b426751446764655747797869467048706f63687959464d4d79775350540a41677258335431625934537757625a73675357693541656f73586b76526e4247437848623755434a637459544576314f7138476b424a4b3663467837536a2f4f0a6474462b4d637342335166674f737370637345624a56596e7654576c666732706445574d5a433967324d307a334c756471536451594b5a6a67676e54627a66380a65774235624334584b49555a4d59412f77774944415141420a2d2d2d2d2d454e44205055424c4943204b45592d2d2d2d2d2d2d2d2d2d424547494e205055424c4943204b45592d2d2d2d2d0a4d4947664d413047435371475349623344514542415155414134474e4144434269514b426751436533623043785061505a35795558464d555a45794232506f6c0a4b47555367485365564130764b42634a6d4c38533878766e4a4637566b6942644574386a34745030474c72773030484534414c5563305a642b3776542b4d6e310a7766637474394d45774c654f67555571464b746a51785078494b696372327439304a2b787974584338696455583532574242534e6c58535a71776d73316265790a6354575155416775666e636d484a6b7578774944415141420a2d2d2d2d2d454e44205055424c4943204b45592d2d2d2d2d2d2d2d2d2d424547494e205055424c4943204b45592d2d2d2d2d0a4d4947664d413047435371475349623344514542415155414134474e4144434269514b4267514374745142324377586a314f2b424e4677456b5333415a6756560a494d564357506e464c53484966347238394d696c6b543562704c6f5a787478742f78716b74666d32593479326f73484267336f4c2b5a6f3136336a49392f72610a574a474f4f667248686947686b5476566170317a6a32556738342b424d56726a4659736b6f574c566d32416d5831412b542f517055756c6f69536a65663046620a6e6e416d6e41526270304a52486e356174514944415141420a2d2d2d2d2d454e44205055424c4943204b45592d2d2d2d2d",
  "source": "pragma solidity >=0.4.21 <0.6.0;\npragma experimental ABIEncoderV2;\nimport \"./DataSending.sol\";\nimport \"./UAV.sol\";\n\ncontract PathFind is DataSending{\n\n  function bfs(uint[] memory pred) public returns(bool)\n  {\n      Queue q=new Queue();\n      bool[] memory visited=new bool[](list.length+1);\n\n      for (uint i = 0; i < visited.length; i++) {\n          visited[i] = false;\n          pred[i] = 0;\n      }\n\n      visited[pubToMac[source]] = true;\n      q.enqueue(pubToMac[source]);\n      while (q.isEmpty()==false) {\n\n          uint u = q.dequeue();\n\n          for (uint i = 0; i < routeTable[registered[u].publicKey].length; i++) {\n\n              if (visited[pubToMac[routeTable[registered[u].publicKey][i]]] == false) {\n                  visited[pubToMac[routeTable[registered[u].publicKey][i]]] = true;\n                  pred[pubToMac[routeTable[registered[u].publicKey][i]]] = u;\n                  q.enqueue(pubToMac[routeTable[registered[u].publicKey][i]]);\n\n                  if (pubToMac[routeTable[registered[u].publicKey][i]] == pubToMac[destination])\n                      return true;\n              }\n          }\n      }\n      return false;\n  }\n\n  function pathFind() public payable\n  {\n    //   return bfs\n    require(msg.sender==source && transaction==true);\n      uint[] memory pred=new uint[](list.length+1);\n      if(bfs(pred)==false){\n          Route.length=0;\n          sendBackToken();\n          count=0;\n          source=0x0000000000000000000000000000000000000000;\n          destination=0x0000000000000000000000000000000000000000;\n          transaction=false;\n          return;\n      }\n      uint crawl = pubToMac[destination];\n      Route.push(route(crawl,destination,\"\",0));\n      while (pred[crawl] != 0) {\n          Route.push(route(pred[crawl],registered[pred[crawl]].publicKey,\"\",0));\n          crawl = pred[crawl];\n      }\n      uint start=0;\n      uint end=Route.length-1;\n      while (start < end)\n      {\n          route memory temp = Route[start];\n          Route[start] = Route[end];\n          Route[end] = temp;\n          start++;\n          end--;\n      }\n  }\n  function returnRoute() public view returns(route[] memory)\n    {return Route;}\n}\n \n",
  "sourcePath": "/home/stellet/Desktop/Major Project-1/Major-Blockchain/src/contracts/PathFind.sol",
  "compiler": {
    "name": "solc",
    "version": "0.5.0+commit.1d4f565a.Emscripten.clang"
  },
  "schemaVersion": "3.0.2",
  "updatedAt": "2020-05-30T23:22:04.552Z",
  "devdoc": {
    "methods": {}
  },
  "userdoc": {
    "methods": {}
  }
}