{
  "contractName": "PathFind",
  "abi": [
    {
      "constant": false,
      "inputs": [],
      "name": "success",
      "outputs": [
        {
          "name": "",
          "type": "bool"
        }
      ],
      "payable": true,
      "stateMutability": "payable",
      "type": "function",
      "signature": "0x0b93381b"
    },
    {
      "constant": true,
      "inputs": [],
      "name": "checkBlacklisted",
      "outputs": [
        {
          "name": "",
          "type": "uint256"
        }
      ],
      "payable": false,
      "stateMutability": "view",
      "type": "function",
      "signature": "0x2adc5d2f"
    },
    {
      "constant": false,
      "inputs": [],
      "name": "abort",
      "outputs": [],
      "payable": false,
      "stateMutability": "nonpayable",
      "type": "function",
      "signature": "0x35a063b4"
    },
    {
      "constant": true,
      "inputs": [],
      "name": "getData",
      "outputs": [
        {
          "name": "",
          "type": "string"
        }
      ],
      "payable": false,
      "stateMutability": "view",
      "type": "function",
      "signature": "0x3bc5de30"
    },
    {
      "constant": false,
      "inputs": [],
      "name": "removeFromFaulty",
      "outputs": [],
      "payable": true,
      "stateMutability": "payable",
      "type": "function",
      "signature": "0x3dd8de3e"
    },
    {
      "constant": false,
      "inputs": [
        {
          "name": "dest",
          "type": "address"
        }
      ],
      "name": "doTrans",
      "outputs": [],
      "payable": false,
      "stateMutability": "nonpayable",
      "type": "function",
      "signature": "0x47426fad"
    },
    {
      "constant": false,
      "inputs": [],
      "name": "transCompleted",
      "outputs": [],
      "payable": true,
      "stateMutability": "payable",
      "type": "function",
      "signature": "0x57c6a843"
    },
    {
      "constant": false,
      "inputs": [
        {
          "name": "pubkey",
          "type": "string"
        }
      ],
      "name": "registration",
      "outputs": [],
      "payable": true,
      "stateMutability": "payable",
      "type": "function",
      "signature": "0x5e7c2f10"
    },
    {
      "constant": false,
      "inputs": [
        {
          "name": "x",
          "type": "string"
        }
      ],
      "name": "send",
      "outputs": [],
      "payable": false,
      "stateMutability": "nonpayable",
      "type": "function",
      "signature": "0x66792ba1"
    },
    {
      "constant": true,
      "inputs": [],
      "name": "getRegistered",
      "outputs": [
        {
          "components": [
            {
              "name": "publicKey",
              "type": "address"
            },
            {
              "name": "encrypt",
              "type": "string"
            },
            {
              "name": "faulty",
              "type": "uint256"
            },
            {
              "name": "penaltytoken",
              "type": "uint256"
            },
            {
              "name": "x",
              "type": "int256"
            },
            {
              "name": "y",
              "type": "int256"
            },
            {
              "name": "z",
              "type": "int256"
            },
            {
              "name": "participating",
              "type": "uint256"
            },
            {
              "name": "timestamp",
              "type": "uint256"
            },
            {
              "name": "bcs",
              "type": "uint256"
            }
          ],
          "name": "",
          "type": "tuple"
        },
        {
          "name": "",
          "type": "uint256"
        },
        {
          "name": "",
          "type": "uint256"
        }
      ],
      "payable": false,
      "stateMutability": "view",
      "type": "function",
      "signature": "0x7a6543e2"
    },
    {
      "constant": false,
      "inputs": [],
      "name": "updateGraph",
      "outputs": [],
      "payable": false,
      "stateMutability": "nonpayable",
      "type": "function",
      "signature": "0x8f99123d"
    },
    {
      "constant": false,
      "inputs": [
        {
          "name": "x",
          "type": "uint256"
        }
      ],
      "name": "unsuccessful",
      "outputs": [],
      "payable": true,
      "stateMutability": "payable",
      "type": "function",
      "signature": "0x96fbe5eb"
    },
    {
      "constant": true,
      "inputs": [],
      "name": "returnCulprit",
      "outputs": [
        {
          "name": "",
          "type": "address"
        }
      ],
      "payable": false,
      "stateMutability": "view",
      "type": "function",
      "signature": "0xaf707c0b"
    },
    {
      "constant": true,
      "inputs": [],
      "name": "transaction",
      "outputs": [
        {
          "name": "",
          "type": "bool"
        }
      ],
      "payable": false,
      "stateMutability": "view",
      "type": "function",
      "signature": "0xc99de57e"
    },
    {
      "constant": false,
      "inputs": [
        {
          "name": "coordinates",
          "type": "int256[]"
        }
      ],
      "name": "registerCoordinates",
      "outputs": [],
      "payable": true,
      "stateMutability": "payable",
      "type": "function",
      "signature": "0xf3b8b7d1"
    },
    {
      "constant": false,
      "inputs": [],
      "name": "sendBackToken",
      "outputs": [],
      "payable": true,
      "stateMutability": "payable",
      "type": "function",
      "signature": "0xf421a16b"
    },
    {
      "constant": true,
      "inputs": [],
      "name": "getTable",
      "outputs": [
        {
          "name": "",
          "type": "uint256"
        },
        {
          "name": "",
          "type": "uint256"
        },
        {
          "name": "",
          "type": "address[]"
        }
      ],
      "payable": false,
      "stateMutability": "view",
      "type": "function",
      "signature": "0xfb6391ab"
    },
    {
      "anonymous": false,
      "inputs": [
        {
          "indexed": false,
          "name": "z",
          "type": "bool"
        }
      ],
      "name": "x3",
      "type": "event",
      "signature": "0xc3ad119834eeeb2443fa0b6b3f8ed65e93cd4ff2e8e38c7b8da70c1c578d22ad"
    },
    {
      "constant": false,
      "inputs": [
        {
          "name": "pred",
          "type": "uint256[]"
        }
      ],
      "name": "bfs",
      "outputs": [
        {
          "name": "",
          "type": "bool"
        }
      ],
      "payable": false,
      "stateMutability": "nonpayable",
      "type": "function",
      "signature": "0xf6e13efa"
    },
    {
      "constant": false,
      "inputs": [],
      "name": "pathFind",
      "outputs": [],
      "payable": true,
      "stateMutability": "payable",
      "type": "function",
      "signature": "0xb3db2e8c"
    },
    {
      "constant": true,
      "inputs": [],
      "name": "returnRoute",
      "outputs": [
        {
          "components": [
            {
              "name": "id",
              "type": "uint256"
            },
            {
              "name": "data",
              "type": "string"
            },
            {
              "name": "timestamp",
              "type": "uint256"
            }
          ],
          "name": "",
          "type": "tuple[]"
        }
      ],
      "payable": false,
      "stateMutability": "view",
      "type": "function",
      "signature": "0xf8565e04"
    }
  ],
  "bytecode": "0x608060405260006009556000600160146101000a81548160ff021916908315150217905550610140604051908101604052807383385acc745e5af5f2408e5a9d3ca41b8033f13473ffffffffffffffffffffffffffffffffffffffff1681526020016101406040519081016040528061010f8152602001620064fb61010f91398152602001600081526020016000815260200160008152602001600081526020016000815260200160018152602001600081526020016001815250600560006001815260200190815260200160002060008201518160000160006101000a81548173ffffffffffffffffffffffffffffffffffffffff021916908373ffffffffffffffffffffffffffffffffffffffff1602179055506020820151816001019080519060200190620001339291906200110c565b5060408201518160020155606082015181600301556080820151816004015560a0820151816005015560c0820151816006015560e082015181600701556101008201518160080155610120820151816009015590505061014060405190810160405280738ee94701c39929eb9722a09315f0e1695abf555d73ffffffffffffffffffffffffffffffffffffffff1681526020016101406040519081016040528061010f815260200162006b5561010f91398152602001600081526020016000815260200160068152602001600081526020016000815260200160018152602001600081526020016001815250600560006002815260200190815260200160002060008201518160000160006101000a81548173ffffffffffffffffffffffffffffffffffffffff021916908373ffffffffffffffffffffffffffffffffffffffff1602179055506020820151816001019080519060200190620002989291906200110c565b5060408201518160020155606082015181600301556080820151816004015560a0820151816005015560c0820151816006015560e082015181600701556101008201518160080155610120820151816009015590505061014060405190810160405280737c0300b35b26924a92cbc9da5682279ad18a6e7b73ffffffffffffffffffffffffffffffffffffffff1681526020016101406040519081016040528061010f815260200162006a4661010f91398152602001600081526020016000815260200160048152602001600081526020016000815260200160018152602001600081526020016001815250600560006003815260200190815260200160002060008201518160000160006101000a81548173ffffffffffffffffffffffffffffffffffffffff021916908373ffffffffffffffffffffffffffffffffffffffff1602179055506020820151816001019080519060200190620003fd9291906200110c565b5060408201518160020155606082015181600301556080820151816004015560a0820151816005015560c0820151816006015560e0820151816007015561010082015181600801556101208201518160090155905050610140604051908101604052807323018548f67d4a0ff7027db2870d61ca6d88b81873ffffffffffffffffffffffffffffffffffffffff1681526020016101406040519081016040528061010f815260200162006c6461010f91398152602001600081526020016000815260200160008152602001600281526020016000815260200160008152602001600081526020016000815250600560006004815260200190815260200160002060008201518160000160006101000a81548173ffffffffffffffffffffffffffffffffffffffff021916908373ffffffffffffffffffffffffffffffffffffffff1602179055506020820151816001019080519060200190620005629291906200110c565b5060408201518160020155606082015181600301556080820151816004015560a0820151816005015560c0820151816006015560e08201518160070155610100820151816008015561012082015181600901559050506101406040519081016040528073107f93c9e5ee222a4281843d96a745c68387bd5973ffffffffffffffffffffffffffffffffffffffff1681526020016101406040519081016040528061010f81526020016200693761010f91398152602001600081526020016000815260200160008152602001600481526020016000815260200160008152602001600081526020016000815250600560006005815260200190815260200160002060008201518160000160006101000a81548173ffffffffffffffffffffffffffffffffffffffff021916908373ffffffffffffffffffffffffffffffffffffffff1602179055506020820151816001019080519060200190620006c79291906200110c565b5060408201518160020155606082015181600301556080820151816004015560a0820151816005015560c0820151816006015560e082015181600701556101008201518160080155610120820151816009015590505061014060405190810160405280737dedcfb08c4e7c2856d44b35411893419d6e6cf373ffffffffffffffffffffffffffffffffffffffff1681526020016101406040519081016040528061010f81526020016200660a61010f91398152602001600081526020016000815260200160028152602001600481526020016000815260200160008152602001600081526020016000815250600560006006815260200190815260200160002060008201518160000160006101000a81548173ffffffffffffffffffffffffffffffffffffffff021916908373ffffffffffffffffffffffffffffffffffffffff16021790555060208201518160010190805190602001906200082c9291906200110c565b5060408201518160020155606082015181600301556080820151816004015560a0820151816005015560c0820151816006015560e0820151816007015561010082015181600801556101208201518160090155905050610140604051908101604052807334dcf4e9c4b0ed9f835c5b4173b2d90804b2a11f73ffffffffffffffffffffffffffffffffffffffff1681526020016101406040519081016040528061010f81526020016200671961010f91398152602001600081526020016000815260200160048152602001600481526020016000815260200160008152602001600081526020016000815250600560006007815260200190815260200160002060008201518160000160006101000a81548173ffffffffffffffffffffffffffffffffffffffff021916908373ffffffffffffffffffffffffffffffffffffffff1602179055506020820151816001019080519060200190620009919291906200110c565b5060408201518160020155606082015181600301556080820151816004015560a0820151816005015560c0820151816006015560e082015181600701556101008201518160080155610120820151816009015590505061014060405190810160405280735af5e7eacd4552ed39e40aa82b2fa164b6a441a873ffffffffffffffffffffffffffffffffffffffff1681526020016101406040519081016040528061010f81526020016200682861010f91398152602001600081526020016000815260200160048152602001600281526020016000815260200160008152602001600081526020016000815250600560006008815260200190815260200160002060008201518160000160006101000a81548173ffffffffffffffffffffffffffffffffffffffff021916908373ffffffffffffffffffffffffffffffffffffffff160217905550602082015181600101908051906020019062000af69291906200110c565b5060408201518160020155606082015181600301556080820151816004015560a0820151816005015560c0820151816006015560e0820151816007015561010082015181600801556101208201518160090155905050600a600460007323018548f67d4a0ff7027db2870d61ca6d88b81873ffffffffffffffffffffffffffffffffffffffff1673ffffffffffffffffffffffffffffffffffffffff16815260200190815260200160002081905550600160066000600560006001815260200190815260200160002060000160009054906101000a900473ffffffffffffffffffffffffffffffffffffffff1673ffffffffffffffffffffffffffffffffffffffff1673ffffffffffffffffffffffffffffffffffffffff16815260200190815260200160002081905550600260066000600560006002815260200190815260200160002060000160009054906101000a900473ffffffffffffffffffffffffffffffffffffffff1673ffffffffffffffffffffffffffffffffffffffff1673ffffffffffffffffffffffffffffffffffffffff16815260200190815260200160002081905550600360066000600560006003815260200190815260200160002060000160009054906101000a900473ffffffffffffffffffffffffffffffffffffffff1673ffffffffffffffffffffffffffffffffffffffff1673ffffffffffffffffffffffffffffffffffffffff16815260200190815260200160002081905550600460066000600560006004815260200190815260200160002060000160009054906101000a900473ffffffffffffffffffffffffffffffffffffffff1673ffffffffffffffffffffffffffffffffffffffff1673ffffffffffffffffffffffffffffffffffffffff16815260200190815260200160002081905550600560066000600560006005815260200190815260200160002060000160009054906101000a900473ffffffffffffffffffffffffffffffffffffffff1673ffffffffffffffffffffffffffffffffffffffff1673ffffffffffffffffffffffffffffffffffffffff168152602001908152602001600020819055506006806000600560006006815260200190815260200160002060000160009054906101000a900473ffffffffffffffffffffffffffffffffffffffff1673ffffffffffffffffffffffffffffffffffffffff1673ffffffffffffffffffffffffffffffffffffffff16815260200190815260200160002081905550600760066000600560006007815260200190815260200160002060000160009054906101000a900473ffffffffffffffffffffffffffffffffffffffff1673ffffffffffffffffffffffffffffffffffffffff1673ffffffffffffffffffffffffffffffffffffffff16815260200190815260200160002081905550600860066000600560006008815260200190815260200160002060000160009054906101000a900473ffffffffffffffffffffffffffffffffffffffff1673ffffffffffffffffffffffffffffffffffffffff1673ffffffffffffffffffffffffffffffffffffffff1681526020019081526020016000208190555060026001908060018154018082558091505090600182039060005260206000200160009091929091909150555060028090806001815401808255809150509060018203906000526020600020016000909192909190915055506002600390806001815401808255809150509060018203906000526020600020016000909192909190915055506002600490806001815401808255809150509060018203906000526020600020016000909192909190915055506002600590806001815401808255809150509060018203906000526020600020016000909192909190915055506002600690806001815401808255809150509060018203906000526020600020016000909192909190915055506002600790806001815401808255809150509060018203906000526020600020016000909192909190915055506002600890806001815401808255809150509060018203906000526020600020016000909192909190915055506000600860006101000a81548160ff021916908315150217905550620011bb565b828054600181600116156101000203166002900490600052602060002090601f016020900481019282601f106200114f57805160ff191683800117855562001180565b8280016001018555821562001180579182015b828111156200117f57825182559160200191906001019062001162565b5b5090506200118f919062001193565b5090565b620011b891905b80821115620011b45760008160009055506001016200119a565b5090565b90565b61533080620011cb6000396000f3fe608060405260043610610112576000357c0100000000000000000000000000000000000000000000000000000000900463ffffffff1680630b93381b146101175780632adc5d2f1461013557806335a063b4146101605780633bc5de30146101775780633dd8de3e146101a257806347426fad146101ac57806357c6a843146101d55780635e7c2f10146101df57806366792ba1146101fb5780637a6543e2146102245780638f99123d1461025157806396fbe5eb14610268578063af707c0b14610284578063b3db2e8c146102af578063c99de57e146102b9578063f3b8b7d1146102e4578063f421a16b14610300578063f6e13efa1461030a578063f8565e0414610347578063fb6391ab14610372575b600080fd5b61011f61039f565b60405161012c9190614e4f565b60405180910390f35b34801561014157600080fd5b5061014a61049d565b6040516101579190614eca565b60405180910390f35b34801561016c57600080fd5b506101756104e4565b005b34801561018357600080fd5b5061018c610bcb565b6040516101999190614e6a565b60405180910390f35b6101aa610d32565b005b3480156101b857600080fd5b506101d360048036036101ce9190810190614a01565b6111ef565b005b6101dd6112ee565b005b6101f960048036036101f49190810190614ad5565b611509565b005b34801561020757600080fd5b50610222600480360361021d9190810190614ad5565b6119b5565b005b34801561023057600080fd5b50610239611b17565b60405161024893929190614e8c565b60405180910390f35b34801561025d57600080fd5b50610266611d57565b005b610282600480360361027d9190810190614b16565b612412565b005b34801561029057600080fd5b50610299612ce5565b6040516102a69190614e12565b60405180910390f35b6102b7612d0f565b005b3480156102c557600080fd5b506102ce6132d5565b6040516102db9190614e4f565b60405180910390f35b6102fe60048036036102f99190810190614a2a565b6132e8565b005b61030861364f565b005b34801561031657600080fd5b50610331600480360361032c9190810190614a6b565b613855565b60405161033e9190614e4f565b60405180910390f35b34801561035357600080fd5b5061035c61426c565b6040516103699190614e2d565b60405180910390f35b34801561037e57600080fd5b50610387614382565b60405161039693929190614ee5565b60405180910390f35b6000600160009054906101000a900473ffffffffffffffffffffffffffffffffffffffff1673ffffffffffffffffffffffffffffffffffffffff163373ffffffffffffffffffffffffffffffffffffffff1614156104905742600360095481548110151561040957fe5b9060005260206000209060030201600201819055506001600860006101000a81548160ff02191690831515021790555060006009819055506000600160006101000a81548173ffffffffffffffffffffffffffffffffffffffff021916908373ffffffffffffffffffffffffffffffffffffffff16021790555061048b61364f565b610499565b6000905061049a565b5b90565b6000600460003373ffffffffffffffffffffffffffffffffffffffff1673ffffffffffffffffffffffffffffffffffffffff16815260200190815260200160002054905090565b6000809050606060028054905060405190808252806020026020018201604052801561051f5781602001602082028038833980820191505090505b50905060008090505b6002805490508110156107f3576000600660006005600060028681548110151561054e57fe5b9060005260206000200154815260200190815260200160002060000160009054906101000a900473ffffffffffffffffffffffffffffffffffffffff1673ffffffffffffffffffffffffffffffffffffffff1673ffffffffffffffffffffffffffffffffffffffff168152602001908152602001600020819055506000600a6000600560006002868154811015156105e257fe5b9060005260206000200154815260200190815260200160002060000160009054906101000a900473ffffffffffffffffffffffffffffffffffffffff1673ffffffffffffffffffffffffffffffffffffffff1673ffffffffffffffffffffffffffffffffffffffff1681526020019081526020016000208161066491906144ef565b50600a600460006005600060028681548110151561067e57fe5b9060005260206000200154815260200190815260200160002060000160009054906101000a900473ffffffffffffffffffffffffffffffffffffffff1673ffffffffffffffffffffffffffffffffffffffff1673ffffffffffffffffffffffffffffffffffffffff16815260200190815260200160002054101561073f5760028181548110151561070b57fe5b9060005260206000200154828481518110151561072457fe5b906020019060200201818152505082806001019350506107e6565b6005600060028381548110151561075257fe5b90600052602060002001548152602001908152602001600020600080820160006101000a81549073ffffffffffffffffffffffffffffffffffffffff02191690556001820160006107a3919061451b565b6002820160009055600382016000905560048201600090556005820160009055600682016000905560078201600090556008820160009055600982016000905550505b8080600101915050610528565b50600260006108029190614563565b60008090505b82811015610af1576002828281518110151561082057fe5b9060200190602002015190806001815401808255809150509060018203906000526020600020016000909192909190915055506005600060028381548110151561086657fe5b90600052602060002001548152602001908152602001600020600560006001840181526020019081526020016000206000820160009054906101000a900473ffffffffffffffffffffffffffffffffffffffff168160000160006101000a81548173ffffffffffffffffffffffffffffffffffffffff021916908373ffffffffffffffffffffffffffffffffffffffff16021790555060018201816001019080546001816001161561010002031660029004610923929190614584565b50600282015481600201556003820154816003015560048201548160040155600582015481600501556006820154816006015560078201548160070155600882015481600801556009820154816009015590505060028181548110151561098657fe5b906000526020600020015460018201141515610a4357600560006002838154811015156109af57fe5b90600052602060002001548152602001908152602001600020600080820160006101000a81549073ffffffffffffffffffffffffffffffffffffffff0219169055600182016000610a00919061451b565b6002820160009055600382016000905560048201600090556005820160009055600682016000905560078201600090556008820160009055600982016000905550505b60018101600660006005600060018601815260200190815260200160002060000160009054906101000a900473ffffffffffffffffffffffffffffffffffffffff1673ffffffffffffffffffffffffffffffffffffffff1673ffffffffffffffffffffffffffffffffffffffff1681526020019081526020016000208190555060018101600282815481101515610ad657fe5b90600052602060002001819055508080600101915050610808565b50606090506000600381610b05919061460b565b506000600160146101000a81548160ff0219169083151502179055506000600860006101000a81548160ff021916908315150217905550600060098190555060008060006101000a81548173ffffffffffffffffffffffffffffffffffffffff021916908373ffffffffffffffffffffffffffffffffffffffff1602179055506000600160006101000a81548173ffffffffffffffffffffffffffffffffffffffff021916908373ffffffffffffffffffffffffffffffffffffffff1602179055505050565b6060600560006003600954815481101515610be257fe5b906000526020600020906003020160000154815260200190815260200160002060000160009054906101000a900473ffffffffffffffffffffffffffffffffffffffff1673ffffffffffffffffffffffffffffffffffffffff163373ffffffffffffffffffffffffffffffffffffffff161415610d1b576003600954815481101515610c6a57fe5b90600052602060002090600302016001018054600181600116156101000203166002900480601f016020809104026020016040519081016040528092919081815260200182805460018160011615610100020316600290048015610d0f5780601f10610ce457610100808354040283529160200191610d0f565b820191906000526020600020905b815481529060010190602001808311610cf257829003601f168201915b50505050509050610d2f565b602060405190810160405280600081525090505b90565b6000600660003373ffffffffffffffffffffffffffffffffffffffff1673ffffffffffffffffffffffffffffffffffffffff1681526020019081526020016000205414158015610dd85750600060056000600660003373ffffffffffffffffffffffffffffffffffffffff1673ffffffffffffffffffffffffffffffffffffffff1681526020019081526020016000205481526020019081526020016000206002015414155b156111ec573460056000600660003373ffffffffffffffffffffffffffffffffffffffff1673ffffffffffffffffffffffffffffffffffffffff16815260200190815260200160002054815260200190815260200160002060030154148015610eed575060056000600660003373ffffffffffffffffffffffffffffffffffffffff1673ffffffffffffffffffffffffffffffffffffffff1681526020019081526020016000205481526020019081526020016000206002015460056000600660003373ffffffffffffffffffffffffffffffffffffffff1673ffffffffffffffffffffffffffffffffffffffff16815260200190815260200160002054815260200190815260200160002060080154420311155b1561100857600060056000600660003373ffffffffffffffffffffffffffffffffffffffff1673ffffffffffffffffffffffffffffffffffffffff16815260200190815260200160002054815260200190815260200160002060030181905550600060056000600660003373ffffffffffffffffffffffffffffffffffffffff1673ffffffffffffffffffffffffffffffffffffffff16815260200190815260200160002054815260200190815260200160002060020181905550600060056000600660003373ffffffffffffffffffffffffffffffffffffffff1673ffffffffffffffffffffffffffffffffffffffff168152602001908152602001600020548152602001908152602001600020600801819055506111e7565b60056000600660003373ffffffffffffffffffffffffffffffffffffffff1673ffffffffffffffffffffffffffffffffffffffff1681526020019081526020016000205481526020019081526020016000206002015460056000600660003373ffffffffffffffffffffffffffffffffffffffff1673ffffffffffffffffffffffffffffffffffffffff16815260200190815260200160002054815260200190815260200160002060080154420311156111e657671bc16d674ec8000060056000600660003373ffffffffffffffffffffffffffffffffffffffff1673ffffffffffffffffffffffffffffffffffffffff16815260200190815260200160002054815260200190815260200160002060030160008282540192505081905550600a60056000600660003373ffffffffffffffffffffffffffffffffffffffff1673ffffffffffffffffffffffffffffffffffffffff168152602001908152602001600020548152602001908152602001600020600201600082825401925050819055504260056000600660003373ffffffffffffffffffffffffffffffffffffffff1673ffffffffffffffffffffffffffffffffffffffff168152602001908152602001600020548152602001908152602001600020600801819055505b5b6111ed565b5b565b60001515600160149054906101000a900460ff16151514801561123e57508073ffffffffffffffffffffffffffffffffffffffff163373ffffffffffffffffffffffffffffffffffffffff1614155b151561124957600080fd5b60018060146101000a81548160ff021916908315150217905550336000806101000a81548173ffffffffffffffffffffffffffffffffffffffff021916908373ffffffffffffffffffffffffffffffffffffffff16021790555080600160006101000a81548173ffffffffffffffffffffffffffffffffffffffff021916908373ffffffffffffffffffffffffffffffffffffffff1602179055504260078190555050565b6000809054906101000a900473ffffffffffffffffffffffffffffffffffffffff1673ffffffffffffffffffffffffffffffffffffffff163373ffffffffffffffffffffffffffffffffffffffff1614801561135d575060011515600160149054906101000a900460ff161515145b801561137c575060011515600860009054906101000a900460ff161515145b151561138757600080fd5b6000600981905550600080905060006002600380549050031415156113bd57600260038054905003348115156113b957fe5b0490505b6000600190505b60016003805490500381101561147e57600560006003838154811015156113e757fe5b906000526020600020906003020160000154815260200190815260200160002060000160009054906101000a900473ffffffffffffffffffffffffffffffffffffffff1673ffffffffffffffffffffffffffffffffffffffff166108fc839081150290604051600060405180830381858888f19350505050158015611470573d6000803e3d6000fd5b5080806001019150506113c4565b50600060038161148e919061460b565b506000600160146101000a81548160ff0219169083151502179055506000600860006101000a81548160ff02191690831515021790555060008060006101000a81548173ffffffffffffffffffffffffffffffffffffffff021916908373ffffffffffffffffffffffffffffffffffffffff16021790555050565b6000600660003373ffffffffffffffffffffffffffffffffffffffff1673ffffffffffffffffffffffffffffffffffffffff1681526020019081526020016000205414801561159757506000600460003373ffffffffffffffffffffffffffffffffffffffff1673ffffffffffffffffffffffffffffffffffffffff16815260200190815260200160002054145b80156115aa5750674563918244f4000034145b156119ac5760026001600280549050019080600181540180825580915050906001820390600052602060002001600090919290919091505550600280549050600660003373ffffffffffffffffffffffffffffffffffffffff1673ffffffffffffffffffffffffffffffffffffffff168152602001908152602001600020819055503360056000600660003373ffffffffffffffffffffffffffffffffffffffff1673ffffffffffffffffffffffffffffffffffffffff16815260200190815260200160002054815260200190815260200160002060000160006101000a81548173ffffffffffffffffffffffffffffffffffffffff021916908373ffffffffffffffffffffffffffffffffffffffff1602179055508060056000600660003373ffffffffffffffffffffffffffffffffffffffff1673ffffffffffffffffffffffffffffffffffffffff168152602001908152602001600020548152602001908152602001600020600101908051906020019061172992919061463d565b50600060056000600660003373ffffffffffffffffffffffffffffffffffffffff1673ffffffffffffffffffffffffffffffffffffffff16815260200190815260200160002054815260200190815260200160002060020181905550600060056000600660003373ffffffffffffffffffffffffffffffffffffffff1673ffffffffffffffffffffffffffffffffffffffff16815260200190815260200160002054815260200190815260200160002060030181905550600060056000600660003373ffffffffffffffffffffffffffffffffffffffff1673ffffffffffffffffffffffffffffffffffffffff16815260200190815260200160002054815260200190815260200160002060070181905550600060056000600660003373ffffffffffffffffffffffffffffffffffffffff1673ffffffffffffffffffffffffffffffffffffffff16815260200190815260200160002054815260200190815260200160002060090181905550600060056000600660003373ffffffffffffffffffffffffffffffffffffffff1673ffffffffffffffffffffffffffffffffffffffff16815260200190815260200160002054815260200190815260200160002060040181905550600060056000600660003373ffffffffffffffffffffffffffffffffffffffff1673ffffffffffffffffffffffffffffffffffffffff16815260200190815260200160002054815260200190815260200160002060050181905550600060056000600660003373ffffffffffffffffffffffffffffffffffffffff1673ffffffffffffffffffffffffffffffffffffffff168152602001908152602001600020548152602001908152602001600020600601819055506119b1565b6119b2565b5b50565b6005600060036009548154811015156119ca57fe5b906000526020600020906003020160000154815260200190815260200160002060000160009054906101000a900473ffffffffffffffffffffffffffffffffffffffff1673ffffffffffffffffffffffffffffffffffffffff163373ffffffffffffffffffffffffffffffffffffffff16141515611a4757600080fd5b60006009541415611a8a57806003600954815481101515611a6457fe5b90600052602060002090600302016001019080519060200190611a8892919061463d565b505b426003600954815481101515611a9c57fe5b906000526020600020906003020160020181905550600160038054905003600160095401111515611b0257806003600160095401815481101515611adc57fe5b90600052602060002090600302016001019080519060200190611b0092919061463d565b505b60096000815480929190600101919050555050565b611b1f6146bd565b60008060056000600660003373ffffffffffffffffffffffffffffffffffffffff1673ffffffffffffffffffffffffffffffffffffffff168152602001908152602001600020548152602001908152602001600020600460003373ffffffffffffffffffffffffffffffffffffffff1673ffffffffffffffffffffffffffffffffffffffff16815260200190815260200160002054600660003373ffffffffffffffffffffffffffffffffffffffff1673ffffffffffffffffffffffffffffffffffffffff168152602001908152602001600020548261014060405190810160405290816000820160009054906101000a900473ffffffffffffffffffffffffffffffffffffffff1673ffffffffffffffffffffffffffffffffffffffff1673ffffffffffffffffffffffffffffffffffffffff168152602001600182018054600181600116156101000203166002900480601f016020809104026020016040519081016040528092919081815260200182805460018160011615610100020316600290048015611cf15780601f10611cc657610100808354040283529160200191611cf1565b820191906000526020600020905b815481529060010190602001808311611cd457829003601f168201915b50505050508152602001600282015481526020016003820154815260200160048201548152602001600582015481526020016006820154815260200160078201548152602001600882015481526020016009820154815250509250925092509250909192565b6000809054906101000a900473ffffffffffffffffffffffffffffffffffffffff1673ffffffffffffffffffffffffffffffffffffffff163373ffffffffffffffffffffffffffffffffffffffff161480611e145750600560006001815260200190815260200160002060000160009054906101000a900473ffffffffffffffffffffffffffffffffffffffff1673ffffffffffffffffffffffffffffffffffffffff163373ffffffffffffffffffffffffffffffffffffffff16145b80611e815750600560006002815260200190815260200160002060000160009054906101000a900473ffffffffffffffffffffffffffffffffffffffff1673ffffffffffffffffffffffffffffffffffffffff163373ffffffffffffffffffffffffffffffffffffffff16145b80611eee5750600560006003815260200190815260200160002060000160009054906101000a900473ffffffffffffffffffffffffffffffffffffffff1673ffffffffffffffffffffffffffffffffffffffff163373ffffffffffffffffffffffffffffffffffffffff16145b8015611f0d575060011515600160149054906101000a900460ff161515145b1515611f1857600080fd5b60008090505b60028054905081101561240f576000600a600060056000600286815481101515611f4457fe5b9060005260206000200154815260200190815260200160002060000160009054906101000a900473ffffffffffffffffffffffffffffffffffffffff1673ffffffffffffffffffffffffffffffffffffffff1673ffffffffffffffffffffffffffffffffffffffff16815260200190815260200160002081611fc691906144ef565b50600160056000600284815481101515611fdc57fe5b906000526020600020015481526020019081526020016000206007015414156124025760008090505b60028054905081101561240057808214158015612051575060016005600060028481548110151561203257fe5b9060005260206000200154815260200190815260200160002060070154145b156123f35760006005600060028481548110151561206b57fe5b90600052602060002001548152602001908152602001600020600601546005600060028681548110151561209b57fe5b906000526020600020015481526020019081526020016000206006015403600560006002858154811015156120cc57fe5b9060005260206000200154815260200190815260200160002060060154600560006002878154811015156120fc57fe5b906000526020600020015481526020019081526020016000206006015403026005600060028581548110151561212e57fe5b90600052602060002001548152602001908152602001600020600501546005600060028781548110151561215e57fe5b9060005260206000200154815260200190815260200160002060050154036005600060028681548110151561218f57fe5b9060005260206000200154815260200190815260200160002060050154600560006002888154811015156121bf57fe5b90600052602060002001548152602001908152602001600020600501540302600560006002868154811015156121f157fe5b90600052602060002001548152602001908152602001600020600401546005600060028881548110151561222157fe5b9060005260206000200154815260200190815260200160002060040154036005600060028781548110151561225257fe5b90600052602060002001548152602001908152602001600020600401546005600060028981548110151561228257fe5b90600052602060002001548152602001908152602001600020600401540302010190506004811315156123f157600a6000600560006002878154811015156122c657fe5b9060005260206000200154815260200190815260200160002060000160009054906101000a900473ffffffffffffffffffffffffffffffffffffffff1673ffffffffffffffffffffffffffffffffffffffff1673ffffffffffffffffffffffffffffffffffffffff1681526020019081526020016000206005600060028581548110151561235057fe5b9060005260206000200154815260200190815260200160002060000160009054906101000a900473ffffffffffffffffffffffffffffffffffffffff1690806001815401808255809150509060018203906000526020600020016000909192909190916101000a81548173ffffffffffffffffffffffffffffffffffffffff021916908373ffffffffffffffffffffffffffffffffffffffff160217905550505b505b8080600101915050612005565b505b8080600101915050611f1e565b50565b600160009054906101000a900473ffffffffffffffffffffffffffffffffffffffff1673ffffffffffffffffffffffffffffffffffffffff163373ffffffffffffffffffffffffffffffffffffffff1614151561246e57600080fd5b6000600160146101000a81548160ff0219169083151502179055506000600860006101000a81548160ff02191690831515021790555060008114156128225760006005600060036009548154811015156124c457fe5b9060005260206000209060030201600001548152602001908152602001600020600701819055506004600060056000600360095481548110151561250457fe5b906000526020600020906003020160000154815260200190815260200160002060000160009054906101000a900473ffffffffffffffffffffffffffffffffffffffff1673ffffffffffffffffffffffffffffffffffffffff1673ffffffffffffffffffffffffffffffffffffffff16815260200190815260200160002060008154809291906001019190505550600a600460006005600060036009548154811015156125ad57fe5b906000526020600020906003020160000154815260200190815260200160002060000160009054906101000a900473ffffffffffffffffffffffffffffffffffffffff1673ffffffffffffffffffffffffffffffffffffffff1673ffffffffffffffffffffffffffffffffffffffff168152602001908152602001600020540260056000600360095481548110151561264257fe5b906000526020600020906003020160000154815260200190815260200160002060020181905550671bc16d674ec800006004600060056000600360095481548110151561268b57fe5b906000526020600020906003020160000154815260200190815260200160002060000160009054906101000a900473ffffffffffffffffffffffffffffffffffffffff1673ffffffffffffffffffffffffffffffffffffffff1673ffffffffffffffffffffffffffffffffffffffff168152602001908152602001600020540260056000600360095481548110151561272057fe5b9060005260206000209060030201600001548152602001908152602001600020600301819055504260056000600360095481548110151561275d57fe5b90600052602060002090600302016000015481526020019081526020016000206008018190555060056000600360095481548110151561279957fe5b906000526020600020906003020160000154815260200190815260200160002060000160009054906101000a900473ffffffffffffffffffffffffffffffffffffffff16600860016101000a81548173ffffffffffffffffffffffffffffffffffffffff021916908373ffffffffffffffffffffffffffffffffffffffff160217905550612cda565b6000600190505b600380549050811015612cd8576003600081548110151561284657fe5b906000526020600020906003020160010160405180828054600181600116156101000203166002900480156128b25780601f106128905761010080835404028352918201916128b2565b820191906000526020600020905b81548152906001019060200180831161289e575b505091505060405180910390206003828154811015156128ce57fe5b9060005260206000209060030201600101604051808280546001816001161561010002031660029004801561293a5780601f1061291857610100808354040283529182019161293a565b820191906000526020600020905b815481529060010190602001808311612926575b50509150506040518091039020141515612ccb5760006005600060036001850381548110151561296657fe5b90600052602060002090600302016000015481526020019081526020016000206007018190555060046000600560006003600186038154811015156129a757fe5b906000526020600020906003020160000154815260200190815260200160002060000160009054906101000a900473ffffffffffffffffffffffffffffffffffffffff1673ffffffffffffffffffffffffffffffffffffffff1673ffffffffffffffffffffffffffffffffffffffff16815260200190815260200160002060008154809291906001019190505550600a6004600060056000600360018703815481101515612a5157fe5b906000526020600020906003020160000154815260200190815260200160002060000160009054906101000a900473ffffffffffffffffffffffffffffffffffffffff1673ffffffffffffffffffffffffffffffffffffffff1673ffffffffffffffffffffffffffffffffffffffff168152602001908152602001600020540260056000600360018503815481101515612ae757fe5b906000526020600020906003020160000154815260200190815260200160002060020181905550671bc16d674ec800006004600060056000600360018703815481101515612b3157fe5b906000526020600020906003020160000154815260200190815260200160002060000160009054906101000a900473ffffffffffffffffffffffffffffffffffffffff1673ffffffffffffffffffffffffffffffffffffffff1673ffffffffffffffffffffffffffffffffffffffff168152602001908152602001600020540260056000600360018503815481101515612bc757fe5b9060005260206000209060030201600001548152602001908152602001600020600301819055504260056000600360018503815481101515612c0557fe5b90600052602060002090600302016000015481526020019081526020016000206008018190555060056000600360018403815481101515612c4257fe5b906000526020600020906003020160000154815260200190815260200160002060000160009054906101000a900473ffffffffffffffffffffffffffffffffffffffff16600860016101000a81548173ffffffffffffffffffffffffffffffffffffffff021916908373ffffffffffffffffffffffffffffffffffffffff160217905550612cd8565b8080600101915050612829565b505b612ce261364f565b50565b6000600860019054906101000a900473ffffffffffffffffffffffffffffffffffffffff16905090565b6000809054906101000a900473ffffffffffffffffffffffffffffffffffffffff1673ffffffffffffffffffffffffffffffffffffffff163373ffffffffffffffffffffffffffffffffffffffff16148015612d7e575060011515600160149054906101000a900460ff161515145b1515612d8957600080fd5b6060600160028054905001604051908082528060200260200182016040528015612dc25781602001602082028038833980820191505090505b50905060001515612dd282613855565b15151415612ed6576000600381612de9919061460b565b50612df261364f565b600060098190555060008060006101000a81548173ffffffffffffffffffffffffffffffffffffffff021916908373ffffffffffffffffffffffffffffffffffffffff1602179055506000600160006101000a81548173ffffffffffffffffffffffffffffffffffffffff021916908373ffffffffffffffffffffffffffffffffffffffff1602179055506000600160146101000a81548160ff0219169083151502179055507fc3ad119834eeeb2443fa0b6b3f8ed65e93cd4ff2e8e38c7b8da70c1c578d22ad6000604051612ec89190614e4f565b60405180910390a1506132d3565b600060066000600160009054906101000a900473ffffffffffffffffffffffffffffffffffffffff1673ffffffffffffffffffffffffffffffffffffffff1673ffffffffffffffffffffffffffffffffffffffff168152602001908152602001600020549050600360606040519081016040528083815260200160206040519081016040528060008152508152602001600081525090806001815401808255809150509060018203906000526020600020906003020160009091929091909150600082015181600001556020820151816001019080519060200190612fbc929190614727565b50604082015181600201555050505b60008282815181101515612fdb57fe5b906020019060200201511415156130b0576003606060405190810160405280848481518110151561300857fe5b90602001906020020151815260200160206040519081016040528060008152508152602001600081525090806001815401808255809150509060018203906000526020600020906003020160009091929091909150600082015181600001556020820151816001019080519060200190613083929190614727565b5060408201518160020155505050818181518110151561309f57fe5b906020019060200201519050612fcb565b6000809050600060016003805490500390505b80821015613296576130d36147a7565b6003838154811015156130e257fe5b90600052602060002090600302016060604051908101604052908160008201548152602001600182018054600181600116156101000203166002900480601f01602080910402602001604051908101604052809291908181526020018280546001816001161561010002031660029004801561319f5780601f106131745761010080835404028352916020019161319f565b820191906000526020600020905b81548152906001019060200180831161318257829003601f168201915b5050505050815260200160028201548152505090506003828154811015156131c357fe5b90600052602060002090600302016003848154811015156131e057fe5b9060005260206000209060030201600082015481600001556001820181600101908054600181600116156101000203166002900461321f929190614584565b50600282015481600201559050508060038381548110151561323d57fe5b9060005260206000209060030201600082015181600001556020820151816001019080519060200190613271929190614727565b50604082015181600201559050508280600101935050818060019003925050506130c3565b7fc3ad119834eeeb2443fa0b6b3f8ed65e93cd4ff2e8e38c7b8da70c1c578d22ad60016040516132c69190614e4f565b60405180910390a1505050505b565b600160149054906101000a900460ff1681565b60011515600160149054906101000a900460ff1615151480156133605750600060056000600660003373ffffffffffffffffffffffffffffffffffffffff1673ffffffffffffffffffffffffffffffffffffffff16815260200190815260200160002054815260200190815260200160002060020154145b151561336b57600080fd5b6000600660003373ffffffffffffffffffffffffffffffffffffffff1673ffffffffffffffffffffffffffffffffffffffff168152602001908152602001600020541415156134f057600060056000600660003373ffffffffffffffffffffffffffffffffffffffff1673ffffffffffffffffffffffffffffffffffffffff1681526020019081526020016000205481526020019081526020016000206009015414801561346e5750600060056000600660003373ffffffffffffffffffffffffffffffffffffffff1673ffffffffffffffffffffffffffffffffffffffff16815260200190815260200160002054815260200190815260200160002060070154145b80156134815750670de0b6b3a764000034145b156134e657600160056000600660003373ffffffffffffffffffffffffffffffffffffffff1673ffffffffffffffffffffffffffffffffffffffff168152602001908152602001600020548152602001908152602001600020600701819055506134eb565b61364c565b6134f5565b61364c565b80600081518110151561350457fe5b9060200190602002015160056000600660003373ffffffffffffffffffffffffffffffffffffffff1673ffffffffffffffffffffffffffffffffffffffff1681526020019081526020016000205481526020019081526020016000206004018190555080600181518110151561357657fe5b9060200190602002015160056000600660003373ffffffffffffffffffffffffffffffffffffffff1673ffffffffffffffffffffffffffffffffffffffff168152602001908152602001600020548152602001908152602001600020600501819055508060028151811015156135e857fe5b9060200190602002015160056000600660003373ffffffffffffffffffffffffffffffffffffffff1673ffffffffffffffffffffffffffffffffffffffff168152602001908152602001600020548152602001908152602001600020600601819055505b50565b60008090505b600280549050811015613852576000600a60006005600060028681548110151561367b57fe5b9060005260206000200154815260200190815260200160002060000160009054906101000a900473ffffffffffffffffffffffffffffffffffffffff1673ffffffffffffffffffffffffffffffffffffffff1673ffffffffffffffffffffffffffffffffffffffff168152602001908152602001600020816136fd91906144ef565b5060016005600060028481548110151561371357fe5b906000526020600020015481526020019081526020016000206007015414801561376c575060006005600060028481548110151561374d57fe5b9060005260206000200154815260200190815260200160002060090154145b156138455760006005600060028481548110151561378657fe5b9060005260206000200154815260200190815260200160002060070181905550600560006002838154811015156137b957fe5b9060005260206000200154815260200190815260200160002060000160009054906101000a900473ffffffffffffffffffffffffffffffffffffffff1673ffffffffffffffffffffffffffffffffffffffff166108fc670de0b6b3a76400009081150290604051600060405180830381858888f19350505050158015613843573d6000803e3d6000fd5b505b8080600101915050613655565b50565b6000806138606147c9565b604051809103906000f08015801561387c573d6000803e3d6000fd5b50905060606001600280549050016040519080825280602002602001820160405280156138b85781602001602082028038833980820191505090505b50905060008090505b815181101561391957600082828151811015156138da57fe5b9060200190602002019015159081151581525050600085828151811015156138fe57fe5b906020019060200201818152505080806001019150506138c1565b50600181600660008060009054906101000a900473ffffffffffffffffffffffffffffffffffffffff1673ffffffffffffffffffffffffffffffffffffffff1673ffffffffffffffffffffffffffffffffffffffff1681526020019081526020016000205481518110151561398a57fe5b90602001906020020190151590811515815250508173ffffffffffffffffffffffffffffffffffffffff16631ffc735d600660008060009054906101000a900473ffffffffffffffffffffffffffffffffffffffff1673ffffffffffffffffffffffffffffffffffffffff1673ffffffffffffffffffffffffffffffffffffffff168152602001908152602001600020546040518263ffffffff167c0100000000000000000000000000000000000000000000000000000000028152600401613a539190614eca565b600060405180830381600087803b158015613a6d57600080fd5b505af1158015613a81573d6000803e3d6000fd5b505050505b600015158273ffffffffffffffffffffffffffffffffffffffff1663681fe70c6040518163ffffffff167c010000000000000000000000000000000000000000000000000000000002815260040160206040518083038186803b158015613aec57600080fd5b505afa158015613b00573d6000803e3d6000fd5b505050506040513d601f19601f82011682018060405250613b249190810190614aac565b151514156142605760008273ffffffffffffffffffffffffffffffffffffffff1663957908d16040518163ffffffff167c0100000000000000000000000000000000000000000000000000000000028152600401602060405180830381600087803b158015613b9257600080fd5b505af1158015613ba6573d6000803e3d6000fd5b505050506040513d601f19601f82011682018060405250613bca9190810190614b3f565b905060008090505b600a60006005600085815260200190815260200160002060000160009054906101000a900473ffffffffffffffffffffffffffffffffffffffff1673ffffffffffffffffffffffffffffffffffffffff1673ffffffffffffffffffffffffffffffffffffffff1681526020019081526020016000208054905081101561425957600015158360066000600a60006005600089815260200190815260200160002060000160009054906101000a900473ffffffffffffffffffffffffffffffffffffffff1673ffffffffffffffffffffffffffffffffffffffff1673ffffffffffffffffffffffffffffffffffffffff16815260200190815260200160002085815481101515613cdd57fe5b9060005260206000200160009054906101000a900473ffffffffffffffffffffffffffffffffffffffff1673ffffffffffffffffffffffffffffffffffffffff1673ffffffffffffffffffffffffffffffffffffffff16815260200190815260200160002054815181101515613d4f57fe5b906020019060200201511515141561424c5760018360066000600a60006005600089815260200190815260200160002060000160009054906101000a900473ffffffffffffffffffffffffffffffffffffffff1673ffffffffffffffffffffffffffffffffffffffff1673ffffffffffffffffffffffffffffffffffffffff16815260200190815260200160002085815481101515613dea57fe5b9060005260206000200160009054906101000a900473ffffffffffffffffffffffffffffffffffffffff1673ffffffffffffffffffffffffffffffffffffffff1673ffffffffffffffffffffffffffffffffffffffff16815260200190815260200160002054815181101515613e5c57fe5b9060200190602002019015159081151581525050818660066000600a60006005600089815260200190815260200160002060000160009054906101000a900473ffffffffffffffffffffffffffffffffffffffff1673ffffffffffffffffffffffffffffffffffffffff1673ffffffffffffffffffffffffffffffffffffffff16815260200190815260200160002085815481101515613ef857fe5b9060005260206000200160009054906101000a900473ffffffffffffffffffffffffffffffffffffffff1673ffffffffffffffffffffffffffffffffffffffff1673ffffffffffffffffffffffffffffffffffffffff16815260200190815260200160002054815181101515613f6a57fe5b90602001906020020181815250508373ffffffffffffffffffffffffffffffffffffffff16631ffc735d60066000600a60006005600089815260200190815260200160002060000160009054906101000a900473ffffffffffffffffffffffffffffffffffffffff1673ffffffffffffffffffffffffffffffffffffffff1673ffffffffffffffffffffffffffffffffffffffff1681526020019081526020016000208581548110151561401a57fe5b9060005260206000200160009054906101000a900473ffffffffffffffffffffffffffffffffffffffff1673ffffffffffffffffffffffffffffffffffffffff1673ffffffffffffffffffffffffffffffffffffffff168152602001908152602001600020546040518263ffffffff167c01000000000000000000000000000000000000000000000000000000000281526004016140b89190614eca565b600060405180830381600087803b1580156140d257600080fd5b505af11580156140e6573d6000803e3d6000fd5b5050505060066000600160009054906101000a900473ffffffffffffffffffffffffffffffffffffffff1673ffffffffffffffffffffffffffffffffffffffff1673ffffffffffffffffffffffffffffffffffffffff1681526020019081526020016000205460066000600a60006005600088815260200190815260200160002060000160009054906101000a900473ffffffffffffffffffffffffffffffffffffffff1673ffffffffffffffffffffffffffffffffffffffff1673ffffffffffffffffffffffffffffffffffffffff168152602001908152602001600020848154811015156141d257fe5b9060005260206000200160009054906101000a900473ffffffffffffffffffffffffffffffffffffffff1673ffffffffffffffffffffffffffffffffffffffff1673ffffffffffffffffffffffffffffffffffffffff16815260200190815260200160002054141561424b576001945050505050614267565b5b8080600101915050613bd2565b5050613a86565b6000925050505b919050565b60606003805480602002602001604051908101604052809291908181526020016000905b8282101561437957838290600052602060002090600302016060604051908101604052908160008201548152602001600182018054600181600116156101000203166002900480601f0160208091040260200160405190810160405280929190818152602001828054600181600116156101000203166002900480156143575780601f1061432c57610100808354040283529160200191614357565b820191906000526020600020905b81548152906001019060200180831161433a57829003601f168201915b5050505050815260200160028201548152505081526020019060010190614290565b50505050905090565b600080606060056000600660003373ffffffffffffffffffffffffffffffffffffffff1673ffffffffffffffffffffffffffffffffffffffff16815260200190815260200160002054815260200190815260200160002060020154600460003373ffffffffffffffffffffffffffffffffffffffff1673ffffffffffffffffffffffffffffffffffffffff16815260200190815260200160002054600a60003373ffffffffffffffffffffffffffffffffffffffff1673ffffffffffffffffffffffffffffffffffffffff168152602001908152602001600020808054806020026020016040519081016040528092919081815260200182805480156144dd57602002820191906000526020600020905b8160009054906101000a900473ffffffffffffffffffffffffffffffffffffffff1673ffffffffffffffffffffffffffffffffffffffff1681526020019060010190808311614493575b50505050509050925092509250909192565b8154818355818111156145165781836000526020600020918201910161451591906147d9565b5b505050565b50805460018160011615610100020316600290046000825580601f106145415750614560565b601f01602090049060005260206000209081019061455f91906147d9565b5b50565b508054600082559060005260206000209081019061458191906147d9565b50565b828054600181600116156101000203166002900490600052602060002090601f016020900481019282601f106145bd57805485556145fa565b828001600101855582156145fa57600052602060002091601f016020900482015b828111156145f95782548255916001019190600101906145de565b5b50905061460791906147d9565b5090565b8154818355818111156146385760030281600302836000526020600020918201910161463791906147fe565b5b505050565b828054600181600116156101000203166002900490600052602060002090601f016020900481019282601f1061467e57805160ff19168380011785556146ac565b828001600101855582156146ac579182015b828111156146ab578251825591602001919060010190614690565b5b5090506146b991906147d9565b5090565b61014060405190810160405280600073ffffffffffffffffffffffffffffffffffffffff1681526020016060815260200160008152602001600081526020016000815260200160008152602001600081526020016000815260200160008152602001600081525090565b828054600181600116156101000203166002900490600052602060002090601f016020900481019282601f1061476857805160ff1916838001178555614796565b82800160010185558215614796579182015b8281111561479557825182559160200191906001019061477a565b5b5090506147a391906147d9565b5090565b6060604051908101604052806000815260200160608152602001600081525090565b6040516101e18061511683390190565b6147fb91905b808211156147f75760008160009055506001016147df565b5090565b90565b61483a91905b8082111561483657600080820160009055600182016000614825919061451b565b600282016000905550600301614804565b5090565b90565b60006148498235615090565b905092915050565b600082601f830112151561486457600080fd5b813561487761487282614f50565b614f23565b9150818183526020840193506020810190508385602084028201111561489c57600080fd5b60005b838110156148cc57816148b2888261496f565b84526020840193506020830192505060018101905061489f565b5050505092915050565b600082601f83011215156148e957600080fd5b81356148fc6148f782614f78565b614f23565b9150818183526020840193506020810190508385602084028201111561492157600080fd5b60005b83811015614951578161493788826149d9565b845260208401935060208301925050600181019050614924565b5050505092915050565b600061496782516150a2565b905092915050565b600061497b82356150ae565b905092915050565b600082601f830112151561499657600080fd5b81356149a96149a482614fa0565b614f23565b915080825260208301602083018583830111156149c557600080fd5b6149d08382846150c2565b50505092915050565b60006149e582356150b8565b905092915050565b60006149f982516150b8565b905092915050565b600060208284031215614a1357600080fd5b6000614a218482850161483d565b91505092915050565b600060208284031215614a3c57600080fd5b600082013567ffffffffffffffff811115614a5657600080fd5b614a6284828501614851565b91505092915050565b600060208284031215614a7d57600080fd5b600082013567ffffffffffffffff811115614a9757600080fd5b614aa3848285016148d6565b91505092915050565b600060208284031215614abe57600080fd5b6000614acc8482850161495b565b91505092915050565b600060208284031215614ae757600080fd5b600082013567ffffffffffffffff811115614b0157600080fd5b614b0d84828501614983565b91505092915050565b600060208284031215614b2857600080fd5b6000614b36848285016149d9565b91505092915050565b600060208284031215614b5157600080fd5b6000614b5f848285016149ed565b91505092915050565b614b718161503e565b82525050565b614b808161502c565b82525050565b6000614b9182614fe6565b808452602084019350614ba383614fcc565b60005b82811015614bd557614bb9868351614b77565b614bc282615012565b9150602086019550600181019050614ba6565b50849250505092915050565b6000614bec82614ff1565b80845260208401935083602082028501614c0585614fd9565b60005b84811015614c3e578383038852614c20838351614db3565b9250614c2b8261501f565b9150602088019750600181019050614c08565b508196508694505050505092915050565b614c5881615050565b82525050565b614c678161505c565b82525050565b6000614c7882615007565b808452614c8c8160208601602086016150d1565b614c9581615104565b602085010191505092915050565b6000614cae82614ffc565b808452614cc28160208601602086016150d1565b614ccb81615104565b602085010191505092915050565b600061014083016000830151614cf26000860182614b68565b5060208301518482036020860152614d0a8282614ca3565b9150506040830151614d1f6040860182614e03565b506060830151614d326060860182614e03565b506080830151614d456080860182614c5e565b5060a0830151614d5860a0860182614c5e565b5060c0830151614d6b60c0860182614c5e565b5060e0830151614d7e60e0860182614e03565b50610100830151614d93610100860182614e03565b50610120830151614da8610120860182614e03565b508091505092915050565b6000606083016000830151614dcb6000860182614e03565b5060208301518482036020860152614de38282614ca3565b9150506040830151614df86040860182614e03565b508091505092915050565b614e0c81615086565b82525050565b6000602082019050614e276000830184614b68565b92915050565b60006020820190508181036000830152614e478184614be1565b905092915050565b6000602082019050614e646000830184614c4f565b92915050565b60006020820190508181036000830152614e848184614c6d565b905092915050565b60006060820190508181036000830152614ea68186614cd9565b9050614eb56020830185614e03565b614ec26040830184614e03565b949350505050565b6000602082019050614edf6000830184614e03565b92915050565b6000606082019050614efa6000830186614e03565b614f076020830185614e03565b8181036040830152614f198184614b86565b9050949350505050565b6000604051905081810181811067ffffffffffffffff82111715614f4657600080fd5b8060405250919050565b600067ffffffffffffffff821115614f6757600080fd5b602082029050602081019050919050565b600067ffffffffffffffff821115614f8f57600080fd5b602082029050602081019050919050565b600067ffffffffffffffff821115614fb757600080fd5b601f19601f8301169050602081019050919050565b6000602082019050919050565b6000602082019050919050565b600081519050919050565b600081519050919050565b600081519050919050565b600081519050919050565b6000602082019050919050565b6000602082019050919050565b600061503782615066565b9050919050565b600061504982615066565b9050919050565b60008115159050919050565b6000819050919050565b600073ffffffffffffffffffffffffffffffffffffffff82169050919050565b6000819050919050565b600061509b82615066565b9050919050565b60008115159050919050565b6000819050919050565b6000819050919050565b82818337600083830152505050565b60005b838110156150ef5780820151818401526020810190506150d4565b838111156150fe576000848401525b50505050565b6000601f19601f830116905091905056fe608060405234801561001057600080fd5b506001808190555060006002819055506101b28061002f6000396000f3fe608060405260043610610057576000357c0100000000000000000000000000000000000000000000000000000000900463ffffffff1680631ffc735d1461005c578063681fe70c14610097578063957908d1146100c6575b600080fd5b34801561006857600080fd5b506100956004803603602081101561007f57600080fd5b81019080803590602001909291905050506100f1565b005b3480156100a357600080fd5b506100ac61011e565b604051808215151515815260200191505060405180910390f35b3480156100d257600080fd5b506100db61013d565b6040518082815260200191505060405180910390f35b60016002600082825401925050819055508060008060025481526020019081526020016000208190555050565b60006002546001541115610135576001905061013a565b600090505b90565b600080600080600154815260200190815260200160002054905060008060015481526020019081526020016000206000905560018060008282540192505081905550809150509056fea165627a7a723058204c0b4c82b14f3fc8faad325715b0132af49b0d94c16645dd66c112d31cab33ec0029a265627a7a723058207f9d76ecfc28b02b3d1b1113f414363623f4ec64348d8e748effa3f7b687353e6c6578706572696d656e74616cf500372d2d2d2d2d424547494e205055424c4943204b45592d2d2d2d2d0a4d4947664d413047435371475349623344514542415155414134474e4144434269514b42675144596e6f475239616b546c39666b635170394b44757a484847580a3458366a7557392b6c5a414c314f7954567075434478757853317043554d3377455274347a5567466964566d364a5269464f426d746d564d5a66742b412f632b0a2b706b65446f47673077554738526b637a3466426b7446364f514c67375933784f4c455578516b456d32664379575068324b38523435474f6b6f704e633447490a697854323349774f4a732b56414b7a786b774944415141420a2d2d2d2d2d454e44205055424c4943204b45592d2d2d2d2d2d2d2d2d2d424547494e205055424c4943204b45592d2d2d2d2d0a4d4947664d413047435371475349623344514542415155414134474e4144434269514b426751433837616a31317677562f6a693538634c69677048766353544a0a74654164616a4a3350776e5576484843546a6835526a683037735a4f62314d563276634f4236506d786c48716f63714945766d5431504271496f4c4e396a70420a432f7462545774444c61664e4569726474737a6555675032733876467a684b33463759714e47487a7a3748694f435637465956734465346a796a5631307645660a42357453587430704832374c4a6970755a774944415141420a2d2d2d2d2d454e44205055424c4943204b45592d2d2d2d2d2d2d2d2d2d424547494e205055424c4943204b45592d2d2d2d2d0a4d4947664d413047435371475349623344514542415155414134474e4144434269514b426751444d4a6c7367334669654a73624339784c47794643384d646b450a39563059633333576a755a71553663613779374b334155752b54734d59734b474168514a76634e75355078775a77666b7564592b77496d2f2f4e726f537433730a4768724d6b614e6f465441573155633851355937374b314c2f6b70394d306265305558584735516233515a2f64637a454444706e6d30694c48757354597a37520a6e774f694a5474663965477435436c5a34774944415141420a2d2d2d2d2d454e44205055424c4943204b45592d2d2d2d2d2d2d2d2d2d424547494e205055424c4943204b45592d2d2d2d2d0a4d4947664d413047435371475349623344514542415155414134474e4144434269514b4267514431556d6b467976503450523663654d435539786954427641350a524869375134572f5864726c526f71584834744267777458504f624c6370706a7447636773467436677537553832576b314f5a386952454f795931754e544b440a2b61543366584c74476257364b446966654d35453639444f5032566a66783631626943434e726a794d5a6a35714a7662696e4e76436f2f5133372b30644775550a704b5a393932665734467a4654424d4b76514944415141420a2d2d2d2d2d454e44205055424c4943204b45592d2d2d2d2d2d2d2d2d2d424547494e205055424c4943204b45592d2d2d2d2d0a4d4947664d413047435371475349623344514542415155414134474e4144434269514b426751434470514c2f682b396e59493630503246546355744134675a760a30724f6b6e5755336f7a4574304e79573859546a4b5a54436c59793876626447485359566271687863716369675651614446715a684a4a6556512f4a4b37624d0a4a4737762f417546456a477533554b6676496944645371413747516e51484e34615432313741304d7461523956546f7334797462356e31682b737249523864720a41315362713072544a434f4e457a4e3277774944415141420a2d2d2d2d2d454e44205055424c4943204b45592d2d2d2d2d2d2d2d2d2d424547494e205055424c4943204b45592d2d2d2d2d0a4d4947664d413047435371475349623344514542415155414134474e4144434269514b42675143515a676c6b74394f504a526147672b457a45454170747834350a4970303453384670575144506d576a7967344c78556f7959625557493259574a59656b62776f696a6c624a57457a5a4d2b5a64346275526e48503836323830560a434e56524e5a435552517750363259675076537250666930727a5556664350476f7a7543697033565757454577652f6a4d6e664259614e6f76794f45584b62560a6c6a6a706f4c6471665a2b4d7768534565774944415141420a2d2d2d2d2d454e44205055424c4943204b45592d2d2d2d2d2d2d2d2d2d424547494e205055424c4943204b45592d2d2d2d2d0a4d4947664d413047435371475349623344514542415155414134474e4144434269514b426751446764655747797869467048706f63687959464d4d79775350540a41677258335431625934537757625a73675357693541656f73586b76526e4247437848623755434a637459544576314f7138476b424a4b3663467837536a2f4f0a6474462b4d637342335166674f737370637345624a56596e7654576c666732706445574d5a433967324d307a334c756471536451594b5a6a67676e54627a66380a65774235624334584b49555a4d59412f77774944415141420a2d2d2d2d2d454e44205055424c4943204b45592d2d2d2d2d2d2d2d2d2d424547494e205055424c4943204b45592d2d2d2d2d0a4d4947664d413047435371475349623344514542415155414134474e4144434269514b426751436533623043785061505a35795558464d555a45794232506f6c0a4b47555367485365564130764b42634a6d4c38533878766e4a4637566b6942644574386a34745030474c72773030484534414c5563305a642b3776542b4d6e310a7766637474394d45774c654f67555571464b746a51785078494b696372327439304a2b787974584338696455583532574242534e6c58535a71776d73316265790a6354575155416775666e636d484a6b7578774944415141420a2d2d2d2d2d454e44205055424c4943204b45592d2d2d2d2d",
  "source": "pragma solidity >=0.4.21 <0.6.0;\npragma experimental ABIEncoderV2;\nimport \"./DataSending.sol\";\nimport \"./UAV.sol\";\n\ncontract PathFind is DataSending{\n\n    // event x(\n    //     uint y, uint z);\n    event x3(bool z);\n  function bfs(uint[] memory pred) public returns(bool)\n  {\n      Queue q=new Queue();\n      bool[] memory visited=new bool[](list.length+1);\n\n      for (uint i = 0; i < visited.length; i++) {\n          visited[i] = false;\n          pred[i] = 0;\n      }\n\n      visited[pubToMac[source]] = true;\n      q.enqueue(pubToMac[source]);\n      while (q.isEmpty()==false) {\n\n          uint u = q.dequeue();\n\n          for (uint i = 0; i < routeTable[registered[u].publicKey].length; i++) {\n\n              if (visited[pubToMac[routeTable[registered[u].publicKey][i]]] == false) {\n                  visited[pubToMac[routeTable[registered[u].publicKey][i]]] = true;\n                  pred[pubToMac[routeTable[registered[u].publicKey][i]]] = u;\n                  q.enqueue(pubToMac[routeTable[registered[u].publicKey][i]]);\n                //   emit x(u,pubToMac[routeTable[registered[u].publicKey][i]]);\n\n                  if (pubToMac[routeTable[registered[u].publicKey][i]] == pubToMac[destination])\n                      return true;\n              }\n          }\n      }\n      return false;\n  }\n\n  function pathFind() public payable\n  {\n    //   return bfs\n    require(msg.sender==source && transaction==true);\n      uint[] memory pred=new uint[](list.length+1);\n      if(bfs(pred)==false){\n          Route.length=0;\n          sendBackToken();\n          count=0;\n          source=0x0000000000000000000000000000000000000000;\n          destination=0x0000000000000000000000000000000000000000;\n          transaction=false;\n          emit x3(false);\n          return;\n      }\n        // emit x1(Route);\n      uint crawl = pubToMac[destination];\n      Route.push(route(crawl,\"\",0));\n      while (pred[crawl] != 0) {\n          Route.push(route(pred[crawl],\"\",0));\n          crawl = pred[crawl];\n      }\n    //   emit x1(Route);\n      uint start=0;\n      uint end=Route.length-1;\n      while (start < end)\n      {\n          route memory temp = Route[start];\n          Route[start] = Route[end];\n          Route[end] = temp;\n          start++;\n          end--;\n      }\n      emit x3(true);\n  }\n  function returnRoute() public view returns(route[] memory)\n    {return Route;}\n}\n",
  "sourcePath": "/home/stellet/Desktop/blockchain/Major-Blockchain/src/contracts/PathFind.sol",
  "compiler": {
    "name": "solc",
    "version": "0.5.0+commit.1d4f565a.Emscripten.clang"
  },
  "schemaVersion": "3.0.2",
  "updatedAt": "2020-05-23T00:56:36.088Z",
  "devdoc": {
    "methods": {}
  },
  "userdoc": {
    "methods": {}
  }
}