{
  "contractName": "Queue",
  "abi": [
    {
      "inputs": [],
      "payable": false,
      "stateMutability": "nonpayable",
      "type": "constructor"
    },
    {
      "constant": false,
      "inputs": [
        {
          "name": "data",
          "type": "uint256"
        }
      ],
      "name": "enqueue",
      "outputs": [],
      "payable": false,
      "stateMutability": "nonpayable",
      "type": "function"
    },
    {
      "constant": false,
      "inputs": [],
      "name": "dequeue",
      "outputs": [
        {
          "name": "",
          "type": "uint256"
        }
      ],
      "payable": false,
      "stateMutability": "nonpayable",
      "type": "function"
    },
    {
      "constant": true,
      "inputs": [],
      "name": "isEmpty",
      "outputs": [
        {
          "name": "",
          "type": "bool"
        }
      ],
      "payable": false,
      "stateMutability": "view",
      "type": "function"
    }
  ],
  "bytecode": "0x608060405234801561001057600080fd5b506001808190555060006002819055506101b28061002f6000396000f3fe608060405260043610610057576000357c0100000000000000000000000000000000000000000000000000000000900463ffffffff1680631ffc735d1461005c578063681fe70c14610097578063957908d1146100c6575b600080fd5b34801561006857600080fd5b506100956004803603602081101561007f57600080fd5b81019080803590602001909291905050506100f1565b005b3480156100a357600080fd5b506100ac61011e565b604051808215151515815260200191505060405180910390f35b3480156100d257600080fd5b506100db61013d565b6040518082815260200191505060405180910390f35b60016002600082825401925050819055508060008060025481526020019081526020016000208190555050565b60006002546001541115610135576001905061013a565b600090505b90565b600080600080600154815260200190815260200160002054905060008060015481526020019081526020016000206000905560018060008282540192505081905550809150509056fea165627a7a723058209612bb5009bfd880490b4954d3310cc4d4119083eac7f27a258b083a3a8b4de50029",
  "source": "pragma solidity >=0.4.21 <0.6.0;\n\ncontract Queue{\n  mapping(uint => uint) queue;\n  uint first;\n  uint last;\n  constructor() public{\n    first = 1;\n    last = 0;\n  }\n  function enqueue(uint data) public {\n      last += 1;\n      queue[last] = data;\n  }\n\n  function dequeue() public returns (uint) {\n    uint x=queue[first];\n    delete queue[first];\n    first += 1;\n    return x;\n  }\n  function isEmpty() public view returns (bool){\n    if(first>last)\n        return true;\n    else\n        return false;\n  }\n}\n\ncontract Registration{\n\n  address payable source;\n  address payable destination;\n  bool public transaction;\n\n  struct IOT{\n    address payable publicKey;\n    string encrypt;\n    uint faulty;\n    uint penaltytoken;\n    int x;\n    int y;\n    int z;\n    uint participating;\n    uint timestamp;\n    uint bcs;\n  }\n\n  struct route {\n    uint id;\n    string data;\n    uint timestamp;\n  }\n\n  uint[] list;\n  route[] Route;\n  mapping(address=> uint) blacklisted;\n  mapping (uint => IOT) registered;\n\n  mapping (address=>uint) pubToMac;\n\n  constructor() public{\n\n\n    transaction=false;\n    registered[1]=IOT(0x83385aCc745e5AF5f2408E5A9d3Ca41B8033F134,\"-----BEGIN PUBLIC KEY-----\\nMIGfMA0GCSqGSIb3DQEBAQUAA4GNADCBiQKBgQDYnoGR9akTl9fkcQp9KDuzHHGX\\n4X6juW9+lZAL1OyTVpuCDxuxS1pCUM3wERt4zUgFidVm6JRiFOBmtmVMZft+A/c+\\n+pkeDoGg0wUG8Rkcz4fBktF6OQLg7Y3xOLEUxQkEm2fCyWPh2K8R45GOkopNc4GI\\nixT23IwOJs+VAKzxkwIDAQAB\\n-----END PUBLIC KEY-----\",0,0,0,0,0,1,0,1);\n    registered[2]=IOT(0x8EE94701c39929eb9722a09315F0e1695Abf555D,\"-----BEGIN PUBLIC KEY-----\\nMIGfMA0GCSqGSIb3DQEBAQUAA4GNADCBiQKBgQDgdeWGyxiFpHpochyYFMMywSPT\\nAgrX3T1bY4SwWbZsgSWi5AeosXkvRnBGCxHb7UCJctYTEv1Oq8GkBJK6cFx7Sj/O\\ndtF+McsB3QfgOsspcsEbJVYnvTWlfg2pdEWMZC9g2M0z3LudqSdQYKZjggnTbzf8\\newB5bC4XKIUZMYA/wwIDAQAB\\n-----END PUBLIC KEY-----\",0,0,6,0,0,1,0,1);\n    registered[3]=IOT(0x7c0300b35b26924a92cBC9da5682279aD18A6E7b,\"-----BEGIN PUBLIC KEY-----\\nMIGfMA0GCSqGSIb3DQEBAQUAA4GNADCBiQKBgQCQZglkt9OPJRaGg+EzEEAptx45\\nIp04S8FpWQDPmWjyg4LxUoyYbUWI2YWJYekbwoijlbJWEzZM+Zd4buRnHP86280V\\nCNVRNZCURQwP62YgPvSrPfi0rzUVfCPGozuCip3VWWEEwe/jMnfBYaNovyOEXKbV\\nljjpoLdqfZ+MwhSEewIDAQAB\\n-----END PUBLIC KEY-----\",0,0,4,0,0,1,0,1);\n    registered[4]=IOT(0x23018548f67d4a0fF7027dB2870d61cA6D88b818,\"-----BEGIN PUBLIC KEY-----\\nMIGfMA0GCSqGSIb3DQEBAQUAA4GNADCBiQKBgQCe3b0CxPaPZ5yUXFMUZEyB2Pol\\nKGUSgHSeVA0vKBcJmL8S8xvnJF7VkiBdEt8j4tP0GLrw00HE4ALUc0Zd+7vT+Mn1\\nwfctt9MEwLeOgUUqFKtjQxPxIKicr2t90J+xytXC8idUX52WBBSNlXSZqwms1bey\\ncTWQUAgufncmHJkuxwIDAQAB\\n-----END PUBLIC KEY-----\",0,0,0,2,0,0,0,0);\n    registered[5]=IOT(0x107f93c9e5eE222A4281843D96A745c68387bD59,\"-----BEGIN PUBLIC KEY-----\\nMIGfMA0GCSqGSIb3DQEBAQUAA4GNADCBiQKBgQCDpQL/h+9nYI60P2FTcUtA4gZv\\n0rOknWU3ozEt0NyW8YTjKZTClYy8vbdGHSYVbqhxcqcigVQaDFqZhJJeVQ/JK7bM\\nJG7v/AuFEjGu3UKfvIiDdSqA7GQnQHN4aT217A0MtaR9VTos4ytb5n1h+srIR8dr\\nA1Sbq0rTJCONEzN2wwIDAQAB\\n-----END PUBLIC KEY-----\",0,0,0,4,0,0,0,0);\n    registered[6]=IOT(0x7dEDCFB08c4E7C2856d44b35411893419d6E6Cf3,\"-----BEGIN PUBLIC KEY-----\\nMIGfMA0GCSqGSIb3DQEBAQUAA4GNADCBiQKBgQC87aj11vwV/ji58cLigpHvcSTJ\\nteAdajJ3PwnUvHHCTjh5Rjh07sZOb1MV2vcOB6PmxlHqocqIEvmT1PBqIoLN9jpB\\nC/tbTWtDLafNEirdtszeUgP2s8vFzhK3F7YqNGHzz7HiOCV7FYVsDe4jyjV10vEf\\nB5tSXt0pH27LJipuZwIDAQAB\\n-----END PUBLIC KEY-----\",0,0,2,4,0,0,0,0);\n    registered[7]=IOT(0x34dCf4e9c4B0eD9F835c5B4173B2d90804b2a11f,\"-----BEGIN PUBLIC KEY-----\\nMIGfMA0GCSqGSIb3DQEBAQUAA4GNADCBiQKBgQDMJlsg3FieJsbC9xLGyFC8MdkE\\n9V0Yc33WjuZqU6ca7y7K3AUu+TsMYsKGAhQJvcNu5PxwZwfkudY+wIm//NroSt3s\\nGhrMkaNoFTAW1Uc8Q5Y77K1L/kp9M0be0UXXG5Qb3QZ/dczEDDpnm0iLHusTYz7R\\nnwOiJTtf9eGt5ClZ4wIDAQAB\\n-----END PUBLIC KEY-----\",0,0,4,4,0,0,0,0);\n    registered[8]=IOT(0x5aF5E7EACd4552ED39E40aa82B2FA164b6A441a8,\"-----BEGIN PUBLIC KEY-----\\nMIGfMA0GCSqGSIb3DQEBAQUAA4GNADCBiQKBgQD1UmkFyvP4PR6ceMCU9xiTBvA5\\nRHi7Q4W/XdrlRoqXH4tBgwtXPObLcppjtGcgsFt6gu7U82Wk1OZ8iREOyY1uNTKD\\n+aT3fXLtGbW6KDifeM5E69DOP2Vjfx61biCCNrjyMZj5qJvbinNvCo/Q37+0dGuU\\npKZ992fW4FzFTBMKvQIDAQAB\\n-----END PUBLIC KEY-----\",0,0,4,2,0,0,0,0);\n\n\n    pubToMac[registered[1].publicKey]=1;\n    pubToMac[registered[2].publicKey]=2;\n    pubToMac[registered[3].publicKey]=3;\n    pubToMac[registered[4].publicKey]=4;\n    pubToMac[registered[5].publicKey]=5;\n    pubToMac[registered[6].publicKey]=6;\n    pubToMac[registered[7].publicKey]=7;\n    pubToMac[registered[8].publicKey]=8;\n\n\n    list.push(1);\n    list.push(2);\n    list.push(3);\n    list.push(4);\n    list.push(5);\n    list.push(6);\n    list.push(7);\n    list.push(8);\n\n  }\n\n}\n",
  "sourcePath": "/home/stellet/Desktop/blockchain/Major-Blockchain/src/contracts/UAV.sol",
  "compiler": {
    "name": "solc",
    "version": "0.5.0+commit.1d4f565a.Emscripten.clang"
  },
  "schemaVersion": "3.0.2",
  "updatedAt": "2020-05-21T17:18:03.168Z",
  "devdoc": {
    "methods": {}
  },
  "userdoc": {
    "methods": {}
  }
}