{
  "contractName": "Queue",
  "abi": [
    {
      "inputs": [],
      "payable": false,
      "stateMutability": "nonpayable",
      "type": "constructor"
    },
    {
      "constant": false,
      "inputs": [
        {
          "name": "data",
          "type": "uint256"
        }
      ],
      "name": "enqueue",
      "outputs": [],
      "payable": false,
      "stateMutability": "nonpayable",
      "type": "function"
    },
    {
      "constant": false,
      "inputs": [],
      "name": "dequeue",
      "outputs": [
        {
          "name": "",
          "type": "uint256"
        }
      ],
      "payable": false,
      "stateMutability": "nonpayable",
      "type": "function"
    },
    {
      "constant": true,
      "inputs": [],
      "name": "isEmpty",
      "outputs": [
        {
          "name": "",
          "type": "bool"
        }
      ],
      "payable": false,
      "stateMutability": "view",
      "type": "function"
    }
  ],
  "bytecode": "0x608060405234801561001057600080fd5b506001808190555060006002819055506101b28061002f6000396000f3fe608060405260043610610057576000357c0100000000000000000000000000000000000000000000000000000000900463ffffffff1680631ffc735d1461005c578063681fe70c14610097578063957908d1146100c6575b600080fd5b34801561006857600080fd5b506100956004803603602081101561007f57600080fd5b81019080803590602001909291905050506100f1565b005b3480156100a357600080fd5b506100ac61011e565b604051808215151515815260200191505060405180910390f35b3480156100d257600080fd5b506100db61013d565b6040518082815260200191505060405180910390f35b60016002600082825401925050819055508060008060025481526020019081526020016000208190555050565b60006002546001541115610135576001905061013a565b600090505b90565b600080600080600154815260200190815260200160002054905060008060015481526020019081526020016000206000905560018060008282540192505081905550809150509056fea165627a7a72305820a6761f8073672ffa7c5d9824d4edc6f69d8b48744790a1ac5551dbd0bee3aa820029",
  "source": "pragma solidity >=0.4.21 <0.6.0;\n\ncontract Queue{\n  mapping(uint => uint) queue;\n  uint first;\n  uint last;\n  constructor() public{\n    first = 1;\n    last = 0;\n  }\n  function enqueue(uint data) public {\n      last += 1;\n      queue[last] = data;\n  }\n\n  function dequeue() public returns (uint) {\n    uint x=queue[first];\n    delete queue[first];\n    first += 1;\n    return x;\n  }\n  function isEmpty() public view returns (bool){\n    if(first>last)\n        return true;\n    else\n        return false;\n  }\n}\n\ncontract Registration{\n\n  address payable source;\n  address payable destination;\n  bool public transaction;\n\n  struct IOT{\n    address payable publicKey;\n    string encrypt;\n    uint faulty;\n    uint penaltytoken;\n    int x;\n    int y;\n    int z;\n    uint participating;\n    uint timestamp;\n    uint bcs;\n  }\n\n  struct route {\n    uint id;\n    address payable add;\n    string data;\n    uint timestamp;\n  }\n\n  uint[] list;\n  route[] Route;\n  mapping(address=> uint) blacklisted;\n  mapping (uint => IOT) registered;\n\n  mapping (address=>uint) pubToMac;\n\n  constructor() public{\n\n\n    transaction=false;\n    registered[1]=IOT(0x923eAb5F3174C5dF357ccaAEC450A3eFf027D8E2,\"-----BEGIN PUBLIC KEY-----\\nMIGfMA0GCSqGSIb3DQEBAQUAA4GNADCBiQKBgQDYnoGR9akTl9fkcQp9KDuzHHGX\\n4X6juW9+lZAL1OyTVpuCDxuxS1pCUM3wERt4zUgFidVm6JRiFOBmtmVMZft+A/c+\\n+pkeDoGg0wUG8Rkcz4fBktF6OQLg7Y3xOLEUxQkEm2fCyWPh2K8R45GOkopNc4GI\\nixT23IwOJs+VAKzxkwIDAQAB\\n-----END PUBLIC KEY-----\",0,0,0,0,0,1,0,1);\n    registered[2]=IOT(0xD538e4979b2960DAB7660652453C4bef1577b365,\"-----BEGIN PUBLIC KEY-----\\nMIGfMA0GCSqGSIb3DQEBAQUAA4GNADCBiQKBgQDgdeWGyxiFpHpochyYFMMywSPT\\nAgrX3T1bY4SwWbZsgSWi5AeosXkvRnBGCxHb7UCJctYTEv1Oq8GkBJK6cFx7Sj/O\\ndtF+McsB3QfgOsspcsEbJVYnvTWlfg2pdEWMZC9g2M0z3LudqSdQYKZjggnTbzf8\\newB5bC4XKIUZMYA/wwIDAQAB\\n-----END PUBLIC KEY-----\",0,0,4,0,0,1,0,1);\n    registered[3]=IOT(0xC9418A94E0e80c0f1a3BE2bf15D1a9beB7a3cdCA,\"-----BEGIN PUBLIC KEY-----\\nMIGfMA0GCSqGSIb3DQEBAQUAA4GNADCBiQKBgQCQZglkt9OPJRaGg+EzEEAptx45\\nIp04S8FpWQDPmWjyg4LxUoyYbUWI2YWJYekbwoijlbJWEzZM+Zd4buRnHP86280V\\nCNVRNZCURQwP62YgPvSrPfi0rzUVfCPGozuCip3VWWEEwe/jMnfBYaNovyOEXKbV\\nljjpoLdqfZ+MwhSEewIDAQAB\\n-----END PUBLIC KEY-----\",0,0,8,0,0,1,0,1);\n    registered[4]=IOT(0x15EEC3bfbBebBA4C8615995966C1198335a169F0,\"-----BEGIN PUBLIC KEY-----\\nMIGfMA0GCSqGSIb3DQEBAQUAA4GNADCBiQKBgQCe3b0CxPaPZ5yUXFMUZEyB2Pol\\nKGUSgHSeVA0vKBcJmL8S8xvnJF7VkiBdEt8j4tP0GLrw00HE4ALUc0Zd+7vT+Mn1\\nwfctt9MEwLeOgUUqFKtjQxPxIKicr2t90J+xytXC8idUX52WBBSNlXSZqwms1bey\\ncTWQUAgufncmHJkuxwIDAQAB\\n-----END PUBLIC KEY-----\",0,0,0,2,0,0,0,0);\n    registered[5]=IOT(0x12c3A5431b0B5995012fDe7976aaBEd676F2B443,\"-----BEGIN PUBLIC KEY-----\\nMIGfMA0GCSqGSIb3DQEBAQUAA4GNADCBiQKBgQCDpQL/h+9nYI60P2FTcUtA4gZv\\n0rOknWU3ozEt0NyW8YTjKZTClYy8vbdGHSYVbqhxcqcigVQaDFqZhJJeVQ/JK7bM\\nJG7v/AuFEjGu3UKfvIiDdSqA7GQnQHN4aT217A0MtaR9VTos4ytb5n1h+srIR8dr\\nA1Sbq0rTJCONEzN2wwIDAQAB\\n-----END PUBLIC KEY-----\",0,0,0,4,0,0,0,0);\n    registered[6]=IOT(0xaBFEACbFB9a9adf465f62A6e9d39301efeAaB755,\"-----BEGIN PUBLIC KEY-----\\nMIGfMA0GCSqGSIb3DQEBAQUAA4GNADCBiQKBgQC87aj11vwV/ji58cLigpHvcSTJ\\nteAdajJ3PwnUvHHCTjh5Rjh07sZOb1MV2vcOB6PmxlHqocqIEvmT1PBqIoLN9jpB\\nC/tbTWtDLafNEirdtszeUgP2s8vFzhK3F7YqNGHzz7HiOCV7FYVsDe4jyjV10vEf\\nB5tSXt0pH27LJipuZwIDAQAB\\n-----END PUBLIC KEY-----\",0,0,2,4,0,0,0,0);\n    registered[7]=IOT(0x81f6899B9EAB5DA73E08ab595ed426127dfBfF4f,\"-----BEGIN PUBLIC KEY-----\\nMIGfMA0GCSqGSIb3DQEBAQUAA4GNADCBiQKBgQDMJlsg3FieJsbC9xLGyFC8MdkE\\n9V0Yc33WjuZqU6ca7y7K3AUu+TsMYsKGAhQJvcNu5PxwZwfkudY+wIm//NroSt3s\\nGhrMkaNoFTAW1Uc8Q5Y77K1L/kp9M0be0UXXG5Qb3QZ/dczEDDpnm0iLHusTYz7R\\nnwOiJTtf9eGt5ClZ4wIDAQAB\\n-----END PUBLIC KEY-----\",0,0,4,4,0,0,0,0);\n    registered[8]=IOT(0xCC2900eEC5f3202Ecd76D6f9140E33c0Ac15F17f,\"-----BEGIN PUBLIC KEY-----\\nMIGfMA0GCSqGSIb3DQEBAQUAA4GNADCBiQKBgQD1UmkFyvP4PR6ceMCU9xiTBvA5\\nRHi7Q4W/XdrlRoqXH4tBgwtXPObLcppjtGcgsFt6gu7U82Wk1OZ8iREOyY1uNTKD\\n+aT3fXLtGbW6KDifeM5E69DOP2Vjfx61biCCNrjyMZj5qJvbinNvCo/Q37+0dGuU\\npKZ992fW4FzFTBMKvQIDAQAB\\n-----END PUBLIC KEY-----\",0,0,4,2,0,0,0,0);\n    registered[9]=IOT(0xe2BF3AB74B375d7Bacd555Cb894273142c96AE85,\"-----BEGIN PUBLIC KEY-----\\nMIGfMA0GCSqGSIb3DQEBAQUAA4GNADCBiQKBgQCttQB2CwXj1O+BNFwEkS3AZgVV\\nIMVCWPnFLSHIf4r89MilkT5bpLoZxtxt/xqktfm2Y4y2osHBg3oL+Zo163jI9/ra\\nWJGOOfrHhiGhkTvVap1zj2Ug84+BMVrjFYskoWLVm2AmX1A+T/QpUuloiSjef0Fb\\nnnAmnARbp0JRHn5atQIDAQAB\\n-----END PUBLIC KEY-----\",0,0,0,0,0,0,0,0);\n\n    blacklisted[0x15EEC3bfbBebBA4C8615995966C1198335a169F0]=10;\n\n    pubToMac[registered[1].publicKey]=1;\n    pubToMac[registered[2].publicKey]=2;\n    pubToMac[registered[3].publicKey]=3;\n    pubToMac[registered[4].publicKey]=4;\n    pubToMac[registered[5].publicKey]=5;\n    pubToMac[registered[6].publicKey]=6;\n    pubToMac[registered[7].publicKey]=7;\n    pubToMac[registered[8].publicKey]=8;\n    pubToMac[registered[9].publicKey]=9;\n\n\n\n    list.push(1);\n    list.push(2);\n    list.push(3);\n    list.push(4);\n    list.push(5);\n    list.push(6);\n    list.push(7);\n    list.push(8);\n    list.push(9);\n\n\n  }\n  function registration(string memory pubkey) public payable{\n    if(pubToMac[msg.sender]==0 && blacklisted[msg.sender]==0 && msg.value==5 ether)\n    {\n      list.push(list.length+1);\n      pubToMac[msg.sender]=list.length;\n      registered[pubToMac[msg.sender]].publicKey=msg.sender;\n      registered[pubToMac[msg.sender]].encrypt=pubkey;\n      registered[pubToMac[msg.sender]].faulty=0;\n      registered[pubToMac[msg.sender]].penaltytoken=0;\n      registered[pubToMac[msg.sender]].participating=0;\n      registered[pubToMac[msg.sender]].bcs=0;\n      registered[pubToMac[msg.sender]].x=0;\n      registered[pubToMac[msg.sender]].y=0;\n      registered[pubToMac[msg.sender]].z=0;\n\n    }\n    else\n      return;\n  }\n  function removeFromFaulty() public payable{\n    if(pubToMac[msg.sender]!=0 && registered[pubToMac[msg.sender]].faulty!=0)\n    {\n        if(registered[pubToMac[msg.sender]].penaltytoken == msg.value && (now-registered[pubToMac[msg.sender]].timestamp)<=registered[pubToMac[msg.sender]].faulty)\n        {\n          registered[pubToMac[msg.sender]].penaltytoken=0;\n          registered[pubToMac[msg.sender]].faulty=0;\n          registered[pubToMac[msg.sender]].timestamp=0;\n\n        }\n        else if( (now-registered[pubToMac[msg.sender]].timestamp)>registered[pubToMac[msg.sender]].faulty)\n        {\n            registered[pubToMac[msg.sender]].penaltytoken+=2 ether;\n            registered[pubToMac[msg.sender]].faulty+=10;\n            registered[pubToMac[msg.sender]].timestamp=now;\n\n        }\n        return;\n    }\n  }\n  function checkBlacklisted() public view returns(uint)\n  {\n    return blacklisted[msg.sender];\n  }\n}\n",
  "sourcePath": "/home/stellet/Desktop/blockchain/Major-Blockchain/src/contracts/UAV.sol",
  "compiler": {
    "name": "solc",
    "version": "0.5.0+commit.1d4f565a.Emscripten.clang"
  },
  "schemaVersion": "3.0.2",
  "updatedAt": "2020-05-24T00:22:31.267Z",
  "devdoc": {
    "methods": {}
  },
  "userdoc": {
    "methods": {}
  }
}