{
  "contractName": "Queue",
  "abi": [
    {
      "inputs": [],
      "payable": false,
      "stateMutability": "nonpayable",
      "type": "constructor",
      "signature": "constructor"
    },
    {
      "constant": false,
      "inputs": [
        {
          "name": "data",
          "type": "int256"
        }
      ],
      "name": "enqueue",
      "outputs": [],
      "payable": false,
      "stateMutability": "nonpayable",
      "type": "function",
      "signature": "0x8acc866b"
    },
    {
      "constant": false,
      "inputs": [],
      "name": "dequeue",
      "outputs": [
        {
          "name": "",
          "type": "bool"
        }
      ],
      "payable": false,
      "stateMutability": "nonpayable",
      "type": "function",
      "signature": "0x957908d1"
    }
  ],
  "bytecode": "0x608060405234801561001057600080fd5b5060018081905550600060028190555061015c8061002f6000396000f3fe60806040526004361061004c576000357c0100000000000000000000000000000000000000000000000000000000900463ffffffff1680638acc866b14610051578063957908d11461008c575b600080fd5b34801561005d57600080fd5b5061008a6004803603602081101561007457600080fd5b81019080803590602001909291905050506100bb565b005b34801561009857600080fd5b506100a16100e8565b604051808215151515815260200191505060405180910390f35b60016002600082825401925050819055508060008060025481526020019081526020016000208190555050565b600060025460015410151561012857600080600154815260200190815260200160002060009055600180600082825401925050819055506001905061012d565b600090505b9056fea165627a7a7230582068f937ec85ff241b8b8769b0d471393522e7edc28cb98075d631a05b882f8ea60029",
  "source": "pragma solidity >=0.4.21 <0.6.0;\n\ncontract Queue {\n    mapping(uint => int) queue;\n    uint first;\n    uint last;\n    constructor() public{\n      first = 1;\n      last = 0;\n    }\n    function enqueue(int data) public {\n        last += 1;\n        queue[last] = data;\n    }\n\n    function dequeue() public returns (bool) {\n        if(first>=last)\n        {\n            delete queue[first];\n            first += 1;\n            return true;\n        }\n        else\n            return false;\n\n    }\n}\n",
  "sourcePath": "/home/stellet/Desktop/blockchain/Major-Blockchain/src/contracts/bfs.sol",
  "compiler": {
    "name": "solc",
    "version": "0.5.0+commit.1d4f565a.Emscripten.clang"
  },
  "schemaVersion": "3.0.2",
  "updatedAt": "2020-05-17T00:48:32.891Z",
  "devdoc": {
    "methods": {}
  },
  "userdoc": {
    "methods": {}
  }
}