{
  "contractName": "Registration",
  "abi": [
    {
      "constant": true,
      "inputs": [
        {
          "name": "",
          "type": "address"
        }
      ],
      "name": "pubToMac",
      "outputs": [
        {
          "name": "",
          "type": "string"
        }
      ],
      "payable": false,
      "stateMutability": "view",
      "type": "function",
      "signature": "0x6282a4a8"
    },
    {
      "inputs": [],
      "payable": false,
      "stateMutability": "nonpayable",
      "type": "constructor",
      "signature": "constructor"
    }
  ],
  "bytecode": "0x608060405234801561001057600080fd5b5060c06040519081016040528073ca35b7d915458ef540ade6068dfe2f44e8fa733c73ffffffffffffffffffffffffffffffffffffffff168152602001600081526020016001815260200160008152602001600081526020016000815250600060405180807f41000000000000000000000000000000000000000000000000000000000000008152506001019050908152602001604051809103902060008201518160000160006101000a81548173ffffffffffffffffffffffffffffffffffffffff021916908373ffffffffffffffffffffffffffffffffffffffff1602179055506020820151816001015560408201518160020155606082015181600301556080820151816004015560a0820151816005015590505060c0604051908101604052807314723a09acff6d2a60dcdf7aa4aff308fddc160c73ffffffffffffffffffffffffffffffffffffffff168152602001600081526020016001815260200160008152602001600181526020016000815250600060405180807f42000000000000000000000000000000000000000000000000000000000000008152506001019050908152602001604051809103902060008201518160000160006101000a81548173ffffffffffffffffffffffffffffffffffffffff021916908373ffffffffffffffffffffffffffffffffffffffff1602179055506020820151816001015560408201518160020155606082015181600301556080820151816004015560a0820151816005015590505060c060405190810160405280734b0897b0513fdc7c541b6d9d7e929c4e5364d2db73ffffffffffffffffffffffffffffffffffffffff168152602001600081526020016001815260200160008152602001600281526020016000815250600060405180807f43000000000000000000000000000000000000000000000000000000000000008152506001019050908152602001604051809103902060008201518160000160006101000a81548173ffffffffffffffffffffffffffffffffffffffff021916908373ffffffffffffffffffffffffffffffffffffffff1602179055506020820151816001015560408201518160020155606082015181600301556080820151816004015560a0820151816005015590505060c06040519081016040528073583031d1113ad414f02576bd6afabfb30214022573ffffffffffffffffffffffffffffffffffffffff168152602001600081526020016001815260200160008152602001600381526020016000815250600060405180807f44000000000000000000000000000000000000000000000000000000000000008152506001019050908152602001604051809103902060008201518160000160006101000a81548173ffffffffffffffffffffffffffffffffffffffff021916908373ffffffffffffffffffffffffffffffffffffffff1602179055506020820151816001015560408201518160020155606082015181600301556080820151816004015560a0820151816005015590505060c06040519081016040528073dd870fa1b7c4700f2bd7f44238821c26f739214873ffffffffffffffffffffffffffffffffffffffff168152602001600081526020016001815260200160008152602001600481526020016000815250600060405180807f45000000000000000000000000000000000000000000000000000000000000008152506001019050908152602001604051809103902060008201518160000160006101000a81548173ffffffffffffffffffffffffffffffffffffffff021916908373ffffffffffffffffffffffffffffffffffffffff1602179055506020820151816001015560408201518160020155606082015181600301556080820151816004015560a082015181600501559050506040805190810160405280600181526020017f4100000000000000000000000000000000000000000000000000000000000000815250600160008060405180807f41000000000000000000000000000000000000000000000000000000000000008152506001019050908152602001604051809103902060000160009054906101000a900473ffffffffffffffffffffffffffffffffffffffff1673ffffffffffffffffffffffffffffffffffffffff1673ffffffffffffffffffffffffffffffffffffffff168152602001908152602001600020908051906020019061066c929190610a16565b506040805190810160405280600181526020017f4200000000000000000000000000000000000000000000000000000000000000815250600160008060405180807f42000000000000000000000000000000000000000000000000000000000000008152506001019050908152602001604051809103902060000160009054906101000a900473ffffffffffffffffffffffffffffffffffffffff1673ffffffffffffffffffffffffffffffffffffffff1673ffffffffffffffffffffffffffffffffffffffff1681526020019081526020016000209080519060200190610755929190610a16565b506040805190810160405280600181526020017f4300000000000000000000000000000000000000000000000000000000000000815250600160008060405180807f43000000000000000000000000000000000000000000000000000000000000008152506001019050908152602001604051809103902060000160009054906101000a900473ffffffffffffffffffffffffffffffffffffffff1673ffffffffffffffffffffffffffffffffffffffff1673ffffffffffffffffffffffffffffffffffffffff168152602001908152602001600020908051906020019061083e929190610a16565b506040805190810160405280600181526020017f4400000000000000000000000000000000000000000000000000000000000000815250600160008060405180807f44000000000000000000000000000000000000000000000000000000000000008152506001019050908152602001604051809103902060000160009054906101000a900473ffffffffffffffffffffffffffffffffffffffff1673ffffffffffffffffffffffffffffffffffffffff1673ffffffffffffffffffffffffffffffffffffffff1681526020019081526020016000209080519060200190610927929190610a16565b506040805190810160405280600181526020017f4500000000000000000000000000000000000000000000000000000000000000815250600160008060405180807f45000000000000000000000000000000000000000000000000000000000000008152506001019050908152602001604051809103902060000160009054906101000a900473ffffffffffffffffffffffffffffffffffffffff1673ffffffffffffffffffffffffffffffffffffffff1673ffffffffffffffffffffffffffffffffffffffff1681526020019081526020016000209080519060200190610a10929190610a16565b50610abb565b828054600181600116156101000203166002900490600052602060002090601f016020900481019282601f10610a5757805160ff1916838001178555610a85565b82800160010185558215610a85579182015b82811115610a84578251825591602001919060010190610a69565b5b509050610a929190610a96565b5090565b610ab891905b80821115610ab4576000816000905550600101610a9c565b5090565b90565b61028380610aca6000396000f3fe608060405260043610610041576000357c0100000000000000000000000000000000000000000000000000000000900463ffffffff1680636282a4a814610046575b600080fd5b34801561005257600080fd5b5061006d60048036036100689190810190610147565b610083565b60405161007a91906101a6565b60405180910390f35b60016020528060005260406000206000915090508054600181600116156101000203166002900480601f01602080910402602001604051908101604052809291908181526020018280546001816001161561010002031660029004801561012b5780601f106101005761010080835404028352916020019161012b565b820191906000526020600020905b81548152906001019060200180831161010e57829003601f168201915b505050505081565b600061013f82356101f3565b905092915050565b60006020828403121561015957600080fd5b600061016784828501610133565b91505092915050565b600061017b826101c8565b80845261018f816020860160208601610205565b61019881610238565b602085010191505092915050565b600060208201905081810360008301526101c08184610170565b905092915050565b600081519050919050565b600073ffffffffffffffffffffffffffffffffffffffff82169050919050565b60006101fe826101d3565b9050919050565b60005b83811015610223578082015181840152602081019050610208565b83811115610232576000848401525b50505050565b6000601f19601f830116905091905056fea265627a7a7230582031a6397cb39c37f9789dabcb595b931e80148cbde4778ff5f997d2e2363a09a06c6578706572696d656e74616cf50037",
  "source": "pragma solidity >=0.4.21 <0.6.0;\npragma experimental ABIEncoderV2;\ncontract Registration{\n\n  struct IOT{\n    address publicKey;\n    uint blacklist;\n    uint token;\n    int x;\n    int y;\n    int z;\n  }\n\n  mapping (string => IOT) registered;\n  mapping (address=>string) public pubToMac;\n  constructor() public{\n    registered[\"A\"]=IOT(0xCA35b7d915458EF540aDe6068dFe2F44E8fa733c,0,1,0,0,0);\n    registered[\"B\"]=IOT(0x14723A09ACff6D2A60DcdF7aA4AFf308FDDC160C,0,1,0,1,0);\n    registered[\"C\"]=IOT(0x4B0897b0513fdC7C541B6d9D7E929C4e5364D2dB,0,1,0,2,0);\n    registered[\"D\"]=IOT(0x583031D1113aD414F02576BD6afaBfb302140225,0,1,0,3,0);\n    registered[\"E\"]=IOT(0xdD870fA1b7C4700F2BD7f44238821C26f7392148,0,1,0,4,0);\n    pubToMac[registered[\"A\"].publicKey]=\"A\";\n    pubToMac[registered[\"B\"].publicKey]=\"B\";\n    pubToMac[registered[\"C\"].publicKey]=\"C\";\n    pubToMac[registered[\"D\"].publicKey]=\"D\";\n    pubToMac[registered[\"E\"].publicKey]=\"E\";\n  }\n}\ncontract DataSending is Registration{\n\n  mapping (address => address[]) routeTable;\n  constructor() public{\n    routeTable[registered[\"A\"].publicKey].push(registered[\"B\"].publicKey);\n    routeTable[registered[\"B\"].publicKey].push(registered[\"A\"].publicKey);\n    routeTable[registered[\"B\"].publicKey].push(registered[\"C\"].publicKey);\n    routeTable[registered[\"C\"].publicKey].push(registered[\"B\"].publicKey);\n    routeTable[registered[\"C\"].publicKey].push(registered[\"D\"].publicKey);\n    routeTable[registered[\"D\"].publicKey].push(registered[\"C\"].publicKey);\n    routeTable[registered[\"D\"].publicKey].push(registered[\"E\"].publicKey);\n    routeTable[registered[\"E\"].publicKey].push(registered[\"D\"].publicKey);\n\n  }\n  function updateCoordinates(int[] memory coordinates) public\n  {\n    registered[pubToMac[msg.sender]].x=coordinates[0];\n    registered[pubToMac[msg.sender]].y=coordinates[1];\n    registered[pubToMac[msg.sender]].z=coordinates[2];\n  }\n\n  function getTable() public view returns(address[] memory)\n  {\n    return routeTable[msg.sender];\n  }\n\n}\n",
  "sourcePath": "/home/stellet/Desktop/blockchain/Major-Blockchain/src/contracts/DataSending.sol",
  "compiler": {
    "name": "solc",
    "version": "0.5.0+commit.1d4f565a.Emscripten.clang"
  },
  "schemaVersion": "3.0.2",
  "updatedAt": "2020-05-17T00:48:32.904Z",
  "devdoc": {
    "methods": {}
  },
  "userdoc": {
    "methods": {}
  }
}