{
  "contractName": "Registration",
  "abi": [
    {
      "constant": true,
      "inputs": [],
      "name": "transaction",
      "outputs": [
        {
          "name": "",
          "type": "bool"
        }
      ],
      "payable": false,
      "stateMutability": "view",
      "type": "function"
    },
    {
      "inputs": [],
      "payable": false,
      "stateMutability": "nonpayable",
      "type": "constructor"
    },
    {
      "constant": false,
      "inputs": [
        {
          "name": "pubkey",
          "type": "string"
        }
      ],
      "name": "registration",
      "outputs": [],
      "payable": true,
      "stateMutability": "payable",
      "type": "function"
    },
    {
      "constant": false,
      "inputs": [],
      "name": "removeFromFaulty",
      "outputs": [],
      "payable": true,
      "stateMutability": "payable",
      "type": "function"
    },
    {
      "constant": true,
      "inputs": [],
      "name": "checkBlacklisted",
      "outputs": [
        {
          "name": "",
          "type": "uint256"
        }
      ],
      "payable": false,
      "stateMutability": "view",
      "type": "function"
    }
  ],
  "bytecode": "0x60806040523480156200001157600080fd5b506000600160146101000a81548160ff0219169083151502179055506101406040519081016040528073923eab5f3174c5df357ccaaec450a3eff027d8e273ffffffffffffffffffffffffffffffffffffffff1681526020016101406040519081016040528061010f815260200162001fe161010f91398152602001600081526020016000815260200160008152602001600081526020016000815260200160018152602001600081526020016001815250600560006001815260200190815260200160002060008201518160000160006101000a81548173ffffffffffffffffffffffffffffffffffffffff021916908373ffffffffffffffffffffffffffffffffffffffff16021790555060208201518160010190805190602001906200013c92919062001308565b5060408201518160020155606082015181600301556080820151816004015560a0820151816005015560c0820151816006015560e08201518160070155610100820151816008015561012082015181600901559050506101406040519081016040528073d538e4979b2960dab7660652453c4bef1577b36573ffffffffffffffffffffffffffffffffffffffff1681526020016101406040519081016040528061010f81526020016200263b61010f91398152602001600081526020016000815260200160048152602001600081526020016000815260200160018152602001600081526020016001815250600560006002815260200190815260200160002060008201518160000160006101000a81548173ffffffffffffffffffffffffffffffffffffffff021916908373ffffffffffffffffffffffffffffffffffffffff1602179055506020820151816001019080519060200190620002a192919062001308565b5060408201518160020155606082015181600301556080820151816004015560a0820151816005015560c0820151816006015560e08201518160070155610100820151816008015561012082015181600901559050506101406040519081016040528073c9418a94e0e80c0f1a3be2bf15d1a9beb7a3cdca73ffffffffffffffffffffffffffffffffffffffff1681526020016101406040519081016040528061010f81526020016200252c61010f91398152602001600081526020016000815260200160088152602001600081526020016000815260200160018152602001600081526020016001815250600560006003815260200190815260200160002060008201518160000160006101000a81548173ffffffffffffffffffffffffffffffffffffffff021916908373ffffffffffffffffffffffffffffffffffffffff16021790555060208201518160010190805190602001906200040692919062001308565b5060408201518160020155606082015181600301556080820151816004015560a0820151816005015560c0820151816006015560e0820151816007015561010082015181600801556101208201518160090155905050610140604051908101604052807315eec3bfbbebba4c8615995966c1198335a169f073ffffffffffffffffffffffffffffffffffffffff1681526020016101406040519081016040528061010f81526020016200274a61010f91398152602001600081526020016000815260200160008152602001600281526020016000815260200160008152602001600081526020016000815250600560006004815260200190815260200160002060008201518160000160006101000a81548173ffffffffffffffffffffffffffffffffffffffff021916908373ffffffffffffffffffffffffffffffffffffffff16021790555060208201518160010190805190602001906200056b92919062001308565b5060408201518160020155606082015181600301556080820151816004015560a0820151816005015560c0820151816006015560e0820151816007015561010082015181600801556101208201518160090155905050610140604051908101604052807312c3a5431b0b5995012fde7976aabed676f2b44373ffffffffffffffffffffffffffffffffffffffff1681526020016101406040519081016040528061010f81526020016200241d61010f91398152602001600081526020016000815260200160008152602001600481526020016000815260200160008152602001600081526020016000815250600560006005815260200190815260200160002060008201518160000160006101000a81548173ffffffffffffffffffffffffffffffffffffffff021916908373ffffffffffffffffffffffffffffffffffffffff1602179055506020820151816001019080519060200190620006d092919062001308565b5060408201518160020155606082015181600301556080820151816004015560a0820151816005015560c0820151816006015560e08201518160070155610100820151816008015561012082015181600901559050506101406040519081016040528073abfeacbfb9a9adf465f62a6e9d39301efeaab75573ffffffffffffffffffffffffffffffffffffffff1681526020016101406040519081016040528061010f8152602001620020f061010f91398152602001600081526020016000815260200160028152602001600481526020016000815260200160008152602001600081526020016000815250600560006006815260200190815260200160002060008201518160000160006101000a81548173ffffffffffffffffffffffffffffffffffffffff021916908373ffffffffffffffffffffffffffffffffffffffff16021790555060208201518160010190805190602001906200083592919062001308565b5060408201518160020155606082015181600301556080820151816004015560a0820151816005015560c0820151816006015560e0820151816007015561010082015181600801556101208201518160090155905050610140604051908101604052807381f6899b9eab5da73e08ab595ed426127dfbff4f73ffffffffffffffffffffffffffffffffffffffff1681526020016101406040519081016040528061010f8152602001620021ff61010f91398152602001600081526020016000815260200160048152602001600481526020016000815260200160008152602001600081526020016000815250600560006007815260200190815260200160002060008201518160000160006101000a81548173ffffffffffffffffffffffffffffffffffffffff021916908373ffffffffffffffffffffffffffffffffffffffff16021790555060208201518160010190805190602001906200099a92919062001308565b5060408201518160020155606082015181600301556080820151816004015560a0820151816005015560c0820151816006015560e08201518160070155610100820151816008015561012082015181600901559050506101406040519081016040528073cc2900eec5f3202ecd76d6f9140e33c0ac15f17f73ffffffffffffffffffffffffffffffffffffffff1681526020016101406040519081016040528061010f81526020016200230e61010f91398152602001600081526020016000815260200160048152602001600281526020016000815260200160008152602001600081526020016000815250600560006008815260200190815260200160002060008201518160000160006101000a81548173ffffffffffffffffffffffffffffffffffffffff021916908373ffffffffffffffffffffffffffffffffffffffff160217905550602082015181600101908051906020019062000aff92919062001308565b5060408201518160020155606082015181600301556080820151816004015560a0820151816005015560c0820151816006015560e08201518160070155610100820151816008015561012082015181600901559050506101406040519081016040528073e2bf3ab74b375d7bacd555cb894273142c96ae8573ffffffffffffffffffffffffffffffffffffffff1681526020016101406040519081016040528061010f81526020016200285961010f91398152602001600081526020016000815260200160008152602001600081526020016000815260200160008152602001600081526020016000815250600560006009815260200190815260200160002060008201518160000160006101000a81548173ffffffffffffffffffffffffffffffffffffffff021916908373ffffffffffffffffffffffffffffffffffffffff160217905550602082015181600101908051906020019062000c6492919062001308565b5060408201518160020155606082015181600301556080820151816004015560a0820151816005015560c0820151816006015560e0820151816007015561010082015181600801556101208201518160090155905050600a600460007315eec3bfbbebba4c8615995966c1198335a169f073ffffffffffffffffffffffffffffffffffffffff1673ffffffffffffffffffffffffffffffffffffffff16815260200190815260200160002081905550600160066000600560006001815260200190815260200160002060000160009054906101000a900473ffffffffffffffffffffffffffffffffffffffff1673ffffffffffffffffffffffffffffffffffffffff1673ffffffffffffffffffffffffffffffffffffffff16815260200190815260200160002081905550600260066000600560006002815260200190815260200160002060000160009054906101000a900473ffffffffffffffffffffffffffffffffffffffff1673ffffffffffffffffffffffffffffffffffffffff1673ffffffffffffffffffffffffffffffffffffffff16815260200190815260200160002081905550600360066000600560006003815260200190815260200160002060000160009054906101000a900473ffffffffffffffffffffffffffffffffffffffff1673ffffffffffffffffffffffffffffffffffffffff1673ffffffffffffffffffffffffffffffffffffffff16815260200190815260200160002081905550600460066000600560006004815260200190815260200160002060000160009054906101000a900473ffffffffffffffffffffffffffffffffffffffff1673ffffffffffffffffffffffffffffffffffffffff1673ffffffffffffffffffffffffffffffffffffffff16815260200190815260200160002081905550600560066000600560006005815260200190815260200160002060000160009054906101000a900473ffffffffffffffffffffffffffffffffffffffff1673ffffffffffffffffffffffffffffffffffffffff1673ffffffffffffffffffffffffffffffffffffffff168152602001908152602001600020819055506006806000600560006006815260200190815260200160002060000160009054906101000a900473ffffffffffffffffffffffffffffffffffffffff1673ffffffffffffffffffffffffffffffffffffffff1673ffffffffffffffffffffffffffffffffffffffff16815260200190815260200160002081905550600760066000600560006007815260200190815260200160002060000160009054906101000a900473ffffffffffffffffffffffffffffffffffffffff1673ffffffffffffffffffffffffffffffffffffffff1673ffffffffffffffffffffffffffffffffffffffff16815260200190815260200160002081905550600860066000600560006008815260200190815260200160002060000160009054906101000a900473ffffffffffffffffffffffffffffffffffffffff1673ffffffffffffffffffffffffffffffffffffffff1673ffffffffffffffffffffffffffffffffffffffff16815260200190815260200160002081905550600960066000600560006009815260200190815260200160002060000160009054906101000a900473ffffffffffffffffffffffffffffffffffffffff1673ffffffffffffffffffffffffffffffffffffffff1673ffffffffffffffffffffffffffffffffffffffff168152602001908152602001600020819055506002600190806001815401808255809150509060018203906000526020600020016000909192909190915055506002809080600181540180825580915050906001820390600052602060002001600090919290919091505550600260039080600181540180825580915050906001820390600052602060002001600090919290919091505550600260049080600181540180825580915050906001820390600052602060002001600090919290919091505550600260059080600181540180825580915050906001820390600052602060002001600090919290919091505550600260069080600181540180825580915050906001820390600052602060002001600090919290919091505550600260079080600181540180825580915050906001820390600052602060002001600090919290919091505550600260089080600181540180825580915050906001820390600052602060002001600090919290919091505550600260099080600181540180825580915050906001820390600052602060002001600090919290919091505550620013b7565b828054600181600116156101000203166002900490600052602060002090601f016020900481019282601f106200134b57805160ff19168380011785556200137c565b828001600101855582156200137c579182015b828111156200137b5782518255916020019190600101906200135e565b5b5090506200138b91906200138f565b5090565b620013b491905b80821115620013b057600081600090555060010162001396565b5090565b90565b610c1a80620013c76000396000f3fe608060405260043610610062576000357c0100000000000000000000000000000000000000000000000000000000900463ffffffff1680632adc5d2f146100675780633dd8de3e146100925780635e7c2f101461009c578063c99de57e14610157575b600080fd5b34801561007357600080fd5b5061007c610186565b6040518082815260200191505060405180910390f35b61009a6101cd565b005b610155600480360360208110156100b257600080fd5b81019080803590602001906401000000008111156100cf57600080fd5b8201836020820111156100e157600080fd5b8035906020019184600183028401116401000000008311171561010357600080fd5b91908080601f016020809104026020016040519081016040528093929190818152602001838380828437600081840152601f19601f82011690508083019250505050505050919291929050505061068a565b005b34801561016357600080fd5b5061016c610b36565b604051808215151515815260200191505060405180910390f35b6000600460003373ffffffffffffffffffffffffffffffffffffffff1673ffffffffffffffffffffffffffffffffffffffff16815260200190815260200160002054905090565b6000600660003373ffffffffffffffffffffffffffffffffffffffff1673ffffffffffffffffffffffffffffffffffffffff16815260200190815260200160002054141580156102735750600060056000600660003373ffffffffffffffffffffffffffffffffffffffff1673ffffffffffffffffffffffffffffffffffffffff1681526020019081526020016000205481526020019081526020016000206002015414155b15610687573460056000600660003373ffffffffffffffffffffffffffffffffffffffff1673ffffffffffffffffffffffffffffffffffffffff16815260200190815260200160002054815260200190815260200160002060030154148015610388575060056000600660003373ffffffffffffffffffffffffffffffffffffffff1673ffffffffffffffffffffffffffffffffffffffff1681526020019081526020016000205481526020019081526020016000206002015460056000600660003373ffffffffffffffffffffffffffffffffffffffff1673ffffffffffffffffffffffffffffffffffffffff16815260200190815260200160002054815260200190815260200160002060080154420311155b156104a357600060056000600660003373ffffffffffffffffffffffffffffffffffffffff1673ffffffffffffffffffffffffffffffffffffffff16815260200190815260200160002054815260200190815260200160002060030181905550600060056000600660003373ffffffffffffffffffffffffffffffffffffffff1673ffffffffffffffffffffffffffffffffffffffff16815260200190815260200160002054815260200190815260200160002060020181905550600060056000600660003373ffffffffffffffffffffffffffffffffffffffff1673ffffffffffffffffffffffffffffffffffffffff16815260200190815260200160002054815260200190815260200160002060080181905550610682565b60056000600660003373ffffffffffffffffffffffffffffffffffffffff1673ffffffffffffffffffffffffffffffffffffffff1681526020019081526020016000205481526020019081526020016000206002015460056000600660003373ffffffffffffffffffffffffffffffffffffffff1673ffffffffffffffffffffffffffffffffffffffff168152602001908152602001600020548152602001908152602001600020600801544203111561068157671bc16d674ec8000060056000600660003373ffffffffffffffffffffffffffffffffffffffff1673ffffffffffffffffffffffffffffffffffffffff16815260200190815260200160002054815260200190815260200160002060030160008282540192505081905550600a60056000600660003373ffffffffffffffffffffffffffffffffffffffff1673ffffffffffffffffffffffffffffffffffffffff168152602001908152602001600020548152602001908152602001600020600201600082825401925050819055504260056000600660003373ffffffffffffffffffffffffffffffffffffffff1673ffffffffffffffffffffffffffffffffffffffff168152602001908152602001600020548152602001908152602001600020600801819055505b5b610688565b5b565b6000600660003373ffffffffffffffffffffffffffffffffffffffff1673ffffffffffffffffffffffffffffffffffffffff1681526020019081526020016000205414801561071857506000600460003373ffffffffffffffffffffffffffffffffffffffff1673ffffffffffffffffffffffffffffffffffffffff16815260200190815260200160002054145b801561072b5750674563918244f4000034145b15610b2d5760026001600280549050019080600181540180825580915050906001820390600052602060002001600090919290919091505550600280549050600660003373ffffffffffffffffffffffffffffffffffffffff1673ffffffffffffffffffffffffffffffffffffffff168152602001908152602001600020819055503360056000600660003373ffffffffffffffffffffffffffffffffffffffff1673ffffffffffffffffffffffffffffffffffffffff16815260200190815260200160002054815260200190815260200160002060000160006101000a81548173ffffffffffffffffffffffffffffffffffffffff021916908373ffffffffffffffffffffffffffffffffffffffff1602179055508060056000600660003373ffffffffffffffffffffffffffffffffffffffff1673ffffffffffffffffffffffffffffffffffffffff16815260200190815260200160002054815260200190815260200160002060010190805190602001906108aa929190610b49565b50600060056000600660003373ffffffffffffffffffffffffffffffffffffffff1673ffffffffffffffffffffffffffffffffffffffff16815260200190815260200160002054815260200190815260200160002060020181905550600060056000600660003373ffffffffffffffffffffffffffffffffffffffff1673ffffffffffffffffffffffffffffffffffffffff16815260200190815260200160002054815260200190815260200160002060030181905550600060056000600660003373ffffffffffffffffffffffffffffffffffffffff1673ffffffffffffffffffffffffffffffffffffffff16815260200190815260200160002054815260200190815260200160002060070181905550600060056000600660003373ffffffffffffffffffffffffffffffffffffffff1673ffffffffffffffffffffffffffffffffffffffff16815260200190815260200160002054815260200190815260200160002060090181905550600060056000600660003373ffffffffffffffffffffffffffffffffffffffff1673ffffffffffffffffffffffffffffffffffffffff16815260200190815260200160002054815260200190815260200160002060040181905550600060056000600660003373ffffffffffffffffffffffffffffffffffffffff1673ffffffffffffffffffffffffffffffffffffffff16815260200190815260200160002054815260200190815260200160002060050181905550600060056000600660003373ffffffffffffffffffffffffffffffffffffffff1673ffffffffffffffffffffffffffffffffffffffff16815260200190815260200160002054815260200190815260200160002060060181905550610b32565b610b33565b5b50565b600160149054906101000a900460ff1681565b828054600181600116156101000203166002900490600052602060002090601f016020900481019282601f10610b8a57805160ff1916838001178555610bb8565b82800160010185558215610bb8579182015b82811115610bb7578251825591602001919060010190610b9c565b5b509050610bc59190610bc9565b5090565b610beb91905b80821115610be7576000816000905550600101610bcf565b5090565b9056fea165627a7a7230582088fde7597d97b9e250a5584f3cf3d198b957e2e811a0e81359dffd84350749b200292d2d2d2d2d424547494e205055424c4943204b45592d2d2d2d2d0a4d4947664d413047435371475349623344514542415155414134474e4144434269514b42675144596e6f475239616b546c39666b635170394b44757a484847580a3458366a7557392b6c5a414c314f7954567075434478757853317043554d3377455274347a5567466964566d364a5269464f426d746d564d5a66742b412f632b0a2b706b65446f47673077554738526b637a3466426b7446364f514c67375933784f4c455578516b456d32664379575068324b38523435474f6b6f704e633447490a697854323349774f4a732b56414b7a786b774944415141420a2d2d2d2d2d454e44205055424c4943204b45592d2d2d2d2d2d2d2d2d2d424547494e205055424c4943204b45592d2d2d2d2d0a4d4947664d413047435371475349623344514542415155414134474e4144434269514b426751433837616a31317677562f6a693538634c69677048766353544a0a74654164616a4a3350776e5576484843546a6835526a683037735a4f62314d563276634f4236506d786c48716f63714945766d5431504271496f4c4e396a70420a432f7462545774444c61664e4569726474737a6555675032733876467a684b33463759714e47487a7a3748694f435637465956734465346a796a5631307645660a42357453587430704832374c4a6970755a774944415141420a2d2d2d2d2d454e44205055424c4943204b45592d2d2d2d2d2d2d2d2d2d424547494e205055424c4943204b45592d2d2d2d2d0a4d4947664d413047435371475349623344514542415155414134474e4144434269514b426751444d4a6c7367334669654a73624339784c47794643384d646b450a39563059633333576a755a71553663613779374b334155752b54734d59734b474168514a76634e75355078775a77666b7564592b77496d2f2f4e726f537433730a4768724d6b614e6f465441573155633851355937374b314c2f6b70394d306265305558584735516233515a2f64637a454444706e6d30694c48757354597a37520a6e774f694a5474663965477435436c5a34774944415141420a2d2d2d2d2d454e44205055424c4943204b45592d2d2d2d2d2d2d2d2d2d424547494e205055424c4943204b45592d2d2d2d2d0a4d4947664d413047435371475349623344514542415155414134474e4144434269514b4267514431556d6b467976503450523663654d435539786954427641350a524869375134572f5864726c526f71584834744267777458504f624c6370706a7447636773467436677537553832576b314f5a386952454f795931754e544b440a2b61543366584c74476257364b446966654d35453639444f5032566a66783631626943434e726a794d5a6a35714a7662696e4e76436f2f5133372b30644775550a704b5a393932665734467a4654424d4b76514944415141420a2d2d2d2d2d454e44205055424c4943204b45592d2d2d2d2d2d2d2d2d2d424547494e205055424c4943204b45592d2d2d2d2d0a4d4947664d413047435371475349623344514542415155414134474e4144434269514b426751434470514c2f682b396e59493630503246546355744134675a760a30724f6b6e5755336f7a4574304e79573859546a4b5a54436c59793876626447485359566271687863716369675651614446715a684a4a6556512f4a4b37624d0a4a4737762f417546456a477533554b6676496944645371413747516e51484e34615432313741304d7461523956546f7334797462356e31682b737249523864720a41315362713072544a434f4e457a4e3277774944415141420a2d2d2d2d2d454e44205055424c4943204b45592d2d2d2d2d2d2d2d2d2d424547494e205055424c4943204b45592d2d2d2d2d0a4d4947664d413047435371475349623344514542415155414134474e4144434269514b42675143515a676c6b74394f504a526147672b457a45454170747834350a4970303453384670575144506d576a7967344c78556f7959625557493259574a59656b62776f696a6c624a57457a5a4d2b5a64346275526e48503836323830560a434e56524e5a435552517750363259675076537250666930727a5556664350476f7a7543697033565757454577652f6a4d6e664259614e6f76794f45584b62560a6c6a6a706f4c6471665a2b4d7768534565774944415141420a2d2d2d2d2d454e44205055424c4943204b45592d2d2d2d2d2d2d2d2d2d424547494e205055424c4943204b45592d2d2d2d2d0a4d4947664d413047435371475349623344514542415155414134474e4144434269514b426751446764655747797869467048706f63687959464d4d79775350540a41677258335431625934537757625a73675357693541656f73586b76526e4247437848623755434a637459544576314f7138476b424a4b3663467837536a2f4f0a6474462b4d637342335166674f737370637345624a56596e7654576c666732706445574d5a433967324d307a334c756471536451594b5a6a67676e54627a66380a65774235624334584b49555a4d59412f77774944415141420a2d2d2d2d2d454e44205055424c4943204b45592d2d2d2d2d2d2d2d2d2d424547494e205055424c4943204b45592d2d2d2d2d0a4d4947664d413047435371475349623344514542415155414134474e4144434269514b426751436533623043785061505a35795558464d555a45794232506f6c0a4b47555367485365564130764b42634a6d4c38533878766e4a4637566b6942644574386a34745030474c72773030484534414c5563305a642b3776542b4d6e310a7766637474394d45774c654f67555571464b746a51785078494b696372327439304a2b787974584338696455583532574242534e6c58535a71776d73316265790a6354575155416775666e636d484a6b7578774944415141420a2d2d2d2d2d454e44205055424c4943204b45592d2d2d2d2d2d2d2d2d2d424547494e205055424c4943204b45592d2d2d2d2d0a4d4947664d413047435371475349623344514542415155414134474e4144434269514b4267514374745142324377586a314f2b424e4677456b5333415a6756560a494d564357506e464c53484966347238394d696c6b543562704c6f5a787478742f78716b74666d32593479326f73484267336f4c2b5a6f3136336a49392f72610a574a474f4f667248686947686b5476566170317a6a32556738342b424d56726a4659736b6f574c566d32416d5831412b542f517055756c6f69536a65663046620a6e6e416d6e41526270304a52486e356174514944415141420a2d2d2d2d2d454e44205055424c4943204b45592d2d2d2d2d",
  "source": "pragma solidity >=0.4.21 <0.6.0;\n\ncontract Queue{\n  mapping(uint => uint) queue;\n  uint first;\n  uint last;\n  constructor() public{\n    first = 1;\n    last = 0;\n  }\n  function enqueue(uint data) public {\n      last += 1;\n      queue[last] = data;\n  }\n\n  function dequeue() public returns (uint) {\n    uint x=queue[first];\n    delete queue[first];\n    first += 1;\n    return x;\n  }\n  function isEmpty() public view returns (bool){\n    if(first>last)\n        return true;\n    else\n        return false;\n  }\n}\n\ncontract Registration{\n\n  address payable source;\n  address payable destination;\n  bool public transaction;\n\n  struct IOT{\n    address payable publicKey;\n    string encrypt;\n    uint faulty;\n    uint penaltytoken;\n    int x;\n    int y;\n    int z;\n    uint participating;\n    uint timestamp;\n    uint bcs;\n  }\n\n  struct route {\n    uint id;\n    address payable add;\n    string data;\n    uint timestamp;\n  }\n\n  uint[] list;\n  route[] Route;\n  mapping(address=> uint) blacklisted;\n  mapping (uint => IOT) registered;\n\n  mapping (address=>uint) pubToMac;\n\n  constructor() public{\n\n\n    transaction=false;\n    registered[1]=IOT(0x923eAb5F3174C5dF357ccaAEC450A3eFf027D8E2,\"-----BEGIN PUBLIC KEY-----\\nMIGfMA0GCSqGSIb3DQEBAQUAA4GNADCBiQKBgQDYnoGR9akTl9fkcQp9KDuzHHGX\\n4X6juW9+lZAL1OyTVpuCDxuxS1pCUM3wERt4zUgFidVm6JRiFOBmtmVMZft+A/c+\\n+pkeDoGg0wUG8Rkcz4fBktF6OQLg7Y3xOLEUxQkEm2fCyWPh2K8R45GOkopNc4GI\\nixT23IwOJs+VAKzxkwIDAQAB\\n-----END PUBLIC KEY-----\",0,0,0,0,0,1,0,1);\n    registered[2]=IOT(0xD538e4979b2960DAB7660652453C4bef1577b365,\"-----BEGIN PUBLIC KEY-----\\nMIGfMA0GCSqGSIb3DQEBAQUAA4GNADCBiQKBgQDgdeWGyxiFpHpochyYFMMywSPT\\nAgrX3T1bY4SwWbZsgSWi5AeosXkvRnBGCxHb7UCJctYTEv1Oq8GkBJK6cFx7Sj/O\\ndtF+McsB3QfgOsspcsEbJVYnvTWlfg2pdEWMZC9g2M0z3LudqSdQYKZjggnTbzf8\\newB5bC4XKIUZMYA/wwIDAQAB\\n-----END PUBLIC KEY-----\",0,0,4,0,0,1,0,1);\n    registered[3]=IOT(0xC9418A94E0e80c0f1a3BE2bf15D1a9beB7a3cdCA,\"-----BEGIN PUBLIC KEY-----\\nMIGfMA0GCSqGSIb3DQEBAQUAA4GNADCBiQKBgQCQZglkt9OPJRaGg+EzEEAptx45\\nIp04S8FpWQDPmWjyg4LxUoyYbUWI2YWJYekbwoijlbJWEzZM+Zd4buRnHP86280V\\nCNVRNZCURQwP62YgPvSrPfi0rzUVfCPGozuCip3VWWEEwe/jMnfBYaNovyOEXKbV\\nljjpoLdqfZ+MwhSEewIDAQAB\\n-----END PUBLIC KEY-----\",0,0,8,0,0,1,0,1);\n    registered[4]=IOT(0x15EEC3bfbBebBA4C8615995966C1198335a169F0,\"-----BEGIN PUBLIC KEY-----\\nMIGfMA0GCSqGSIb3DQEBAQUAA4GNADCBiQKBgQCe3b0CxPaPZ5yUXFMUZEyB2Pol\\nKGUSgHSeVA0vKBcJmL8S8xvnJF7VkiBdEt8j4tP0GLrw00HE4ALUc0Zd+7vT+Mn1\\nwfctt9MEwLeOgUUqFKtjQxPxIKicr2t90J+xytXC8idUX52WBBSNlXSZqwms1bey\\ncTWQUAgufncmHJkuxwIDAQAB\\n-----END PUBLIC KEY-----\",0,0,0,2,0,0,0,0);\n    registered[5]=IOT(0x12c3A5431b0B5995012fDe7976aaBEd676F2B443,\"-----BEGIN PUBLIC KEY-----\\nMIGfMA0GCSqGSIb3DQEBAQUAA4GNADCBiQKBgQCDpQL/h+9nYI60P2FTcUtA4gZv\\n0rOknWU3ozEt0NyW8YTjKZTClYy8vbdGHSYVbqhxcqcigVQaDFqZhJJeVQ/JK7bM\\nJG7v/AuFEjGu3UKfvIiDdSqA7GQnQHN4aT217A0MtaR9VTos4ytb5n1h+srIR8dr\\nA1Sbq0rTJCONEzN2wwIDAQAB\\n-----END PUBLIC KEY-----\",0,0,0,4,0,0,0,0);\n    registered[6]=IOT(0xaBFEACbFB9a9adf465f62A6e9d39301efeAaB755,\"-----BEGIN PUBLIC KEY-----\\nMIGfMA0GCSqGSIb3DQEBAQUAA4GNADCBiQKBgQC87aj11vwV/ji58cLigpHvcSTJ\\nteAdajJ3PwnUvHHCTjh5Rjh07sZOb1MV2vcOB6PmxlHqocqIEvmT1PBqIoLN9jpB\\nC/tbTWtDLafNEirdtszeUgP2s8vFzhK3F7YqNGHzz7HiOCV7FYVsDe4jyjV10vEf\\nB5tSXt0pH27LJipuZwIDAQAB\\n-----END PUBLIC KEY-----\",0,0,2,4,0,0,0,0);\n    registered[7]=IOT(0x81f6899B9EAB5DA73E08ab595ed426127dfBfF4f,\"-----BEGIN PUBLIC KEY-----\\nMIGfMA0GCSqGSIb3DQEBAQUAA4GNADCBiQKBgQDMJlsg3FieJsbC9xLGyFC8MdkE\\n9V0Yc33WjuZqU6ca7y7K3AUu+TsMYsKGAhQJvcNu5PxwZwfkudY+wIm//NroSt3s\\nGhrMkaNoFTAW1Uc8Q5Y77K1L/kp9M0be0UXXG5Qb3QZ/dczEDDpnm0iLHusTYz7R\\nnwOiJTtf9eGt5ClZ4wIDAQAB\\n-----END PUBLIC KEY-----\",0,0,4,4,0,0,0,0);\n    registered[8]=IOT(0xCC2900eEC5f3202Ecd76D6f9140E33c0Ac15F17f,\"-----BEGIN PUBLIC KEY-----\\nMIGfMA0GCSqGSIb3DQEBAQUAA4GNADCBiQKBgQD1UmkFyvP4PR6ceMCU9xiTBvA5\\nRHi7Q4W/XdrlRoqXH4tBgwtXPObLcppjtGcgsFt6gu7U82Wk1OZ8iREOyY1uNTKD\\n+aT3fXLtGbW6KDifeM5E69DOP2Vjfx61biCCNrjyMZj5qJvbinNvCo/Q37+0dGuU\\npKZ992fW4FzFTBMKvQIDAQAB\\n-----END PUBLIC KEY-----\",0,0,4,2,0,0,0,0);\n    registered[9]=IOT(0xe2BF3AB74B375d7Bacd555Cb894273142c96AE85,\"-----BEGIN PUBLIC KEY-----\\nMIGfMA0GCSqGSIb3DQEBAQUAA4GNADCBiQKBgQCttQB2CwXj1O+BNFwEkS3AZgVV\\nIMVCWPnFLSHIf4r89MilkT5bpLoZxtxt/xqktfm2Y4y2osHBg3oL+Zo163jI9/ra\\nWJGOOfrHhiGhkTvVap1zj2Ug84+BMVrjFYskoWLVm2AmX1A+T/QpUuloiSjef0Fb\\nnnAmnARbp0JRHn5atQIDAQAB\\n-----END PUBLIC KEY-----\",0,0,0,0,0,0,0,0);\n\n    blacklisted[0x15EEC3bfbBebBA4C8615995966C1198335a169F0]=10;\n\n    pubToMac[registered[1].publicKey]=1;\n    pubToMac[registered[2].publicKey]=2;\n    pubToMac[registered[3].publicKey]=3;\n    pubToMac[registered[4].publicKey]=4;\n    pubToMac[registered[5].publicKey]=5;\n    pubToMac[registered[6].publicKey]=6;\n    pubToMac[registered[7].publicKey]=7;\n    pubToMac[registered[8].publicKey]=8;\n    pubToMac[registered[9].publicKey]=9;\n\n\n\n    list.push(1);\n    list.push(2);\n    list.push(3);\n    list.push(4);\n    list.push(5);\n    list.push(6);\n    list.push(7);\n    list.push(8);\n    list.push(9);\n\n\n  }\n  function registration(string memory pubkey) public payable{\n    if(pubToMac[msg.sender]==0 && blacklisted[msg.sender]==0 && msg.value==5 ether)\n    {\n      list.push(list.length+1);\n      pubToMac[msg.sender]=list.length;\n      registered[pubToMac[msg.sender]].publicKey=msg.sender;\n      registered[pubToMac[msg.sender]].encrypt=pubkey;\n      registered[pubToMac[msg.sender]].faulty=0;\n      registered[pubToMac[msg.sender]].penaltytoken=0;\n      registered[pubToMac[msg.sender]].participating=0;\n      registered[pubToMac[msg.sender]].bcs=0;\n      registered[pubToMac[msg.sender]].x=0;\n      registered[pubToMac[msg.sender]].y=0;\n      registered[pubToMac[msg.sender]].z=0;\n\n    }\n    else\n      return;\n  }\n  function removeFromFaulty() public payable{\n    if(pubToMac[msg.sender]!=0 && registered[pubToMac[msg.sender]].faulty!=0)\n    {\n        if(registered[pubToMac[msg.sender]].penaltytoken == msg.value && (now-registered[pubToMac[msg.sender]].timestamp)<=registered[pubToMac[msg.sender]].faulty)\n        {\n          registered[pubToMac[msg.sender]].penaltytoken=0;\n          registered[pubToMac[msg.sender]].faulty=0;\n          registered[pubToMac[msg.sender]].timestamp=0;\n\n        }\n        else if( (now-registered[pubToMac[msg.sender]].timestamp)>registered[pubToMac[msg.sender]].faulty)\n        {\n            registered[pubToMac[msg.sender]].penaltytoken+=2 ether;\n            registered[pubToMac[msg.sender]].faulty+=10;\n            registered[pubToMac[msg.sender]].timestamp=now;\n\n        }\n        return;\n    }\n  }\n  function checkBlacklisted() public view returns(uint)\n  {\n    return blacklisted[msg.sender];\n  }\n}\n",
  "sourcePath": "/home/stellet/Desktop/blockchain/Major-Blockchain/src/contracts/UAV.sol",
  "compiler": {
    "name": "solc",
    "version": "0.5.0+commit.1d4f565a.Emscripten.clang"
  },
  "schemaVersion": "3.0.2",
  "updatedAt": "2020-05-24T00:22:31.284Z",
  "devdoc": {
    "methods": {}
  },
  "userdoc": {
    "methods": {}
  }
}